{
  "address": "0x0a3c75634C8a167eD82D2089F8B2Cba49b7685Ad",
  "abi": [
    {
      "inputs": [
        {
          "internalType": "address",
          "name": "oracle",
          "type": "address"
        },
        {
          "internalType": "uint64",
          "name": "_subscriptionId",
          "type": "uint64"
        },
        {
          "internalType": "string",
          "name": "_checkLogic",
          "type": "string"
        },
        {
          "internalType": "address",
          "name": "diceContract",
          "type": "address"
        },
        {
          "internalType": "address",
          "name": "promptContract",
          "type": "address"
        }
      ],
      "stateMutability": "nonpayable",
      "type": "constructor"
    },
    {
      "inputs": [],
      "name": "AccessControlBadConfirmation",
      "type": "error"
    },
    {
      "inputs": [
        {
          "internalType": "address",
          "name": "account",
          "type": "address"
        },
        {
          "internalType": "bytes32",
          "name": "neededRole",
          "type": "bytes32"
        }
      ],
      "name": "AccessControlUnauthorizedAccount",
      "type": "error"
    },
    {
      "inputs": [],
      "name": "EmptyArgs",
      "type": "error"
    },
    {
      "inputs": [],
      "name": "EmptySource",
      "type": "error"
    },
    {
      "inputs": [],
      "name": "RequestIsAlreadyPending",
      "type": "error"
    },
    {
      "inputs": [],
      "name": "RequestIsNotPending",
      "type": "error"
    },
    {
      "inputs": [],
      "name": "SenderIsNotRegistry",
      "type": "error"
    },
    {
      "anonymous": false,
      "inputs": [
        {
          "indexed": false,
          "internalType": "uint256",
          "name": "amount",
          "type": "uint256"
        },
        {
          "indexed": false,
          "internalType": "address",
          "name": "by",
          "type": "address"
        }
      ],
      "name": "Claimed",
      "type": "event"
    },
    {
      "anonymous": false,
      "inputs": [
        {
          "indexed": true,
          "internalType": "bytes32",
          "name": "requestId",
          "type": "bytes32"
        },
        {
          "indexed": false,
          "internalType": "bytes",
          "name": "result",
          "type": "bytes"
        },
        {
          "indexed": false,
          "internalType": "bytes",
          "name": "err",
          "type": "bytes"
        }
      ],
      "name": "OCRResponse",
      "type": "event"
    },
    {
      "anonymous": false,
      "inputs": [
        {
          "indexed": true,
          "internalType": "bytes32",
          "name": "id",
          "type": "bytes32"
        }
      ],
      "name": "RequestFulfilled",
      "type": "event"
    },
    {
      "anonymous": false,
      "inputs": [
        {
          "indexed": true,
          "internalType": "bytes32",
          "name": "id",
          "type": "bytes32"
        }
      ],
      "name": "RequestSent",
      "type": "event"
    },
    {
      "anonymous": false,
      "inputs": [
        {
          "indexed": true,
          "internalType": "bytes32",
          "name": "role",
          "type": "bytes32"
        },
        {
          "indexed": true,
          "internalType": "bytes32",
          "name": "previousAdminRole",
          "type": "bytes32"
        },
        {
          "indexed": true,
          "internalType": "bytes32",
          "name": "newAdminRole",
          "type": "bytes32"
        }
      ],
      "name": "RoleAdminChanged",
      "type": "event"
    },
    {
      "anonymous": false,
      "inputs": [
        {
          "indexed": true,
          "internalType": "bytes32",
          "name": "role",
          "type": "bytes32"
        },
        {
          "indexed": true,
          "internalType": "address",
          "name": "account",
          "type": "address"
        },
        {
          "indexed": true,
          "internalType": "address",
          "name": "sender",
          "type": "address"
        }
      ],
      "name": "RoleGranted",
      "type": "event"
    },
    {
      "anonymous": false,
      "inputs": [
        {
          "indexed": true,
          "internalType": "bytes32",
          "name": "role",
          "type": "bytes32"
        },
        {
          "indexed": true,
          "internalType": "address",
          "name": "account",
          "type": "address"
        },
        {
          "indexed": true,
          "internalType": "address",
          "name": "sender",
          "type": "address"
        }
      ],
      "name": "RoleRevoked",
      "type": "event"
    },
    {
      "inputs": [],
      "name": "DEFAULT_ADMIN_ROLE",
      "outputs": [
        {
          "internalType": "bytes32",
          "name": "",
          "type": "bytes32"
        }
      ],
      "stateMutability": "view",
      "type": "function"
    },
    {
      "inputs": [],
      "name": "WINNER_MANAGEMENT_ROLE",
      "outputs": [
        {
          "internalType": "bytes32",
          "name": "",
          "type": "bytes32"
        }
      ],
      "stateMutability": "view",
      "type": "function"
    },
    {
      "inputs": [
        {
          "components": [
            {
              "internalType": "enum Functions.Location",
              "name": "codeLocation",
              "type": "uint8"
            },
            {
              "internalType": "enum Functions.Location",
              "name": "secretsLocation",
              "type": "uint8"
            },
            {
              "internalType": "enum Functions.CodeLanguage",
              "name": "language",
              "type": "uint8"
            },
            {
              "internalType": "string",
              "name": "source",
              "type": "string"
            },
            {
              "internalType": "bytes",
              "name": "secrets",
              "type": "bytes"
            },
            {
              "internalType": "string[]",
              "name": "args",
              "type": "string[]"
            }
          ],
          "internalType": "struct Functions.Request",
          "name": "req",
          "type": "tuple"
        },
        {
          "internalType": "uint64",
          "name": "subscriptionId",
          "type": "uint64"
        },
        {
          "internalType": "uint32",
          "name": "gasLimit",
          "type": "uint32"
        },
        {
          "internalType": "uint256",
          "name": "gasPrice",
          "type": "uint256"
        }
      ],
      "name": "estimateCost",
      "outputs": [
        {
          "internalType": "uint96",
          "name": "",
          "type": "uint96"
        }
      ],
      "stateMutability": "view",
      "type": "function"
    },
    {
      "inputs": [],
      "name": "getDONPublicKey",
      "outputs": [
        {
          "internalType": "bytes",
          "name": "",
          "type": "bytes"
        }
      ],
      "stateMutability": "view",
      "type": "function"
    },
    {
      "inputs": [
        {
          "internalType": "bytes32",
          "name": "role",
          "type": "bytes32"
        }
      ],
      "name": "getRoleAdmin",
      "outputs": [
        {
          "internalType": "bytes32",
          "name": "",
          "type": "bytes32"
        }
      ],
      "stateMutability": "view",
      "type": "function"
    },
    {
      "inputs": [
        {
          "internalType": "string",
          "name": "weektimeStamp",
          "type": "string"
        }
      ],
      "name": "getWinner",
      "outputs": [],
      "stateMutability": "nonpayable",
      "type": "function"
    },
    {
      "inputs": [
        {
          "internalType": "bytes32",
          "name": "role",
          "type": "bytes32"
        },
        {
          "internalType": "address",
          "name": "account",
          "type": "address"
        }
      ],
      "name": "grantRole",
      "outputs": [],
      "stateMutability": "nonpayable",
      "type": "function"
    },
    {
      "inputs": [
        {
          "internalType": "bytes32",
          "name": "requestId",
          "type": "bytes32"
        },
        {
          "internalType": "bytes",
          "name": "response",
          "type": "bytes"
        },
        {
          "internalType": "bytes",
          "name": "err",
          "type": "bytes"
        }
      ],
      "name": "handleOracleFulfillment",
      "outputs": [],
      "stateMutability": "nonpayable",
      "type": "function"
    },
    {
      "inputs": [
        {
          "internalType": "bytes32",
          "name": "role",
          "type": "bytes32"
        },
        {
          "internalType": "address",
          "name": "account",
          "type": "address"
        }
      ],
      "name": "hasRole",
      "outputs": [
        {
          "internalType": "bool",
          "name": "",
          "type": "bool"
        }
      ],
      "stateMutability": "view",
      "type": "function"
    },
    {
      "inputs": [
        {
          "internalType": "bytes32",
          "name": "role",
          "type": "bytes32"
        },
        {
          "internalType": "address",
          "name": "callerConfirmation",
          "type": "address"
        }
      ],
      "name": "renounceRole",
      "outputs": [],
      "stateMutability": "nonpayable",
      "type": "function"
    },
    {
      "inputs": [
        {
          "internalType": "bytes32",
          "name": "role",
          "type": "bytes32"
        },
        {
          "internalType": "address",
          "name": "account",
          "type": "address"
        }
      ],
      "name": "revokeRole",
      "outputs": [],
      "stateMutability": "nonpayable",
      "type": "function"
    },
    {
      "inputs": [
        {
          "internalType": "bytes4",
          "name": "interfaceId",
          "type": "bytes4"
        }
      ],
      "name": "supportsInterface",
      "outputs": [
        {
          "internalType": "bool",
          "name": "",
          "type": "bool"
        }
      ],
      "stateMutability": "view",
      "type": "function"
    },
    {
      "inputs": [
        {
          "internalType": "address",
          "name": "oracle",
          "type": "address"
        }
      ],
      "name": "updateOracleAddress",
      "outputs": [],
      "stateMutability": "nonpayable",
      "type": "function"
    },
    {
      "inputs": [
        {
          "internalType": "string",
          "name": "",
          "type": "string"
        }
      ],
      "name": "usedRequests",
      "outputs": [
        {
          "internalType": "bool",
          "name": "",
          "type": "bool"
        }
      ],
      "stateMutability": "view",
      "type": "function"
    }
  ],
  "transactionHash": "0x71c3f8688de9d8737f4e4fd87ca747b2945ec32578de9ba6635682986d38d18b",
  "args": [
    "0xb83E47C2bC239B3bf370bc41e1459A34b41238D0",
    1839,
    "const weekTimestamp = args[0];\n// Add your API key here\nconst apiKey = \"testKey\";\n\nconst headers = {\n    Accept: \"application/json;\",\n    apiKey: \"testkey\", // Add your API key here\n};\nconst apiResponse = await Functions.makeHttpRequest({\n    url: 'https://ceptor-backend-staging.up.railway.app/mostLikedSubmission',\n    headers: headers,\n});\n\nconsole.log('API response:', JSON.stringify(apiResponse, null, 2));\n\nif (apiResponse.error) {\n    console.error(apiResponse.error);\n    throw Error(\"Request failed\");\n}\n\nconst { data } = apiResponse;\n\nconsole.log(\"API response data:\", JSON.stringify(data, null, 2));\n// function returns array of objects, we only need the first one\nconst { tokenID } = data[0];\n\nif (!tokenID) {\n    throw new Error('No token ID found in response:'+ JSON.stringify(data));\n}\n\nreturn Functions.encodeString(JSON.stringify({\n    tokenID\n}));",
    "0x45DB01904b51857F6279FE9006De25bf6dE8d136",
    "0xEc2df342d40D46fae8407F24f078138ec6d77FbA"
  ],
  "numDeployments": 1,
  "solcInputHash": "62ceeae2ea8e1ae74a0aaa313c6ef3af",
  "bytecode": "0x60806040523480156200001157600080fd5b506040516200367f3803806200367f833981810160405281019062000037919062000551565b8462000049816200015b60201b60201c565b5082600590816200005b919062000843565b5083600360006101000a81548167ffffffffffffffff021916908367ffffffffffffffff16021790555081600460006101000a81548173ffffffffffffffffffffffffffffffffffffffff021916908373ffffffffffffffffffffffffffffffffffffffff16021790555080600360086101000a81548173ffffffffffffffffffffffffffffffffffffffff021916908373ffffffffffffffffffffffffffffffffffffffff1602179055506200011c6000801b336200019f60201b60201c565b506200014f7f65ed2633bff6e3f94b4453c344b53d8117b45cfe449008f07c3fcadb0679d4f5336200019f60201b60201c565b5050505050506200092a565b80600160006101000a81548173ffffffffffffffffffffffffffffffffffffffff021916908373ffffffffffffffffffffffffffffffffffffffff16021790555050565b6000620001b38383620002a260201b60201c565b6200029757600160008085815260200190815260200160002060000160008473ffffffffffffffffffffffffffffffffffffffff1673ffffffffffffffffffffffffffffffffffffffff16815260200190815260200160002060006101000a81548160ff021916908315150217905550620002336200030c60201b60201c565b73ffffffffffffffffffffffffffffffffffffffff168273ffffffffffffffffffffffffffffffffffffffff16847f2f8788117e7eff1d82e926ec794901d17c78024a50270940304540a733656f0d60405160405180910390a4600190506200029c565b600090505b92915050565b600080600084815260200190815260200160002060000160008373ffffffffffffffffffffffffffffffffffffffff1673ffffffffffffffffffffffffffffffffffffffff16815260200190815260200160002060009054906101000a900460ff16905092915050565b600033905090565b6000604051905090565b600080fd5b600080fd5b600073ffffffffffffffffffffffffffffffffffffffff82169050919050565b6000620003558262000328565b9050919050565b620003678162000348565b81146200037357600080fd5b50565b60008151905062000387816200035c565b92915050565b600067ffffffffffffffff82169050919050565b620003ac816200038d565b8114620003b857600080fd5b50565b600081519050620003cc81620003a1565b92915050565b600080fd5b600080fd5b6000601f19601f8301169050919050565b7f4e487b7100000000000000000000000000000000000000000000000000000000600052604160045260246000fd5b6200042782620003dc565b810181811067ffffffffffffffff82111715620004495762000448620003ed565b5b80604052505050565b60006200045e62000314565b90506200046c82826200041c565b919050565b600067ffffffffffffffff8211156200048f576200048e620003ed565b5b6200049a82620003dc565b9050602081019050919050565b60005b83811015620004c7578082015181840152602081019050620004aa565b60008484015250505050565b6000620004ea620004e48462000471565b62000452565b905082815260208101848484011115620005095762000508620003d7565b5b62000516848285620004a7565b509392505050565b600082601f830112620005365762000535620003d2565b5b815162000548848260208601620004d3565b91505092915050565b600080600080600060a0868803121562000570576200056f6200031e565b5b6000620005808882890162000376565b95505060206200059388828901620003bb565b945050604086015167ffffffffffffffff811115620005b757620005b662000323565b5b620005c5888289016200051e565b9350506060620005d88882890162000376565b9250506080620005eb8882890162000376565b9150509295509295909350565b600081519050919050565b7f4e487b7100000000000000000000000000000000000000000000000000000000600052602260045260246000fd5b600060028204905060018216806200064b57607f821691505b60208210810362000661576200066062000603565b5b50919050565b60008190508160005260206000209050919050565b60006020601f8301049050919050565b600082821b905092915050565b600060088302620006cb7fffffffffffffffffffffffffffffffffffffffffffffffffffffffffffffffff826200068c565b620006d786836200068c565b95508019841693508086168417925050509392505050565b6000819050919050565b6000819050919050565b6000620007246200071e6200071884620006ef565b620006f9565b620006ef565b9050919050565b6000819050919050565b620007408362000703565b620007586200074f826200072b565b84845462000699565b825550505050565b600090565b6200076f62000760565b6200077c81848462000735565b505050565b5b81811015620007a4576200079860008262000765565b60018101905062000782565b5050565b601f821115620007f357620007bd8162000667565b620007c8846200067c565b81016020851015620007d8578190505b620007f0620007e7856200067c565b83018262000781565b50505b505050565b600082821c905092915050565b60006200081860001984600802620007f8565b1980831691505092915050565b600062000833838362000805565b9150826002028217905092915050565b6200084e82620005f8565b67ffffffffffffffff8111156200086a5762000869620003ed565b5b62000876825462000632565b62000883828285620007a8565b600060209050601f831160018114620008bb5760008415620008a6578287015190505b620008b2858262000825565b86555062000922565b601f198416620008cb8662000667565b60005b82811015620008f557848901518255600182019150602085019450602081019050620008ce565b8683101562000915578489015162000911601f89168262000805565b8355505b6001600288020188555050505b505050505050565b612d45806200093a6000396000f3fe608060405234801561001057600080fd5b50600436106100ea5760003560e01c806391d148541161008c578063d328a91e11610066578063d328a91e1461025b578063d4b3917514610279578063d547741f146102a9578063f7023bb6146102c5576100ea565b806391d14854146101ef578063a217fddf1461021f578063b2bb32c81461023d576100ea565b8063248a9ca3116100c8578063248a9ca31461016b5780632f2ff15d1461019b57806336568abe146101b75780635b80df90146101d3576100ea565b806301ffc9a7146100ef5780630ca761751461011f5780630f0a585f1461013b575b600080fd5b61010960048036038101906101049190611c26565b6102e1565b6040516101169190611c6e565b60405180910390f35b61013960048036038101906101349190611e05565b61035b565b005b61015560048036038101906101509190611f31565b610468565b6040516101629190611c6e565b60405180910390f35b61018560048036038101906101809190611f7a565b61049e565b6040516101929190611fb6565b60405180910390f35b6101b560048036038101906101b0919061202f565b6104bd565b005b6101d160048036038101906101cc919061202f565b6104df565b005b6101ed60048036038101906101e89190611f31565b61055a565b005b6102096004803603810190610204919061202f565b6106e3565b6040516102169190611c6e565b60405180910390f35b61022761074d565b6040516102349190611fb6565b60405180910390f35b610245610754565b6040516102529190611fb6565b60405180910390f35b610263610778565b60405161027091906120ee565b60405180910390f35b610293600480360381019061028e91906123f0565b610815565b6040516102a0919061249a565b60405180910390f35b6102c360048036038101906102be919061202f565b6108cb565b005b6102df60048036038101906102da91906124b5565b6108ed565b005b60007f7965db0b000000000000000000000000000000000000000000000000000000007bffffffffffffffffffffffffffffffffffffffffffffffffffffffff1916827bffffffffffffffffffffffffffffffffffffffffffffffffffffffff19161480610354575061035382610907565b5b9050919050565b826002600082815260200190815260200160002060009054906101000a900473ffffffffffffffffffffffffffffffffffffffff1673ffffffffffffffffffffffffffffffffffffffff163373ffffffffffffffffffffffffffffffffffffffff16146103f4576040517fa0c5ec6300000000000000000000000000000000000000000000000000000000815260040160405180910390fd5b6002600082815260200190815260200160002060006101000a81549073ffffffffffffffffffffffffffffffffffffffff0219169055807f85e1543bf2f84fe80c6badbce3648c8539ad1df4d2b3d822938ca0538be727e660405160405180910390a2610462848484610971565b50505050565b6006818051602081018201805184825260208301602085012081835280955050505050506000915054906101000a900460ff1681565b6000806000838152602001908152602001600020600101549050919050565b6104c68261049e565b6104cf81610d7a565b6104d98383610d8e565b50505050565b6104e7610e7f565b73ffffffffffffffffffffffffffffffffffffffff168173ffffffffffffffffffffffffffffffffffffffff161461054b576040517f6697b23200000000000000000000000000000000000000000000000000000000815260040160405180910390fd5b6105558282610e87565b505050565b7f65ed2633bff6e3f94b4453c344b53d8117b45cfe449008f07c3fcadb0679d4f561058481610d7a565b61058c611b35565b6000600167ffffffffffffffff8111156105a9576105a8611cda565b5b6040519080825280602002602001820160405280156105dc57816020015b60608152602001906001900390816105c75790505b50905083816000815181106105f4576105f36124e2565b5b60200260200101819052506106128183610f7990919063ffffffff16565b6106b46000806005805461062590612540565b80601f016020809104026020016040519081016040528092919081815260200182805461065190612540565b801561069e5780601f106106735761010080835404028352916020019161069e565b820191906000526020600020905b81548152906001019060200180831161068157829003601f168201915b505050505085610fc1909392919063ffffffff16565b60006106da83600360009054906101000a900467ffffffffffffffff16620493e061106b565b90505050505050565b600080600084815260200190815260200160002060000160008373ffffffffffffffffffffffffffffffffffffffff1673ffffffffffffffffffffffffffffffffffffffff16815260200190815260200160002060009054906101000a900460ff16905092915050565b6000801b81565b7f65ed2633bff6e3f94b4453c344b53d8117b45cfe449008f07c3fcadb0679d4f581565b6060600160009054906101000a900473ffffffffffffffffffffffffffffffffffffffff1673ffffffffffffffffffffffffffffffffffffffff1663d328a91e6040518163ffffffff1660e01b8152600401600060405180830381865afa1580156107e7573d6000803e3d6000fd5b505050506040513d6000823e3d601f19601f8201168201806040525081019061081091906125e1565b905090565b6000600160009054906101000a900473ffffffffffffffffffffffffffffffffffffffff1673ffffffffffffffffffffffffffffffffffffffff1663d227d2458561085f88611234565b86866040518563ffffffff1660e01b81526004016108809493929190612657565b602060405180830381865afa15801561089d573d6000803e3d6000fd5b505050506040513d601f19601f820116820180604052508101906108c191906126cf565b9050949350505050565b6108d48261049e565b6108dd81610d7a565b6108e78383610e87565b50505050565b6000801b6108fa81610d7a565b61090382611536565b5050565b60007f01ffc9a7000000000000000000000000000000000000000000000000000000007bffffffffffffffffffffffffffffffffffffffffffffffffffffffff1916827bffffffffffffffffffffffffffffffffffffffffffffffffffffffff1916149050919050565b827f7bab0ec163b5c132c72b8146ac4d6e067e82ed58f8b131150aa71c925891156283836040516109a39291906126fc565b60405180910390a26000828060200190518101906109c19190612748565b90506000600360089054906101000a900473ffffffffffffffffffffffffffffffffffffffff1673ffffffffffffffffffffffffffffffffffffffff16636352211e836040518263ffffffff1660e01b8152600401610a209190612775565b602060405180830381865afa158015610a3d573d6000803e3d6000fd5b505050506040513d601f19601f82011682018060405250810190610a6191906127a5565b90506000600467ffffffffffffffff811115610a8057610a7f611cda565b5b604051908082528060200260200182016040528015610aae5781602001602082028036833780820191505090505b509050600081600081518110610ac757610ac66124e2565b5b602002602001018181525050600181600181518110610ae957610ae86124e2565b5b602002602001018181525050600281600281518110610b0b57610b0a6124e2565b5b602002602001018181525050600381600381518110610b2d57610b2c6124e2565b5b602002602001018181525050600481600481518110610b4f57610b4e6124e2565b5b6020026020010181815250506000600467ffffffffffffffff811115610b7857610b77611cda565b5b604051908082528060200260200182016040528015610ba65781602001602082028036833780820191505090505b509050600181600081518110610bbf57610bbe6124e2565b5b602002602001018181525050600181600181518110610be157610be06124e2565b5b602002602001018181525050600181600281518110610c0357610c026124e2565b5b602002602001018181525050600181600381518110610c2557610c246124e2565b5b602002602001018181525050600181600481518110610c4757610c466124e2565b5b602002602001018181525050600460009054906101000a900473ffffffffffffffffffffffffffffffffffffffff1673ffffffffffffffffffffffffffffffffffffffff166301febe178484846040518463ffffffff1660e01b8152600401610cb2939291906128c5565b600060405180830381600087803b158015610ccc57600080fd5b505af1158015610ce0573d6000803e3d6000fd5b50505050600460009054906101000a900473ffffffffffffffffffffffffffffffffffffffff1673ffffffffffffffffffffffffffffffffffffffff1663984d6663846040518263ffffffff1660e01b8152600401610d3f919061291d565b600060405180830381600087803b158015610d5957600080fd5b505af1158015610d6d573d6000803e3d6000fd5b5050505050505050505050565b610d8b81610d86610e7f565b61157a565b50565b6000610d9a83836106e3565b610e7457600160008085815260200190815260200160002060000160008473ffffffffffffffffffffffffffffffffffffffff1673ffffffffffffffffffffffffffffffffffffffff16815260200190815260200160002060006101000a81548160ff021916908315150217905550610e11610e7f565b73ffffffffffffffffffffffffffffffffffffffff168273ffffffffffffffffffffffffffffffffffffffff16847f2f8788117e7eff1d82e926ec794901d17c78024a50270940304540a733656f0d60405160405180910390a460019050610e79565b600090505b92915050565b600033905090565b6000610e9383836106e3565b15610f6e57600080600085815260200190815260200160002060000160008473ffffffffffffffffffffffffffffffffffffffff1673ffffffffffffffffffffffffffffffffffffffff16815260200190815260200160002060006101000a81548160ff021916908315150217905550610f0b610e7f565b73ffffffffffffffffffffffffffffffffffffffff168273ffffffffffffffffffffffffffffffffffffffff16847ff6391f5c32d9c69d2a47ea670b442974b53935d1edc7fd64eb21e047a839171b60405160405180910390a460019050610f73565b600090505b92915050565b6000815103610fb4576040517ffe936cb700000000000000000000000000000000000000000000000000000000815260040160405180910390fd5b808260a001819052505050565b6000815103610ffc576040517f22ce3edd00000000000000000000000000000000000000000000000000000000815260040160405180910390fd5b828460000190600181111561101457611013612938565b5b9081600181111561102857611027612938565b5b81525050818460400190600081111561104457611043612938565b5b9081600081111561105857611057612938565b5b8152505080846060018190525050505050565b600080600160009054906101000a900473ffffffffffffffffffffffffffffffffffffffff1673ffffffffffffffffffffffffffffffffffffffff166328242b04856110b688611234565b866040518463ffffffff1660e01b81526004016110d593929190612967565b6020604051808303816000875af11580156110f4573d6000803e3d6000fd5b505050506040513d601f19601f8201168201806040525081019061111891906129ba565b9050600160009054906101000a900473ffffffffffffffffffffffffffffffffffffffff1673ffffffffffffffffffffffffffffffffffffffff16635ab1bd536040518163ffffffff1660e01b8152600401602060405180830381865afa158015611187573d6000803e3d6000fd5b505050506040513d601f19601f820116820180604052508101906111ab91906127a5565b6002600083815260200190815260200160002060006101000a81548173ffffffffffffffffffffffffffffffffffffffff021916908373ffffffffffffffffffffffffffffffffffffffff160217905550807f1131472297a800fee664d1d89cfa8f7676ff07189ecc53f80bbb5f4969099db860405160405180910390a2809150509392505050565b606061123e611ba0565b61124a816101006115cb565b506112936040518060400160405280600c81526020017f636f64654c6f636174696f6e00000000000000000000000000000000000000008152508261163590919063ffffffff16565b6112bc836000015160018111156112ad576112ac612938565b5b8261165a90919063ffffffff16565b6113046040518060400160405280600881526020017f6c616e67756167650000000000000000000000000000000000000000000000008152508261163590919063ffffffff16565b61132d8360400151600081111561131e5761131d612938565b5b8261165a90919063ffffffff16565b6113756040518060400160405280600681526020017f736f7572636500000000000000000000000000000000000000000000000000008152508261163590919063ffffffff16565b61138c83606001518261163590919063ffffffff16565b60008360a0015151111561144a576113e26040518060400160405280600481526020017f61726773000000000000000000000000000000000000000000000000000000008152508261163590919063ffffffff16565b6113eb8161168a565b60005b8360a001515181101561143f5761142c8460a001518281518110611415576114146124e2565b5b60200260200101518361163590919063ffffffff16565b808061143790612a16565b9150506113ee565b5061144981611698565b5b60008360800151511115611529576114a06040518060400160405280600f81526020017f736563726574734c6f636174696f6e00000000000000000000000000000000008152508261163590919063ffffffff16565b6114c9836020015160018111156114ba576114b9612938565b5b8261165a90919063ffffffff16565b6115116040518060400160405280600781526020017f73656372657473000000000000000000000000000000000000000000000000008152508261163590919063ffffffff16565b6115288360800151826116a690919063ffffffff16565b5b8060000151915050919050565b80600160006101000a81548173ffffffffffffffffffffffffffffffffffffffff021916908373ffffffffffffffffffffffffffffffffffffffff16021790555050565b61158482826106e3565b6115c75780826040517fe2517d3f0000000000000000000000000000000000000000000000000000000081526004016115be929190612a5e565b60405180910390fd5b5050565b6115d3611ba0565b60006020836115e29190612ab6565b1461160e576020826115f49190612ab6565b60206116009190612ae7565b8261160b9190612b1b565b91505b81836020018181525050604051808452600081528281016020016040525082905092915050565b61164282600383516116cb565b611655818361185090919063ffffffff16565b505050565b67ffffffffffffffff811115611679576116748282611872565b611686565b611685826000836116cb565b5b5050565b6116958160046118be565b50565b6116a38160076118be565b50565b6116b382600283516116cb565b6116c6818361185090919063ffffffff16565b505050565b60178167ffffffffffffffff1611611702576116fc8160058460ff16901b60ff1617846118e090919063ffffffff16565b5061184b565b60ff8167ffffffffffffffff161161175857611731601860058460ff16901b17846118e090919063ffffffff16565b506117528167ffffffffffffffff166001856119009092919063ffffffff16565b5061184a565b61ffff8167ffffffffffffffff16116117af57611788601960058460ff16901b17846118e090919063ffffffff16565b506117a98167ffffffffffffffff166002856119009092919063ffffffff16565b50611849565b63ffffffff8167ffffffffffffffff1611611808576117e1601a60058460ff16901b17846118e090919063ffffffff16565b506118028167ffffffffffffffff166004856119009092919063ffffffff16565b50611848565b611825601b60058460ff16901b17846118e090919063ffffffff16565b506118468167ffffffffffffffff166008856119009092919063ffffffff16565b505b5b5b5b505050565b611858611ba0565b61186a83846000015151848551611922565b905092915050565b61189060026005600660ff16901b17836118e090919063ffffffff16565b506118ba82826040516020016118a69190612775565b6040516020818303038152906040526116a6565b5050565b6118db601f60058360ff16901b17836118e090919063ffffffff16565b505050565b6118e8611ba0565b6118f88384600001515184611a11565b905092915050565b611908611ba0565b611919848560000151518585611a67565b90509392505050565b61192a611ba0565b825182111561193857600080fd5b846020015182856119499190612b1b565b111561197e5761197d85600261196e886020015188876119699190612b1b565b611af5565b6119789190612b4f565b611b11565b5b60008086518051876020830101935080888701111561199d5787860182525b60208701925050505b602084106119e457805182526020826119bf9190612b1b565b91506020816119ce9190612b1b565b90506020846119dd9190612ae7565b93506119a6565b60006001856020036101000a03905080198251168184511681811785525050508692505050949350505050565b611a19611ba0565b83602001518310611a3f57611a3e8460028660200151611a399190612b4f565b611b11565b5b83518051602085830101848153818603611a5a576001820183525b5050508390509392505050565b611a6f611ba0565b84602001518483611a809190612b1b565b1115611aa857611aa78560028685611a989190612b1b565b611aa29190612b4f565b611b11565b5b6000600183610100611aba9190612cc4565b611ac49190612ae7565b90508551838682010185831982511617815281518588011115611ae75784870182525b505085915050949350505050565b600081831115611b0757829050611b0b565b8190505b92915050565b600082600001519050611b2483836115cb565b50611b2f8382611850565b50505050565b6040518060c0016040528060006001811115611b5457611b53612938565b5b815260200160006001811115611b6d57611b6c612938565b5b8152602001600080811115611b8557611b84612938565b5b81526020016060815260200160608152602001606081525090565b604051806040016040528060608152602001600081525090565b6000604051905090565b600080fd5b600080fd5b60007fffffffff0000000000000000000000000000000000000000000000000000000082169050919050565b611c0381611bce565b8114611c0e57600080fd5b50565b600081359050611c2081611bfa565b92915050565b600060208284031215611c3c57611c3b611bc4565b5b6000611c4a84828501611c11565b91505092915050565b60008115159050919050565b611c6881611c53565b82525050565b6000602082019050611c836000830184611c5f565b92915050565b6000819050919050565b611c9c81611c89565b8114611ca757600080fd5b50565b600081359050611cb981611c93565b92915050565b600080fd5b600080fd5b6000601f19601f8301169050919050565b7f4e487b7100000000000000000000000000000000000000000000000000000000600052604160045260246000fd5b611d1282611cc9565b810181811067ffffffffffffffff82111715611d3157611d30611cda565b5b80604052505050565b6000611d44611bba565b9050611d508282611d09565b919050565b600067ffffffffffffffff821115611d7057611d6f611cda565b5b611d7982611cc9565b9050602081019050919050565b82818337600083830152505050565b6000611da8611da384611d55565b611d3a565b905082815260208101848484011115611dc457611dc3611cc4565b5b611dcf848285611d86565b509392505050565b600082601f830112611dec57611deb611cbf565b5b8135611dfc848260208601611d95565b91505092915050565b600080600060608486031215611e1e57611e1d611bc4565b5b6000611e2c86828701611caa565b935050602084013567ffffffffffffffff811115611e4d57611e4c611bc9565b5b611e5986828701611dd7565b925050604084013567ffffffffffffffff811115611e7a57611e79611bc9565b5b611e8686828701611dd7565b9150509250925092565b600067ffffffffffffffff821115611eab57611eaa611cda565b5b611eb482611cc9565b9050602081019050919050565b6000611ed4611ecf84611e90565b611d3a565b905082815260208101848484011115611ef057611eef611cc4565b5b611efb848285611d86565b509392505050565b600082601f830112611f1857611f17611cbf565b5b8135611f28848260208601611ec1565b91505092915050565b600060208284031215611f4757611f46611bc4565b5b600082013567ffffffffffffffff811115611f6557611f64611bc9565b5b611f7184828501611f03565b91505092915050565b600060208284031215611f9057611f8f611bc4565b5b6000611f9e84828501611caa565b91505092915050565b611fb081611c89565b82525050565b6000602082019050611fcb6000830184611fa7565b92915050565b600073ffffffffffffffffffffffffffffffffffffffff82169050919050565b6000611ffc82611fd1565b9050919050565b61200c81611ff1565b811461201757600080fd5b50565b60008135905061202981612003565b92915050565b6000806040838503121561204657612045611bc4565b5b600061205485828601611caa565b92505060206120658582860161201a565b9150509250929050565b600081519050919050565b600082825260208201905092915050565b60005b838110156120a957808201518184015260208101905061208e565b60008484015250505050565b60006120c08261206f565b6120ca818561207a565b93506120da81856020860161208b565b6120e381611cc9565b840191505092915050565b6000602082019050818103600083015261210881846120b5565b905092915050565b600080fd5b600080fd5b6002811061212757600080fd5b50565b6000813590506121398161211a565b92915050565b6001811061214c57600080fd5b50565b60008135905061215e8161213f565b92915050565b600067ffffffffffffffff82111561217f5761217e611cda565b5b602082029050602081019050919050565b600080fd5b60006121a86121a384612164565b611d3a565b905080838252602082019050602084028301858111156121cb576121ca612190565b5b835b8181101561221257803567ffffffffffffffff8111156121f0576121ef611cbf565b5b8086016121fd8982611f03565b855260208501945050506020810190506121cd565b5050509392505050565b600082601f83011261223157612230611cbf565b5b8135612241848260208601612195565b91505092915050565b600060c082840312156122605761225f612110565b5b61226a60c0611d3a565b9050600061227a8482850161212a565b600083015250602061228e8482850161212a565b60208301525060406122a28482850161214f565b604083015250606082013567ffffffffffffffff8111156122c6576122c5612115565b5b6122d284828501611f03565b606083015250608082013567ffffffffffffffff8111156122f6576122f5612115565b5b61230284828501611dd7565b60808301525060a082013567ffffffffffffffff81111561232657612325612115565b5b6123328482850161221c565b60a08301525092915050565b600067ffffffffffffffff82169050919050565b61235b8161233e565b811461236657600080fd5b50565b60008135905061237881612352565b92915050565b600063ffffffff82169050919050565b6123978161237e565b81146123a257600080fd5b50565b6000813590506123b48161238e565b92915050565b6000819050919050565b6123cd816123ba565b81146123d857600080fd5b50565b6000813590506123ea816123c4565b92915050565b6000806000806080858703121561240a57612409611bc4565b5b600085013567ffffffffffffffff81111561242857612427611bc9565b5b6124348782880161224a565b945050602061244587828801612369565b9350506040612456878288016123a5565b9250506060612467878288016123db565b91505092959194509250565b60006bffffffffffffffffffffffff82169050919050565b61249481612473565b82525050565b60006020820190506124af600083018461248b565b92915050565b6000602082840312156124cb576124ca611bc4565b5b60006124d98482850161201a565b91505092915050565b7f4e487b7100000000000000000000000000000000000000000000000000000000600052603260045260246000fd5b7f4e487b7100000000000000000000000000000000000000000000000000000000600052602260045260246000fd5b6000600282049050600182168061255857607f821691505b60208210810361256b5761256a612511565b5b50919050565b600061258461257f84611d55565b611d3a565b9050828152602081018484840111156125a05761259f611cc4565b5b6125ab84828561208b565b509392505050565b600082601f8301126125c8576125c7611cbf565b5b81516125d8848260208601612571565b91505092915050565b6000602082840312156125f7576125f6611bc4565b5b600082015167ffffffffffffffff81111561261557612614611bc9565b5b612621848285016125b3565b91505092915050565b6126338161233e565b82525050565b6126428161237e565b82525050565b612651816123ba565b82525050565b600060808201905061266c600083018761262a565b818103602083015261267e81866120b5565b905061268d6040830185612639565b61269a6060830184612648565b95945050505050565b6126ac81612473565b81146126b757600080fd5b50565b6000815190506126c9816126a3565b92915050565b6000602082840312156126e5576126e4611bc4565b5b60006126f3848285016126ba565b91505092915050565b6000604082019050818103600083015261271681856120b5565b9050818103602083015261272a81846120b5565b90509392505050565b600081519050612742816123c4565b92915050565b60006020828403121561275e5761275d611bc4565b5b600061276c84828501612733565b91505092915050565b600060208201905061278a6000830184612648565b92915050565b60008151905061279f81612003565b92915050565b6000602082840312156127bb576127ba611bc4565b5b60006127c984828501612790565b91505092915050565b6127db81611ff1565b82525050565b600081519050919050565b600082825260208201905092915050565b6000819050602082019050919050565b612816816123ba565b82525050565b6000612828838361280d565b60208301905092915050565b6000602082019050919050565b600061284c826127e1565b61285681856127ec565b9350612861836127fd565b8060005b83811015612892578151612879888261281c565b975061288483612834565b925050600181019050612865565b5085935050505092915050565b50565b60006128af60008361207a565b91506128ba8261289f565b600082019050919050565b60006080820190506128da60008301866127d2565b81810360208301526128ec8185612841565b905081810360408301526129008184612841565b90508181036060830152612913816128a2565b9050949350505050565b600060208201905061293260008301846127d2565b92915050565b7f4e487b7100000000000000000000000000000000000000000000000000000000600052602160045260246000fd5b600060608201905061297c600083018661262a565b818103602083015261298e81856120b5565b905061299d6040830184612639565b949350505050565b6000815190506129b481611c93565b92915050565b6000602082840312156129d0576129cf611bc4565b5b60006129de848285016129a5565b91505092915050565b7f4e487b7100000000000000000000000000000000000000000000000000000000600052601160045260246000fd5b6000612a21826123ba565b91507fffffffffffffffffffffffffffffffffffffffffffffffffffffffffffffffff8203612a5357612a526129e7565b5b600182019050919050565b6000604082019050612a7360008301856127d2565b612a806020830184611fa7565b9392505050565b7f4e487b7100000000000000000000000000000000000000000000000000000000600052601260045260246000fd5b6000612ac1826123ba565b9150612acc836123ba565b925082612adc57612adb612a87565b5b828206905092915050565b6000612af2826123ba565b9150612afd836123ba565b9250828203905081811115612b1557612b146129e7565b5b92915050565b6000612b26826123ba565b9150612b31836123ba565b9250828201905080821115612b4957612b486129e7565b5b92915050565b6000612b5a826123ba565b9150612b65836123ba565b9250828202612b73816123ba565b91508282048414831517612b8a57612b896129e7565b5b5092915050565b60008160011c9050919050565b6000808291508390505b6001851115612be857808604811115612bc457612bc36129e7565b5b6001851615612bd35780820291505b8081029050612be185612b91565b9450612ba8565b94509492505050565b600082612c015760019050612cbd565b81612c0f5760009050612cbd565b8160018114612c255760028114612c2f57612c5e565b6001915050612cbd565b60ff841115612c4157612c406129e7565b5b8360020a915084821115612c5857612c576129e7565b5b50612cbd565b5060208310610133831016604e8410600b8410161715612c935782820a905083811115612c8e57612c8d6129e7565b5b612cbd565b612ca08484846001612b9e565b92509050818404811115612cb757612cb66129e7565b5b81810290505b9392505050565b6000612ccf826123ba565b9150612cda836123ba565b9250612d077fffffffffffffffffffffffffffffffffffffffffffffffffffffffffffffffff8484612bf1565b90509291505056fea2646970667358221220caeedaec4c3f789da2954c893fe5036b4f6b0ea83b38b2d65e2d555a8d7acb6f64736f6c63430008140033",
  "devdoc": {
    "author": "Eman Herawy",
    "details": "Manages minting Dice NFTs for the most-liked POW NFT each week. Consumes Chainlink function to call the API and retrieve winning NFT. This contract must have the minter role in the Dices contract.",
    "errors": {
      "AccessControlBadConfirmation()": [
        {
          "details": "The caller of a function is not the expected one. NOTE: Don't confuse with {AccessControlUnauthorizedAccount}."
        }
      ],
      "AccessControlUnauthorizedAccount(address,bytes32)": [
        {
          "details": "The `account` is missing a role."
        }
      ]
    },
    "events": {
      "RoleAdminChanged(bytes32,bytes32,bytes32)": {
        "details": "Emitted when `newAdminRole` is set as ``role``'s admin role, replacing `previousAdminRole` `DEFAULT_ADMIN_ROLE` is the starting admin for all roles, despite {RoleAdminChanged} not being emitted signaling this."
      },
      "RoleGranted(bytes32,address,address)": {
        "details": "Emitted when `account` is granted `role`. `sender` is the account that originated the contract call, an admin role bearer except when using {AccessControl-_setupRole}."
      },
      "RoleRevoked(bytes32,address,address)": {
        "details": "Emitted when `account` is revoked `role`. `sender` is the account that originated the contract call:   - if using `revokeRole`, it is the admin role bearer   - if using `renounceRole`, it is the role bearer (i.e. `account`)"
      }
    },
    "kind": "dev",
    "methods": {
      "constructor": {
        "details": "Constructor initializes the contract with the specified oracle, subscription ID, check logic, and contract addresses."
      },
      "estimateCost((uint8,uint8,uint8,string,bytes,string[]),uint64,uint32,uint256)": {
        "params": {
          "gasLimit": "gas limit for the fulfillment callback",
          "req": "The initialized Functions.Request",
          "subscriptionId": "The subscription ID"
        },
        "returns": {
          "_0": "billedCost Cost in Juels (1e18) of LINK"
        }
      },
      "getDONPublicKey()": {
        "details": "All Oracles nodes have the corresponding private key needed to decrypt the secrets encrypted with the public key",
        "returns": {
          "_0": "publicKey DON's public key"
        }
      },
      "getRoleAdmin(bytes32)": {
        "details": "Returns the admin role that controls `role`. See {grantRole} and {revokeRole}. To change a role's admin, use {_setRoleAdmin}."
      },
      "grantRole(bytes32,address)": {
        "details": "Grants `role` to `account`. If `account` had not been already granted `role`, emits a {RoleGranted} event. Requirements: - the caller must have ``role``'s admin role. May emit a {RoleGranted} event."
      },
      "handleOracleFulfillment(bytes32,bytes,bytes)": {
        "params": {
          "err": "Aggregated error either from the user code or from the execution pipeline. Either response or error parameter will be set, but never both.",
          "requestId": "The requestId returned by FunctionsClient.sendRequest().",
          "response": "Aggregated response from the user code."
        }
      },
      "hasRole(bytes32,address)": {
        "details": "Returns `true` if `account` has been granted `role`."
      },
      "renounceRole(bytes32,address)": {
        "details": "Revokes `role` from the calling account. Roles are often managed via {grantRole} and {revokeRole}: this function's purpose is to provide a mechanism for accounts to lose their privileges if they are compromised (such as when a trusted device is misplaced). If the calling account had been revoked `role`, emits a {RoleRevoked} event. Requirements: - the caller must be `callerConfirmation`. May emit a {RoleRevoked} event."
      },
      "revokeRole(bytes32,address)": {
        "details": "Revokes `role` from `account`. If `account` had been granted `role`, emits a {RoleRevoked} event. Requirements: - the caller must have ``role``'s admin role. May emit a {RoleRevoked} event."
      },
      "supportsInterface(bytes4)": {
        "details": "See {IERC165-supportsInterface}."
      },
      "updateOracleAddress(address)": {
        "params": {
          "oracle": "New oracle address."
        }
      }
    },
    "title": "Reward Contract",
    "version": 1
  },
  "userdoc": {
    "kind": "user",
    "methods": {
      "estimateCost((uint8,uint8,uint8,string,bytes,string[]),uint64,uint32,uint256)": {
        "notice": "Estimate the total cost that will be charged to a subscription to make a request: gas re-imbursement, plus DON fee, plus Registry fee"
      },
      "getDONPublicKey()": {
        "notice": "Returns the DON's secp256k1 public key used to encrypt secrets"
      },
      "getWinner(string)": {
        "notice": "Sends a request to the Chainlink oracle to get the winner."
      },
      "handleOracleFulfillment(bytes32,bytes,bytes)": {
        "notice": "Chainlink Functions response handler called by the designated transmitter node in an OCR round."
      },
      "updateOracleAddress(address)": {
        "notice": "Allows the Functions oracle address to be updated."
      }
    },
    "version": 1
  },
  "storageLayout": {
    "storage": [
      {
        "astId": 2746,
        "contract": "src/Reward.sol:Reward",
        "label": "_roles",
        "offset": 0,
        "slot": "0",
        "type": "t_mapping(t_bytes32,t_struct(RoleData)2741_storage)"
      },
      {
        "astId": 1067,
        "contract": "src/Reward.sol:Reward",
        "label": "s_oracle",
        "offset": 0,
        "slot": "1",
        "type": "t_contract(FunctionsOracleInterface)1496"
      },
      {
        "astId": 1071,
        "contract": "src/Reward.sol:Reward",
        "label": "s_pendingRequests",
        "offset": 0,
        "slot": "2",
        "type": "t_mapping(t_bytes32,t_address)"
      },
      {
        "astId": 10522,
        "contract": "src/Reward.sol:Reward",
        "label": "subscriptionId",
        "offset": 0,
        "slot": "3",
        "type": "t_uint64"
      },
      {
        "astId": 10525,
        "contract": "src/Reward.sol:Reward",
        "label": "prompt",
        "offset": 8,
        "slot": "3",
        "type": "t_contract(PromptCollection)10503"
      },
      {
        "astId": 10528,
        "contract": "src/Reward.sol:Reward",
        "label": "dice",
        "offset": 0,
        "slot": "4",
        "type": "t_contract(CeptorDice)9690"
      },
      {
        "astId": 10530,
        "contract": "src/Reward.sol:Reward",
        "label": "checkLogic",
        "offset": 0,
        "slot": "5",
        "type": "t_string_storage"
      },
      {
        "astId": 10534,
        "contract": "src/Reward.sol:Reward",
        "label": "usedRequests",
        "offset": 0,
        "slot": "6",
        "type": "t_mapping(t_string_memory_ptr,t_bool)"
      }
    ],
    "types": {
      "t_address": {
        "encoding": "inplace",
        "label": "address",
        "numberOfBytes": "20"
      },
      "t_bool": {
        "encoding": "inplace",
        "label": "bool",
        "numberOfBytes": "1"
      },
      "t_bytes32": {
        "encoding": "inplace",
        "label": "bytes32",
        "numberOfBytes": "32"
      },
      "t_contract(CeptorDice)9690": {
        "encoding": "inplace",
        "label": "contract CeptorDice",
        "numberOfBytes": "20"
      },
      "t_contract(FunctionsOracleInterface)1496": {
        "encoding": "inplace",
        "label": "contract FunctionsOracleInterface",
        "numberOfBytes": "20"
      },
      "t_contract(PromptCollection)10503": {
        "encoding": "inplace",
        "label": "contract PromptCollection",
        "numberOfBytes": "20"
      },
      "t_mapping(t_address,t_bool)": {
        "encoding": "mapping",
        "key": "t_address",
        "label": "mapping(address => bool)",
        "numberOfBytes": "32",
        "value": "t_bool"
      },
      "t_mapping(t_bytes32,t_address)": {
        "encoding": "mapping",
        "key": "t_bytes32",
        "label": "mapping(bytes32 => address)",
        "numberOfBytes": "32",
        "value": "t_address"
      },
      "t_mapping(t_bytes32,t_struct(RoleData)2741_storage)": {
        "encoding": "mapping",
        "key": "t_bytes32",
        "label": "mapping(bytes32 => struct AccessControl.RoleData)",
        "numberOfBytes": "32",
        "value": "t_struct(RoleData)2741_storage"
      },
      "t_mapping(t_string_memory_ptr,t_bool)": {
        "encoding": "mapping",
        "key": "t_string_memory_ptr",
        "label": "mapping(string => bool)",
        "numberOfBytes": "32",
        "value": "t_bool"
      },
      "t_string_memory_ptr": {
        "encoding": "bytes",
        "label": "string",
        "numberOfBytes": "32"
      },
      "t_string_storage": {
        "encoding": "bytes",
        "label": "string",
        "numberOfBytes": "32"
      },
      "t_struct(RoleData)2741_storage": {
        "encoding": "inplace",
        "label": "struct AccessControl.RoleData",
        "members": [
          {
            "astId": 2738,
            "contract": "src/Reward.sol:Reward",
            "label": "hasRole",
            "offset": 0,
            "slot": "0",
            "type": "t_mapping(t_address,t_bool)"
          },
          {
            "astId": 2740,
            "contract": "src/Reward.sol:Reward",
            "label": "adminRole",
            "offset": 0,
            "slot": "1",
            "type": "t_bytes32"
          }
        ],
        "numberOfBytes": "64"
      },
      "t_uint64": {
        "encoding": "inplace",
        "label": "uint64",
        "numberOfBytes": "8"
      }
    }
  }
}