{
  "address": "0x45DB01904b51857F6279FE9006De25bf6dE8d136",
  "abi": [
    {
      "inputs": [
        {
          "internalType": "address",
          "name": "oracle",
          "type": "address"
        },
        {
          "internalType": "uint64",
          "name": "_subscriptionId",
          "type": "uint64"
        },
        {
          "internalType": "string",
          "name": "_checkLogic",
          "type": "string"
        },
        {
          "internalType": "address",
          "name": "diceContract",
          "type": "address"
        },
        {
          "internalType": "address",
          "name": "promptContract",
          "type": "address"
        }
      ],
      "stateMutability": "nonpayable",
      "type": "constructor"
    },
    {
      "inputs": [],
      "name": "AccessControlBadConfirmation",
      "type": "error"
    },
    {
      "inputs": [
        {
          "internalType": "address",
          "name": "account",
          "type": "address"
        },
        {
          "internalType": "bytes32",
          "name": "neededRole",
          "type": "bytes32"
        }
      ],
      "name": "AccessControlUnauthorizedAccount",
      "type": "error"
    },
    {
      "inputs": [],
      "name": "EmptyArgs",
      "type": "error"
    },
    {
      "inputs": [],
      "name": "EmptySource",
      "type": "error"
    },
    {
      "inputs": [],
      "name": "RequestIsAlreadyPending",
      "type": "error"
    },
    {
      "inputs": [],
      "name": "RequestIsNotPending",
      "type": "error"
    },
    {
      "inputs": [],
      "name": "SenderIsNotRegistry",
      "type": "error"
    },
    {
      "anonymous": false,
      "inputs": [
        {
          "indexed": false,
          "internalType": "uint256",
          "name": "amount",
          "type": "uint256"
        },
        {
          "indexed": false,
          "internalType": "address",
          "name": "by",
          "type": "address"
        }
      ],
      "name": "Claimed",
      "type": "event"
    },
    {
      "anonymous": false,
      "inputs": [
        {
          "indexed": true,
          "internalType": "bytes32",
          "name": "requestId",
          "type": "bytes32"
        },
        {
          "indexed": false,
          "internalType": "bytes",
          "name": "result",
          "type": "bytes"
        },
        {
          "indexed": false,
          "internalType": "bytes",
          "name": "err",
          "type": "bytes"
        }
      ],
      "name": "OCRResponse",
      "type": "event"
    },
    {
      "anonymous": false,
      "inputs": [
        {
          "indexed": true,
          "internalType": "bytes32",
          "name": "id",
          "type": "bytes32"
        }
      ],
      "name": "RequestFulfilled",
      "type": "event"
    },
    {
      "anonymous": false,
      "inputs": [
        {
          "indexed": true,
          "internalType": "bytes32",
          "name": "id",
          "type": "bytes32"
        }
      ],
      "name": "RequestSent",
      "type": "event"
    },
    {
      "anonymous": false,
      "inputs": [
        {
          "indexed": true,
          "internalType": "bytes32",
          "name": "role",
          "type": "bytes32"
        },
        {
          "indexed": true,
          "internalType": "bytes32",
          "name": "previousAdminRole",
          "type": "bytes32"
        },
        {
          "indexed": true,
          "internalType": "bytes32",
          "name": "newAdminRole",
          "type": "bytes32"
        }
      ],
      "name": "RoleAdminChanged",
      "type": "event"
    },
    {
      "anonymous": false,
      "inputs": [
        {
          "indexed": true,
          "internalType": "bytes32",
          "name": "role",
          "type": "bytes32"
        },
        {
          "indexed": true,
          "internalType": "address",
          "name": "account",
          "type": "address"
        },
        {
          "indexed": true,
          "internalType": "address",
          "name": "sender",
          "type": "address"
        }
      ],
      "name": "RoleGranted",
      "type": "event"
    },
    {
      "anonymous": false,
      "inputs": [
        {
          "indexed": true,
          "internalType": "bytes32",
          "name": "role",
          "type": "bytes32"
        },
        {
          "indexed": true,
          "internalType": "address",
          "name": "account",
          "type": "address"
        },
        {
          "indexed": true,
          "internalType": "address",
          "name": "sender",
          "type": "address"
        }
      ],
      "name": "RoleRevoked",
      "type": "event"
    },
    {
      "inputs": [],
      "name": "DEFAULT_ADMIN_ROLE",
      "outputs": [
        {
          "internalType": "bytes32",
          "name": "",
          "type": "bytes32"
        }
      ],
      "stateMutability": "view",
      "type": "function"
    },
    {
      "inputs": [],
      "name": "WINNER_MANAGEMENT_ROLE",
      "outputs": [
        {
          "internalType": "bytes32",
          "name": "",
          "type": "bytes32"
        }
      ],
      "stateMutability": "view",
      "type": "function"
    },
    {
      "inputs": [
        {
          "components": [
            {
              "internalType": "enum Functions.Location",
              "name": "codeLocation",
              "type": "uint8"
            },
            {
              "internalType": "enum Functions.Location",
              "name": "secretsLocation",
              "type": "uint8"
            },
            {
              "internalType": "enum Functions.CodeLanguage",
              "name": "language",
              "type": "uint8"
            },
            {
              "internalType": "string",
              "name": "source",
              "type": "string"
            },
            {
              "internalType": "bytes",
              "name": "secrets",
              "type": "bytes"
            },
            {
              "internalType": "string[]",
              "name": "args",
              "type": "string[]"
            }
          ],
          "internalType": "struct Functions.Request",
          "name": "req",
          "type": "tuple"
        },
        {
          "internalType": "uint64",
          "name": "subscriptionId",
          "type": "uint64"
        },
        {
          "internalType": "uint32",
          "name": "gasLimit",
          "type": "uint32"
        },
        {
          "internalType": "uint256",
          "name": "gasPrice",
          "type": "uint256"
        }
      ],
      "name": "estimateCost",
      "outputs": [
        {
          "internalType": "uint96",
          "name": "",
          "type": "uint96"
        }
      ],
      "stateMutability": "view",
      "type": "function"
    },
    {
      "inputs": [],
      "name": "getDONPublicKey",
      "outputs": [
        {
          "internalType": "bytes",
          "name": "",
          "type": "bytes"
        }
      ],
      "stateMutability": "view",
      "type": "function"
    },
    {
      "inputs": [
        {
          "internalType": "bytes32",
          "name": "role",
          "type": "bytes32"
        }
      ],
      "name": "getRoleAdmin",
      "outputs": [
        {
          "internalType": "bytes32",
          "name": "",
          "type": "bytes32"
        }
      ],
      "stateMutability": "view",
      "type": "function"
    },
    {
      "inputs": [
        {
          "internalType": "string",
          "name": "weektimeStamp",
          "type": "string"
        }
      ],
      "name": "getWinner",
      "outputs": [],
      "stateMutability": "nonpayable",
      "type": "function"
    },
    {
      "inputs": [
        {
          "internalType": "bytes32",
          "name": "role",
          "type": "bytes32"
        },
        {
          "internalType": "address",
          "name": "account",
          "type": "address"
        }
      ],
      "name": "grantRole",
      "outputs": [],
      "stateMutability": "nonpayable",
      "type": "function"
    },
    {
      "inputs": [
        {
          "internalType": "bytes32",
          "name": "requestId",
          "type": "bytes32"
        },
        {
          "internalType": "bytes",
          "name": "response",
          "type": "bytes"
        },
        {
          "internalType": "bytes",
          "name": "err",
          "type": "bytes"
        }
      ],
      "name": "handleOracleFulfillment",
      "outputs": [],
      "stateMutability": "nonpayable",
      "type": "function"
    },
    {
      "inputs": [
        {
          "internalType": "bytes32",
          "name": "role",
          "type": "bytes32"
        },
        {
          "internalType": "address",
          "name": "account",
          "type": "address"
        }
      ],
      "name": "hasRole",
      "outputs": [
        {
          "internalType": "bool",
          "name": "",
          "type": "bool"
        }
      ],
      "stateMutability": "view",
      "type": "function"
    },
    {
      "inputs": [
        {
          "internalType": "bytes32",
          "name": "role",
          "type": "bytes32"
        },
        {
          "internalType": "address",
          "name": "callerConfirmation",
          "type": "address"
        }
      ],
      "name": "renounceRole",
      "outputs": [],
      "stateMutability": "nonpayable",
      "type": "function"
    },
    {
      "inputs": [
        {
          "internalType": "bytes32",
          "name": "role",
          "type": "bytes32"
        },
        {
          "internalType": "address",
          "name": "account",
          "type": "address"
        }
      ],
      "name": "revokeRole",
      "outputs": [],
      "stateMutability": "nonpayable",
      "type": "function"
    },
    {
      "inputs": [
        {
          "internalType": "bytes4",
          "name": "interfaceId",
          "type": "bytes4"
        }
      ],
      "name": "supportsInterface",
      "outputs": [
        {
          "internalType": "bool",
          "name": "",
          "type": "bool"
        }
      ],
      "stateMutability": "view",
      "type": "function"
    },
    {
      "inputs": [
        {
          "internalType": "address",
          "name": "oracle",
          "type": "address"
        }
      ],
      "name": "updateOracleAddress",
      "outputs": [],
      "stateMutability": "nonpayable",
      "type": "function"
    },
    {
      "inputs": [
        {
          "internalType": "string",
          "name": "",
          "type": "string"
        }
      ],
      "name": "usedRequests",
      "outputs": [
        {
          "internalType": "bool",
          "name": "",
          "type": "bool"
        }
      ],
      "stateMutability": "view",
      "type": "function"
    }
  ],
  "transactionHash": "0xad0f472d9d273e9021d827024ed185142ae6b5695a610d6f591c201e2a64e624",
  "args": [
    "0x6E2dc0F9DB014aE19888F539E59285D2Ea04244C",
    338,
    "const weekTimestamp = args[0];\n// Add your API key here\nconst apiKey = \"testKey\";\n\nconst headers = {\n    Accept: \"application/json;\",\n    apiKey: \"testkey\", // Add your API key here\n};\nconst apiResponse = await Functions.makeHttpRequest({\n    url: 'https://ceptor-backend-staging.up.railway.app/mostLikedSubmission',\n    headers: headers,\n});\n\nconsole.log('API response:', JSON.stringify(apiResponse, null, 2));\n\nif (apiResponse.error) {\n    console.error(apiResponse.error);\n    throw Error(\"Request failed\");\n}\n\nconst { data } = apiResponse;\n\nconsole.log(\"API response data:\", JSON.stringify(data, null, 2));\n// function returns array of objects, we only need the first one\nconst { tokenID } = data[0];\n\nif (!tokenID) {\n    throw new Error('No token ID found in response:'+ JSON.stringify(data));\n}\n\nreturn Functions.encodeString(JSON.stringify({\n    tokenID\n}));",
    "0xB4e5136F4BADDdF23a720A14a6a0D0d60A5ee9ee",
    "0x557d4b0a566613f344E2F5a9bc4FC52F6897B372"
  ],
  "numDeployments": 1,
  "solcInputHash": "1f4e6da2c94745478c3d611057414288",
  "bytecode": "0x60806040523480156200001157600080fd5b506040516200359338038062003593833981810160405281019062000037919062000551565b8462000049816200015b60201b60201c565b5082600590816200005b919062000843565b5083600360006101000a81548167ffffffffffffffff021916908367ffffffffffffffff16021790555081600460006101000a81548173ffffffffffffffffffffffffffffffffffffffff021916908373ffffffffffffffffffffffffffffffffffffffff16021790555080600360086101000a81548173ffffffffffffffffffffffffffffffffffffffff021916908373ffffffffffffffffffffffffffffffffffffffff1602179055506200011c6000801b336200019f60201b60201c565b506200014f7f65ed2633bff6e3f94b4453c344b53d8117b45cfe449008f07c3fcadb0679d4f5336200019f60201b60201c565b5050505050506200092a565b80600160006101000a81548173ffffffffffffffffffffffffffffffffffffffff021916908373ffffffffffffffffffffffffffffffffffffffff16021790555050565b6000620001b38383620002a260201b60201c565b6200029757600160008085815260200190815260200160002060000160008473ffffffffffffffffffffffffffffffffffffffff1673ffffffffffffffffffffffffffffffffffffffff16815260200190815260200160002060006101000a81548160ff021916908315150217905550620002336200030c60201b60201c565b73ffffffffffffffffffffffffffffffffffffffff168273ffffffffffffffffffffffffffffffffffffffff16847f2f8788117e7eff1d82e926ec794901d17c78024a50270940304540a733656f0d60405160405180910390a4600190506200029c565b600090505b92915050565b600080600084815260200190815260200160002060000160008373ffffffffffffffffffffffffffffffffffffffff1673ffffffffffffffffffffffffffffffffffffffff16815260200190815260200160002060009054906101000a900460ff16905092915050565b600033905090565b6000604051905090565b600080fd5b600080fd5b600073ffffffffffffffffffffffffffffffffffffffff82169050919050565b6000620003558262000328565b9050919050565b620003678162000348565b81146200037357600080fd5b50565b60008151905062000387816200035c565b92915050565b600067ffffffffffffffff82169050919050565b620003ac816200038d565b8114620003b857600080fd5b50565b600081519050620003cc81620003a1565b92915050565b600080fd5b600080fd5b6000601f19601f8301169050919050565b7f4e487b7100000000000000000000000000000000000000000000000000000000600052604160045260246000fd5b6200042782620003dc565b810181811067ffffffffffffffff82111715620004495762000448620003ed565b5b80604052505050565b60006200045e62000314565b90506200046c82826200041c565b919050565b600067ffffffffffffffff8211156200048f576200048e620003ed565b5b6200049a82620003dc565b9050602081019050919050565b60005b83811015620004c7578082015181840152602081019050620004aa565b60008484015250505050565b6000620004ea620004e48462000471565b62000452565b905082815260208101848484011115620005095762000508620003d7565b5b62000516848285620004a7565b509392505050565b600082601f830112620005365762000535620003d2565b5b815162000548848260208601620004d3565b91505092915050565b600080600080600060a0868803121562000570576200056f6200031e565b5b6000620005808882890162000376565b95505060206200059388828901620003bb565b945050604086015167ffffffffffffffff811115620005b757620005b662000323565b5b620005c5888289016200051e565b9350506060620005d88882890162000376565b9250506080620005eb8882890162000376565b9150509295509295909350565b600081519050919050565b7f4e487b7100000000000000000000000000000000000000000000000000000000600052602260045260246000fd5b600060028204905060018216806200064b57607f821691505b60208210810362000661576200066062000603565b5b50919050565b60008190508160005260206000209050919050565b60006020601f8301049050919050565b600082821b905092915050565b600060088302620006cb7fffffffffffffffffffffffffffffffffffffffffffffffffffffffffffffffff826200068c565b620006d786836200068c565b95508019841693508086168417925050509392505050565b6000819050919050565b6000819050919050565b6000620007246200071e6200071884620006ef565b620006f9565b620006ef565b9050919050565b6000819050919050565b620007408362000703565b620007586200074f826200072b565b84845462000699565b825550505050565b600090565b6200076f62000760565b6200077c81848462000735565b505050565b5b81811015620007a4576200079860008262000765565b60018101905062000782565b5050565b601f821115620007f357620007bd8162000667565b620007c8846200067c565b81016020851015620007d8578190505b620007f0620007e7856200067c565b83018262000781565b50505b505050565b600082821c905092915050565b60006200081860001984600802620007f8565b1980831691505092915050565b600062000833838362000805565b9150826002028217905092915050565b6200084e82620005f8565b67ffffffffffffffff8111156200086a5762000869620003ed565b5b62000876825462000632565b62000883828285620007a8565b600060209050601f831160018114620008bb5760008415620008a6578287015190505b620008b2858262000825565b86555062000922565b601f198416620008cb8662000667565b60005b82811015620008f557848901518255600182019150602085019450602081019050620008ce565b8683101562000915578489015162000911601f89168262000805565b8355505b6001600288020188555050505b505050505050565b612c59806200093a6000396000f3fe608060405234801561001057600080fd5b50600436106100ea5760003560e01c806391d148541161008c578063d328a91e11610066578063d328a91e1461025b578063d4b3917514610279578063d547741f146102a9578063f7023bb6146102c5576100ea565b806391d14854146101ef578063a217fddf1461021f578063b2bb32c81461023d576100ea565b8063248a9ca3116100c8578063248a9ca31461016b5780632f2ff15d1461019b57806336568abe146101b75780635b80df90146101d3576100ea565b806301ffc9a7146100ef5780630ca761751461011f5780630f0a585f1461013b575b600080fd5b61010960048036038101906101049190611b55565b6102e1565b6040516101169190611b9d565b60405180910390f35b61013960048036038101906101349190611d34565b61035b565b005b61015560048036038101906101509190611e60565b610468565b6040516101629190611b9d565b60405180910390f35b61018560048036038101906101809190611ea9565b61049e565b6040516101929190611ee5565b60405180910390f35b6101b560048036038101906101b09190611f5e565b6104bd565b005b6101d160048036038101906101cc9190611f5e565b6104df565b005b6101ed60048036038101906101e89190611e60565b61055a565b005b61020960048036038101906102049190611f5e565b6106e3565b6040516102169190611b9d565b60405180910390f35b61022761074d565b6040516102349190611ee5565b60405180910390f35b610245610754565b6040516102529190611ee5565b60405180910390f35b610263610778565b604051610270919061201d565b60405180910390f35b610293600480360381019061028e919061231f565b610815565b6040516102a091906123c9565b60405180910390f35b6102c360048036038101906102be9190611f5e565b6108cb565b005b6102df60048036038101906102da91906123e4565b6108ed565b005b60007f7965db0b000000000000000000000000000000000000000000000000000000007bffffffffffffffffffffffffffffffffffffffffffffffffffffffff1916827bffffffffffffffffffffffffffffffffffffffffffffffffffffffff19161480610354575061035382610907565b5b9050919050565b826002600082815260200190815260200160002060009054906101000a900473ffffffffffffffffffffffffffffffffffffffff1673ffffffffffffffffffffffffffffffffffffffff163373ffffffffffffffffffffffffffffffffffffffff16146103f4576040517fa0c5ec6300000000000000000000000000000000000000000000000000000000815260040160405180910390fd5b6002600082815260200190815260200160002060006101000a81549073ffffffffffffffffffffffffffffffffffffffff0219169055807f85e1543bf2f84fe80c6badbce3648c8539ad1df4d2b3d822938ca0538be727e660405160405180910390a2610462848484610971565b50505050565b6006818051602081018201805184825260208301602085012081835280955050505050506000915054906101000a900460ff1681565b6000806000838152602001908152602001600020600101549050919050565b6104c68261049e565b6104cf81610ca9565b6104d98383610cbd565b50505050565b6104e7610dae565b73ffffffffffffffffffffffffffffffffffffffff168173ffffffffffffffffffffffffffffffffffffffff161461054b576040517f6697b23200000000000000000000000000000000000000000000000000000000815260040160405180910390fd5b6105558282610db6565b505050565b7f65ed2633bff6e3f94b4453c344b53d8117b45cfe449008f07c3fcadb0679d4f561058481610ca9565b61058c611a64565b6000600167ffffffffffffffff8111156105a9576105a8611c09565b5b6040519080825280602002602001820160405280156105dc57816020015b60608152602001906001900390816105c75790505b50905083816000815181106105f4576105f3612411565b5b60200260200101819052506106128183610ea890919063ffffffff16565b6106b4600080600580546106259061246f565b80601f01602080910402602001604051908101604052809291908181526020018280546106519061246f565b801561069e5780601f106106735761010080835404028352916020019161069e565b820191906000526020600020905b81548152906001019060200180831161068157829003601f168201915b505050505085610ef0909392919063ffffffff16565b60006106da83600360009054906101000a900467ffffffffffffffff16620493e0610f9a565b90505050505050565b600080600084815260200190815260200160002060000160008373ffffffffffffffffffffffffffffffffffffffff1673ffffffffffffffffffffffffffffffffffffffff16815260200190815260200160002060009054906101000a900460ff16905092915050565b6000801b81565b7f65ed2633bff6e3f94b4453c344b53d8117b45cfe449008f07c3fcadb0679d4f581565b6060600160009054906101000a900473ffffffffffffffffffffffffffffffffffffffff1673ffffffffffffffffffffffffffffffffffffffff1663d328a91e6040518163ffffffff1660e01b8152600401600060405180830381865afa1580156107e7573d6000803e3d6000fd5b505050506040513d6000823e3d601f19601f820116820180604052508101906108109190612510565b905090565b6000600160009054906101000a900473ffffffffffffffffffffffffffffffffffffffff1673ffffffffffffffffffffffffffffffffffffffff1663d227d2458561085f88611163565b86866040518563ffffffff1660e01b81526004016108809493929190612586565b602060405180830381865afa15801561089d573d6000803e3d6000fd5b505050506040513d601f19601f820116820180604052508101906108c191906125fe565b9050949350505050565b6108d48261049e565b6108dd81610ca9565b6108e78383610db6565b50505050565b6000801b6108fa81610ca9565b61090382611465565b5050565b60007f01ffc9a7000000000000000000000000000000000000000000000000000000007bffffffffffffffffffffffffffffffffffffffffffffffffffffffff1916827bffffffffffffffffffffffffffffffffffffffffffffffffffffffff1916149050919050565b827f7bab0ec163b5c132c72b8146ac4d6e067e82ed58f8b131150aa71c925891156283836040516109a392919061262b565b60405180910390a26000828060200190518101906109c19190612677565b90506000600360089054906101000a900473ffffffffffffffffffffffffffffffffffffffff1673ffffffffffffffffffffffffffffffffffffffff16636352211e836040518263ffffffff1660e01b8152600401610a2091906126a4565b602060405180830381865afa158015610a3d573d6000803e3d6000fd5b505050506040513d601f19601f82011682018060405250810190610a6191906126d4565b90506000600467ffffffffffffffff811115610a8057610a7f611c09565b5b604051908082528060200260200182016040528015610aae5781602001602082028036833780820191505090505b509050600081600081518110610ac757610ac6612411565b5b602002602001018181525050600181600181518110610ae957610ae8612411565b5b602002602001018181525050600281600281518110610b0b57610b0a612411565b5b602002602001018181525050600381600381518110610b2d57610b2c612411565b5b6020026020010181815250506000600467ffffffffffffffff811115610b5657610b55611c09565b5b604051908082528060200260200182016040528015610b845781602001602082028036833780820191505090505b509050600181600081518110610b9d57610b9c612411565b5b602002602001018181525050600181600181518110610bbf57610bbe612411565b5b602002602001018181525050600181600281518110610be157610be0612411565b5b602002602001018181525050600181600381518110610c0357610c02612411565b5b602002602001018181525050600460009054906101000a900473ffffffffffffffffffffffffffffffffffffffff1673ffffffffffffffffffffffffffffffffffffffff166301febe178484846040518463ffffffff1660e01b8152600401610c6e939291906127f4565b600060405180830381600087803b158015610c8857600080fd5b505af1158015610c9c573d6000803e3d6000fd5b5050505050505050505050565b610cba81610cb5610dae565b6114a9565b50565b6000610cc983836106e3565b610da357600160008085815260200190815260200160002060000160008473ffffffffffffffffffffffffffffffffffffffff1673ffffffffffffffffffffffffffffffffffffffff16815260200190815260200160002060006101000a81548160ff021916908315150217905550610d40610dae565b73ffffffffffffffffffffffffffffffffffffffff168273ffffffffffffffffffffffffffffffffffffffff16847f2f8788117e7eff1d82e926ec794901d17c78024a50270940304540a733656f0d60405160405180910390a460019050610da8565b600090505b92915050565b600033905090565b6000610dc283836106e3565b15610e9d57600080600085815260200190815260200160002060000160008473ffffffffffffffffffffffffffffffffffffffff1673ffffffffffffffffffffffffffffffffffffffff16815260200190815260200160002060006101000a81548160ff021916908315150217905550610e3a610dae565b73ffffffffffffffffffffffffffffffffffffffff168273ffffffffffffffffffffffffffffffffffffffff16847ff6391f5c32d9c69d2a47ea670b442974b53935d1edc7fd64eb21e047a839171b60405160405180910390a460019050610ea2565b600090505b92915050565b6000815103610ee3576040517ffe936cb700000000000000000000000000000000000000000000000000000000815260040160405180910390fd5b808260a001819052505050565b6000815103610f2b576040517f22ce3edd00000000000000000000000000000000000000000000000000000000815260040160405180910390fd5b8284600001906001811115610f4357610f4261284c565b5b90816001811115610f5757610f5661284c565b5b815250508184604001906000811115610f7357610f7261284c565b5b90816000811115610f8757610f8661284c565b5b8152505080846060018190525050505050565b600080600160009054906101000a900473ffffffffffffffffffffffffffffffffffffffff1673ffffffffffffffffffffffffffffffffffffffff166328242b0485610fe588611163565b866040518463ffffffff1660e01b81526004016110049392919061287b565b6020604051808303816000875af1158015611023573d6000803e3d6000fd5b505050506040513d601f19601f8201168201806040525081019061104791906128ce565b9050600160009054906101000a900473ffffffffffffffffffffffffffffffffffffffff1673ffffffffffffffffffffffffffffffffffffffff16635ab1bd536040518163ffffffff1660e01b8152600401602060405180830381865afa1580156110b6573d6000803e3d6000fd5b505050506040513d601f19601f820116820180604052508101906110da91906126d4565b6002600083815260200190815260200160002060006101000a81548173ffffffffffffffffffffffffffffffffffffffff021916908373ffffffffffffffffffffffffffffffffffffffff160217905550807f1131472297a800fee664d1d89cfa8f7676ff07189ecc53f80bbb5f4969099db860405160405180910390a2809150509392505050565b606061116d611acf565b611179816101006114fa565b506111c26040518060400160405280600c81526020017f636f64654c6f636174696f6e00000000000000000000000000000000000000008152508261156490919063ffffffff16565b6111eb836000015160018111156111dc576111db61284c565b5b8261158990919063ffffffff16565b6112336040518060400160405280600881526020017f6c616e67756167650000000000000000000000000000000000000000000000008152508261156490919063ffffffff16565b61125c8360400151600081111561124d5761124c61284c565b5b8261158990919063ffffffff16565b6112a46040518060400160405280600681526020017f736f7572636500000000000000000000000000000000000000000000000000008152508261156490919063ffffffff16565b6112bb83606001518261156490919063ffffffff16565b60008360a00151511115611379576113116040518060400160405280600481526020017f61726773000000000000000000000000000000000000000000000000000000008152508261156490919063ffffffff16565b61131a816115b9565b60005b8360a001515181101561136e5761135b8460a00151828151811061134457611343612411565b5b60200260200101518361156490919063ffffffff16565b80806113669061292a565b91505061131d565b50611378816115c7565b5b60008360800151511115611458576113cf6040518060400160405280600f81526020017f736563726574734c6f636174696f6e00000000000000000000000000000000008152508261156490919063ffffffff16565b6113f8836020015160018111156113e9576113e861284c565b5b8261158990919063ffffffff16565b6114406040518060400160405280600781526020017f73656372657473000000000000000000000000000000000000000000000000008152508261156490919063ffffffff16565b6114578360800151826115d590919063ffffffff16565b5b8060000151915050919050565b80600160006101000a81548173ffffffffffffffffffffffffffffffffffffffff021916908373ffffffffffffffffffffffffffffffffffffffff16021790555050565b6114b382826106e3565b6114f65780826040517fe2517d3f0000000000000000000000000000000000000000000000000000000081526004016114ed929190612972565b60405180910390fd5b5050565b611502611acf565b600060208361151191906129ca565b1461153d5760208261152391906129ca565b602061152f91906129fb565b8261153a9190612a2f565b91505b81836020018181525050604051808452600081528281016020016040525082905092915050565b61157182600383516115fa565b611584818361177f90919063ffffffff16565b505050565b67ffffffffffffffff8111156115a8576115a382826117a1565b6115b5565b6115b4826000836115fa565b5b5050565b6115c48160046117ed565b50565b6115d28160076117ed565b50565b6115e282600283516115fa565b6115f5818361177f90919063ffffffff16565b505050565b60178167ffffffffffffffff16116116315761162b8160058460ff16901b60ff16178461180f90919063ffffffff16565b5061177a565b60ff8167ffffffffffffffff161161168757611660601860058460ff16901b178461180f90919063ffffffff16565b506116818167ffffffffffffffff1660018561182f9092919063ffffffff16565b50611779565b61ffff8167ffffffffffffffff16116116de576116b7601960058460ff16901b178461180f90919063ffffffff16565b506116d88167ffffffffffffffff1660028561182f9092919063ffffffff16565b50611778565b63ffffffff8167ffffffffffffffff161161173757611710601a60058460ff16901b178461180f90919063ffffffff16565b506117318167ffffffffffffffff1660048561182f9092919063ffffffff16565b50611777565b611754601b60058460ff16901b178461180f90919063ffffffff16565b506117758167ffffffffffffffff1660088561182f9092919063ffffffff16565b505b5b5b5b505050565b611787611acf565b61179983846000015151848551611851565b905092915050565b6117bf60026005600660ff16901b178361180f90919063ffffffff16565b506117e982826040516020016117d591906126a4565b6040516020818303038152906040526115d5565b5050565b61180a601f60058360ff16901b178361180f90919063ffffffff16565b505050565b611817611acf565b6118278384600001515184611940565b905092915050565b611837611acf565b611848848560000151518585611996565b90509392505050565b611859611acf565b825182111561186757600080fd5b846020015182856118789190612a2f565b11156118ad576118ac85600261189d886020015188876118989190612a2f565b611a24565b6118a79190612a63565b611a40565b5b6000808651805187602083010193508088870111156118cc5787860182525b60208701925050505b6020841061191357805182526020826118ee9190612a2f565b91506020816118fd9190612a2f565b905060208461190c91906129fb565b93506118d5565b60006001856020036101000a03905080198251168184511681811785525050508692505050949350505050565b611948611acf565b8360200151831061196e5761196d84600286602001516119689190612a63565b611a40565b5b83518051602085830101848153818603611989576001820183525b5050508390509392505050565b61199e611acf565b846020015184836119af9190612a2f565b11156119d7576119d685600286856119c79190612a2f565b6119d19190612a63565b611a40565b5b60006001836101006119e99190612bd8565b6119f391906129fb565b90508551838682010185831982511617815281518588011115611a165784870182525b505085915050949350505050565b600081831115611a3657829050611a3a565b8190505b92915050565b600082600001519050611a5383836114fa565b50611a5e838261177f565b50505050565b6040518060c0016040528060006001811115611a8357611a8261284c565b5b815260200160006001811115611a9c57611a9b61284c565b5b8152602001600080811115611ab457611ab361284c565b5b81526020016060815260200160608152602001606081525090565b604051806040016040528060608152602001600081525090565b6000604051905090565b600080fd5b600080fd5b60007fffffffff0000000000000000000000000000000000000000000000000000000082169050919050565b611b3281611afd565b8114611b3d57600080fd5b50565b600081359050611b4f81611b29565b92915050565b600060208284031215611b6b57611b6a611af3565b5b6000611b7984828501611b40565b91505092915050565b60008115159050919050565b611b9781611b82565b82525050565b6000602082019050611bb26000830184611b8e565b92915050565b6000819050919050565b611bcb81611bb8565b8114611bd657600080fd5b50565b600081359050611be881611bc2565b92915050565b600080fd5b600080fd5b6000601f19601f8301169050919050565b7f4e487b7100000000000000000000000000000000000000000000000000000000600052604160045260246000fd5b611c4182611bf8565b810181811067ffffffffffffffff82111715611c6057611c5f611c09565b5b80604052505050565b6000611c73611ae9565b9050611c7f8282611c38565b919050565b600067ffffffffffffffff821115611c9f57611c9e611c09565b5b611ca882611bf8565b9050602081019050919050565b82818337600083830152505050565b6000611cd7611cd284611c84565b611c69565b905082815260208101848484011115611cf357611cf2611bf3565b5b611cfe848285611cb5565b509392505050565b600082601f830112611d1b57611d1a611bee565b5b8135611d2b848260208601611cc4565b91505092915050565b600080600060608486031215611d4d57611d4c611af3565b5b6000611d5b86828701611bd9565b935050602084013567ffffffffffffffff811115611d7c57611d7b611af8565b5b611d8886828701611d06565b925050604084013567ffffffffffffffff811115611da957611da8611af8565b5b611db586828701611d06565b9150509250925092565b600067ffffffffffffffff821115611dda57611dd9611c09565b5b611de382611bf8565b9050602081019050919050565b6000611e03611dfe84611dbf565b611c69565b905082815260208101848484011115611e1f57611e1e611bf3565b5b611e2a848285611cb5565b509392505050565b600082601f830112611e4757611e46611bee565b5b8135611e57848260208601611df0565b91505092915050565b600060208284031215611e7657611e75611af3565b5b600082013567ffffffffffffffff811115611e9457611e93611af8565b5b611ea084828501611e32565b91505092915050565b600060208284031215611ebf57611ebe611af3565b5b6000611ecd84828501611bd9565b91505092915050565b611edf81611bb8565b82525050565b6000602082019050611efa6000830184611ed6565b92915050565b600073ffffffffffffffffffffffffffffffffffffffff82169050919050565b6000611f2b82611f00565b9050919050565b611f3b81611f20565b8114611f4657600080fd5b50565b600081359050611f5881611f32565b92915050565b60008060408385031215611f7557611f74611af3565b5b6000611f8385828601611bd9565b9250506020611f9485828601611f49565b9150509250929050565b600081519050919050565b600082825260208201905092915050565b60005b83811015611fd8578082015181840152602081019050611fbd565b60008484015250505050565b6000611fef82611f9e565b611ff98185611fa9565b9350612009818560208601611fba565b61201281611bf8565b840191505092915050565b600060208201905081810360008301526120378184611fe4565b905092915050565b600080fd5b600080fd5b6002811061205657600080fd5b50565b60008135905061206881612049565b92915050565b6001811061207b57600080fd5b50565b60008135905061208d8161206e565b92915050565b600067ffffffffffffffff8211156120ae576120ad611c09565b5b602082029050602081019050919050565b600080fd5b60006120d76120d284612093565b611c69565b905080838252602082019050602084028301858111156120fa576120f96120bf565b5b835b8181101561214157803567ffffffffffffffff81111561211f5761211e611bee565b5b80860161212c8982611e32565b855260208501945050506020810190506120fc565b5050509392505050565b600082601f8301126121605761215f611bee565b5b81356121708482602086016120c4565b91505092915050565b600060c0828403121561218f5761218e61203f565b5b61219960c0611c69565b905060006121a984828501612059565b60008301525060206121bd84828501612059565b60208301525060406121d18482850161207e565b604083015250606082013567ffffffffffffffff8111156121f5576121f4612044565b5b61220184828501611e32565b606083015250608082013567ffffffffffffffff81111561222557612224612044565b5b61223184828501611d06565b60808301525060a082013567ffffffffffffffff81111561225557612254612044565b5b6122618482850161214b565b60a08301525092915050565b600067ffffffffffffffff82169050919050565b61228a8161226d565b811461229557600080fd5b50565b6000813590506122a781612281565b92915050565b600063ffffffff82169050919050565b6122c6816122ad565b81146122d157600080fd5b50565b6000813590506122e3816122bd565b92915050565b6000819050919050565b6122fc816122e9565b811461230757600080fd5b50565b600081359050612319816122f3565b92915050565b6000806000806080858703121561233957612338611af3565b5b600085013567ffffffffffffffff81111561235757612356611af8565b5b61236387828801612179565b945050602061237487828801612298565b9350506040612385878288016122d4565b92505060606123968782880161230a565b91505092959194509250565b60006bffffffffffffffffffffffff82169050919050565b6123c3816123a2565b82525050565b60006020820190506123de60008301846123ba565b92915050565b6000602082840312156123fa576123f9611af3565b5b600061240884828501611f49565b91505092915050565b7f4e487b7100000000000000000000000000000000000000000000000000000000600052603260045260246000fd5b7f4e487b7100000000000000000000000000000000000000000000000000000000600052602260045260246000fd5b6000600282049050600182168061248757607f821691505b60208210810361249a57612499612440565b5b50919050565b60006124b36124ae84611c84565b611c69565b9050828152602081018484840111156124cf576124ce611bf3565b5b6124da848285611fba565b509392505050565b600082601f8301126124f7576124f6611bee565b5b81516125078482602086016124a0565b91505092915050565b60006020828403121561252657612525611af3565b5b600082015167ffffffffffffffff81111561254457612543611af8565b5b612550848285016124e2565b91505092915050565b6125628161226d565b82525050565b612571816122ad565b82525050565b612580816122e9565b82525050565b600060808201905061259b6000830187612559565b81810360208301526125ad8186611fe4565b90506125bc6040830185612568565b6125c96060830184612577565b95945050505050565b6125db816123a2565b81146125e657600080fd5b50565b6000815190506125f8816125d2565b92915050565b60006020828403121561261457612613611af3565b5b6000612622848285016125e9565b91505092915050565b600060408201905081810360008301526126458185611fe4565b905081810360208301526126598184611fe4565b90509392505050565b600081519050612671816122f3565b92915050565b60006020828403121561268d5761268c611af3565b5b600061269b84828501612662565b91505092915050565b60006020820190506126b96000830184612577565b92915050565b6000815190506126ce81611f32565b92915050565b6000602082840312156126ea576126e9611af3565b5b60006126f8848285016126bf565b91505092915050565b61270a81611f20565b82525050565b600081519050919050565b600082825260208201905092915050565b6000819050602082019050919050565b612745816122e9565b82525050565b6000612757838361273c565b60208301905092915050565b6000602082019050919050565b600061277b82612710565b612785818561271b565b93506127908361272c565b8060005b838110156127c15781516127a8888261274b565b97506127b383612763565b925050600181019050612794565b5085935050505092915050565b50565b60006127de600083611fa9565b91506127e9826127ce565b600082019050919050565b60006080820190506128096000830186612701565b818103602083015261281b8185612770565b9050818103604083015261282f8184612770565b90508181036060830152612842816127d1565b9050949350505050565b7f4e487b7100000000000000000000000000000000000000000000000000000000600052602160045260246000fd5b60006060820190506128906000830186612559565b81810360208301526128a28185611fe4565b90506128b16040830184612568565b949350505050565b6000815190506128c881611bc2565b92915050565b6000602082840312156128e4576128e3611af3565b5b60006128f2848285016128b9565b91505092915050565b7f4e487b7100000000000000000000000000000000000000000000000000000000600052601160045260246000fd5b6000612935826122e9565b91507fffffffffffffffffffffffffffffffffffffffffffffffffffffffffffffffff8203612967576129666128fb565b5b600182019050919050565b60006040820190506129876000830185612701565b6129946020830184611ed6565b9392505050565b7f4e487b7100000000000000000000000000000000000000000000000000000000600052601260045260246000fd5b60006129d5826122e9565b91506129e0836122e9565b9250826129f0576129ef61299b565b5b828206905092915050565b6000612a06826122e9565b9150612a11836122e9565b9250828203905081811115612a2957612a286128fb565b5b92915050565b6000612a3a826122e9565b9150612a45836122e9565b9250828201905080821115612a5d57612a5c6128fb565b5b92915050565b6000612a6e826122e9565b9150612a79836122e9565b9250828202612a87816122e9565b91508282048414831517612a9e57612a9d6128fb565b5b5092915050565b60008160011c9050919050565b6000808291508390505b6001851115612afc57808604811115612ad857612ad76128fb565b5b6001851615612ae75780820291505b8081029050612af585612aa5565b9450612abc565b94509492505050565b600082612b155760019050612bd1565b81612b235760009050612bd1565b8160018114612b395760028114612b4357612b72565b6001915050612bd1565b60ff841115612b5557612b546128fb565b5b8360020a915084821115612b6c57612b6b6128fb565b5b50612bd1565b5060208310610133831016604e8410600b8410161715612ba75782820a905083811115612ba257612ba16128fb565b5b612bd1565b612bb48484846001612ab2565b92509050818404811115612bcb57612bca6128fb565b5b81810290505b9392505050565b6000612be3826122e9565b9150612bee836122e9565b9250612c1b7fffffffffffffffffffffffffffffffffffffffffffffffffffffffffffffffff8484612b05565b90509291505056fea2646970667358221220b86b11e0d15bd853fbb46a5d73434eaf486d9c42e0d39c5d6877cd33100647ba64736f6c63430008140033",
  "devdoc": {
    "author": "Eman Herawy",
    "details": "Manages minting Dice NFTs for the most-liked POW NFT each week. Consumes Chainlink function to call the API and retrieve winning NFT. This contract must have the minter role in the Dices contract.",
    "errors": {
      "AccessControlBadConfirmation()": [
        {
          "details": "The caller of a function is not the expected one. NOTE: Don't confuse with {AccessControlUnauthorizedAccount}."
        }
      ],
      "AccessControlUnauthorizedAccount(address,bytes32)": [
        {
          "details": "The `account` is missing a role."
        }
      ]
    },
    "events": {
      "RoleAdminChanged(bytes32,bytes32,bytes32)": {
        "details": "Emitted when `newAdminRole` is set as ``role``'s admin role, replacing `previousAdminRole` `DEFAULT_ADMIN_ROLE` is the starting admin for all roles, despite {RoleAdminChanged} not being emitted signaling this."
      },
      "RoleGranted(bytes32,address,address)": {
        "details": "Emitted when `account` is granted `role`. `sender` is the account that originated the contract call, an admin role bearer except when using {AccessControl-_setupRole}."
      },
      "RoleRevoked(bytes32,address,address)": {
        "details": "Emitted when `account` is revoked `role`. `sender` is the account that originated the contract call:   - if using `revokeRole`, it is the admin role bearer   - if using `renounceRole`, it is the role bearer (i.e. `account`)"
      }
    },
    "kind": "dev",
    "methods": {
      "constructor": {
        "details": "Constructor initializes the contract with the specified oracle, subscription ID, check logic, and contract addresses."
      },
      "estimateCost((uint8,uint8,uint8,string,bytes,string[]),uint64,uint32,uint256)": {
        "params": {
          "gasLimit": "gas limit for the fulfillment callback",
          "req": "The initialized Functions.Request",
          "subscriptionId": "The subscription ID"
        },
        "returns": {
          "_0": "billedCost Cost in Juels (1e18) of LINK"
        }
      },
      "getDONPublicKey()": {
        "details": "All Oracles nodes have the corresponding private key needed to decrypt the secrets encrypted with the public key",
        "returns": {
          "_0": "publicKey DON's public key"
        }
      },
      "getRoleAdmin(bytes32)": {
        "details": "Returns the admin role that controls `role`. See {grantRole} and {revokeRole}. To change a role's admin, use {_setRoleAdmin}."
      },
      "grantRole(bytes32,address)": {
        "details": "Grants `role` to `account`. If `account` had not been already granted `role`, emits a {RoleGranted} event. Requirements: - the caller must have ``role``'s admin role. May emit a {RoleGranted} event."
      },
      "handleOracleFulfillment(bytes32,bytes,bytes)": {
        "params": {
          "err": "Aggregated error either from the user code or from the execution pipeline. Either response or error parameter will be set, but never both.",
          "requestId": "The requestId returned by FunctionsClient.sendRequest().",
          "response": "Aggregated response from the user code."
        }
      },
      "hasRole(bytes32,address)": {
        "details": "Returns `true` if `account` has been granted `role`."
      },
      "renounceRole(bytes32,address)": {
        "details": "Revokes `role` from the calling account. Roles are often managed via {grantRole} and {revokeRole}: this function's purpose is to provide a mechanism for accounts to lose their privileges if they are compromised (such as when a trusted device is misplaced). If the calling account had been revoked `role`, emits a {RoleRevoked} event. Requirements: - the caller must be `callerConfirmation`. May emit a {RoleRevoked} event."
      },
      "revokeRole(bytes32,address)": {
        "details": "Revokes `role` from `account`. If `account` had been granted `role`, emits a {RoleRevoked} event. Requirements: - the caller must have ``role``'s admin role. May emit a {RoleRevoked} event."
      },
      "supportsInterface(bytes4)": {
        "details": "See {IERC165-supportsInterface}."
      },
      "updateOracleAddress(address)": {
        "params": {
          "oracle": "New oracle address."
        }
      }
    },
    "title": "Reward Contract",
    "version": 1
  },
  "userdoc": {
    "kind": "user",
    "methods": {
      "estimateCost((uint8,uint8,uint8,string,bytes,string[]),uint64,uint32,uint256)": {
        "notice": "Estimate the total cost that will be charged to a subscription to make a request: gas re-imbursement, plus DON fee, plus Registry fee"
      },
      "getDONPublicKey()": {
        "notice": "Returns the DON's secp256k1 public key used to encrypt secrets"
      },
      "getWinner(string)": {
        "notice": "Sends a request to the Chainlink oracle to get the winner."
      },
      "handleOracleFulfillment(bytes32,bytes,bytes)": {
        "notice": "Chainlink Functions response handler called by the designated transmitter node in an OCR round."
      },
      "updateOracleAddress(address)": {
        "notice": "Allows the Functions oracle address to be updated."
      }
    },
    "version": 1
  },
  "storageLayout": {
    "storage": [
      {
        "astId": 2137,
        "contract": "src/Reward.sol:Reward",
        "label": "_roles",
        "offset": 0,
        "slot": "0",
        "type": "t_mapping(t_bytes32,t_struct(RoleData)2132_storage)"
      },
      {
        "astId": 599,
        "contract": "src/Reward.sol:Reward",
        "label": "s_oracle",
        "offset": 0,
        "slot": "1",
        "type": "t_contract(FunctionsOracleInterface)1028"
      },
      {
        "astId": 603,
        "contract": "src/Reward.sol:Reward",
        "label": "s_pendingRequests",
        "offset": 0,
        "slot": "2",
        "type": "t_mapping(t_bytes32,t_address)"
      },
      {
        "astId": 8788,
        "contract": "src/Reward.sol:Reward",
        "label": "subscriptionId",
        "offset": 0,
        "slot": "3",
        "type": "t_uint64"
      },
      {
        "astId": 8791,
        "contract": "src/Reward.sol:Reward",
        "label": "prompt",
        "offset": 8,
        "slot": "3",
        "type": "t_contract(PromptCollection)8769"
      },
      {
        "astId": 8794,
        "contract": "src/Reward.sol:Reward",
        "label": "dice",
        "offset": 0,
        "slot": "4",
        "type": "t_contract(CeptorDice)8237"
      },
      {
        "astId": 8796,
        "contract": "src/Reward.sol:Reward",
        "label": "checkLogic",
        "offset": 0,
        "slot": "5",
        "type": "t_string_storage"
      },
      {
        "astId": 8800,
        "contract": "src/Reward.sol:Reward",
        "label": "usedRequests",
        "offset": 0,
        "slot": "6",
        "type": "t_mapping(t_string_memory_ptr,t_bool)"
      }
    ],
    "types": {
      "t_address": {
        "encoding": "inplace",
        "label": "address",
        "numberOfBytes": "20"
      },
      "t_bool": {
        "encoding": "inplace",
        "label": "bool",
        "numberOfBytes": "1"
      },
      "t_bytes32": {
        "encoding": "inplace",
        "label": "bytes32",
        "numberOfBytes": "32"
      },
      "t_contract(CeptorDice)8237": {
        "encoding": "inplace",
        "label": "contract CeptorDice",
        "numberOfBytes": "20"
      },
      "t_contract(FunctionsOracleInterface)1028": {
        "encoding": "inplace",
        "label": "contract FunctionsOracleInterface",
        "numberOfBytes": "20"
      },
      "t_contract(PromptCollection)8769": {
        "encoding": "inplace",
        "label": "contract PromptCollection",
        "numberOfBytes": "20"
      },
      "t_mapping(t_address,t_bool)": {
        "encoding": "mapping",
        "key": "t_address",
        "label": "mapping(address => bool)",
        "numberOfBytes": "32",
        "value": "t_bool"
      },
      "t_mapping(t_bytes32,t_address)": {
        "encoding": "mapping",
        "key": "t_bytes32",
        "label": "mapping(bytes32 => address)",
        "numberOfBytes": "32",
        "value": "t_address"
      },
      "t_mapping(t_bytes32,t_struct(RoleData)2132_storage)": {
        "encoding": "mapping",
        "key": "t_bytes32",
        "label": "mapping(bytes32 => struct AccessControl.RoleData)",
        "numberOfBytes": "32",
        "value": "t_struct(RoleData)2132_storage"
      },
      "t_mapping(t_string_memory_ptr,t_bool)": {
        "encoding": "mapping",
        "key": "t_string_memory_ptr",
        "label": "mapping(string => bool)",
        "numberOfBytes": "32",
        "value": "t_bool"
      },
      "t_string_memory_ptr": {
        "encoding": "bytes",
        "label": "string",
        "numberOfBytes": "32"
      },
      "t_string_storage": {
        "encoding": "bytes",
        "label": "string",
        "numberOfBytes": "32"
      },
      "t_struct(RoleData)2132_storage": {
        "encoding": "inplace",
        "label": "struct AccessControl.RoleData",
        "members": [
          {
            "astId": 2129,
            "contract": "src/Reward.sol:Reward",
            "label": "hasRole",
            "offset": 0,
            "slot": "0",
            "type": "t_mapping(t_address,t_bool)"
          },
          {
            "astId": 2131,
            "contract": "src/Reward.sol:Reward",
            "label": "adminRole",
            "offset": 0,
            "slot": "1",
            "type": "t_bytes32"
          }
        ],
        "numberOfBytes": "64"
      },
      "t_uint64": {
        "encoding": "inplace",
        "label": "uint64",
        "numberOfBytes": "8"
      }
    }
  }
}