{
  "data": {
    "bytecode": {
      "linkReferences": {},
      "object": "608060405234801562000010575f80fd5b506040518060400160405280600a81526020017f436570746f7244696365000000000000000000000000000000000000000000008152506200005881620000b460201b60201c565b506200006d5f801b33620000c960201b60201c565b50620000a6604051602001620000839062000288565b6040516020818303038152906040528051906020012033620000c960201b60201c565b505f600581905550620005e6565b8060029081620000c5919062000502565b5050565b5f620000dc8383620001c560201b60201c565b620001bb57600160035f8581526020019081526020015f205f015f8473ffffffffffffffffffffffffffffffffffffffff1673ffffffffffffffffffffffffffffffffffffffff1681526020019081526020015f205f6101000a81548160ff021916908315150217905550620001576200022960201b60201c565b73ffffffffffffffffffffffffffffffffffffffff168273ffffffffffffffffffffffffffffffffffffffff16847f2f8788117e7eff1d82e926ec794901d17c78024a50270940304540a733656f0d60405160405180910390a460019050620001bf565b5f90505b92915050565b5f60035f8481526020019081526020015f205f015f8373ffffffffffffffffffffffffffffffffffffffff1673ffffffffffffffffffffffffffffffffffffffff1681526020019081526020015f205f9054906101000a900460ff16905092915050565b5f33905090565b5f81905092915050565b7f4d494e54455200000000000000000000000000000000000000000000000000005f82015250565b5f6200027060068362000230565b91506200027d826200023a565b600682019050919050565b5f620002948262000262565b9150819050919050565b5f81519050919050565b7f4e487b71000000000000000000000000000000000000000000000000000000005f52604160045260245ffd5b7f4e487b71000000000000000000000000000000000000000000000000000000005f52602260045260245ffd5b5f60028204905060018216806200031a57607f821691505b60208210810362000330576200032f620002d5565b5b50919050565b5f819050815f5260205f209050919050565b5f6020601f8301049050919050565b5f82821b905092915050565b5f60088302620003947fffffffffffffffffffffffffffffffffffffffffffffffffffffffffffffffff8262000357565b620003a0868362000357565b95508019841693508086168417925050509392505050565b5f819050919050565b5f819050919050565b5f620003ea620003e4620003de84620003b8565b620003c1565b620003b8565b9050919050565b5f819050919050565b6200040583620003ca565b6200041d6200041482620003f1565b84845462000363565b825550505050565b5f90565b6200043362000425565b62000440818484620003fa565b505050565b5b8181101562000467576200045b5f8262000429565b60018101905062000446565b5050565b601f821115620004b657620004808162000336565b6200048b8462000348565b810160208510156200049b578190505b620004b3620004aa8562000348565b83018262000445565b50505b505050565b5f82821c905092915050565b5f620004d85f1984600802620004bb565b1980831691505092915050565b5f620004f28383620004c7565b9150826002028217905092915050565b6200050d826200029e565b67ffffffffffffffff811115620005295762000528620002a8565b5b62000535825462000302565b620005428282856200046b565b5f60209050601f83116001811462000578575f841562000563578287015190505b6200056f8582620004e5565b865550620005de565b601f198416620005888662000336565b5f5b82811015620005b1578489015182556001820191506020850194506020810190506200058a565b86831015620005d15784890151620005cd601f891682620004c7565b8355505b6001600288020188555050505b505050505050565b61489980620005f45f395ff3fe6080604052600436106101f7575f3560e01c806391d148541161010c578063d351cfdc1161009f578063e985e9c51161006e578063e985e9c51461073c578063f242432a14610778578063f5298aca146107a0578063fa30297e146107c8578063fe6d812414610804576101f7565b8063d351cfdc14610693578063d547741f146106af578063d778e38e146106d7578063df6a466a14610714576101f7565b8063a488b4a4116100db578063a488b4a4146105dd578063aa9efa0e14610607578063b1881c531461062f578063bd85b03914610657576101f7565b806391d1485414610527578063984d666314610563578063a217fddf1461058b578063a22cb465146105b5576101f7565b80632eb2c2d61161018f5780634e1273f41161015e5780634e1273f41461041b5780634f64b2be146104575780636677aada146104995780636c410bee146104d55780637e1c0c09146104fd576101f7565b80632eb2c2d61461038d5780632f2ff15d146103b557806336568abe146103dd5780633ccfd60b14610405576101f7565b8063114b8158116101cb578063114b8158146102d7578063162094c4146102ff5780631f2298cb14610327578063248a9ca314610351576101f7565b8062fdd58e146101fb57806301febe171461023757806301ffc9a71461025f5780630e89341c1461029b575b5f80fd5b348015610206575f80fd5b50610221600480360381019061021c919061305e565b61082e565b60405161022e91906130ab565b60405180910390f35b348015610242575f80fd5b5061025d600480360381019061025891906132c4565b6108a2565b005b34801561026a575f80fd5b50610285600480360381019061028091906133d1565b610936565b6040516102929190613416565b60405180910390f35b3480156102a6575f80fd5b506102c160048036038101906102bc919061342f565b610a17565b6040516102ce91906134d4565b60405180910390f35b3480156102e2575f80fd5b506102fd60048036038101906102f891906134f4565b610b1c565b005b34801561030a575f80fd5b50610325600480360381019061032091906135d9565b610c0c565b005b348015610332575f80fd5b5061033b610ca0565b6040516103489190613642565b60405180910390f35b34801561035c575f80fd5b506103776004803603810190610372919061368e565b610cc5565b60405161038491906136c8565b60405180910390f35b348015610398575f80fd5b506103b360048036038101906103ae91906136e1565b610ce2565b005b3480156103c0575f80fd5b506103db60048036038101906103d691906137ac565b610d89565b005b3480156103e8575f80fd5b5061040360048036038101906103fe91906137ac565b610dab565b005b348015610410575f80fd5b50610419610e26565b005b348015610426575f80fd5b50610441600480360381019061043c91906138aa565b610ebb565b60405161044e91906139d7565b60405180910390f35b348015610462575f80fd5b5061047d6004803603810190610478919061342f565b610fc8565b60405161049097969594939291906139f7565b60405180910390f35b3480156104a4575f80fd5b506104bf60048036038101906104ba9190613a6b565b6110a5565b6040516104cc9190613416565b60405180910390f35b3480156104e0575f80fd5b506104fb60048036038101906104f69190613b74565b611145565b005b348015610508575f80fd5b50610511611317565b60405161051e91906130ab565b60405180910390f35b348015610532575f80fd5b5061054d600480360381019061054891906137ac565b61131d565b60405161055a9190613416565b60405180910390f35b34801561056e575f80fd5b5061058960048036038101906105849190613a6b565b611381565b005b348015610596575f80fd5b5061059f611407565b6040516105ac91906136c8565b60405180910390f35b3480156105c0575f80fd5b506105db60048036038101906105d69190613c72565b61140d565b005b3480156105e8575f80fd5b506105f1611423565b6040516105fe91906136c8565b60405180910390f35b348015610612575f80fd5b5061062d600480360381019061062891906134f4565b611447565b005b34801561063a575f80fd5b5061065560048036038101906106509190613a6b565b611536565b005b348015610662575f80fd5b5061067d6004803603810190610678919061342f565b611586565b60405161068a91906130ab565b60405180910390f35b6106ad60048036038101906106a89190613cb0565b611622565b005b3480156106ba575f80fd5b506106d560048036038101906106d091906137ac565b6119a3565b005b3480156106e2575f80fd5b506106fd60048036038101906106f89190613a6b565b6119c5565b60405161070b929190613d26565b60405180910390f35b34801561071f575f80fd5b5061073a60048036038101906107359190613d4d565b6119f1565b005b348015610747575f80fd5b50610762600480360381019061075d9190613d9d565b611b38565b60405161076f9190613416565b60405180910390f35b348015610783575f80fd5b5061079e60048036038101906107999190613ddb565b611bc6565b005b3480156107ab575f80fd5b506107c660048036038101906107c19190613d4d565b611c6d565b005b3480156107d3575f80fd5b506107ee60048036038101906107e99190613a6b565b611dc5565b6040516107fb91906130ab565b60405180910390f35b34801561080f575f80fd5b50610818611dda565b60405161082591906136c8565b60405180910390f35b5f60065f8381526020019081526020015f2060050160019054906101000a900460ff16610890576040517f08c379a000000000000000000000000000000000000000000000000000000000815260040161088790613eb8565b60405180910390fd5b61089a8383611e02565b905092915050565b6040516020016108b190613f2a565b604051602081830303815290604052805190602001206108d081611e57565b5f5b845181101561092e5761091b868683815181106108f2576108f1613f3e565b5b602002602001015186848151811061090d5761090c613f3e565b5b602002602001015186611e6b565b808061092690613f98565b9150506108d2565b505050505050565b5f7fd9b67a26000000000000000000000000000000000000000000000000000000007bffffffffffffffffffffffffffffffffffffffffffffffffffffffff1916827bffffffffffffffffffffffffffffffffffffffffffffffffffffffff19161480610a0057507f7965db0b000000000000000000000000000000000000000000000000000000007bffffffffffffffffffffffffffffffffffffffffffffffffffffffff1916827bffffffffffffffffffffffffffffffffffffffffffffffffffffffff1916145b80610a105750610a0f82611f00565b5b9050919050565b606060065f8381526020019081526020015f2060050160019054906101000a900460ff16610a7a576040517f08c379a0000000000000000000000000000000000000000000000000000000008152600401610a7190613eb8565b60405180910390fd5b60065f8381526020019081526020015f206004018054610a999061400c565b80601f0160208091040260200160405190810160405280929190818152602001828054610ac59061400c565b8015610b105780601f10610ae757610100808354040283529160200191610b10565b820191905f5260205f20905b815481529060010190602001808311610af357829003601f168201915b50505050509050919050565b5f801b610b2881611e57565b5f5b8251811015610c075760065f848381518110610b4957610b48613f3e565b5b602002602001015181526020019081526020015f2060050160019054906101000a900460ff16610bae576040517f08c379a0000000000000000000000000000000000000000000000000000000008152600401610ba590613eb8565b60405180910390fd5b600160065f858481518110610bc657610bc5613f3e565b5b602002602001015181526020019081526020015f206005015f6101000a81548160ff0219169083151502179055508080610bff90613f98565b915050610b2a565b505050565b5f801b610c1881611e57565b60065f8481526020019081526020015f2060050160019054906101000a900460ff16610c79576040517f08c379a0000000000000000000000000000000000000000000000000000000008152600401610c7090613eb8565b60405180910390fd5b8160065f8581526020019081526020015f206004019081610c9a91906141d9565b50505050565b60085f9054906101000a900473ffffffffffffffffffffffffffffffffffffffff1681565b5f60035f8381526020019081526020015f20600101549050919050565b5f610ceb611f79565b90508073ffffffffffffffffffffffffffffffffffffffff168673ffffffffffffffffffffffffffffffffffffffff1614158015610d305750610d2e8682611b38565b155b15610d745780866040517fe237d922000000000000000000000000000000000000000000000000000000008152600401610d6b9291906142a8565b60405180910390fd5b610d818686868686611f80565b505050505050565b610d9282610cc5565b610d9b81611e57565b610da58383612074565b50505050565b610db3611f79565b73ffffffffffffffffffffffffffffffffffffffff168173ffffffffffffffffffffffffffffffffffffffff1614610e17576040517f6697b23200000000000000000000000000000000000000000000000000000000815260040160405180910390fd5b610e21828261215e565b505050565b5f801b610e3281611e57565b5f4711610e74576040517f08c379a0000000000000000000000000000000000000000000000000000000008152600401610e6b90614319565b60405180910390fd5b3373ffffffffffffffffffffffffffffffffffffffff166108fc4790811502906040515f60405180830381858888f19350505050158015610eb7573d5f803e3d5ffd5b5050565b60608151835114610f0757815183516040517f5b059991000000000000000000000000000000000000000000000000000000008152600401610efe929190614337565b60405180910390fd5b5f835167ffffffffffffffff811115610f2357610f226130d8565b5b604051908082528060200260200182016040528015610f515781602001602082028036833780820191505090505b5090505f5b8451811015610fbd57610f8d610f75828761224890919063ffffffff16565b610f88838761225b90919063ffffffff16565b61082e565b828281518110610fa057610f9f613f3e565b5b60200260200101818152505080610fb690613f98565b9050610f56565b508091505092915050565b6006602052805f5260405f205f91509050805f015490806001015490806002015490806003015490806004018054610fff9061400c565b80601f016020809104026020016040519081016040528092919081815260200182805461102b9061400c565b80156110765780601f1061104d57610100808354040283529160200191611076565b820191905f5260205f20905b81548152906001019060200180831161105957829003601f168201915b505050505090806005015f9054906101000a900460ff16908060050160019054906101000a900460ff16905087565b5f4260045f8473ffffffffffffffffffffffffffffffffffffffff1673ffffffffffffffffffffffffffffffffffffffff1681526020019081526020015f205f015411801561113e575060045f8373ffffffffffffffffffffffffffffffffffffffff1673ffffffffffffffffffffffffffffffffffffffff1681526020019081526020015f206001015f9054906101000a900460ff16155b9050919050565b5f801b61115181611e57565b81518551148015611163575083518551145b6111a2576040517f08c379a0000000000000000000000000000000000000000000000000000000008152600401611199906143a8565b60405180910390fd5b5f5b855181101561130f575f60065f8884815181106111c4576111c3613f3e565b5b602002602001015181526020019081526020015f2060050160019054906101000a900460ff166111f357600190505b5f60065f89858151811061120a57611209613f3e565b5b602002602001015181526020019081526020015f20905086838151811061123457611233613f3e565b5b6020026020010151816003018190555084838151811061125757611256613f3e565b5b602002602001015181600401908161126f91906141d9565b5085838151811061128357611282613f3e565b5b6020026020010151816002018190555081156112fa575f815f01819055505f816001018190555060018160050160016101000a81548160ff0219169083151502179055505f816005015f6101000a81548160ff02191690831515021790555060055f8154809291906112f490613f98565b91905055505b5050808061130790613f98565b9150506111a4565b505050505050565b60055481565b5f60035f8481526020019081526020015f205f015f8373ffffffffffffffffffffffffffffffffffffffff1673ffffffffffffffffffffffffffffffffffffffff1681526020019081526020015f205f9054906101000a900460ff16905092915050565b7fd454abe7b9bdfb22796419a2e5a8d6de1a0f4c51476ef2d4a4cfab43221d89e66113ab81611e57565b600160045f8473ffffffffffffffffffffffffffffffffffffffff1673ffffffffffffffffffffffffffffffffffffffff1681526020019081526020015f206001015f6101000a81548160ff0219169083151502179055505050565b5f801b81565b61141f611418611f79565b838361226e565b5050565b7fd454abe7b9bdfb22796419a2e5a8d6de1a0f4c51476ef2d4a4cfab43221d89e681565b5f801b61145381611e57565b5f5b82518110156115315760065f84838151811061147457611473613f3e565b5b602002602001015181526020019081526020015f2060050160019054906101000a900460ff166114d9576040517f08c379a00000000000000000000000000000000000000000000000000000000081526004016114d090613eb8565b60405180910390fd5b5f60065f8584815181106114f0576114ef613f3e565b5b602002602001015181526020019081526020015f206005015f6101000a81548160ff021916908315150217905550808061152990613f98565b915050611455565b505050565b5f801b61154281611e57565b8160085f6101000a81548173ffffffffffffffffffffffffffffffffffffffff021916908373ffffffffffffffffffffffffffffffffffffffff1602179055505050565b5f60065f8381526020019081526020015f2060050160019054906101000a900460ff166115e8576040517f08c379a00000000000000000000000000000000000000000000000000000000081526004016115df90613eb8565b60405180910390fd5b60065f8381526020019081526020015f206001015460065f8481526020019081526020015f205f015461161b91906143c6565b9050919050565b8051825114611666576040517f08c379a000000000000000000000000000000000000000000000000000000000815260040161165d906143a8565b60405180910390fd5b5f5b825181101561177a5760065f84838151811061168757611686613f3e565b5b602002602001015181526020019081526020015f2060050160019054906101000a900460ff166116ec576040517f08c379a00000000000000000000000000000000000000000000000000000000081526004016116e390613eb8565b60405180910390fd5b60065f84838151811061170257611701613f3e565b5b602002602001015181526020019081526020015f206005015f9054906101000a900460ff1615611767576040517f08c379a000000000000000000000000000000000000000000000000000000000815260040161175e90614443565b60405180910390fd5b808061177290613f98565b915050611668565b505f805b8351811015611857575f83828151811061179b5761179a613f3e565b5b6020026020010151116117e3576040517f08c379a00000000000000000000000000000000000000000000000000000000081526004016117da906144ab565b60405180910390fd5b8281815181106117f6576117f5613f3e565b5b602002602001015160065f86848151811061181457611813613f3e565b5b602002602001015181526020019081526020015f206003015461183791906144c9565b82611842919061450a565b9150808061184f90613f98565b91505061177e565b508034101561189b576040517f08c379a000000000000000000000000000000000000000000000000000000000815260040161189290614587565b60405180910390fd5b5f5b8351811015611983578281815181106118b9576118b8613f3e565b5b602002602001015160065f8684815181106118d7576118d6613f3e565b5b602002602001015181526020019081526020015f205f015f8282546118fc919061450a565b9250508190555082818151811061191657611915613f3e565b5b602002602001015160075f3373ffffffffffffffffffffffffffffffffffffffff1673ffffffffffffffffffffffffffffffffffffffff1681526020019081526020015f205f828254611969919061450a565b92505081905550808061197b90613f98565b91505061189d565b5061199e33848460405180602001604052805f8152506123d7565b505050565b6119ac82610cc5565b6119b581611e57565b6119bf838361215e565b50505050565b6004602052805f5260405f205f91509050805f015490806001015f9054906101000a900460ff16905082565b60065f8381526020019081526020015f2060050160019054906101000a900460ff16611a52576040517f08c379a0000000000000000000000000000000000000000000000000000000008152600401611a4990613eb8565b60405180910390fd5b5f8111611a94576040517f08c379a0000000000000000000000000000000000000000000000000000000008152600401611a8b906145ef565b60405180910390fd5b80611a9f848461082e565b1015611ae0576040517f08c379a0000000000000000000000000000000000000000000000000000000008152600401611ad790614657565b60405180910390fd5b611aeb83838361245a565b611b098360065f8581526020019081526020015f20600201546124fc565b8060065f8481526020019081526020015f206001015f828254611b2c919061450a565b92505081905550505050565b5f60015f8473ffffffffffffffffffffffffffffffffffffffff1673ffffffffffffffffffffffffffffffffffffffff1681526020019081526020015f205f8373ffffffffffffffffffffffffffffffffffffffff1673ffffffffffffffffffffffffffffffffffffffff1681526020019081526020015f205f9054906101000a900460ff16905092915050565b5f611bcf611f79565b90508073ffffffffffffffffffffffffffffffffffffffff168673ffffffffffffffffffffffffffffffffffffffff1614158015611c145750611c128682611b38565b155b15611c585780866040517fe237d922000000000000000000000000000000000000000000000000000000008152600401611c4f9291906142a8565b60405180910390fd5b611c65868686868661254f565b505050505050565b604051602001611c7c90613f2a565b60405160208183030381529060405280519060200120611c9b81611e57565b60065f8481526020019081526020015f2060050160019054906101000a900460ff16611cfc576040517f08c379a0000000000000000000000000000000000000000000000000000000008152600401611cf390613eb8565b60405180910390fd5b5f8211611d3e576040517f08c379a0000000000000000000000000000000000000000000000000000000008152600401611d35906145ef565b60405180910390fd5b81611d49858561082e565b1015611d8a576040517f08c379a0000000000000000000000000000000000000000000000000000000008152600401611d8190614657565b60405180910390fd5b611d9584848461245a565b8160065f8581526020019081526020015f206001015f828254611db8919061450a565b9250508190555050505050565b6007602052805f5260405f205f915090505481565b604051602001611de990613f2a565b6040516020818303038152906040528051906020012081565b5f805f8381526020019081526020015f205f8473ffffffffffffffffffffffffffffffffffffffff1673ffffffffffffffffffffffffffffffffffffffff1681526020019081526020015f2054905092915050565b611e6881611e63611f79565b612655565b50565b5f73ffffffffffffffffffffffffffffffffffffffff168473ffffffffffffffffffffffffffffffffffffffff1603611edb575f6040517f57f447ce000000000000000000000000000000000000000000000000000000008152600401611ed29190613642565b60405180910390fd5b5f80611ee785856126a6565b91509150611ef85f878484876126d6565b505050505050565b5f7f7965db0b000000000000000000000000000000000000000000000000000000007bffffffffffffffffffffffffffffffffffffffffffffffffffffffff1916827bffffffffffffffffffffffffffffffffffffffffffffffffffffffff19161480611f725750611f7182612782565b5b9050919050565b5f33905090565b5f73ffffffffffffffffffffffffffffffffffffffff168473ffffffffffffffffffffffffffffffffffffffff1603611ff0575f6040517f57f447ce000000000000000000000000000000000000000000000000000000008152600401611fe79190613642565b60405180910390fd5b5f73ffffffffffffffffffffffffffffffffffffffff168573ffffffffffffffffffffffffffffffffffffffff1603612060575f6040517f01a835140000000000000000000000000000000000000000000000000000000081526004016120579190613642565b60405180910390fd5b61206d85858585856126d6565b5050505050565b5f61207f838361131d565b61215457600160035f8581526020019081526020015f205f015f8473ffffffffffffffffffffffffffffffffffffffff1673ffffffffffffffffffffffffffffffffffffffff1681526020019081526020015f205f6101000a81548160ff0219169083151502179055506120f1611f79565b73ffffffffffffffffffffffffffffffffffffffff168273ffffffffffffffffffffffffffffffffffffffff16847f2f8788117e7eff1d82e926ec794901d17c78024a50270940304540a733656f0d60405160405180910390a460019050612158565b5f90505b92915050565b5f612169838361131d565b1561223e575f60035f8581526020019081526020015f205f015f8473ffffffffffffffffffffffffffffffffffffffff1673ffffffffffffffffffffffffffffffffffffffff1681526020019081526020015f205f6101000a81548160ff0219169083151502179055506121db611f79565b73ffffffffffffffffffffffffffffffffffffffff168273ffffffffffffffffffffffffffffffffffffffff16847ff6391f5c32d9c69d2a47ea670b442974b53935d1edc7fd64eb21e047a839171b60405160405180910390a460019050612242565b5f90505b92915050565b5f60208202602084010151905092915050565b5f60208202602084010151905092915050565b5f73ffffffffffffffffffffffffffffffffffffffff168273ffffffffffffffffffffffffffffffffffffffff16036122de575f6040517fced3e1000000000000000000000000000000000000000000000000000000000081526004016122d59190613642565b60405180910390fd5b8060015f8573ffffffffffffffffffffffffffffffffffffffff1673ffffffffffffffffffffffffffffffffffffffff1681526020019081526020015f205f8473ffffffffffffffffffffffffffffffffffffffff1673ffffffffffffffffffffffffffffffffffffffff1681526020019081526020015f205f6101000a81548160ff0219169083151502179055508173ffffffffffffffffffffffffffffffffffffffff168373ffffffffffffffffffffffffffffffffffffffff167f17307eab39ab6107e8899845ad3d59bd9653f200f220920489ca2b5937696c31836040516123ca9190613416565b60405180910390a3505050565b5f73ffffffffffffffffffffffffffffffffffffffff168473ffffffffffffffffffffffffffffffffffffffff1603612447575f6040517f57f447ce00000000000000000000000000000000000000000000000000000000815260040161243e9190613642565b60405180910390fd5b6124545f858585856126d6565b50505050565b5f73ffffffffffffffffffffffffffffffffffffffff168373ffffffffffffffffffffffffffffffffffffffff16036124ca575f6040517f01a835140000000000000000000000000000000000000000000000000000000081526004016124c19190613642565b60405180910390fd5b5f806124d684846126a6565b915091506124f5855f848460405180602001604052805f8152506126d6565b5050505050565b8042612508919061450a565b60045f8473ffffffffffffffffffffffffffffffffffffffff1673ffffffffffffffffffffffffffffffffffffffff1681526020019081526020015f205f01819055505050565b5f73ffffffffffffffffffffffffffffffffffffffff168473ffffffffffffffffffffffffffffffffffffffff16036125bf575f6040517f57f447ce0000000000000000000000000000000000000000000000000000000081526004016125b69190613642565b60405180910390fd5b5f73ffffffffffffffffffffffffffffffffffffffff168573ffffffffffffffffffffffffffffffffffffffff160361262f575f6040517f01a835140000000000000000000000000000000000000000000000000000000081526004016126269190613642565b60405180910390fd5b5f8061263b85856126a6565b9150915061264c87878484876126d6565b50505050505050565b61265f828261131d565b6126a25780826040517fe2517d3f000000000000000000000000000000000000000000000000000000008152600401612699929190614675565b60405180910390fd5b5050565b60608060405191506001825283602083015260408201905060018152826020820152604081016040529250929050565b6126e285858585612863565b5f73ffffffffffffffffffffffffffffffffffffffff168473ffffffffffffffffffffffffffffffffffffffff161461277b575f61271e611f79565b9050600184510361276a575f61273d5f8661225b90919063ffffffff16565b90505f6127535f8661225b90919063ffffffff16565b9050612763838989858589612bf9565b5050612779565b612778818787878787612da8565b5b505b5050505050565b5f7fd9b67a26000000000000000000000000000000000000000000000000000000007bffffffffffffffffffffffffffffffffffffffffffffffffffffffff1916827bffffffffffffffffffffffffffffffffffffffffffffffffffffffff1916148061284c57507f0e89341c000000000000000000000000000000000000000000000000000000007bffffffffffffffffffffffffffffffffffffffffffffffffffffffff1916827bffffffffffffffffffffffffffffffffffffffffffffffffffffffff1916145b8061285c575061285b82612f57565b5b9050919050565b80518251146128ad57815181516040517f5b0599910000000000000000000000000000000000000000000000000000000081526004016128a4929190614337565b60405180910390fd5b5f6128b6611f79565b90505f5b8351811015612ab8575f6128d7828661225b90919063ffffffff16565b90505f6128ed838661225b90919063ffffffff16565b90505f73ffffffffffffffffffffffffffffffffffffffff168873ffffffffffffffffffffffffffffffffffffffff1614612a10575f805f8481526020019081526020015f205f8a73ffffffffffffffffffffffffffffffffffffffff1673ffffffffffffffffffffffffffffffffffffffff1681526020019081526020015f20549050818110156129bc57888183856040517f03dee4c50000000000000000000000000000000000000000000000000000000081526004016129b3949392919061469c565b60405180910390fd5b8181035f808581526020019081526020015f205f8b73ffffffffffffffffffffffffffffffffffffffff1673ffffffffffffffffffffffffffffffffffffffff1681526020019081526020015f2081905550505b5f73ffffffffffffffffffffffffffffffffffffffff168773ffffffffffffffffffffffffffffffffffffffff1614612aa557805f808481526020019081526020015f205f8973ffffffffffffffffffffffffffffffffffffffff1673ffffffffffffffffffffffffffffffffffffffff1681526020019081526020015f205f828254612a9d919061450a565b925050819055505b505080612ab190613f98565b90506128ba565b506001835103612b73575f612ad65f8561225b90919063ffffffff16565b90505f612aec5f8561225b90919063ffffffff16565b90508573ffffffffffffffffffffffffffffffffffffffff168773ffffffffffffffffffffffffffffffffffffffff168473ffffffffffffffffffffffffffffffffffffffff167fc3d58168c5ae7397731d063d5bbf3d657854427343f4c083240f7aacaa2d0f628585604051612b64929190614337565b60405180910390a45050612bf2565b8373ffffffffffffffffffffffffffffffffffffffff168573ffffffffffffffffffffffffffffffffffffffff168273ffffffffffffffffffffffffffffffffffffffff167f4a39dc06d4c0dbc64b70af90fd698a233a518aa5d07e595d983b8c0526c8f7fb8686604051612be99291906146df565b60405180910390a45b5050505050565b5f8473ffffffffffffffffffffffffffffffffffffffff163b1115612da0578373ffffffffffffffffffffffffffffffffffffffff1663f23a6e6187878686866040518663ffffffff1660e01b8152600401612c59959493929190614766565b6020604051808303815f875af1925050508015612c9457506040513d601f19601f82011682018060405250810190612c9191906147d2565b60015b612d15573d805f8114612cc2576040519150601f19603f3d011682016040523d82523d5f602084013e612cc7565b606091505b505f815103612d0d57846040517f57f447ce000000000000000000000000000000000000000000000000000000008152600401612d049190613642565b60405180910390fd5b805181602001fd5b63f23a6e6160e01b7bffffffffffffffffffffffffffffffffffffffffffffffffffffffff1916817bffffffffffffffffffffffffffffffffffffffffffffffffffffffff191614612d9e57846040517f57f447ce000000000000000000000000000000000000000000000000000000008152600401612d959190613642565b60405180910390fd5b505b505050505050565b5f8473ffffffffffffffffffffffffffffffffffffffff163b1115612f4f578373ffffffffffffffffffffffffffffffffffffffff1663bc197c8187878686866040518663ffffffff1660e01b8152600401612e089594939291906147fd565b6020604051808303815f875af1925050508015612e4357506040513d601f19601f82011682018060405250810190612e4091906147d2565b60015b612ec4573d805f8114612e71576040519150601f19603f3d011682016040523d82523d5f602084013e612e76565b606091505b505f815103612ebc57846040517f57f447ce000000000000000000000000000000000000000000000000000000008152600401612eb39190613642565b60405180910390fd5b805181602001fd5b63bc197c8160e01b7bffffffffffffffffffffffffffffffffffffffffffffffffffffffff1916817bffffffffffffffffffffffffffffffffffffffffffffffffffffffff191614612f4d57846040517f57f447ce000000000000000000000000000000000000000000000000000000008152600401612f449190613642565b60405180910390fd5b505b505050505050565b5f7f01ffc9a7000000000000000000000000000000000000000000000000000000007bffffffffffffffffffffffffffffffffffffffffffffffffffffffff1916827bffffffffffffffffffffffffffffffffffffffffffffffffffffffff1916149050919050565b5f604051905090565b5f80fd5b5f80fd5b5f73ffffffffffffffffffffffffffffffffffffffff82169050919050565b5f612ffa82612fd1565b9050919050565b61300a81612ff0565b8114613014575f80fd5b50565b5f8135905061302581613001565b92915050565b5f819050919050565b61303d8161302b565b8114613047575f80fd5b50565b5f8135905061305881613034565b92915050565b5f806040838503121561307457613073612fc9565b5b5f61308185828601613017565b92505060206130928582860161304a565b9150509250929050565b6130a58161302b565b82525050565b5f6020820190506130be5f83018461309c565b92915050565b5f80fd5b5f601f19601f8301169050919050565b7f4e487b71000000000000000000000000000000000000000000000000000000005f52604160045260245ffd5b61310e826130c8565b810181811067ffffffffffffffff8211171561312d5761312c6130d8565b5b80604052505050565b5f61313f612fc0565b905061314b8282613105565b919050565b5f67ffffffffffffffff82111561316a576131696130d8565b5b602082029050602081019050919050565b5f80fd5b5f61319161318c84613150565b613136565b905080838252602082019050602084028301858111156131b4576131b361317b565b5b835b818110156131dd57806131c9888261304a565b8452602084019350506020810190506131b6565b5050509392505050565b5f82601f8301126131fb576131fa6130c4565b5b813561320b84826020860161317f565b91505092915050565b5f80fd5b5f67ffffffffffffffff821115613232576132316130d8565b5b61323b826130c8565b9050602081019050919050565b828183375f83830152505050565b5f61326861326384613218565b613136565b90508281526020810184848401111561328457613283613214565b5b61328f848285613248565b509392505050565b5f82601f8301126132ab576132aa6130c4565b5b81356132bb848260208601613256565b91505092915050565b5f805f80608085870312156132dc576132db612fc9565b5b5f6132e987828801613017565b945050602085013567ffffffffffffffff81111561330a57613309612fcd565b5b613316878288016131e7565b935050604085013567ffffffffffffffff81111561333757613336612fcd565b5b613343878288016131e7565b925050606085013567ffffffffffffffff81111561336457613363612fcd565b5b61337087828801613297565b91505092959194509250565b5f7fffffffff0000000000000000000000000000000000000000000000000000000082169050919050565b6133b08161337c565b81146133ba575f80fd5b50565b5f813590506133cb816133a7565b92915050565b5f602082840312156133e6576133e5612fc9565b5b5f6133f3848285016133bd565b91505092915050565b5f8115159050919050565b613410816133fc565b82525050565b5f6020820190506134295f830184613407565b92915050565b5f6020828403121561344457613443612fc9565b5b5f6134518482850161304a565b91505092915050565b5f81519050919050565b5f82825260208201905092915050565b5f5b83811015613491578082015181840152602081019050613476565b5f8484015250505050565b5f6134a68261345a565b6134b08185613464565b93506134c0818560208601613474565b6134c9816130c8565b840191505092915050565b5f6020820190508181035f8301526134ec818461349c565b905092915050565b5f6020828403121561350957613508612fc9565b5b5f82013567ffffffffffffffff81111561352657613525612fcd565b5b613532848285016131e7565b91505092915050565b5f67ffffffffffffffff821115613555576135546130d8565b5b61355e826130c8565b9050602081019050919050565b5f61357d6135788461353b565b613136565b90508281526020810184848401111561359957613598613214565b5b6135a4848285613248565b509392505050565b5f82601f8301126135c0576135bf6130c4565b5b81356135d084826020860161356b565b91505092915050565b5f80604083850312156135ef576135ee612fc9565b5b5f6135fc8582860161304a565b925050602083013567ffffffffffffffff81111561361d5761361c612fcd565b5b613629858286016135ac565b9150509250929050565b61363c81612ff0565b82525050565b5f6020820190506136555f830184613633565b92915050565b5f819050919050565b61366d8161365b565b8114613677575f80fd5b50565b5f8135905061368881613664565b92915050565b5f602082840312156136a3576136a2612fc9565b5b5f6136b08482850161367a565b91505092915050565b6136c28161365b565b82525050565b5f6020820190506136db5f8301846136b9565b92915050565b5f805f805f60a086880312156136fa576136f9612fc9565b5b5f61370788828901613017565b955050602061371888828901613017565b945050604086013567ffffffffffffffff81111561373957613738612fcd565b5b613745888289016131e7565b935050606086013567ffffffffffffffff81111561376657613765612fcd565b5b613772888289016131e7565b925050608086013567ffffffffffffffff81111561379357613792612fcd565b5b61379f88828901613297565b9150509295509295909350565b5f80604083850312156137c2576137c1612fc9565b5b5f6137cf8582860161367a565b92505060206137e085828601613017565b9150509250929050565b5f67ffffffffffffffff821115613804576138036130d8565b5b602082029050602081019050919050565b5f613827613822846137ea565b613136565b9050808382526020820190506020840283018581111561384a5761384961317b565b5b835b81811015613873578061385f8882613017565b84526020840193505060208101905061384c565b5050509392505050565b5f82601f830112613891576138906130c4565b5b81356138a1848260208601613815565b91505092915050565b5f80604083850312156138c0576138bf612fc9565b5b5f83013567ffffffffffffffff8111156138dd576138dc612fcd565b5b6138e98582860161387d565b925050602083013567ffffffffffffffff81111561390a57613909612fcd565b5b613916858286016131e7565b9150509250929050565b5f81519050919050565b5f82825260208201905092915050565b5f819050602082019050919050565b6139528161302b565b82525050565b5f6139638383613949565b60208301905092915050565b5f602082019050919050565b5f61398582613920565b61398f818561392a565b935061399a8361393a565b805f5b838110156139ca5781516139b18882613958565b97506139bc8361396f565b92505060018101905061399d565b5085935050505092915050565b5f6020820190508181035f8301526139ef818461397b565b905092915050565b5f60e082019050613a0a5f83018a61309c565b613a17602083018961309c565b613a24604083018861309c565b613a31606083018761309c565b8181036080830152613a43818661349c565b9050613a5260a0830185613407565b613a5f60c0830184613407565b98975050505050505050565b5f60208284031215613a8057613a7f612fc9565b5b5f613a8d84828501613017565b91505092915050565b5f67ffffffffffffffff821115613ab057613aaf6130d8565b5b602082029050602081019050919050565b5f613ad3613ace84613a96565b613136565b90508083825260208201905060208402830185811115613af657613af561317b565b5b835b81811015613b3d57803567ffffffffffffffff811115613b1b57613b1a6130c4565b5b808601613b2889826135ac565b85526020850194505050602081019050613af8565b5050509392505050565b5f82601f830112613b5b57613b5a6130c4565b5b8135613b6b848260208601613ac1565b91505092915050565b5f805f8060808587031215613b8c57613b8b612fc9565b5b5f85013567ffffffffffffffff811115613ba957613ba8612fcd565b5b613bb5878288016131e7565b945050602085013567ffffffffffffffff811115613bd657613bd5612fcd565b5b613be2878288016131e7565b935050604085013567ffffffffffffffff811115613c0357613c02612fcd565b5b613c0f878288016131e7565b925050606085013567ffffffffffffffff811115613c3057613c2f612fcd565b5b613c3c87828801613b47565b91505092959194509250565b613c51816133fc565b8114613c5b575f80fd5b50565b5f81359050613c6c81613c48565b92915050565b5f8060408385031215613c8857613c87612fc9565b5b5f613c9585828601613017565b9250506020613ca685828601613c5e565b9150509250929050565b5f8060408385031215613cc657613cc5612fc9565b5b5f83013567ffffffffffffffff811115613ce357613ce2612fcd565b5b613cef858286016131e7565b925050602083013567ffffffffffffffff811115613d1057613d0f612fcd565b5b613d1c858286016131e7565b9150509250929050565b5f604082019050613d395f83018561309c565b613d466020830184613407565b9392505050565b5f805f60608486031215613d6457613d63612fc9565b5b5f613d7186828701613017565b9350506020613d828682870161304a565b9250506040613d938682870161304a565b9150509250925092565b5f8060408385031215613db357613db2612fc9565b5b5f613dc085828601613017565b9250506020613dd185828601613017565b9150509250929050565b5f805f805f60a08688031215613df457613df3612fc9565b5b5f613e0188828901613017565b9550506020613e1288828901613017565b9450506040613e238882890161304a565b9350506060613e348882890161304a565b925050608086013567ffffffffffffffff811115613e5557613e54612fcd565b5b613e6188828901613297565b9150509295509295909350565b7f446f65736e27742065786973742e0000000000000000000000000000000000005f82015250565b5f613ea2600e83613464565b9150613ead82613e6e565b602082019050919050565b5f6020820190508181035f830152613ecf81613e96565b9050919050565b5f81905092915050565b7f4d494e54455200000000000000000000000000000000000000000000000000005f82015250565b5f613f14600683613ed6565b9150613f1f82613ee0565b600682019050919050565b5f613f3482613f08565b9150819050919050565b7f4e487b71000000000000000000000000000000000000000000000000000000005f52603260045260245ffd5b7f4e487b71000000000000000000000000000000000000000000000000000000005f52601160045260245ffd5b5f613fa28261302b565b91507fffffffffffffffffffffffffffffffffffffffffffffffffffffffffffffffff8203613fd457613fd3613f6b565b5b600182019050919050565b7f4e487b71000000000000000000000000000000000000000000000000000000005f52602260045260245ffd5b5f600282049050600182168061402357607f821691505b60208210810361403657614035613fdf565b5b50919050565b5f819050815f5260205f209050919050565b5f6020601f8301049050919050565b5f82821b905092915050565b5f600883026140987fffffffffffffffffffffffffffffffffffffffffffffffffffffffffffffffff8261405d565b6140a2868361405d565b95508019841693508086168417925050509392505050565b5f819050919050565b5f6140dd6140d86140d38461302b565b6140ba565b61302b565b9050919050565b5f819050919050565b6140f6836140c3565b61410a614102826140e4565b848454614069565b825550505050565b5f90565b61411e614112565b6141298184846140ed565b505050565b5b8181101561414c576141415f82614116565b60018101905061412f565b5050565b601f821115614191576141628161403c565b61416b8461404e565b8101602085101561417a578190505b61418e6141868561404e565b83018261412e565b50505b505050565b5f82821c905092915050565b5f6141b15f1984600802614196565b1980831691505092915050565b5f6141c983836141a2565b9150826002028217905092915050565b6141e28261345a565b67ffffffffffffffff8111156141fb576141fa6130d8565b5b614205825461400c565b614210828285614150565b5f60209050601f831160018114614241575f841561422f578287015190505b61423985826141be565b8655506142a0565b601f19841661424f8661403c565b5f5b8281101561427657848901518255600182019150602085019450602081019050614251565b86831015614293578489015161428f601f8916826141a2565b8355505b6001600288020188555050505b505050505050565b5f6040820190506142bb5f830185613633565b6142c86020830184613633565b9392505050565b7f4e6f2066756e64730000000000000000000000000000000000000000000000005f82015250565b5f614303600883613464565b915061430e826142cf565b602082019050919050565b5f6020820190508181035f830152614330816142f7565b9050919050565b5f60408201905061434a5f83018561309c565b614357602083018461309c565b9392505050565b7f417272206e6f742073616d65206c6e00000000000000000000000000000000005f82015250565b5f614392600f83613464565b915061439d8261435e565b602082019050919050565b5f6020820190508181035f8301526143bf81614386565b9050919050565b5f6143d08261302b565b91506143db8361302b565b92508282039050818111156143f3576143f2613f6b565b5b92915050565b7f5061757365642e000000000000000000000000000000000000000000000000005f82015250565b5f61442d600783613464565b9150614438826143f9565b602082019050919050565b5f6020820190508181035f83015261445a81614421565b9050919050565b7f6e6f74203e2030000000000000000000000000000000000000000000000000005f82015250565b5f614495600783613464565b91506144a082614461565b602082019050919050565b5f6020820190508181035f8301526144c281614489565b9050919050565b5f6144d38261302b565b91506144de8361302b565b92508282026144ec8161302b565b9150828204841483151761450357614502613f6b565b5b5092915050565b5f6145148261302b565b915061451f8361302b565b925082820190508082111561453757614536613f6b565b5b92915050565b7f496e73756666696369656e742066756e64732e000000000000000000000000005f82015250565b5f614571601383613464565b915061457c8261453d565b602082019050919050565b5f6020820190508181035f83015261459e81614565565b9050919050565b7f416d6f756e74206d7573742062652067726561746572207468616e20302e00005f82015250565b5f6145d9601e83613464565b91506145e4826145a5565b602082019050919050565b5f6020820190508181035f830152614606816145cd565b9050919050565b7f4e6f7420656e6f75676820746f6b656e7320746f206275726e2e0000000000005f82015250565b5f614641601a83613464565b915061464c8261460d565b602082019050919050565b5f6020820190508181035f83015261466e81614635565b9050919050565b5f6040820190506146885f830185613633565b61469560208301846136b9565b9392505050565b5f6080820190506146af5f830187613633565b6146bc602083018661309c565b6146c9604083018561309c565b6146d6606083018461309c565b95945050505050565b5f6040820190508181035f8301526146f7818561397b565b9050818103602083015261470b818461397b565b90509392505050565b5f81519050919050565b5f82825260208201905092915050565b5f61473882614714565b614742818561471e565b9350614752818560208601613474565b61475b816130c8565b840191505092915050565b5f60a0820190506147795f830188613633565b6147866020830187613633565b614793604083018661309c565b6147a0606083018561309c565b81810360808301526147b2818461472e565b90509695505050505050565b5f815190506147cc816133a7565b92915050565b5f602082840312156147e7576147e6612fc9565b5b5f6147f4848285016147be565b91505092915050565b5f60a0820190506148105f830188613633565b61481d6020830187613633565b818103604083015261482f818661397b565b90508181036060830152614843818561397b565b90508181036080830152614857818461472e565b9050969550505050505056fea26469706673582212200a6e897e29e58e2d3ccc8b01e2e8c235abf4c652f624754a043d746ab3b8dbfb64736f6c63430008140033",
      "opcodes": "PUSH1 0x80 PUSH1 0x40 MSTORE CALLVALUE DUP1 ISZERO PUSH3 0x10 JUMPI PUSH0 DUP1 REVERT JUMPDEST POP PUSH1 0x40 MLOAD DUP1 PUSH1 0x40 ADD PUSH1 0x40 MSTORE DUP1 PUSH1 0xA DUP2 MSTORE PUSH1 0x20 ADD PUSH32 0x436570746F724469636500000000000000000000000000000000000000000000 DUP2 MSTORE POP PUSH3 0x58 DUP2 PUSH3 0xB4 PUSH1 0x20 SHL PUSH1 0x20 SHR JUMP JUMPDEST POP PUSH3 0x6D PUSH0 DUP1 SHL CALLER PUSH3 0xC9 PUSH1 0x20 SHL PUSH1 0x20 SHR JUMP JUMPDEST POP PUSH3 0xA6 PUSH1 0x40 MLOAD PUSH1 0x20 ADD PUSH3 0x83 SWAP1 PUSH3 0x288 JUMP JUMPDEST PUSH1 0x40 MLOAD PUSH1 0x20 DUP2 DUP4 SUB SUB DUP2 MSTORE SWAP1 PUSH1 0x40 MSTORE DUP1 MLOAD SWAP1 PUSH1 0x20 ADD KECCAK256 CALLER PUSH3 0xC9 PUSH1 0x20 SHL PUSH1 0x20 SHR JUMP JUMPDEST POP PUSH0 PUSH1 0x5 DUP2 SWAP1 SSTORE POP PUSH3 0x5E6 JUMP JUMPDEST DUP1 PUSH1 0x2 SWAP1 DUP2 PUSH3 0xC5 SWAP2 SWAP1 PUSH3 0x502 JUMP JUMPDEST POP POP JUMP JUMPDEST PUSH0 PUSH3 0xDC DUP4 DUP4 PUSH3 0x1C5 PUSH1 0x20 SHL PUSH1 0x20 SHR JUMP JUMPDEST PUSH3 0x1BB JUMPI PUSH1 0x1 PUSH1 0x3 PUSH0 DUP6 DUP2 MSTORE PUSH1 0x20 ADD SWAP1 DUP2 MSTORE PUSH1 0x20 ADD PUSH0 KECCAK256 PUSH0 ADD PUSH0 DUP5 PUSH20 0xFFFFFFFFFFFFFFFFFFFFFFFFFFFFFFFFFFFFFFFF AND PUSH20 0xFFFFFFFFFFFFFFFFFFFFFFFFFFFFFFFFFFFFFFFF AND DUP2 MSTORE PUSH1 0x20 ADD SWAP1 DUP2 MSTORE PUSH1 0x20 ADD PUSH0 KECCAK256 PUSH0 PUSH2 0x100 EXP DUP2 SLOAD DUP2 PUSH1 0xFF MUL NOT AND SWAP1 DUP4 ISZERO ISZERO MUL OR SWAP1 SSTORE POP PUSH3 0x157 PUSH3 0x229 PUSH1 0x20 SHL PUSH1 0x20 SHR JUMP JUMPDEST PUSH20 0xFFFFFFFFFFFFFFFFFFFFFFFFFFFFFFFFFFFFFFFF AND DUP3 PUSH20 0xFFFFFFFFFFFFFFFFFFFFFFFFFFFFFFFFFFFFFFFF AND DUP5 PUSH32 0x2F8788117E7EFF1D82E926EC794901D17C78024A50270940304540A733656F0D PUSH1 0x40 MLOAD PUSH1 0x40 MLOAD DUP1 SWAP2 SUB SWAP1 LOG4 PUSH1 0x1 SWAP1 POP PUSH3 0x1BF JUMP JUMPDEST PUSH0 SWAP1 POP JUMPDEST SWAP3 SWAP2 POP POP JUMP JUMPDEST PUSH0 PUSH1 0x3 PUSH0 DUP5 DUP2 MSTORE PUSH1 0x20 ADD SWAP1 DUP2 MSTORE PUSH1 0x20 ADD PUSH0 KECCAK256 PUSH0 ADD PUSH0 DUP4 PUSH20 0xFFFFFFFFFFFFFFFFFFFFFFFFFFFFFFFFFFFFFFFF AND PUSH20 0xFFFFFFFFFFFFFFFFFFFFFFFFFFFFFFFFFFFFFFFF AND DUP2 MSTORE PUSH1 0x20 ADD SWAP1 DUP2 MSTORE PUSH1 0x20 ADD PUSH0 KECCAK256 PUSH0 SWAP1 SLOAD SWAP1 PUSH2 0x100 EXP SWAP1 DIV PUSH1 0xFF AND SWAP1 POP SWAP3 SWAP2 POP POP JUMP JUMPDEST PUSH0 CALLER SWAP1 POP SWAP1 JUMP JUMPDEST PUSH0 DUP2 SWAP1 POP SWAP3 SWAP2 POP POP JUMP JUMPDEST PUSH32 0x4D494E5445520000000000000000000000000000000000000000000000000000 PUSH0 DUP3 ADD MSTORE POP JUMP JUMPDEST PUSH0 PUSH3 0x270 PUSH1 0x6 DUP4 PUSH3 0x230 JUMP JUMPDEST SWAP2 POP PUSH3 0x27D DUP3 PUSH3 0x23A JUMP JUMPDEST PUSH1 0x6 DUP3 ADD SWAP1 POP SWAP2 SWAP1 POP JUMP JUMPDEST PUSH0 PUSH3 0x294 DUP3 PUSH3 0x262 JUMP JUMPDEST SWAP2 POP DUP2 SWAP1 POP SWAP2 SWAP1 POP JUMP JUMPDEST PUSH0 DUP2 MLOAD SWAP1 POP SWAP2 SWAP1 POP JUMP JUMPDEST PUSH32 0x4E487B7100000000000000000000000000000000000000000000000000000000 PUSH0 MSTORE PUSH1 0x41 PUSH1 0x4 MSTORE PUSH1 0x24 PUSH0 REVERT JUMPDEST PUSH32 0x4E487B7100000000000000000000000000000000000000000000000000000000 PUSH0 MSTORE PUSH1 0x22 PUSH1 0x4 MSTORE PUSH1 0x24 PUSH0 REVERT JUMPDEST PUSH0 PUSH1 0x2 DUP3 DIV SWAP1 POP PUSH1 0x1 DUP3 AND DUP1 PUSH3 0x31A JUMPI PUSH1 0x7F DUP3 AND SWAP2 POP JUMPDEST PUSH1 0x20 DUP3 LT DUP2 SUB PUSH3 0x330 JUMPI PUSH3 0x32F PUSH3 0x2D5 JUMP JUMPDEST JUMPDEST POP SWAP2 SWAP1 POP JUMP JUMPDEST PUSH0 DUP2 SWAP1 POP DUP2 PUSH0 MSTORE PUSH1 0x20 PUSH0 KECCAK256 SWAP1 POP SWAP2 SWAP1 POP JUMP JUMPDEST PUSH0 PUSH1 0x20 PUSH1 0x1F DUP4 ADD DIV SWAP1 POP SWAP2 SWAP1 POP JUMP JUMPDEST PUSH0 DUP3 DUP3 SHL SWAP1 POP SWAP3 SWAP2 POP POP JUMP JUMPDEST PUSH0 PUSH1 0x8 DUP4 MUL PUSH3 0x394 PUSH32 0xFFFFFFFFFFFFFFFFFFFFFFFFFFFFFFFFFFFFFFFFFFFFFFFFFFFFFFFFFFFFFFFF DUP3 PUSH3 0x357 JUMP JUMPDEST PUSH3 0x3A0 DUP7 DUP4 PUSH3 0x357 JUMP JUMPDEST SWAP6 POP DUP1 NOT DUP5 AND SWAP4 POP DUP1 DUP7 AND DUP5 OR SWAP3 POP POP POP SWAP4 SWAP3 POP POP POP JUMP JUMPDEST PUSH0 DUP2 SWAP1 POP SWAP2 SWAP1 POP JUMP JUMPDEST PUSH0 DUP2 SWAP1 POP SWAP2 SWAP1 POP JUMP JUMPDEST PUSH0 PUSH3 0x3EA PUSH3 0x3E4 PUSH3 0x3DE DUP5 PUSH3 0x3B8 JUMP JUMPDEST PUSH3 0x3C1 JUMP JUMPDEST PUSH3 0x3B8 JUMP JUMPDEST SWAP1 POP SWAP2 SWAP1 POP JUMP JUMPDEST PUSH0 DUP2 SWAP1 POP SWAP2 SWAP1 POP JUMP JUMPDEST PUSH3 0x405 DUP4 PUSH3 0x3CA JUMP JUMPDEST PUSH3 0x41D PUSH3 0x414 DUP3 PUSH3 0x3F1 JUMP JUMPDEST DUP5 DUP5 SLOAD PUSH3 0x363 JUMP JUMPDEST DUP3 SSTORE POP POP POP POP JUMP JUMPDEST PUSH0 SWAP1 JUMP JUMPDEST PUSH3 0x433 PUSH3 0x425 JUMP JUMPDEST PUSH3 0x440 DUP2 DUP5 DUP5 PUSH3 0x3FA JUMP JUMPDEST POP POP POP JUMP JUMPDEST JUMPDEST DUP2 DUP2 LT ISZERO PUSH3 0x467 JUMPI PUSH3 0x45B PUSH0 DUP3 PUSH3 0x429 JUMP JUMPDEST PUSH1 0x1 DUP2 ADD SWAP1 POP PUSH3 0x446 JUMP JUMPDEST POP POP JUMP JUMPDEST PUSH1 0x1F DUP3 GT ISZERO PUSH3 0x4B6 JUMPI PUSH3 0x480 DUP2 PUSH3 0x336 JUMP JUMPDEST PUSH3 0x48B DUP5 PUSH3 0x348 JUMP JUMPDEST DUP2 ADD PUSH1 0x20 DUP6 LT ISZERO PUSH3 0x49B JUMPI DUP2 SWAP1 POP JUMPDEST PUSH3 0x4B3 PUSH3 0x4AA DUP6 PUSH3 0x348 JUMP JUMPDEST DUP4 ADD DUP3 PUSH3 0x445 JUMP JUMPDEST POP POP JUMPDEST POP POP POP JUMP JUMPDEST PUSH0 DUP3 DUP3 SHR SWAP1 POP SWAP3 SWAP2 POP POP JUMP JUMPDEST PUSH0 PUSH3 0x4D8 PUSH0 NOT DUP5 PUSH1 0x8 MUL PUSH3 0x4BB JUMP JUMPDEST NOT DUP1 DUP4 AND SWAP2 POP POP SWAP3 SWAP2 POP POP JUMP JUMPDEST PUSH0 PUSH3 0x4F2 DUP4 DUP4 PUSH3 0x4C7 JUMP JUMPDEST SWAP2 POP DUP3 PUSH1 0x2 MUL DUP3 OR SWAP1 POP SWAP3 SWAP2 POP POP JUMP JUMPDEST PUSH3 0x50D DUP3 PUSH3 0x29E JUMP JUMPDEST PUSH8 0xFFFFFFFFFFFFFFFF DUP2 GT ISZERO PUSH3 0x529 JUMPI PUSH3 0x528 PUSH3 0x2A8 JUMP JUMPDEST JUMPDEST PUSH3 0x535 DUP3 SLOAD PUSH3 0x302 JUMP JUMPDEST PUSH3 0x542 DUP3 DUP3 DUP6 PUSH3 0x46B JUMP JUMPDEST PUSH0 PUSH1 0x20 SWAP1 POP PUSH1 0x1F DUP4 GT PUSH1 0x1 DUP2 EQ PUSH3 0x578 JUMPI PUSH0 DUP5 ISZERO PUSH3 0x563 JUMPI DUP3 DUP8 ADD MLOAD SWAP1 POP JUMPDEST PUSH3 0x56F DUP6 DUP3 PUSH3 0x4E5 JUMP JUMPDEST DUP7 SSTORE POP PUSH3 0x5DE JUMP JUMPDEST PUSH1 0x1F NOT DUP5 AND PUSH3 0x588 DUP7 PUSH3 0x336 JUMP JUMPDEST PUSH0 JUMPDEST DUP3 DUP2 LT ISZERO PUSH3 0x5B1 JUMPI DUP5 DUP10 ADD MLOAD DUP3 SSTORE PUSH1 0x1 DUP3 ADD SWAP2 POP PUSH1 0x20 DUP6 ADD SWAP5 POP PUSH1 0x20 DUP2 ADD SWAP1 POP PUSH3 0x58A JUMP JUMPDEST DUP7 DUP4 LT ISZERO PUSH3 0x5D1 JUMPI DUP5 DUP10 ADD MLOAD PUSH3 0x5CD PUSH1 0x1F DUP10 AND DUP3 PUSH3 0x4C7 JUMP JUMPDEST DUP4 SSTORE POP JUMPDEST PUSH1 0x1 PUSH1 0x2 DUP9 MUL ADD DUP9 SSTORE POP POP POP JUMPDEST POP POP POP POP POP POP JUMP JUMPDEST PUSH2 0x4899 DUP1 PUSH3 0x5F4 PUSH0 CODECOPY PUSH0 RETURN INVALID PUSH1 0x80 PUSH1 0x40 MSTORE PUSH1 0x4 CALLDATASIZE LT PUSH2 0x1F7 JUMPI PUSH0 CALLDATALOAD PUSH1 0xE0 SHR DUP1 PUSH4 0x91D14854 GT PUSH2 0x10C JUMPI DUP1 PUSH4 0xD351CFDC GT PUSH2 0x9F JUMPI DUP1 PUSH4 0xE985E9C5 GT PUSH2 0x6E JUMPI DUP1 PUSH4 0xE985E9C5 EQ PUSH2 0x73C JUMPI DUP1 PUSH4 0xF242432A EQ PUSH2 0x778 JUMPI DUP1 PUSH4 0xF5298ACA EQ PUSH2 0x7A0 JUMPI DUP1 PUSH4 0xFA30297E EQ PUSH2 0x7C8 JUMPI DUP1 PUSH4 0xFE6D8124 EQ PUSH2 0x804 JUMPI PUSH2 0x1F7 JUMP JUMPDEST DUP1 PUSH4 0xD351CFDC EQ PUSH2 0x693 JUMPI DUP1 PUSH4 0xD547741F EQ PUSH2 0x6AF JUMPI DUP1 PUSH4 0xD778E38E EQ PUSH2 0x6D7 JUMPI DUP1 PUSH4 0xDF6A466A EQ PUSH2 0x714 JUMPI PUSH2 0x1F7 JUMP JUMPDEST DUP1 PUSH4 0xA488B4A4 GT PUSH2 0xDB JUMPI DUP1 PUSH4 0xA488B4A4 EQ PUSH2 0x5DD JUMPI DUP1 PUSH4 0xAA9EFA0E EQ PUSH2 0x607 JUMPI DUP1 PUSH4 0xB1881C53 EQ PUSH2 0x62F JUMPI DUP1 PUSH4 0xBD85B039 EQ PUSH2 0x657 JUMPI PUSH2 0x1F7 JUMP JUMPDEST DUP1 PUSH4 0x91D14854 EQ PUSH2 0x527 JUMPI DUP1 PUSH4 0x984D6663 EQ PUSH2 0x563 JUMPI DUP1 PUSH4 0xA217FDDF EQ PUSH2 0x58B JUMPI DUP1 PUSH4 0xA22CB465 EQ PUSH2 0x5B5 JUMPI PUSH2 0x1F7 JUMP JUMPDEST DUP1 PUSH4 0x2EB2C2D6 GT PUSH2 0x18F JUMPI DUP1 PUSH4 0x4E1273F4 GT PUSH2 0x15E JUMPI DUP1 PUSH4 0x4E1273F4 EQ PUSH2 0x41B JUMPI DUP1 PUSH4 0x4F64B2BE EQ PUSH2 0x457 JUMPI DUP1 PUSH4 0x6677AADA EQ PUSH2 0x499 JUMPI DUP1 PUSH4 0x6C410BEE EQ PUSH2 0x4D5 JUMPI DUP1 PUSH4 0x7E1C0C09 EQ PUSH2 0x4FD JUMPI PUSH2 0x1F7 JUMP JUMPDEST DUP1 PUSH4 0x2EB2C2D6 EQ PUSH2 0x38D JUMPI DUP1 PUSH4 0x2F2FF15D EQ PUSH2 0x3B5 JUMPI DUP1 PUSH4 0x36568ABE EQ PUSH2 0x3DD JUMPI DUP1 PUSH4 0x3CCFD60B EQ PUSH2 0x405 JUMPI PUSH2 0x1F7 JUMP JUMPDEST DUP1 PUSH4 0x114B8158 GT PUSH2 0x1CB JUMPI DUP1 PUSH4 0x114B8158 EQ PUSH2 0x2D7 JUMPI DUP1 PUSH4 0x162094C4 EQ PUSH2 0x2FF JUMPI DUP1 PUSH4 0x1F2298CB EQ PUSH2 0x327 JUMPI DUP1 PUSH4 0x248A9CA3 EQ PUSH2 0x351 JUMPI PUSH2 0x1F7 JUMP JUMPDEST DUP1 PUSH3 0xFDD58E EQ PUSH2 0x1FB JUMPI DUP1 PUSH4 0x1FEBE17 EQ PUSH2 0x237 JUMPI DUP1 PUSH4 0x1FFC9A7 EQ PUSH2 0x25F JUMPI DUP1 PUSH4 0xE89341C EQ PUSH2 0x29B JUMPI JUMPDEST PUSH0 DUP1 REVERT JUMPDEST CALLVALUE DUP1 ISZERO PUSH2 0x206 JUMPI PUSH0 DUP1 REVERT JUMPDEST POP PUSH2 0x221 PUSH1 0x4 DUP1 CALLDATASIZE SUB DUP2 ADD SWAP1 PUSH2 0x21C SWAP2 SWAP1 PUSH2 0x305E JUMP JUMPDEST PUSH2 0x82E JUMP JUMPDEST PUSH1 0x40 MLOAD PUSH2 0x22E SWAP2 SWAP1 PUSH2 0x30AB JUMP JUMPDEST PUSH1 0x40 MLOAD DUP1 SWAP2 SUB SWAP1 RETURN JUMPDEST CALLVALUE DUP1 ISZERO PUSH2 0x242 JUMPI PUSH0 DUP1 REVERT JUMPDEST POP PUSH2 0x25D PUSH1 0x4 DUP1 CALLDATASIZE SUB DUP2 ADD SWAP1 PUSH2 0x258 SWAP2 SWAP1 PUSH2 0x32C4 JUMP JUMPDEST PUSH2 0x8A2 JUMP JUMPDEST STOP JUMPDEST CALLVALUE DUP1 ISZERO PUSH2 0x26A JUMPI PUSH0 DUP1 REVERT JUMPDEST POP PUSH2 0x285 PUSH1 0x4 DUP1 CALLDATASIZE SUB DUP2 ADD SWAP1 PUSH2 0x280 SWAP2 SWAP1 PUSH2 0x33D1 JUMP JUMPDEST PUSH2 0x936 JUMP JUMPDEST PUSH1 0x40 MLOAD PUSH2 0x292 SWAP2 SWAP1 PUSH2 0x3416 JUMP JUMPDEST PUSH1 0x40 MLOAD DUP1 SWAP2 SUB SWAP1 RETURN JUMPDEST CALLVALUE DUP1 ISZERO PUSH2 0x2A6 JUMPI PUSH0 DUP1 REVERT JUMPDEST POP PUSH2 0x2C1 PUSH1 0x4 DUP1 CALLDATASIZE SUB DUP2 ADD SWAP1 PUSH2 0x2BC SWAP2 SWAP1 PUSH2 0x342F JUMP JUMPDEST PUSH2 0xA17 JUMP JUMPDEST PUSH1 0x40 MLOAD PUSH2 0x2CE SWAP2 SWAP1 PUSH2 0x34D4 JUMP JUMPDEST PUSH1 0x40 MLOAD DUP1 SWAP2 SUB SWAP1 RETURN JUMPDEST CALLVALUE DUP1 ISZERO PUSH2 0x2E2 JUMPI PUSH0 DUP1 REVERT JUMPDEST POP PUSH2 0x2FD PUSH1 0x4 DUP1 CALLDATASIZE SUB DUP2 ADD SWAP1 PUSH2 0x2F8 SWAP2 SWAP1 PUSH2 0x34F4 JUMP JUMPDEST PUSH2 0xB1C JUMP JUMPDEST STOP JUMPDEST CALLVALUE DUP1 ISZERO PUSH2 0x30A JUMPI PUSH0 DUP1 REVERT JUMPDEST POP PUSH2 0x325 PUSH1 0x4 DUP1 CALLDATASIZE SUB DUP2 ADD SWAP1 PUSH2 0x320 SWAP2 SWAP1 PUSH2 0x35D9 JUMP JUMPDEST PUSH2 0xC0C JUMP JUMPDEST STOP JUMPDEST CALLVALUE DUP1 ISZERO PUSH2 0x332 JUMPI PUSH0 DUP1 REVERT JUMPDEST POP PUSH2 0x33B PUSH2 0xCA0 JUMP JUMPDEST PUSH1 0x40 MLOAD PUSH2 0x348 SWAP2 SWAP1 PUSH2 0x3642 JUMP JUMPDEST PUSH1 0x40 MLOAD DUP1 SWAP2 SUB SWAP1 RETURN JUMPDEST CALLVALUE DUP1 ISZERO PUSH2 0x35C JUMPI PUSH0 DUP1 REVERT JUMPDEST POP PUSH2 0x377 PUSH1 0x4 DUP1 CALLDATASIZE SUB DUP2 ADD SWAP1 PUSH2 0x372 SWAP2 SWAP1 PUSH2 0x368E JUMP JUMPDEST PUSH2 0xCC5 JUMP JUMPDEST PUSH1 0x40 MLOAD PUSH2 0x384 SWAP2 SWAP1 PUSH2 0x36C8 JUMP JUMPDEST PUSH1 0x40 MLOAD DUP1 SWAP2 SUB SWAP1 RETURN JUMPDEST CALLVALUE DUP1 ISZERO PUSH2 0x398 JUMPI PUSH0 DUP1 REVERT JUMPDEST POP PUSH2 0x3B3 PUSH1 0x4 DUP1 CALLDATASIZE SUB DUP2 ADD SWAP1 PUSH2 0x3AE SWAP2 SWAP1 PUSH2 0x36E1 JUMP JUMPDEST PUSH2 0xCE2 JUMP JUMPDEST STOP JUMPDEST CALLVALUE DUP1 ISZERO PUSH2 0x3C0 JUMPI PUSH0 DUP1 REVERT JUMPDEST POP PUSH2 0x3DB PUSH1 0x4 DUP1 CALLDATASIZE SUB DUP2 ADD SWAP1 PUSH2 0x3D6 SWAP2 SWAP1 PUSH2 0x37AC JUMP JUMPDEST PUSH2 0xD89 JUMP JUMPDEST STOP JUMPDEST CALLVALUE DUP1 ISZERO PUSH2 0x3E8 JUMPI PUSH0 DUP1 REVERT JUMPDEST POP PUSH2 0x403 PUSH1 0x4 DUP1 CALLDATASIZE SUB DUP2 ADD SWAP1 PUSH2 0x3FE SWAP2 SWAP1 PUSH2 0x37AC JUMP JUMPDEST PUSH2 0xDAB JUMP JUMPDEST STOP JUMPDEST CALLVALUE DUP1 ISZERO PUSH2 0x410 JUMPI PUSH0 DUP1 REVERT JUMPDEST POP PUSH2 0x419 PUSH2 0xE26 JUMP JUMPDEST STOP JUMPDEST CALLVALUE DUP1 ISZERO PUSH2 0x426 JUMPI PUSH0 DUP1 REVERT JUMPDEST POP PUSH2 0x441 PUSH1 0x4 DUP1 CALLDATASIZE SUB DUP2 ADD SWAP1 PUSH2 0x43C SWAP2 SWAP1 PUSH2 0x38AA JUMP JUMPDEST PUSH2 0xEBB JUMP JUMPDEST PUSH1 0x40 MLOAD PUSH2 0x44E SWAP2 SWAP1 PUSH2 0x39D7 JUMP JUMPDEST PUSH1 0x40 MLOAD DUP1 SWAP2 SUB SWAP1 RETURN JUMPDEST CALLVALUE DUP1 ISZERO PUSH2 0x462 JUMPI PUSH0 DUP1 REVERT JUMPDEST POP PUSH2 0x47D PUSH1 0x4 DUP1 CALLDATASIZE SUB DUP2 ADD SWAP1 PUSH2 0x478 SWAP2 SWAP1 PUSH2 0x342F JUMP JUMPDEST PUSH2 0xFC8 JUMP JUMPDEST PUSH1 0x40 MLOAD PUSH2 0x490 SWAP8 SWAP7 SWAP6 SWAP5 SWAP4 SWAP3 SWAP2 SWAP1 PUSH2 0x39F7 JUMP JUMPDEST PUSH1 0x40 MLOAD DUP1 SWAP2 SUB SWAP1 RETURN JUMPDEST CALLVALUE DUP1 ISZERO PUSH2 0x4A4 JUMPI PUSH0 DUP1 REVERT JUMPDEST POP PUSH2 0x4BF PUSH1 0x4 DUP1 CALLDATASIZE SUB DUP2 ADD SWAP1 PUSH2 0x4BA SWAP2 SWAP1 PUSH2 0x3A6B JUMP JUMPDEST PUSH2 0x10A5 JUMP JUMPDEST PUSH1 0x40 MLOAD PUSH2 0x4CC SWAP2 SWAP1 PUSH2 0x3416 JUMP JUMPDEST PUSH1 0x40 MLOAD DUP1 SWAP2 SUB SWAP1 RETURN JUMPDEST CALLVALUE DUP1 ISZERO PUSH2 0x4E0 JUMPI PUSH0 DUP1 REVERT JUMPDEST POP PUSH2 0x4FB PUSH1 0x4 DUP1 CALLDATASIZE SUB DUP2 ADD SWAP1 PUSH2 0x4F6 SWAP2 SWAP1 PUSH2 0x3B74 JUMP JUMPDEST PUSH2 0x1145 JUMP JUMPDEST STOP JUMPDEST CALLVALUE DUP1 ISZERO PUSH2 0x508 JUMPI PUSH0 DUP1 REVERT JUMPDEST POP PUSH2 0x511 PUSH2 0x1317 JUMP JUMPDEST PUSH1 0x40 MLOAD PUSH2 0x51E SWAP2 SWAP1 PUSH2 0x30AB JUMP JUMPDEST PUSH1 0x40 MLOAD DUP1 SWAP2 SUB SWAP1 RETURN JUMPDEST CALLVALUE DUP1 ISZERO PUSH2 0x532 JUMPI PUSH0 DUP1 REVERT JUMPDEST POP PUSH2 0x54D PUSH1 0x4 DUP1 CALLDATASIZE SUB DUP2 ADD SWAP1 PUSH2 0x548 SWAP2 SWAP1 PUSH2 0x37AC JUMP JUMPDEST PUSH2 0x131D JUMP JUMPDEST PUSH1 0x40 MLOAD PUSH2 0x55A SWAP2 SWAP1 PUSH2 0x3416 JUMP JUMPDEST PUSH1 0x40 MLOAD DUP1 SWAP2 SUB SWAP1 RETURN JUMPDEST CALLVALUE DUP1 ISZERO PUSH2 0x56E JUMPI PUSH0 DUP1 REVERT JUMPDEST POP PUSH2 0x589 PUSH1 0x4 DUP1 CALLDATASIZE SUB DUP2 ADD SWAP1 PUSH2 0x584 SWAP2 SWAP1 PUSH2 0x3A6B JUMP JUMPDEST PUSH2 0x1381 JUMP JUMPDEST STOP JUMPDEST CALLVALUE DUP1 ISZERO PUSH2 0x596 JUMPI PUSH0 DUP1 REVERT JUMPDEST POP PUSH2 0x59F PUSH2 0x1407 JUMP JUMPDEST PUSH1 0x40 MLOAD PUSH2 0x5AC SWAP2 SWAP1 PUSH2 0x36C8 JUMP JUMPDEST PUSH1 0x40 MLOAD DUP1 SWAP2 SUB SWAP1 RETURN JUMPDEST CALLVALUE DUP1 ISZERO PUSH2 0x5C0 JUMPI PUSH0 DUP1 REVERT JUMPDEST POP PUSH2 0x5DB PUSH1 0x4 DUP1 CALLDATASIZE SUB DUP2 ADD SWAP1 PUSH2 0x5D6 SWAP2 SWAP1 PUSH2 0x3C72 JUMP JUMPDEST PUSH2 0x140D JUMP JUMPDEST STOP JUMPDEST CALLVALUE DUP1 ISZERO PUSH2 0x5E8 JUMPI PUSH0 DUP1 REVERT JUMPDEST POP PUSH2 0x5F1 PUSH2 0x1423 JUMP JUMPDEST PUSH1 0x40 MLOAD PUSH2 0x5FE SWAP2 SWAP1 PUSH2 0x36C8 JUMP JUMPDEST PUSH1 0x40 MLOAD DUP1 SWAP2 SUB SWAP1 RETURN JUMPDEST CALLVALUE DUP1 ISZERO PUSH2 0x612 JUMPI PUSH0 DUP1 REVERT JUMPDEST POP PUSH2 0x62D PUSH1 0x4 DUP1 CALLDATASIZE SUB DUP2 ADD SWAP1 PUSH2 0x628 SWAP2 SWAP1 PUSH2 0x34F4 JUMP JUMPDEST PUSH2 0x1447 JUMP JUMPDEST STOP JUMPDEST CALLVALUE DUP1 ISZERO PUSH2 0x63A JUMPI PUSH0 DUP1 REVERT JUMPDEST POP PUSH2 0x655 PUSH1 0x4 DUP1 CALLDATASIZE SUB DUP2 ADD SWAP1 PUSH2 0x650 SWAP2 SWAP1 PUSH2 0x3A6B JUMP JUMPDEST PUSH2 0x1536 JUMP JUMPDEST STOP JUMPDEST CALLVALUE DUP1 ISZERO PUSH2 0x662 JUMPI PUSH0 DUP1 REVERT JUMPDEST POP PUSH2 0x67D PUSH1 0x4 DUP1 CALLDATASIZE SUB DUP2 ADD SWAP1 PUSH2 0x678 SWAP2 SWAP1 PUSH2 0x342F JUMP JUMPDEST PUSH2 0x1586 JUMP JUMPDEST PUSH1 0x40 MLOAD PUSH2 0x68A SWAP2 SWAP1 PUSH2 0x30AB JUMP JUMPDEST PUSH1 0x40 MLOAD DUP1 SWAP2 SUB SWAP1 RETURN JUMPDEST PUSH2 0x6AD PUSH1 0x4 DUP1 CALLDATASIZE SUB DUP2 ADD SWAP1 PUSH2 0x6A8 SWAP2 SWAP1 PUSH2 0x3CB0 JUMP JUMPDEST PUSH2 0x1622 JUMP JUMPDEST STOP JUMPDEST CALLVALUE DUP1 ISZERO PUSH2 0x6BA JUMPI PUSH0 DUP1 REVERT JUMPDEST POP PUSH2 0x6D5 PUSH1 0x4 DUP1 CALLDATASIZE SUB DUP2 ADD SWAP1 PUSH2 0x6D0 SWAP2 SWAP1 PUSH2 0x37AC JUMP JUMPDEST PUSH2 0x19A3 JUMP JUMPDEST STOP JUMPDEST CALLVALUE DUP1 ISZERO PUSH2 0x6E2 JUMPI PUSH0 DUP1 REVERT JUMPDEST POP PUSH2 0x6FD PUSH1 0x4 DUP1 CALLDATASIZE SUB DUP2 ADD SWAP1 PUSH2 0x6F8 SWAP2 SWAP1 PUSH2 0x3A6B JUMP JUMPDEST PUSH2 0x19C5 JUMP JUMPDEST PUSH1 0x40 MLOAD PUSH2 0x70B SWAP3 SWAP2 SWAP1 PUSH2 0x3D26 JUMP JUMPDEST PUSH1 0x40 MLOAD DUP1 SWAP2 SUB SWAP1 RETURN JUMPDEST CALLVALUE DUP1 ISZERO PUSH2 0x71F JUMPI PUSH0 DUP1 REVERT JUMPDEST POP PUSH2 0x73A PUSH1 0x4 DUP1 CALLDATASIZE SUB DUP2 ADD SWAP1 PUSH2 0x735 SWAP2 SWAP1 PUSH2 0x3D4D JUMP JUMPDEST PUSH2 0x19F1 JUMP JUMPDEST STOP JUMPDEST CALLVALUE DUP1 ISZERO PUSH2 0x747 JUMPI PUSH0 DUP1 REVERT JUMPDEST POP PUSH2 0x762 PUSH1 0x4 DUP1 CALLDATASIZE SUB DUP2 ADD SWAP1 PUSH2 0x75D SWAP2 SWAP1 PUSH2 0x3D9D JUMP JUMPDEST PUSH2 0x1B38 JUMP JUMPDEST PUSH1 0x40 MLOAD PUSH2 0x76F SWAP2 SWAP1 PUSH2 0x3416 JUMP JUMPDEST PUSH1 0x40 MLOAD DUP1 SWAP2 SUB SWAP1 RETURN JUMPDEST CALLVALUE DUP1 ISZERO PUSH2 0x783 JUMPI PUSH0 DUP1 REVERT JUMPDEST POP PUSH2 0x79E PUSH1 0x4 DUP1 CALLDATASIZE SUB DUP2 ADD SWAP1 PUSH2 0x799 SWAP2 SWAP1 PUSH2 0x3DDB JUMP JUMPDEST PUSH2 0x1BC6 JUMP JUMPDEST STOP JUMPDEST CALLVALUE DUP1 ISZERO PUSH2 0x7AB JUMPI PUSH0 DUP1 REVERT JUMPDEST POP PUSH2 0x7C6 PUSH1 0x4 DUP1 CALLDATASIZE SUB DUP2 ADD SWAP1 PUSH2 0x7C1 SWAP2 SWAP1 PUSH2 0x3D4D JUMP JUMPDEST PUSH2 0x1C6D JUMP JUMPDEST STOP JUMPDEST CALLVALUE DUP1 ISZERO PUSH2 0x7D3 JUMPI PUSH0 DUP1 REVERT JUMPDEST POP PUSH2 0x7EE PUSH1 0x4 DUP1 CALLDATASIZE SUB DUP2 ADD SWAP1 PUSH2 0x7E9 SWAP2 SWAP1 PUSH2 0x3A6B JUMP JUMPDEST PUSH2 0x1DC5 JUMP JUMPDEST PUSH1 0x40 MLOAD PUSH2 0x7FB SWAP2 SWAP1 PUSH2 0x30AB JUMP JUMPDEST PUSH1 0x40 MLOAD DUP1 SWAP2 SUB SWAP1 RETURN JUMPDEST CALLVALUE DUP1 ISZERO PUSH2 0x80F JUMPI PUSH0 DUP1 REVERT JUMPDEST POP PUSH2 0x818 PUSH2 0x1DDA JUMP JUMPDEST PUSH1 0x40 MLOAD PUSH2 0x825 SWAP2 SWAP1 PUSH2 0x36C8 JUMP JUMPDEST PUSH1 0x40 MLOAD DUP1 SWAP2 SUB SWAP1 RETURN JUMPDEST PUSH0 PUSH1 0x6 PUSH0 DUP4 DUP2 MSTORE PUSH1 0x20 ADD SWAP1 DUP2 MSTORE PUSH1 0x20 ADD PUSH0 KECCAK256 PUSH1 0x5 ADD PUSH1 0x1 SWAP1 SLOAD SWAP1 PUSH2 0x100 EXP SWAP1 DIV PUSH1 0xFF AND PUSH2 0x890 JUMPI PUSH1 0x40 MLOAD PUSH32 0x8C379A000000000000000000000000000000000000000000000000000000000 DUP2 MSTORE PUSH1 0x4 ADD PUSH2 0x887 SWAP1 PUSH2 0x3EB8 JUMP JUMPDEST PUSH1 0x40 MLOAD DUP1 SWAP2 SUB SWAP1 REVERT JUMPDEST PUSH2 0x89A DUP4 DUP4 PUSH2 0x1E02 JUMP JUMPDEST SWAP1 POP SWAP3 SWAP2 POP POP JUMP JUMPDEST PUSH1 0x40 MLOAD PUSH1 0x20 ADD PUSH2 0x8B1 SWAP1 PUSH2 0x3F2A JUMP JUMPDEST PUSH1 0x40 MLOAD PUSH1 0x20 DUP2 DUP4 SUB SUB DUP2 MSTORE SWAP1 PUSH1 0x40 MSTORE DUP1 MLOAD SWAP1 PUSH1 0x20 ADD KECCAK256 PUSH2 0x8D0 DUP2 PUSH2 0x1E57 JUMP JUMPDEST PUSH0 JUMPDEST DUP5 MLOAD DUP2 LT ISZERO PUSH2 0x92E JUMPI PUSH2 0x91B DUP7 DUP7 DUP4 DUP2 MLOAD DUP2 LT PUSH2 0x8F2 JUMPI PUSH2 0x8F1 PUSH2 0x3F3E JUMP JUMPDEST JUMPDEST PUSH1 0x20 MUL PUSH1 0x20 ADD ADD MLOAD DUP7 DUP5 DUP2 MLOAD DUP2 LT PUSH2 0x90D JUMPI PUSH2 0x90C PUSH2 0x3F3E JUMP JUMPDEST JUMPDEST PUSH1 0x20 MUL PUSH1 0x20 ADD ADD MLOAD DUP7 PUSH2 0x1E6B JUMP JUMPDEST DUP1 DUP1 PUSH2 0x926 SWAP1 PUSH2 0x3F98 JUMP JUMPDEST SWAP2 POP POP PUSH2 0x8D2 JUMP JUMPDEST POP POP POP POP POP POP JUMP JUMPDEST PUSH0 PUSH32 0xD9B67A2600000000000000000000000000000000000000000000000000000000 PUSH28 0xFFFFFFFFFFFFFFFFFFFFFFFFFFFFFFFFFFFFFFFFFFFFFFFFFFFFFFFF NOT AND DUP3 PUSH28 0xFFFFFFFFFFFFFFFFFFFFFFFFFFFFFFFFFFFFFFFFFFFFFFFFFFFFFFFF NOT AND EQ DUP1 PUSH2 0xA00 JUMPI POP PUSH32 0x7965DB0B00000000000000000000000000000000000000000000000000000000 PUSH28 0xFFFFFFFFFFFFFFFFFFFFFFFFFFFFFFFFFFFFFFFFFFFFFFFFFFFFFFFF NOT AND DUP3 PUSH28 0xFFFFFFFFFFFFFFFFFFFFFFFFFFFFFFFFFFFFFFFFFFFFFFFFFFFFFFFF NOT AND EQ JUMPDEST DUP1 PUSH2 0xA10 JUMPI POP PUSH2 0xA0F DUP3 PUSH2 0x1F00 JUMP JUMPDEST JUMPDEST SWAP1 POP SWAP2 SWAP1 POP JUMP JUMPDEST PUSH1 0x60 PUSH1 0x6 PUSH0 DUP4 DUP2 MSTORE PUSH1 0x20 ADD SWAP1 DUP2 MSTORE PUSH1 0x20 ADD PUSH0 KECCAK256 PUSH1 0x5 ADD PUSH1 0x1 SWAP1 SLOAD SWAP1 PUSH2 0x100 EXP SWAP1 DIV PUSH1 0xFF AND PUSH2 0xA7A JUMPI PUSH1 0x40 MLOAD PUSH32 0x8C379A000000000000000000000000000000000000000000000000000000000 DUP2 MSTORE PUSH1 0x4 ADD PUSH2 0xA71 SWAP1 PUSH2 0x3EB8 JUMP JUMPDEST PUSH1 0x40 MLOAD DUP1 SWAP2 SUB SWAP1 REVERT JUMPDEST PUSH1 0x6 PUSH0 DUP4 DUP2 MSTORE PUSH1 0x20 ADD SWAP1 DUP2 MSTORE PUSH1 0x20 ADD PUSH0 KECCAK256 PUSH1 0x4 ADD DUP1 SLOAD PUSH2 0xA99 SWAP1 PUSH2 0x400C JUMP JUMPDEST DUP1 PUSH1 0x1F ADD PUSH1 0x20 DUP1 SWAP2 DIV MUL PUSH1 0x20 ADD PUSH1 0x40 MLOAD SWAP1 DUP2 ADD PUSH1 0x40 MSTORE DUP1 SWAP3 SWAP2 SWAP1 DUP2 DUP2 MSTORE PUSH1 0x20 ADD DUP3 DUP1 SLOAD PUSH2 0xAC5 SWAP1 PUSH2 0x400C JUMP JUMPDEST DUP1 ISZERO PUSH2 0xB10 JUMPI DUP1 PUSH1 0x1F LT PUSH2 0xAE7 JUMPI PUSH2 0x100 DUP1 DUP4 SLOAD DIV MUL DUP4 MSTORE SWAP2 PUSH1 0x20 ADD SWAP2 PUSH2 0xB10 JUMP JUMPDEST DUP3 ADD SWAP2 SWAP1 PUSH0 MSTORE PUSH1 0x20 PUSH0 KECCAK256 SWAP1 JUMPDEST DUP2 SLOAD DUP2 MSTORE SWAP1 PUSH1 0x1 ADD SWAP1 PUSH1 0x20 ADD DUP1 DUP4 GT PUSH2 0xAF3 JUMPI DUP3 SWAP1 SUB PUSH1 0x1F AND DUP3 ADD SWAP2 JUMPDEST POP POP POP POP POP SWAP1 POP SWAP2 SWAP1 POP JUMP JUMPDEST PUSH0 DUP1 SHL PUSH2 0xB28 DUP2 PUSH2 0x1E57 JUMP JUMPDEST PUSH0 JUMPDEST DUP3 MLOAD DUP2 LT ISZERO PUSH2 0xC07 JUMPI PUSH1 0x6 PUSH0 DUP5 DUP4 DUP2 MLOAD DUP2 LT PUSH2 0xB49 JUMPI PUSH2 0xB48 PUSH2 0x3F3E JUMP JUMPDEST JUMPDEST PUSH1 0x20 MUL PUSH1 0x20 ADD ADD MLOAD DUP2 MSTORE PUSH1 0x20 ADD SWAP1 DUP2 MSTORE PUSH1 0x20 ADD PUSH0 KECCAK256 PUSH1 0x5 ADD PUSH1 0x1 SWAP1 SLOAD SWAP1 PUSH2 0x100 EXP SWAP1 DIV PUSH1 0xFF AND PUSH2 0xBAE JUMPI PUSH1 0x40 MLOAD PUSH32 0x8C379A000000000000000000000000000000000000000000000000000000000 DUP2 MSTORE PUSH1 0x4 ADD PUSH2 0xBA5 SWAP1 PUSH2 0x3EB8 JUMP JUMPDEST PUSH1 0x40 MLOAD DUP1 SWAP2 SUB SWAP1 REVERT JUMPDEST PUSH1 0x1 PUSH1 0x6 PUSH0 DUP6 DUP5 DUP2 MLOAD DUP2 LT PUSH2 0xBC6 JUMPI PUSH2 0xBC5 PUSH2 0x3F3E JUMP JUMPDEST JUMPDEST PUSH1 0x20 MUL PUSH1 0x20 ADD ADD MLOAD DUP2 MSTORE PUSH1 0x20 ADD SWAP1 DUP2 MSTORE PUSH1 0x20 ADD PUSH0 KECCAK256 PUSH1 0x5 ADD PUSH0 PUSH2 0x100 EXP DUP2 SLOAD DUP2 PUSH1 0xFF MUL NOT AND SWAP1 DUP4 ISZERO ISZERO MUL OR SWAP1 SSTORE POP DUP1 DUP1 PUSH2 0xBFF SWAP1 PUSH2 0x3F98 JUMP JUMPDEST SWAP2 POP POP PUSH2 0xB2A JUMP JUMPDEST POP POP POP JUMP JUMPDEST PUSH0 DUP1 SHL PUSH2 0xC18 DUP2 PUSH2 0x1E57 JUMP JUMPDEST PUSH1 0x6 PUSH0 DUP5 DUP2 MSTORE PUSH1 0x20 ADD SWAP1 DUP2 MSTORE PUSH1 0x20 ADD PUSH0 KECCAK256 PUSH1 0x5 ADD PUSH1 0x1 SWAP1 SLOAD SWAP1 PUSH2 0x100 EXP SWAP1 DIV PUSH1 0xFF AND PUSH2 0xC79 JUMPI PUSH1 0x40 MLOAD PUSH32 0x8C379A000000000000000000000000000000000000000000000000000000000 DUP2 MSTORE PUSH1 0x4 ADD PUSH2 0xC70 SWAP1 PUSH2 0x3EB8 JUMP JUMPDEST PUSH1 0x40 MLOAD DUP1 SWAP2 SUB SWAP1 REVERT JUMPDEST DUP2 PUSH1 0x6 PUSH0 DUP6 DUP2 MSTORE PUSH1 0x20 ADD SWAP1 DUP2 MSTORE PUSH1 0x20 ADD PUSH0 KECCAK256 PUSH1 0x4 ADD SWAP1 DUP2 PUSH2 0xC9A SWAP2 SWAP1 PUSH2 0x41D9 JUMP JUMPDEST POP POP POP POP JUMP JUMPDEST PUSH1 0x8 PUSH0 SWAP1 SLOAD SWAP1 PUSH2 0x100 EXP SWAP1 DIV PUSH20 0xFFFFFFFFFFFFFFFFFFFFFFFFFFFFFFFFFFFFFFFF AND DUP2 JUMP JUMPDEST PUSH0 PUSH1 0x3 PUSH0 DUP4 DUP2 MSTORE PUSH1 0x20 ADD SWAP1 DUP2 MSTORE PUSH1 0x20 ADD PUSH0 KECCAK256 PUSH1 0x1 ADD SLOAD SWAP1 POP SWAP2 SWAP1 POP JUMP JUMPDEST PUSH0 PUSH2 0xCEB PUSH2 0x1F79 JUMP JUMPDEST SWAP1 POP DUP1 PUSH20 0xFFFFFFFFFFFFFFFFFFFFFFFFFFFFFFFFFFFFFFFF AND DUP7 PUSH20 0xFFFFFFFFFFFFFFFFFFFFFFFFFFFFFFFFFFFFFFFF AND EQ ISZERO DUP1 ISZERO PUSH2 0xD30 JUMPI POP PUSH2 0xD2E DUP7 DUP3 PUSH2 0x1B38 JUMP JUMPDEST ISZERO JUMPDEST ISZERO PUSH2 0xD74 JUMPI DUP1 DUP7 PUSH1 0x40 MLOAD PUSH32 0xE237D92200000000000000000000000000000000000000000000000000000000 DUP2 MSTORE PUSH1 0x4 ADD PUSH2 0xD6B SWAP3 SWAP2 SWAP1 PUSH2 0x42A8 JUMP JUMPDEST PUSH1 0x40 MLOAD DUP1 SWAP2 SUB SWAP1 REVERT JUMPDEST PUSH2 0xD81 DUP7 DUP7 DUP7 DUP7 DUP7 PUSH2 0x1F80 JUMP JUMPDEST POP POP POP POP POP POP JUMP JUMPDEST PUSH2 0xD92 DUP3 PUSH2 0xCC5 JUMP JUMPDEST PUSH2 0xD9B DUP2 PUSH2 0x1E57 JUMP JUMPDEST PUSH2 0xDA5 DUP4 DUP4 PUSH2 0x2074 JUMP JUMPDEST POP POP POP POP JUMP JUMPDEST PUSH2 0xDB3 PUSH2 0x1F79 JUMP JUMPDEST PUSH20 0xFFFFFFFFFFFFFFFFFFFFFFFFFFFFFFFFFFFFFFFF AND DUP2 PUSH20 0xFFFFFFFFFFFFFFFFFFFFFFFFFFFFFFFFFFFFFFFF AND EQ PUSH2 0xE17 JUMPI PUSH1 0x40 MLOAD PUSH32 0x6697B23200000000000000000000000000000000000000000000000000000000 DUP2 MSTORE PUSH1 0x4 ADD PUSH1 0x40 MLOAD DUP1 SWAP2 SUB SWAP1 REVERT JUMPDEST PUSH2 0xE21 DUP3 DUP3 PUSH2 0x215E JUMP JUMPDEST POP POP POP JUMP JUMPDEST PUSH0 DUP1 SHL PUSH2 0xE32 DUP2 PUSH2 0x1E57 JUMP JUMPDEST PUSH0 SELFBALANCE GT PUSH2 0xE74 JUMPI PUSH1 0x40 MLOAD PUSH32 0x8C379A000000000000000000000000000000000000000000000000000000000 DUP2 MSTORE PUSH1 0x4 ADD PUSH2 0xE6B SWAP1 PUSH2 0x4319 JUMP JUMPDEST PUSH1 0x40 MLOAD DUP1 SWAP2 SUB SWAP1 REVERT JUMPDEST CALLER PUSH20 0xFFFFFFFFFFFFFFFFFFFFFFFFFFFFFFFFFFFFFFFF AND PUSH2 0x8FC SELFBALANCE SWAP1 DUP2 ISZERO MUL SWAP1 PUSH1 0x40 MLOAD PUSH0 PUSH1 0x40 MLOAD DUP1 DUP4 SUB DUP2 DUP6 DUP9 DUP9 CALL SWAP4 POP POP POP POP ISZERO DUP1 ISZERO PUSH2 0xEB7 JUMPI RETURNDATASIZE PUSH0 DUP1 RETURNDATACOPY RETURNDATASIZE PUSH0 REVERT JUMPDEST POP POP JUMP JUMPDEST PUSH1 0x60 DUP2 MLOAD DUP4 MLOAD EQ PUSH2 0xF07 JUMPI DUP2 MLOAD DUP4 MLOAD PUSH1 0x40 MLOAD PUSH32 0x5B05999100000000000000000000000000000000000000000000000000000000 DUP2 MSTORE PUSH1 0x4 ADD PUSH2 0xEFE SWAP3 SWAP2 SWAP1 PUSH2 0x4337 JUMP JUMPDEST PUSH1 0x40 MLOAD DUP1 SWAP2 SUB SWAP1 REVERT JUMPDEST PUSH0 DUP4 MLOAD PUSH8 0xFFFFFFFFFFFFFFFF DUP2 GT ISZERO PUSH2 0xF23 JUMPI PUSH2 0xF22 PUSH2 0x30D8 JUMP JUMPDEST JUMPDEST PUSH1 0x40 MLOAD SWAP1 DUP1 DUP3 MSTORE DUP1 PUSH1 0x20 MUL PUSH1 0x20 ADD DUP3 ADD PUSH1 0x40 MSTORE DUP1 ISZERO PUSH2 0xF51 JUMPI DUP2 PUSH1 0x20 ADD PUSH1 0x20 DUP3 MUL DUP1 CALLDATASIZE DUP4 CALLDATACOPY DUP1 DUP3 ADD SWAP2 POP POP SWAP1 POP JUMPDEST POP SWAP1 POP PUSH0 JUMPDEST DUP5 MLOAD DUP2 LT ISZERO PUSH2 0xFBD JUMPI PUSH2 0xF8D PUSH2 0xF75 DUP3 DUP8 PUSH2 0x2248 SWAP1 SWAP2 SWAP1 PUSH4 0xFFFFFFFF AND JUMP JUMPDEST PUSH2 0xF88 DUP4 DUP8 PUSH2 0x225B SWAP1 SWAP2 SWAP1 PUSH4 0xFFFFFFFF AND JUMP JUMPDEST PUSH2 0x82E JUMP JUMPDEST DUP3 DUP3 DUP2 MLOAD DUP2 LT PUSH2 0xFA0 JUMPI PUSH2 0xF9F PUSH2 0x3F3E JUMP JUMPDEST JUMPDEST PUSH1 0x20 MUL PUSH1 0x20 ADD ADD DUP2 DUP2 MSTORE POP POP DUP1 PUSH2 0xFB6 SWAP1 PUSH2 0x3F98 JUMP JUMPDEST SWAP1 POP PUSH2 0xF56 JUMP JUMPDEST POP DUP1 SWAP2 POP POP SWAP3 SWAP2 POP POP JUMP JUMPDEST PUSH1 0x6 PUSH1 0x20 MSTORE DUP1 PUSH0 MSTORE PUSH1 0x40 PUSH0 KECCAK256 PUSH0 SWAP2 POP SWAP1 POP DUP1 PUSH0 ADD SLOAD SWAP1 DUP1 PUSH1 0x1 ADD SLOAD SWAP1 DUP1 PUSH1 0x2 ADD SLOAD SWAP1 DUP1 PUSH1 0x3 ADD SLOAD SWAP1 DUP1 PUSH1 0x4 ADD DUP1 SLOAD PUSH2 0xFFF SWAP1 PUSH2 0x400C JUMP JUMPDEST DUP1 PUSH1 0x1F ADD PUSH1 0x20 DUP1 SWAP2 DIV MUL PUSH1 0x20 ADD PUSH1 0x40 MLOAD SWAP1 DUP2 ADD PUSH1 0x40 MSTORE DUP1 SWAP3 SWAP2 SWAP1 DUP2 DUP2 MSTORE PUSH1 0x20 ADD DUP3 DUP1 SLOAD PUSH2 0x102B SWAP1 PUSH2 0x400C JUMP JUMPDEST DUP1 ISZERO PUSH2 0x1076 JUMPI DUP1 PUSH1 0x1F LT PUSH2 0x104D JUMPI PUSH2 0x100 DUP1 DUP4 SLOAD DIV MUL DUP4 MSTORE SWAP2 PUSH1 0x20 ADD SWAP2 PUSH2 0x1076 JUMP JUMPDEST DUP3 ADD SWAP2 SWAP1 PUSH0 MSTORE PUSH1 0x20 PUSH0 KECCAK256 SWAP1 JUMPDEST DUP2 SLOAD DUP2 MSTORE SWAP1 PUSH1 0x1 ADD SWAP1 PUSH1 0x20 ADD DUP1 DUP4 GT PUSH2 0x1059 JUMPI DUP3 SWAP1 SUB PUSH1 0x1F AND DUP3 ADD SWAP2 JUMPDEST POP POP POP POP POP SWAP1 DUP1 PUSH1 0x5 ADD PUSH0 SWAP1 SLOAD SWAP1 PUSH2 0x100 EXP SWAP1 DIV PUSH1 0xFF AND SWAP1 DUP1 PUSH1 0x5 ADD PUSH1 0x1 SWAP1 SLOAD SWAP1 PUSH2 0x100 EXP SWAP1 DIV PUSH1 0xFF AND SWAP1 POP DUP8 JUMP JUMPDEST PUSH0 TIMESTAMP PUSH1 0x4 PUSH0 DUP5 PUSH20 0xFFFFFFFFFFFFFFFFFFFFFFFFFFFFFFFFFFFFFFFF AND PUSH20 0xFFFFFFFFFFFFFFFFFFFFFFFFFFFFFFFFFFFFFFFF AND DUP2 MSTORE PUSH1 0x20 ADD SWAP1 DUP2 MSTORE PUSH1 0x20 ADD PUSH0 KECCAK256 PUSH0 ADD SLOAD GT DUP1 ISZERO PUSH2 0x113E JUMPI POP PUSH1 0x4 PUSH0 DUP4 PUSH20 0xFFFFFFFFFFFFFFFFFFFFFFFFFFFFFFFFFFFFFFFF AND PUSH20 0xFFFFFFFFFFFFFFFFFFFFFFFFFFFFFFFFFFFFFFFF AND DUP2 MSTORE PUSH1 0x20 ADD SWAP1 DUP2 MSTORE PUSH1 0x20 ADD PUSH0 KECCAK256 PUSH1 0x1 ADD PUSH0 SWAP1 SLOAD SWAP1 PUSH2 0x100 EXP SWAP1 DIV PUSH1 0xFF AND ISZERO JUMPDEST SWAP1 POP SWAP2 SWAP1 POP JUMP JUMPDEST PUSH0 DUP1 SHL PUSH2 0x1151 DUP2 PUSH2 0x1E57 JUMP JUMPDEST DUP2 MLOAD DUP6 MLOAD EQ DUP1 ISZERO PUSH2 0x1163 JUMPI POP DUP4 MLOAD DUP6 MLOAD EQ JUMPDEST PUSH2 0x11A2 JUMPI PUSH1 0x40 MLOAD PUSH32 0x8C379A000000000000000000000000000000000000000000000000000000000 DUP2 MSTORE PUSH1 0x4 ADD PUSH2 0x1199 SWAP1 PUSH2 0x43A8 JUMP JUMPDEST PUSH1 0x40 MLOAD DUP1 SWAP2 SUB SWAP1 REVERT JUMPDEST PUSH0 JUMPDEST DUP6 MLOAD DUP2 LT ISZERO PUSH2 0x130F JUMPI PUSH0 PUSH1 0x6 PUSH0 DUP9 DUP5 DUP2 MLOAD DUP2 LT PUSH2 0x11C4 JUMPI PUSH2 0x11C3 PUSH2 0x3F3E JUMP JUMPDEST JUMPDEST PUSH1 0x20 MUL PUSH1 0x20 ADD ADD MLOAD DUP2 MSTORE PUSH1 0x20 ADD SWAP1 DUP2 MSTORE PUSH1 0x20 ADD PUSH0 KECCAK256 PUSH1 0x5 ADD PUSH1 0x1 SWAP1 SLOAD SWAP1 PUSH2 0x100 EXP SWAP1 DIV PUSH1 0xFF AND PUSH2 0x11F3 JUMPI PUSH1 0x1 SWAP1 POP JUMPDEST PUSH0 PUSH1 0x6 PUSH0 DUP10 DUP6 DUP2 MLOAD DUP2 LT PUSH2 0x120A JUMPI PUSH2 0x1209 PUSH2 0x3F3E JUMP JUMPDEST JUMPDEST PUSH1 0x20 MUL PUSH1 0x20 ADD ADD MLOAD DUP2 MSTORE PUSH1 0x20 ADD SWAP1 DUP2 MSTORE PUSH1 0x20 ADD PUSH0 KECCAK256 SWAP1 POP DUP7 DUP4 DUP2 MLOAD DUP2 LT PUSH2 0x1234 JUMPI PUSH2 0x1233 PUSH2 0x3F3E JUMP JUMPDEST JUMPDEST PUSH1 0x20 MUL PUSH1 0x20 ADD ADD MLOAD DUP2 PUSH1 0x3 ADD DUP2 SWAP1 SSTORE POP DUP5 DUP4 DUP2 MLOAD DUP2 LT PUSH2 0x1257 JUMPI PUSH2 0x1256 PUSH2 0x3F3E JUMP JUMPDEST JUMPDEST PUSH1 0x20 MUL PUSH1 0x20 ADD ADD MLOAD DUP2 PUSH1 0x4 ADD SWAP1 DUP2 PUSH2 0x126F SWAP2 SWAP1 PUSH2 0x41D9 JUMP JUMPDEST POP DUP6 DUP4 DUP2 MLOAD DUP2 LT PUSH2 0x1283 JUMPI PUSH2 0x1282 PUSH2 0x3F3E JUMP JUMPDEST JUMPDEST PUSH1 0x20 MUL PUSH1 0x20 ADD ADD MLOAD DUP2 PUSH1 0x2 ADD DUP2 SWAP1 SSTORE POP DUP2 ISZERO PUSH2 0x12FA JUMPI PUSH0 DUP2 PUSH0 ADD DUP2 SWAP1 SSTORE POP PUSH0 DUP2 PUSH1 0x1 ADD DUP2 SWAP1 SSTORE POP PUSH1 0x1 DUP2 PUSH1 0x5 ADD PUSH1 0x1 PUSH2 0x100 EXP DUP2 SLOAD DUP2 PUSH1 0xFF MUL NOT AND SWAP1 DUP4 ISZERO ISZERO MUL OR SWAP1 SSTORE POP PUSH0 DUP2 PUSH1 0x5 ADD PUSH0 PUSH2 0x100 EXP DUP2 SLOAD DUP2 PUSH1 0xFF MUL NOT AND SWAP1 DUP4 ISZERO ISZERO MUL OR SWAP1 SSTORE POP PUSH1 0x5 PUSH0 DUP2 SLOAD DUP1 SWAP3 SWAP2 SWAP1 PUSH2 0x12F4 SWAP1 PUSH2 0x3F98 JUMP JUMPDEST SWAP2 SWAP1 POP SSTORE POP JUMPDEST POP POP DUP1 DUP1 PUSH2 0x1307 SWAP1 PUSH2 0x3F98 JUMP JUMPDEST SWAP2 POP POP PUSH2 0x11A4 JUMP JUMPDEST POP POP POP POP POP POP JUMP JUMPDEST PUSH1 0x5 SLOAD DUP2 JUMP JUMPDEST PUSH0 PUSH1 0x3 PUSH0 DUP5 DUP2 MSTORE PUSH1 0x20 ADD SWAP1 DUP2 MSTORE PUSH1 0x20 ADD PUSH0 KECCAK256 PUSH0 ADD PUSH0 DUP4 PUSH20 0xFFFFFFFFFFFFFFFFFFFFFFFFFFFFFFFFFFFFFFFF AND PUSH20 0xFFFFFFFFFFFFFFFFFFFFFFFFFFFFFFFFFFFFFFFF AND DUP2 MSTORE PUSH1 0x20 ADD SWAP1 DUP2 MSTORE PUSH1 0x20 ADD PUSH0 KECCAK256 PUSH0 SWAP1 SLOAD SWAP1 PUSH2 0x100 EXP SWAP1 DIV PUSH1 0xFF AND SWAP1 POP SWAP3 SWAP2 POP POP JUMP JUMPDEST PUSH32 0xD454ABE7B9BDFB22796419A2E5A8D6DE1A0F4C51476EF2D4A4CFAB43221D89E6 PUSH2 0x13AB DUP2 PUSH2 0x1E57 JUMP JUMPDEST PUSH1 0x1 PUSH1 0x4 PUSH0 DUP5 PUSH20 0xFFFFFFFFFFFFFFFFFFFFFFFFFFFFFFFFFFFFFFFF AND PUSH20 0xFFFFFFFFFFFFFFFFFFFFFFFFFFFFFFFFFFFFFFFF AND DUP2 MSTORE PUSH1 0x20 ADD SWAP1 DUP2 MSTORE PUSH1 0x20 ADD PUSH0 KECCAK256 PUSH1 0x1 ADD PUSH0 PUSH2 0x100 EXP DUP2 SLOAD DUP2 PUSH1 0xFF MUL NOT AND SWAP1 DUP4 ISZERO ISZERO MUL OR SWAP1 SSTORE POP POP POP JUMP JUMPDEST PUSH0 DUP1 SHL DUP2 JUMP JUMPDEST PUSH2 0x141F PUSH2 0x1418 PUSH2 0x1F79 JUMP JUMPDEST DUP4 DUP4 PUSH2 0x226E JUMP JUMPDEST POP POP JUMP JUMPDEST PUSH32 0xD454ABE7B9BDFB22796419A2E5A8D6DE1A0F4C51476EF2D4A4CFAB43221D89E6 DUP2 JUMP JUMPDEST PUSH0 DUP1 SHL PUSH2 0x1453 DUP2 PUSH2 0x1E57 JUMP JUMPDEST PUSH0 JUMPDEST DUP3 MLOAD DUP2 LT ISZERO PUSH2 0x1531 JUMPI PUSH1 0x6 PUSH0 DUP5 DUP4 DUP2 MLOAD DUP2 LT PUSH2 0x1474 JUMPI PUSH2 0x1473 PUSH2 0x3F3E JUMP JUMPDEST JUMPDEST PUSH1 0x20 MUL PUSH1 0x20 ADD ADD MLOAD DUP2 MSTORE PUSH1 0x20 ADD SWAP1 DUP2 MSTORE PUSH1 0x20 ADD PUSH0 KECCAK256 PUSH1 0x5 ADD PUSH1 0x1 SWAP1 SLOAD SWAP1 PUSH2 0x100 EXP SWAP1 DIV PUSH1 0xFF AND PUSH2 0x14D9 JUMPI PUSH1 0x40 MLOAD PUSH32 0x8C379A000000000000000000000000000000000000000000000000000000000 DUP2 MSTORE PUSH1 0x4 ADD PUSH2 0x14D0 SWAP1 PUSH2 0x3EB8 JUMP JUMPDEST PUSH1 0x40 MLOAD DUP1 SWAP2 SUB SWAP1 REVERT JUMPDEST PUSH0 PUSH1 0x6 PUSH0 DUP6 DUP5 DUP2 MLOAD DUP2 LT PUSH2 0x14F0 JUMPI PUSH2 0x14EF PUSH2 0x3F3E JUMP JUMPDEST JUMPDEST PUSH1 0x20 MUL PUSH1 0x20 ADD ADD MLOAD DUP2 MSTORE PUSH1 0x20 ADD SWAP1 DUP2 MSTORE PUSH1 0x20 ADD PUSH0 KECCAK256 PUSH1 0x5 ADD PUSH0 PUSH2 0x100 EXP DUP2 SLOAD DUP2 PUSH1 0xFF MUL NOT AND SWAP1 DUP4 ISZERO ISZERO MUL OR SWAP1 SSTORE POP DUP1 DUP1 PUSH2 0x1529 SWAP1 PUSH2 0x3F98 JUMP JUMPDEST SWAP2 POP POP PUSH2 0x1455 JUMP JUMPDEST POP POP POP JUMP JUMPDEST PUSH0 DUP1 SHL PUSH2 0x1542 DUP2 PUSH2 0x1E57 JUMP JUMPDEST DUP2 PUSH1 0x8 PUSH0 PUSH2 0x100 EXP DUP2 SLOAD DUP2 PUSH20 0xFFFFFFFFFFFFFFFFFFFFFFFFFFFFFFFFFFFFFFFF MUL NOT AND SWAP1 DUP4 PUSH20 0xFFFFFFFFFFFFFFFFFFFFFFFFFFFFFFFFFFFFFFFF AND MUL OR SWAP1 SSTORE POP POP POP JUMP JUMPDEST PUSH0 PUSH1 0x6 PUSH0 DUP4 DUP2 MSTORE PUSH1 0x20 ADD SWAP1 DUP2 MSTORE PUSH1 0x20 ADD PUSH0 KECCAK256 PUSH1 0x5 ADD PUSH1 0x1 SWAP1 SLOAD SWAP1 PUSH2 0x100 EXP SWAP1 DIV PUSH1 0xFF AND PUSH2 0x15E8 JUMPI PUSH1 0x40 MLOAD PUSH32 0x8C379A000000000000000000000000000000000000000000000000000000000 DUP2 MSTORE PUSH1 0x4 ADD PUSH2 0x15DF SWAP1 PUSH2 0x3EB8 JUMP JUMPDEST PUSH1 0x40 MLOAD DUP1 SWAP2 SUB SWAP1 REVERT JUMPDEST PUSH1 0x6 PUSH0 DUP4 DUP2 MSTORE PUSH1 0x20 ADD SWAP1 DUP2 MSTORE PUSH1 0x20 ADD PUSH0 KECCAK256 PUSH1 0x1 ADD SLOAD PUSH1 0x6 PUSH0 DUP5 DUP2 MSTORE PUSH1 0x20 ADD SWAP1 DUP2 MSTORE PUSH1 0x20 ADD PUSH0 KECCAK256 PUSH0 ADD SLOAD PUSH2 0x161B SWAP2 SWAP1 PUSH2 0x43C6 JUMP JUMPDEST SWAP1 POP SWAP2 SWAP1 POP JUMP JUMPDEST DUP1 MLOAD DUP3 MLOAD EQ PUSH2 0x1666 JUMPI PUSH1 0x40 MLOAD PUSH32 0x8C379A000000000000000000000000000000000000000000000000000000000 DUP2 MSTORE PUSH1 0x4 ADD PUSH2 0x165D SWAP1 PUSH2 0x43A8 JUMP JUMPDEST PUSH1 0x40 MLOAD DUP1 SWAP2 SUB SWAP1 REVERT JUMPDEST PUSH0 JUMPDEST DUP3 MLOAD DUP2 LT ISZERO PUSH2 0x177A JUMPI PUSH1 0x6 PUSH0 DUP5 DUP4 DUP2 MLOAD DUP2 LT PUSH2 0x1687 JUMPI PUSH2 0x1686 PUSH2 0x3F3E JUMP JUMPDEST JUMPDEST PUSH1 0x20 MUL PUSH1 0x20 ADD ADD MLOAD DUP2 MSTORE PUSH1 0x20 ADD SWAP1 DUP2 MSTORE PUSH1 0x20 ADD PUSH0 KECCAK256 PUSH1 0x5 ADD PUSH1 0x1 SWAP1 SLOAD SWAP1 PUSH2 0x100 EXP SWAP1 DIV PUSH1 0xFF AND PUSH2 0x16EC JUMPI PUSH1 0x40 MLOAD PUSH32 0x8C379A000000000000000000000000000000000000000000000000000000000 DUP2 MSTORE PUSH1 0x4 ADD PUSH2 0x16E3 SWAP1 PUSH2 0x3EB8 JUMP JUMPDEST PUSH1 0x40 MLOAD DUP1 SWAP2 SUB SWAP1 REVERT JUMPDEST PUSH1 0x6 PUSH0 DUP5 DUP4 DUP2 MLOAD DUP2 LT PUSH2 0x1702 JUMPI PUSH2 0x1701 PUSH2 0x3F3E JUMP JUMPDEST JUMPDEST PUSH1 0x20 MUL PUSH1 0x20 ADD ADD MLOAD DUP2 MSTORE PUSH1 0x20 ADD SWAP1 DUP2 MSTORE PUSH1 0x20 ADD PUSH0 KECCAK256 PUSH1 0x5 ADD PUSH0 SWAP1 SLOAD SWAP1 PUSH2 0x100 EXP SWAP1 DIV PUSH1 0xFF AND ISZERO PUSH2 0x1767 JUMPI PUSH1 0x40 MLOAD PUSH32 0x8C379A000000000000000000000000000000000000000000000000000000000 DUP2 MSTORE PUSH1 0x4 ADD PUSH2 0x175E SWAP1 PUSH2 0x4443 JUMP JUMPDEST PUSH1 0x40 MLOAD DUP1 SWAP2 SUB SWAP1 REVERT JUMPDEST DUP1 DUP1 PUSH2 0x1772 SWAP1 PUSH2 0x3F98 JUMP JUMPDEST SWAP2 POP POP PUSH2 0x1668 JUMP JUMPDEST POP PUSH0 DUP1 JUMPDEST DUP4 MLOAD DUP2 LT ISZERO PUSH2 0x1857 JUMPI PUSH0 DUP4 DUP3 DUP2 MLOAD DUP2 LT PUSH2 0x179B JUMPI PUSH2 0x179A PUSH2 0x3F3E JUMP JUMPDEST JUMPDEST PUSH1 0x20 MUL PUSH1 0x20 ADD ADD MLOAD GT PUSH2 0x17E3 JUMPI PUSH1 0x40 MLOAD PUSH32 0x8C379A000000000000000000000000000000000000000000000000000000000 DUP2 MSTORE PUSH1 0x4 ADD PUSH2 0x17DA SWAP1 PUSH2 0x44AB JUMP JUMPDEST PUSH1 0x40 MLOAD DUP1 SWAP2 SUB SWAP1 REVERT JUMPDEST DUP3 DUP2 DUP2 MLOAD DUP2 LT PUSH2 0x17F6 JUMPI PUSH2 0x17F5 PUSH2 0x3F3E JUMP JUMPDEST JUMPDEST PUSH1 0x20 MUL PUSH1 0x20 ADD ADD MLOAD PUSH1 0x6 PUSH0 DUP7 DUP5 DUP2 MLOAD DUP2 LT PUSH2 0x1814 JUMPI PUSH2 0x1813 PUSH2 0x3F3E JUMP JUMPDEST JUMPDEST PUSH1 0x20 MUL PUSH1 0x20 ADD ADD MLOAD DUP2 MSTORE PUSH1 0x20 ADD SWAP1 DUP2 MSTORE PUSH1 0x20 ADD PUSH0 KECCAK256 PUSH1 0x3 ADD SLOAD PUSH2 0x1837 SWAP2 SWAP1 PUSH2 0x44C9 JUMP JUMPDEST DUP3 PUSH2 0x1842 SWAP2 SWAP1 PUSH2 0x450A JUMP JUMPDEST SWAP2 POP DUP1 DUP1 PUSH2 0x184F SWAP1 PUSH2 0x3F98 JUMP JUMPDEST SWAP2 POP POP PUSH2 0x177E JUMP JUMPDEST POP DUP1 CALLVALUE LT ISZERO PUSH2 0x189B JUMPI PUSH1 0x40 MLOAD PUSH32 0x8C379A000000000000000000000000000000000000000000000000000000000 DUP2 MSTORE PUSH1 0x4 ADD PUSH2 0x1892 SWAP1 PUSH2 0x4587 JUMP JUMPDEST PUSH1 0x40 MLOAD DUP1 SWAP2 SUB SWAP1 REVERT JUMPDEST PUSH0 JUMPDEST DUP4 MLOAD DUP2 LT ISZERO PUSH2 0x1983 JUMPI DUP3 DUP2 DUP2 MLOAD DUP2 LT PUSH2 0x18B9 JUMPI PUSH2 0x18B8 PUSH2 0x3F3E JUMP JUMPDEST JUMPDEST PUSH1 0x20 MUL PUSH1 0x20 ADD ADD MLOAD PUSH1 0x6 PUSH0 DUP7 DUP5 DUP2 MLOAD DUP2 LT PUSH2 0x18D7 JUMPI PUSH2 0x18D6 PUSH2 0x3F3E JUMP JUMPDEST JUMPDEST PUSH1 0x20 MUL PUSH1 0x20 ADD ADD MLOAD DUP2 MSTORE PUSH1 0x20 ADD SWAP1 DUP2 MSTORE PUSH1 0x20 ADD PUSH0 KECCAK256 PUSH0 ADD PUSH0 DUP3 DUP3 SLOAD PUSH2 0x18FC SWAP2 SWAP1 PUSH2 0x450A JUMP JUMPDEST SWAP3 POP POP DUP2 SWAP1 SSTORE POP DUP3 DUP2 DUP2 MLOAD DUP2 LT PUSH2 0x1916 JUMPI PUSH2 0x1915 PUSH2 0x3F3E JUMP JUMPDEST JUMPDEST PUSH1 0x20 MUL PUSH1 0x20 ADD ADD MLOAD PUSH1 0x7 PUSH0 CALLER PUSH20 0xFFFFFFFFFFFFFFFFFFFFFFFFFFFFFFFFFFFFFFFF AND PUSH20 0xFFFFFFFFFFFFFFFFFFFFFFFFFFFFFFFFFFFFFFFF AND DUP2 MSTORE PUSH1 0x20 ADD SWAP1 DUP2 MSTORE PUSH1 0x20 ADD PUSH0 KECCAK256 PUSH0 DUP3 DUP3 SLOAD PUSH2 0x1969 SWAP2 SWAP1 PUSH2 0x450A JUMP JUMPDEST SWAP3 POP POP DUP2 SWAP1 SSTORE POP DUP1 DUP1 PUSH2 0x197B SWAP1 PUSH2 0x3F98 JUMP JUMPDEST SWAP2 POP POP PUSH2 0x189D JUMP JUMPDEST POP PUSH2 0x199E CALLER DUP5 DUP5 PUSH1 0x40 MLOAD DUP1 PUSH1 0x20 ADD PUSH1 0x40 MSTORE DUP1 PUSH0 DUP2 MSTORE POP PUSH2 0x23D7 JUMP JUMPDEST POP POP POP JUMP JUMPDEST PUSH2 0x19AC DUP3 PUSH2 0xCC5 JUMP JUMPDEST PUSH2 0x19B5 DUP2 PUSH2 0x1E57 JUMP JUMPDEST PUSH2 0x19BF DUP4 DUP4 PUSH2 0x215E JUMP JUMPDEST POP POP POP POP JUMP JUMPDEST PUSH1 0x4 PUSH1 0x20 MSTORE DUP1 PUSH0 MSTORE PUSH1 0x40 PUSH0 KECCAK256 PUSH0 SWAP2 POP SWAP1 POP DUP1 PUSH0 ADD SLOAD SWAP1 DUP1 PUSH1 0x1 ADD PUSH0 SWAP1 SLOAD SWAP1 PUSH2 0x100 EXP SWAP1 DIV PUSH1 0xFF AND SWAP1 POP DUP3 JUMP JUMPDEST PUSH1 0x6 PUSH0 DUP4 DUP2 MSTORE PUSH1 0x20 ADD SWAP1 DUP2 MSTORE PUSH1 0x20 ADD PUSH0 KECCAK256 PUSH1 0x5 ADD PUSH1 0x1 SWAP1 SLOAD SWAP1 PUSH2 0x100 EXP SWAP1 DIV PUSH1 0xFF AND PUSH2 0x1A52 JUMPI PUSH1 0x40 MLOAD PUSH32 0x8C379A000000000000000000000000000000000000000000000000000000000 DUP2 MSTORE PUSH1 0x4 ADD PUSH2 0x1A49 SWAP1 PUSH2 0x3EB8 JUMP JUMPDEST PUSH1 0x40 MLOAD DUP1 SWAP2 SUB SWAP1 REVERT JUMPDEST PUSH0 DUP2 GT PUSH2 0x1A94 JUMPI PUSH1 0x40 MLOAD PUSH32 0x8C379A000000000000000000000000000000000000000000000000000000000 DUP2 MSTORE PUSH1 0x4 ADD PUSH2 0x1A8B SWAP1 PUSH2 0x45EF JUMP JUMPDEST PUSH1 0x40 MLOAD DUP1 SWAP2 SUB SWAP1 REVERT JUMPDEST DUP1 PUSH2 0x1A9F DUP5 DUP5 PUSH2 0x82E JUMP JUMPDEST LT ISZERO PUSH2 0x1AE0 JUMPI PUSH1 0x40 MLOAD PUSH32 0x8C379A000000000000000000000000000000000000000000000000000000000 DUP2 MSTORE PUSH1 0x4 ADD PUSH2 0x1AD7 SWAP1 PUSH2 0x4657 JUMP JUMPDEST PUSH1 0x40 MLOAD DUP1 SWAP2 SUB SWAP1 REVERT JUMPDEST PUSH2 0x1AEB DUP4 DUP4 DUP4 PUSH2 0x245A JUMP JUMPDEST PUSH2 0x1B09 DUP4 PUSH1 0x6 PUSH0 DUP6 DUP2 MSTORE PUSH1 0x20 ADD SWAP1 DUP2 MSTORE PUSH1 0x20 ADD PUSH0 KECCAK256 PUSH1 0x2 ADD SLOAD PUSH2 0x24FC JUMP JUMPDEST DUP1 PUSH1 0x6 PUSH0 DUP5 DUP2 MSTORE PUSH1 0x20 ADD SWAP1 DUP2 MSTORE PUSH1 0x20 ADD PUSH0 KECCAK256 PUSH1 0x1 ADD PUSH0 DUP3 DUP3 SLOAD PUSH2 0x1B2C SWAP2 SWAP1 PUSH2 0x450A JUMP JUMPDEST SWAP3 POP POP DUP2 SWAP1 SSTORE POP POP POP POP JUMP JUMPDEST PUSH0 PUSH1 0x1 PUSH0 DUP5 PUSH20 0xFFFFFFFFFFFFFFFFFFFFFFFFFFFFFFFFFFFFFFFF AND PUSH20 0xFFFFFFFFFFFFFFFFFFFFFFFFFFFFFFFFFFFFFFFF AND DUP2 MSTORE PUSH1 0x20 ADD SWAP1 DUP2 MSTORE PUSH1 0x20 ADD PUSH0 KECCAK256 PUSH0 DUP4 PUSH20 0xFFFFFFFFFFFFFFFFFFFFFFFFFFFFFFFFFFFFFFFF AND PUSH20 0xFFFFFFFFFFFFFFFFFFFFFFFFFFFFFFFFFFFFFFFF AND DUP2 MSTORE PUSH1 0x20 ADD SWAP1 DUP2 MSTORE PUSH1 0x20 ADD PUSH0 KECCAK256 PUSH0 SWAP1 SLOAD SWAP1 PUSH2 0x100 EXP SWAP1 DIV PUSH1 0xFF AND SWAP1 POP SWAP3 SWAP2 POP POP JUMP JUMPDEST PUSH0 PUSH2 0x1BCF PUSH2 0x1F79 JUMP JUMPDEST SWAP1 POP DUP1 PUSH20 0xFFFFFFFFFFFFFFFFFFFFFFFFFFFFFFFFFFFFFFFF AND DUP7 PUSH20 0xFFFFFFFFFFFFFFFFFFFFFFFFFFFFFFFFFFFFFFFF AND EQ ISZERO DUP1 ISZERO PUSH2 0x1C14 JUMPI POP PUSH2 0x1C12 DUP7 DUP3 PUSH2 0x1B38 JUMP JUMPDEST ISZERO JUMPDEST ISZERO PUSH2 0x1C58 JUMPI DUP1 DUP7 PUSH1 0x40 MLOAD PUSH32 0xE237D92200000000000000000000000000000000000000000000000000000000 DUP2 MSTORE PUSH1 0x4 ADD PUSH2 0x1C4F SWAP3 SWAP2 SWAP1 PUSH2 0x42A8 JUMP JUMPDEST PUSH1 0x40 MLOAD DUP1 SWAP2 SUB SWAP1 REVERT JUMPDEST PUSH2 0x1C65 DUP7 DUP7 DUP7 DUP7 DUP7 PUSH2 0x254F JUMP JUMPDEST POP POP POP POP POP POP JUMP JUMPDEST PUSH1 0x40 MLOAD PUSH1 0x20 ADD PUSH2 0x1C7C SWAP1 PUSH2 0x3F2A JUMP JUMPDEST PUSH1 0x40 MLOAD PUSH1 0x20 DUP2 DUP4 SUB SUB DUP2 MSTORE SWAP1 PUSH1 0x40 MSTORE DUP1 MLOAD SWAP1 PUSH1 0x20 ADD KECCAK256 PUSH2 0x1C9B DUP2 PUSH2 0x1E57 JUMP JUMPDEST PUSH1 0x6 PUSH0 DUP5 DUP2 MSTORE PUSH1 0x20 ADD SWAP1 DUP2 MSTORE PUSH1 0x20 ADD PUSH0 KECCAK256 PUSH1 0x5 ADD PUSH1 0x1 SWAP1 SLOAD SWAP1 PUSH2 0x100 EXP SWAP1 DIV PUSH1 0xFF AND PUSH2 0x1CFC JUMPI PUSH1 0x40 MLOAD PUSH32 0x8C379A000000000000000000000000000000000000000000000000000000000 DUP2 MSTORE PUSH1 0x4 ADD PUSH2 0x1CF3 SWAP1 PUSH2 0x3EB8 JUMP JUMPDEST PUSH1 0x40 MLOAD DUP1 SWAP2 SUB SWAP1 REVERT JUMPDEST PUSH0 DUP3 GT PUSH2 0x1D3E JUMPI PUSH1 0x40 MLOAD PUSH32 0x8C379A000000000000000000000000000000000000000000000000000000000 DUP2 MSTORE PUSH1 0x4 ADD PUSH2 0x1D35 SWAP1 PUSH2 0x45EF JUMP JUMPDEST PUSH1 0x40 MLOAD DUP1 SWAP2 SUB SWAP1 REVERT JUMPDEST DUP2 PUSH2 0x1D49 DUP6 DUP6 PUSH2 0x82E JUMP JUMPDEST LT ISZERO PUSH2 0x1D8A JUMPI PUSH1 0x40 MLOAD PUSH32 0x8C379A000000000000000000000000000000000000000000000000000000000 DUP2 MSTORE PUSH1 0x4 ADD PUSH2 0x1D81 SWAP1 PUSH2 0x4657 JUMP JUMPDEST PUSH1 0x40 MLOAD DUP1 SWAP2 SUB SWAP1 REVERT JUMPDEST PUSH2 0x1D95 DUP5 DUP5 DUP5 PUSH2 0x245A JUMP JUMPDEST DUP2 PUSH1 0x6 PUSH0 DUP6 DUP2 MSTORE PUSH1 0x20 ADD SWAP1 DUP2 MSTORE PUSH1 0x20 ADD PUSH0 KECCAK256 PUSH1 0x1 ADD PUSH0 DUP3 DUP3 SLOAD PUSH2 0x1DB8 SWAP2 SWAP1 PUSH2 0x450A JUMP JUMPDEST SWAP3 POP POP DUP2 SWAP1 SSTORE POP POP POP POP POP JUMP JUMPDEST PUSH1 0x7 PUSH1 0x20 MSTORE DUP1 PUSH0 MSTORE PUSH1 0x40 PUSH0 KECCAK256 PUSH0 SWAP2 POP SWAP1 POP SLOAD DUP2 JUMP JUMPDEST PUSH1 0x40 MLOAD PUSH1 0x20 ADD PUSH2 0x1DE9 SWAP1 PUSH2 0x3F2A JUMP JUMPDEST PUSH1 0x40 MLOAD PUSH1 0x20 DUP2 DUP4 SUB SUB DUP2 MSTORE SWAP1 PUSH1 0x40 MSTORE DUP1 MLOAD SWAP1 PUSH1 0x20 ADD KECCAK256 DUP2 JUMP JUMPDEST PUSH0 DUP1 PUSH0 DUP4 DUP2 MSTORE PUSH1 0x20 ADD SWAP1 DUP2 MSTORE PUSH1 0x20 ADD PUSH0 KECCAK256 PUSH0 DUP5 PUSH20 0xFFFFFFFFFFFFFFFFFFFFFFFFFFFFFFFFFFFFFFFF AND PUSH20 0xFFFFFFFFFFFFFFFFFFFFFFFFFFFFFFFFFFFFFFFF AND DUP2 MSTORE PUSH1 0x20 ADD SWAP1 DUP2 MSTORE PUSH1 0x20 ADD PUSH0 KECCAK256 SLOAD SWAP1 POP SWAP3 SWAP2 POP POP JUMP JUMPDEST PUSH2 0x1E68 DUP2 PUSH2 0x1E63 PUSH2 0x1F79 JUMP JUMPDEST PUSH2 0x2655 JUMP JUMPDEST POP JUMP JUMPDEST PUSH0 PUSH20 0xFFFFFFFFFFFFFFFFFFFFFFFFFFFFFFFFFFFFFFFF AND DUP5 PUSH20 0xFFFFFFFFFFFFFFFFFFFFFFFFFFFFFFFFFFFFFFFF AND SUB PUSH2 0x1EDB JUMPI PUSH0 PUSH1 0x40 MLOAD PUSH32 0x57F447CE00000000000000000000000000000000000000000000000000000000 DUP2 MSTORE PUSH1 0x4 ADD PUSH2 0x1ED2 SWAP2 SWAP1 PUSH2 0x3642 JUMP JUMPDEST PUSH1 0x40 MLOAD DUP1 SWAP2 SUB SWAP1 REVERT JUMPDEST PUSH0 DUP1 PUSH2 0x1EE7 DUP6 DUP6 PUSH2 0x26A6 JUMP JUMPDEST SWAP2 POP SWAP2 POP PUSH2 0x1EF8 PUSH0 DUP8 DUP5 DUP5 DUP8 PUSH2 0x26D6 JUMP JUMPDEST POP POP POP POP POP POP JUMP JUMPDEST PUSH0 PUSH32 0x7965DB0B00000000000000000000000000000000000000000000000000000000 PUSH28 0xFFFFFFFFFFFFFFFFFFFFFFFFFFFFFFFFFFFFFFFFFFFFFFFFFFFFFFFF NOT AND DUP3 PUSH28 0xFFFFFFFFFFFFFFFFFFFFFFFFFFFFFFFFFFFFFFFFFFFFFFFFFFFFFFFF NOT AND EQ DUP1 PUSH2 0x1F72 JUMPI POP PUSH2 0x1F71 DUP3 PUSH2 0x2782 JUMP JUMPDEST JUMPDEST SWAP1 POP SWAP2 SWAP1 POP JUMP JUMPDEST PUSH0 CALLER SWAP1 POP SWAP1 JUMP JUMPDEST PUSH0 PUSH20 0xFFFFFFFFFFFFFFFFFFFFFFFFFFFFFFFFFFFFFFFF AND DUP5 PUSH20 0xFFFFFFFFFFFFFFFFFFFFFFFFFFFFFFFFFFFFFFFF AND SUB PUSH2 0x1FF0 JUMPI PUSH0 PUSH1 0x40 MLOAD PUSH32 0x57F447CE00000000000000000000000000000000000000000000000000000000 DUP2 MSTORE PUSH1 0x4 ADD PUSH2 0x1FE7 SWAP2 SWAP1 PUSH2 0x3642 JUMP JUMPDEST PUSH1 0x40 MLOAD DUP1 SWAP2 SUB SWAP1 REVERT JUMPDEST PUSH0 PUSH20 0xFFFFFFFFFFFFFFFFFFFFFFFFFFFFFFFFFFFFFFFF AND DUP6 PUSH20 0xFFFFFFFFFFFFFFFFFFFFFFFFFFFFFFFFFFFFFFFF AND SUB PUSH2 0x2060 JUMPI PUSH0 PUSH1 0x40 MLOAD PUSH32 0x1A8351400000000000000000000000000000000000000000000000000000000 DUP2 MSTORE PUSH1 0x4 ADD PUSH2 0x2057 SWAP2 SWAP1 PUSH2 0x3642 JUMP JUMPDEST PUSH1 0x40 MLOAD DUP1 SWAP2 SUB SWAP1 REVERT JUMPDEST PUSH2 0x206D DUP6 DUP6 DUP6 DUP6 DUP6 PUSH2 0x26D6 JUMP JUMPDEST POP POP POP POP POP JUMP JUMPDEST PUSH0 PUSH2 0x207F DUP4 DUP4 PUSH2 0x131D JUMP JUMPDEST PUSH2 0x2154 JUMPI PUSH1 0x1 PUSH1 0x3 PUSH0 DUP6 DUP2 MSTORE PUSH1 0x20 ADD SWAP1 DUP2 MSTORE PUSH1 0x20 ADD PUSH0 KECCAK256 PUSH0 ADD PUSH0 DUP5 PUSH20 0xFFFFFFFFFFFFFFFFFFFFFFFFFFFFFFFFFFFFFFFF AND PUSH20 0xFFFFFFFFFFFFFFFFFFFFFFFFFFFFFFFFFFFFFFFF AND DUP2 MSTORE PUSH1 0x20 ADD SWAP1 DUP2 MSTORE PUSH1 0x20 ADD PUSH0 KECCAK256 PUSH0 PUSH2 0x100 EXP DUP2 SLOAD DUP2 PUSH1 0xFF MUL NOT AND SWAP1 DUP4 ISZERO ISZERO MUL OR SWAP1 SSTORE POP PUSH2 0x20F1 PUSH2 0x1F79 JUMP JUMPDEST PUSH20 0xFFFFFFFFFFFFFFFFFFFFFFFFFFFFFFFFFFFFFFFF AND DUP3 PUSH20 0xFFFFFFFFFFFFFFFFFFFFFFFFFFFFFFFFFFFFFFFF AND DUP5 PUSH32 0x2F8788117E7EFF1D82E926EC794901D17C78024A50270940304540A733656F0D PUSH1 0x40 MLOAD PUSH1 0x40 MLOAD DUP1 SWAP2 SUB SWAP1 LOG4 PUSH1 0x1 SWAP1 POP PUSH2 0x2158 JUMP JUMPDEST PUSH0 SWAP1 POP JUMPDEST SWAP3 SWAP2 POP POP JUMP JUMPDEST PUSH0 PUSH2 0x2169 DUP4 DUP4 PUSH2 0x131D JUMP JUMPDEST ISZERO PUSH2 0x223E JUMPI PUSH0 PUSH1 0x3 PUSH0 DUP6 DUP2 MSTORE PUSH1 0x20 ADD SWAP1 DUP2 MSTORE PUSH1 0x20 ADD PUSH0 KECCAK256 PUSH0 ADD PUSH0 DUP5 PUSH20 0xFFFFFFFFFFFFFFFFFFFFFFFFFFFFFFFFFFFFFFFF AND PUSH20 0xFFFFFFFFFFFFFFFFFFFFFFFFFFFFFFFFFFFFFFFF AND DUP2 MSTORE PUSH1 0x20 ADD SWAP1 DUP2 MSTORE PUSH1 0x20 ADD PUSH0 KECCAK256 PUSH0 PUSH2 0x100 EXP DUP2 SLOAD DUP2 PUSH1 0xFF MUL NOT AND SWAP1 DUP4 ISZERO ISZERO MUL OR SWAP1 SSTORE POP PUSH2 0x21DB PUSH2 0x1F79 JUMP JUMPDEST PUSH20 0xFFFFFFFFFFFFFFFFFFFFFFFFFFFFFFFFFFFFFFFF AND DUP3 PUSH20 0xFFFFFFFFFFFFFFFFFFFFFFFFFFFFFFFFFFFFFFFF AND DUP5 PUSH32 0xF6391F5C32D9C69D2A47EA670B442974B53935D1EDC7FD64EB21E047A839171B PUSH1 0x40 MLOAD PUSH1 0x40 MLOAD DUP1 SWAP2 SUB SWAP1 LOG4 PUSH1 0x1 SWAP1 POP PUSH2 0x2242 JUMP JUMPDEST PUSH0 SWAP1 POP JUMPDEST SWAP3 SWAP2 POP POP JUMP JUMPDEST PUSH0 PUSH1 0x20 DUP3 MUL PUSH1 0x20 DUP5 ADD ADD MLOAD SWAP1 POP SWAP3 SWAP2 POP POP JUMP JUMPDEST PUSH0 PUSH1 0x20 DUP3 MUL PUSH1 0x20 DUP5 ADD ADD MLOAD SWAP1 POP SWAP3 SWAP2 POP POP JUMP JUMPDEST PUSH0 PUSH20 0xFFFFFFFFFFFFFFFFFFFFFFFFFFFFFFFFFFFFFFFF AND DUP3 PUSH20 0xFFFFFFFFFFFFFFFFFFFFFFFFFFFFFFFFFFFFFFFF AND SUB PUSH2 0x22DE JUMPI PUSH0 PUSH1 0x40 MLOAD PUSH32 0xCED3E10000000000000000000000000000000000000000000000000000000000 DUP2 MSTORE PUSH1 0x4 ADD PUSH2 0x22D5 SWAP2 SWAP1 PUSH2 0x3642 JUMP JUMPDEST PUSH1 0x40 MLOAD DUP1 SWAP2 SUB SWAP1 REVERT JUMPDEST DUP1 PUSH1 0x1 PUSH0 DUP6 PUSH20 0xFFFFFFFFFFFFFFFFFFFFFFFFFFFFFFFFFFFFFFFF AND PUSH20 0xFFFFFFFFFFFFFFFFFFFFFFFFFFFFFFFFFFFFFFFF AND DUP2 MSTORE PUSH1 0x20 ADD SWAP1 DUP2 MSTORE PUSH1 0x20 ADD PUSH0 KECCAK256 PUSH0 DUP5 PUSH20 0xFFFFFFFFFFFFFFFFFFFFFFFFFFFFFFFFFFFFFFFF AND PUSH20 0xFFFFFFFFFFFFFFFFFFFFFFFFFFFFFFFFFFFFFFFF AND DUP2 MSTORE PUSH1 0x20 ADD SWAP1 DUP2 MSTORE PUSH1 0x20 ADD PUSH0 KECCAK256 PUSH0 PUSH2 0x100 EXP DUP2 SLOAD DUP2 PUSH1 0xFF MUL NOT AND SWAP1 DUP4 ISZERO ISZERO MUL OR SWAP1 SSTORE POP DUP2 PUSH20 0xFFFFFFFFFFFFFFFFFFFFFFFFFFFFFFFFFFFFFFFF AND DUP4 PUSH20 0xFFFFFFFFFFFFFFFFFFFFFFFFFFFFFFFFFFFFFFFF AND PUSH32 0x17307EAB39AB6107E8899845AD3D59BD9653F200F220920489CA2B5937696C31 DUP4 PUSH1 0x40 MLOAD PUSH2 0x23CA SWAP2 SWAP1 PUSH2 0x3416 JUMP JUMPDEST PUSH1 0x40 MLOAD DUP1 SWAP2 SUB SWAP1 LOG3 POP POP POP JUMP JUMPDEST PUSH0 PUSH20 0xFFFFFFFFFFFFFFFFFFFFFFFFFFFFFFFFFFFFFFFF AND DUP5 PUSH20 0xFFFFFFFFFFFFFFFFFFFFFFFFFFFFFFFFFFFFFFFF AND SUB PUSH2 0x2447 JUMPI PUSH0 PUSH1 0x40 MLOAD PUSH32 0x57F447CE00000000000000000000000000000000000000000000000000000000 DUP2 MSTORE PUSH1 0x4 ADD PUSH2 0x243E SWAP2 SWAP1 PUSH2 0x3642 JUMP JUMPDEST PUSH1 0x40 MLOAD DUP1 SWAP2 SUB SWAP1 REVERT JUMPDEST PUSH2 0x2454 PUSH0 DUP6 DUP6 DUP6 DUP6 PUSH2 0x26D6 JUMP JUMPDEST POP POP POP POP JUMP JUMPDEST PUSH0 PUSH20 0xFFFFFFFFFFFFFFFFFFFFFFFFFFFFFFFFFFFFFFFF AND DUP4 PUSH20 0xFFFFFFFFFFFFFFFFFFFFFFFFFFFFFFFFFFFFFFFF AND SUB PUSH2 0x24CA JUMPI PUSH0 PUSH1 0x40 MLOAD PUSH32 0x1A8351400000000000000000000000000000000000000000000000000000000 DUP2 MSTORE PUSH1 0x4 ADD PUSH2 0x24C1 SWAP2 SWAP1 PUSH2 0x3642 JUMP JUMPDEST PUSH1 0x40 MLOAD DUP1 SWAP2 SUB SWAP1 REVERT JUMPDEST PUSH0 DUP1 PUSH2 0x24D6 DUP5 DUP5 PUSH2 0x26A6 JUMP JUMPDEST SWAP2 POP SWAP2 POP PUSH2 0x24F5 DUP6 PUSH0 DUP5 DUP5 PUSH1 0x40 MLOAD DUP1 PUSH1 0x20 ADD PUSH1 0x40 MSTORE DUP1 PUSH0 DUP2 MSTORE POP PUSH2 0x26D6 JUMP JUMPDEST POP POP POP POP POP JUMP JUMPDEST DUP1 TIMESTAMP PUSH2 0x2508 SWAP2 SWAP1 PUSH2 0x450A JUMP JUMPDEST PUSH1 0x4 PUSH0 DUP5 PUSH20 0xFFFFFFFFFFFFFFFFFFFFFFFFFFFFFFFFFFFFFFFF AND PUSH20 0xFFFFFFFFFFFFFFFFFFFFFFFFFFFFFFFFFFFFFFFF AND DUP2 MSTORE PUSH1 0x20 ADD SWAP1 DUP2 MSTORE PUSH1 0x20 ADD PUSH0 KECCAK256 PUSH0 ADD DUP2 SWAP1 SSTORE POP POP POP JUMP JUMPDEST PUSH0 PUSH20 0xFFFFFFFFFFFFFFFFFFFFFFFFFFFFFFFFFFFFFFFF AND DUP5 PUSH20 0xFFFFFFFFFFFFFFFFFFFFFFFFFFFFFFFFFFFFFFFF AND SUB PUSH2 0x25BF JUMPI PUSH0 PUSH1 0x40 MLOAD PUSH32 0x57F447CE00000000000000000000000000000000000000000000000000000000 DUP2 MSTORE PUSH1 0x4 ADD PUSH2 0x25B6 SWAP2 SWAP1 PUSH2 0x3642 JUMP JUMPDEST PUSH1 0x40 MLOAD DUP1 SWAP2 SUB SWAP1 REVERT JUMPDEST PUSH0 PUSH20 0xFFFFFFFFFFFFFFFFFFFFFFFFFFFFFFFFFFFFFFFF AND DUP6 PUSH20 0xFFFFFFFFFFFFFFFFFFFFFFFFFFFFFFFFFFFFFFFF AND SUB PUSH2 0x262F JUMPI PUSH0 PUSH1 0x40 MLOAD PUSH32 0x1A8351400000000000000000000000000000000000000000000000000000000 DUP2 MSTORE PUSH1 0x4 ADD PUSH2 0x2626 SWAP2 SWAP1 PUSH2 0x3642 JUMP JUMPDEST PUSH1 0x40 MLOAD DUP1 SWAP2 SUB SWAP1 REVERT JUMPDEST PUSH0 DUP1 PUSH2 0x263B DUP6 DUP6 PUSH2 0x26A6 JUMP JUMPDEST SWAP2 POP SWAP2 POP PUSH2 0x264C DUP8 DUP8 DUP5 DUP5 DUP8 PUSH2 0x26D6 JUMP JUMPDEST POP POP POP POP POP POP POP JUMP JUMPDEST PUSH2 0x265F DUP3 DUP3 PUSH2 0x131D JUMP JUMPDEST PUSH2 0x26A2 JUMPI DUP1 DUP3 PUSH1 0x40 MLOAD PUSH32 0xE2517D3F00000000000000000000000000000000000000000000000000000000 DUP2 MSTORE PUSH1 0x4 ADD PUSH2 0x2699 SWAP3 SWAP2 SWAP1 PUSH2 0x4675 JUMP JUMPDEST PUSH1 0x40 MLOAD DUP1 SWAP2 SUB SWAP1 REVERT JUMPDEST POP POP JUMP JUMPDEST PUSH1 0x60 DUP1 PUSH1 0x40 MLOAD SWAP2 POP PUSH1 0x1 DUP3 MSTORE DUP4 PUSH1 0x20 DUP4 ADD MSTORE PUSH1 0x40 DUP3 ADD SWAP1 POP PUSH1 0x1 DUP2 MSTORE DUP3 PUSH1 0x20 DUP3 ADD MSTORE PUSH1 0x40 DUP2 ADD PUSH1 0x40 MSTORE SWAP3 POP SWAP3 SWAP1 POP JUMP JUMPDEST PUSH2 0x26E2 DUP6 DUP6 DUP6 DUP6 PUSH2 0x2863 JUMP JUMPDEST PUSH0 PUSH20 0xFFFFFFFFFFFFFFFFFFFFFFFFFFFFFFFFFFFFFFFF AND DUP5 PUSH20 0xFFFFFFFFFFFFFFFFFFFFFFFFFFFFFFFFFFFFFFFF AND EQ PUSH2 0x277B JUMPI PUSH0 PUSH2 0x271E PUSH2 0x1F79 JUMP JUMPDEST SWAP1 POP PUSH1 0x1 DUP5 MLOAD SUB PUSH2 0x276A JUMPI PUSH0 PUSH2 0x273D PUSH0 DUP7 PUSH2 0x225B SWAP1 SWAP2 SWAP1 PUSH4 0xFFFFFFFF AND JUMP JUMPDEST SWAP1 POP PUSH0 PUSH2 0x2753 PUSH0 DUP7 PUSH2 0x225B SWAP1 SWAP2 SWAP1 PUSH4 0xFFFFFFFF AND JUMP JUMPDEST SWAP1 POP PUSH2 0x2763 DUP4 DUP10 DUP10 DUP6 DUP6 DUP10 PUSH2 0x2BF9 JUMP JUMPDEST POP POP PUSH2 0x2779 JUMP JUMPDEST PUSH2 0x2778 DUP2 DUP8 DUP8 DUP8 DUP8 DUP8 PUSH2 0x2DA8 JUMP JUMPDEST JUMPDEST POP JUMPDEST POP POP POP POP POP JUMP JUMPDEST PUSH0 PUSH32 0xD9B67A2600000000000000000000000000000000000000000000000000000000 PUSH28 0xFFFFFFFFFFFFFFFFFFFFFFFFFFFFFFFFFFFFFFFFFFFFFFFFFFFFFFFF NOT AND DUP3 PUSH28 0xFFFFFFFFFFFFFFFFFFFFFFFFFFFFFFFFFFFFFFFFFFFFFFFFFFFFFFFF NOT AND EQ DUP1 PUSH2 0x284C JUMPI POP PUSH32 0xE89341C00000000000000000000000000000000000000000000000000000000 PUSH28 0xFFFFFFFFFFFFFFFFFFFFFFFFFFFFFFFFFFFFFFFFFFFFFFFFFFFFFFFF NOT AND DUP3 PUSH28 0xFFFFFFFFFFFFFFFFFFFFFFFFFFFFFFFFFFFFFFFFFFFFFFFFFFFFFFFF NOT AND EQ JUMPDEST DUP1 PUSH2 0x285C JUMPI POP PUSH2 0x285B DUP3 PUSH2 0x2F57 JUMP JUMPDEST JUMPDEST SWAP1 POP SWAP2 SWAP1 POP JUMP JUMPDEST DUP1 MLOAD DUP3 MLOAD EQ PUSH2 0x28AD JUMPI DUP2 MLOAD DUP2 MLOAD PUSH1 0x40 MLOAD PUSH32 0x5B05999100000000000000000000000000000000000000000000000000000000 DUP2 MSTORE PUSH1 0x4 ADD PUSH2 0x28A4 SWAP3 SWAP2 SWAP1 PUSH2 0x4337 JUMP JUMPDEST PUSH1 0x40 MLOAD DUP1 SWAP2 SUB SWAP1 REVERT JUMPDEST PUSH0 PUSH2 0x28B6 PUSH2 0x1F79 JUMP JUMPDEST SWAP1 POP PUSH0 JUMPDEST DUP4 MLOAD DUP2 LT ISZERO PUSH2 0x2AB8 JUMPI PUSH0 PUSH2 0x28D7 DUP3 DUP7 PUSH2 0x225B SWAP1 SWAP2 SWAP1 PUSH4 0xFFFFFFFF AND JUMP JUMPDEST SWAP1 POP PUSH0 PUSH2 0x28ED DUP4 DUP7 PUSH2 0x225B SWAP1 SWAP2 SWAP1 PUSH4 0xFFFFFFFF AND JUMP JUMPDEST SWAP1 POP PUSH0 PUSH20 0xFFFFFFFFFFFFFFFFFFFFFFFFFFFFFFFFFFFFFFFF AND DUP9 PUSH20 0xFFFFFFFFFFFFFFFFFFFFFFFFFFFFFFFFFFFFFFFF AND EQ PUSH2 0x2A10 JUMPI PUSH0 DUP1 PUSH0 DUP5 DUP2 MSTORE PUSH1 0x20 ADD SWAP1 DUP2 MSTORE PUSH1 0x20 ADD PUSH0 KECCAK256 PUSH0 DUP11 PUSH20 0xFFFFFFFFFFFFFFFFFFFFFFFFFFFFFFFFFFFFFFFF AND PUSH20 0xFFFFFFFFFFFFFFFFFFFFFFFFFFFFFFFFFFFFFFFF AND DUP2 MSTORE PUSH1 0x20 ADD SWAP1 DUP2 MSTORE PUSH1 0x20 ADD PUSH0 KECCAK256 SLOAD SWAP1 POP DUP2 DUP2 LT ISZERO PUSH2 0x29BC JUMPI DUP9 DUP2 DUP4 DUP6 PUSH1 0x40 MLOAD PUSH32 0x3DEE4C500000000000000000000000000000000000000000000000000000000 DUP2 MSTORE PUSH1 0x4 ADD PUSH2 0x29B3 SWAP5 SWAP4 SWAP3 SWAP2 SWAP1 PUSH2 0x469C JUMP JUMPDEST PUSH1 0x40 MLOAD DUP1 SWAP2 SUB SWAP1 REVERT JUMPDEST DUP2 DUP2 SUB PUSH0 DUP1 DUP6 DUP2 MSTORE PUSH1 0x20 ADD SWAP1 DUP2 MSTORE PUSH1 0x20 ADD PUSH0 KECCAK256 PUSH0 DUP12 PUSH20 0xFFFFFFFFFFFFFFFFFFFFFFFFFFFFFFFFFFFFFFFF AND PUSH20 0xFFFFFFFFFFFFFFFFFFFFFFFFFFFFFFFFFFFFFFFF AND DUP2 MSTORE PUSH1 0x20 ADD SWAP1 DUP2 MSTORE PUSH1 0x20 ADD PUSH0 KECCAK256 DUP2 SWAP1 SSTORE POP POP JUMPDEST PUSH0 PUSH20 0xFFFFFFFFFFFFFFFFFFFFFFFFFFFFFFFFFFFFFFFF AND DUP8 PUSH20 0xFFFFFFFFFFFFFFFFFFFFFFFFFFFFFFFFFFFFFFFF AND EQ PUSH2 0x2AA5 JUMPI DUP1 PUSH0 DUP1 DUP5 DUP2 MSTORE PUSH1 0x20 ADD SWAP1 DUP2 MSTORE PUSH1 0x20 ADD PUSH0 KECCAK256 PUSH0 DUP10 PUSH20 0xFFFFFFFFFFFFFFFFFFFFFFFFFFFFFFFFFFFFFFFF AND PUSH20 0xFFFFFFFFFFFFFFFFFFFFFFFFFFFFFFFFFFFFFFFF AND DUP2 MSTORE PUSH1 0x20 ADD SWAP1 DUP2 MSTORE PUSH1 0x20 ADD PUSH0 KECCAK256 PUSH0 DUP3 DUP3 SLOAD PUSH2 0x2A9D SWAP2 SWAP1 PUSH2 0x450A JUMP JUMPDEST SWAP3 POP POP DUP2 SWAP1 SSTORE POP JUMPDEST POP POP DUP1 PUSH2 0x2AB1 SWAP1 PUSH2 0x3F98 JUMP JUMPDEST SWAP1 POP PUSH2 0x28BA JUMP JUMPDEST POP PUSH1 0x1 DUP4 MLOAD SUB PUSH2 0x2B73 JUMPI PUSH0 PUSH2 0x2AD6 PUSH0 DUP6 PUSH2 0x225B SWAP1 SWAP2 SWAP1 PUSH4 0xFFFFFFFF AND JUMP JUMPDEST SWAP1 POP PUSH0 PUSH2 0x2AEC PUSH0 DUP6 PUSH2 0x225B SWAP1 SWAP2 SWAP1 PUSH4 0xFFFFFFFF AND JUMP JUMPDEST SWAP1 POP DUP6 PUSH20 0xFFFFFFFFFFFFFFFFFFFFFFFFFFFFFFFFFFFFFFFF AND DUP8 PUSH20 0xFFFFFFFFFFFFFFFFFFFFFFFFFFFFFFFFFFFFFFFF AND DUP5 PUSH20 0xFFFFFFFFFFFFFFFFFFFFFFFFFFFFFFFFFFFFFFFF AND PUSH32 0xC3D58168C5AE7397731D063D5BBF3D657854427343F4C083240F7AACAA2D0F62 DUP6 DUP6 PUSH1 0x40 MLOAD PUSH2 0x2B64 SWAP3 SWAP2 SWAP1 PUSH2 0x4337 JUMP JUMPDEST PUSH1 0x40 MLOAD DUP1 SWAP2 SUB SWAP1 LOG4 POP POP PUSH2 0x2BF2 JUMP JUMPDEST DUP4 PUSH20 0xFFFFFFFFFFFFFFFFFFFFFFFFFFFFFFFFFFFFFFFF AND DUP6 PUSH20 0xFFFFFFFFFFFFFFFFFFFFFFFFFFFFFFFFFFFFFFFF AND DUP3 PUSH20 0xFFFFFFFFFFFFFFFFFFFFFFFFFFFFFFFFFFFFFFFF AND PUSH32 0x4A39DC06D4C0DBC64B70AF90FD698A233A518AA5D07E595D983B8C0526C8F7FB DUP7 DUP7 PUSH1 0x40 MLOAD PUSH2 0x2BE9 SWAP3 SWAP2 SWAP1 PUSH2 0x46DF JUMP JUMPDEST PUSH1 0x40 MLOAD DUP1 SWAP2 SUB SWAP1 LOG4 JUMPDEST POP POP POP POP POP JUMP JUMPDEST PUSH0 DUP5 PUSH20 0xFFFFFFFFFFFFFFFFFFFFFFFFFFFFFFFFFFFFFFFF AND EXTCODESIZE GT ISZERO PUSH2 0x2DA0 JUMPI DUP4 PUSH20 0xFFFFFFFFFFFFFFFFFFFFFFFFFFFFFFFFFFFFFFFF AND PUSH4 0xF23A6E61 DUP8 DUP8 DUP7 DUP7 DUP7 PUSH1 0x40 MLOAD DUP7 PUSH4 0xFFFFFFFF AND PUSH1 0xE0 SHL DUP2 MSTORE PUSH1 0x4 ADD PUSH2 0x2C59 SWAP6 SWAP5 SWAP4 SWAP3 SWAP2 SWAP1 PUSH2 0x4766 JUMP JUMPDEST PUSH1 0x20 PUSH1 0x40 MLOAD DUP1 DUP4 SUB DUP2 PUSH0 DUP8 GAS CALL SWAP3 POP POP POP DUP1 ISZERO PUSH2 0x2C94 JUMPI POP PUSH1 0x40 MLOAD RETURNDATASIZE PUSH1 0x1F NOT PUSH1 0x1F DUP3 ADD AND DUP3 ADD DUP1 PUSH1 0x40 MSTORE POP DUP2 ADD SWAP1 PUSH2 0x2C91 SWAP2 SWAP1 PUSH2 0x47D2 JUMP JUMPDEST PUSH1 0x1 JUMPDEST PUSH2 0x2D15 JUMPI RETURNDATASIZE DUP1 PUSH0 DUP2 EQ PUSH2 0x2CC2 JUMPI PUSH1 0x40 MLOAD SWAP2 POP PUSH1 0x1F NOT PUSH1 0x3F RETURNDATASIZE ADD AND DUP3 ADD PUSH1 0x40 MSTORE RETURNDATASIZE DUP3 MSTORE RETURNDATASIZE PUSH0 PUSH1 0x20 DUP5 ADD RETURNDATACOPY PUSH2 0x2CC7 JUMP JUMPDEST PUSH1 0x60 SWAP2 POP JUMPDEST POP PUSH0 DUP2 MLOAD SUB PUSH2 0x2D0D JUMPI DUP5 PUSH1 0x40 MLOAD PUSH32 0x57F447CE00000000000000000000000000000000000000000000000000000000 DUP2 MSTORE PUSH1 0x4 ADD PUSH2 0x2D04 SWAP2 SWAP1 PUSH2 0x3642 JUMP JUMPDEST PUSH1 0x40 MLOAD DUP1 SWAP2 SUB SWAP1 REVERT JUMPDEST DUP1 MLOAD DUP2 PUSH1 0x20 ADD REVERT JUMPDEST PUSH4 0xF23A6E61 PUSH1 0xE0 SHL PUSH28 0xFFFFFFFFFFFFFFFFFFFFFFFFFFFFFFFFFFFFFFFFFFFFFFFFFFFFFFFF NOT AND DUP2 PUSH28 0xFFFFFFFFFFFFFFFFFFFFFFFFFFFFFFFFFFFFFFFFFFFFFFFFFFFFFFFF NOT AND EQ PUSH2 0x2D9E JUMPI DUP5 PUSH1 0x40 MLOAD PUSH32 0x57F447CE00000000000000000000000000000000000000000000000000000000 DUP2 MSTORE PUSH1 0x4 ADD PUSH2 0x2D95 SWAP2 SWAP1 PUSH2 0x3642 JUMP JUMPDEST PUSH1 0x40 MLOAD DUP1 SWAP2 SUB SWAP1 REVERT JUMPDEST POP JUMPDEST POP POP POP POP POP POP JUMP JUMPDEST PUSH0 DUP5 PUSH20 0xFFFFFFFFFFFFFFFFFFFFFFFFFFFFFFFFFFFFFFFF AND EXTCODESIZE GT ISZERO PUSH2 0x2F4F JUMPI DUP4 PUSH20 0xFFFFFFFFFFFFFFFFFFFFFFFFFFFFFFFFFFFFFFFF AND PUSH4 0xBC197C81 DUP8 DUP8 DUP7 DUP7 DUP7 PUSH1 0x40 MLOAD DUP7 PUSH4 0xFFFFFFFF AND PUSH1 0xE0 SHL DUP2 MSTORE PUSH1 0x4 ADD PUSH2 0x2E08 SWAP6 SWAP5 SWAP4 SWAP3 SWAP2 SWAP1 PUSH2 0x47FD JUMP JUMPDEST PUSH1 0x20 PUSH1 0x40 MLOAD DUP1 DUP4 SUB DUP2 PUSH0 DUP8 GAS CALL SWAP3 POP POP POP DUP1 ISZERO PUSH2 0x2E43 JUMPI POP PUSH1 0x40 MLOAD RETURNDATASIZE PUSH1 0x1F NOT PUSH1 0x1F DUP3 ADD AND DUP3 ADD DUP1 PUSH1 0x40 MSTORE POP DUP2 ADD SWAP1 PUSH2 0x2E40 SWAP2 SWAP1 PUSH2 0x47D2 JUMP JUMPDEST PUSH1 0x1 JUMPDEST PUSH2 0x2EC4 JUMPI RETURNDATASIZE DUP1 PUSH0 DUP2 EQ PUSH2 0x2E71 JUMPI PUSH1 0x40 MLOAD SWAP2 POP PUSH1 0x1F NOT PUSH1 0x3F RETURNDATASIZE ADD AND DUP3 ADD PUSH1 0x40 MSTORE RETURNDATASIZE DUP3 MSTORE RETURNDATASIZE PUSH0 PUSH1 0x20 DUP5 ADD RETURNDATACOPY PUSH2 0x2E76 JUMP JUMPDEST PUSH1 0x60 SWAP2 POP JUMPDEST POP PUSH0 DUP2 MLOAD SUB PUSH2 0x2EBC JUMPI DUP5 PUSH1 0x40 MLOAD PUSH32 0x57F447CE00000000000000000000000000000000000000000000000000000000 DUP2 MSTORE PUSH1 0x4 ADD PUSH2 0x2EB3 SWAP2 SWAP1 PUSH2 0x3642 JUMP JUMPDEST PUSH1 0x40 MLOAD DUP1 SWAP2 SUB SWAP1 REVERT JUMPDEST DUP1 MLOAD DUP2 PUSH1 0x20 ADD REVERT JUMPDEST PUSH4 0xBC197C81 PUSH1 0xE0 SHL PUSH28 0xFFFFFFFFFFFFFFFFFFFFFFFFFFFFFFFFFFFFFFFFFFFFFFFFFFFFFFFF NOT AND DUP2 PUSH28 0xFFFFFFFFFFFFFFFFFFFFFFFFFFFFFFFFFFFFFFFFFFFFFFFFFFFFFFFF NOT AND EQ PUSH2 0x2F4D JUMPI DUP5 PUSH1 0x40 MLOAD PUSH32 0x57F447CE00000000000000000000000000000000000000000000000000000000 DUP2 MSTORE PUSH1 0x4 ADD PUSH2 0x2F44 SWAP2 SWAP1 PUSH2 0x3642 JUMP JUMPDEST PUSH1 0x40 MLOAD DUP1 SWAP2 SUB SWAP1 REVERT JUMPDEST POP JUMPDEST POP POP POP POP POP POP JUMP JUMPDEST PUSH0 PUSH32 0x1FFC9A700000000000000000000000000000000000000000000000000000000 PUSH28 0xFFFFFFFFFFFFFFFFFFFFFFFFFFFFFFFFFFFFFFFFFFFFFFFFFFFFFFFF NOT AND DUP3 PUSH28 0xFFFFFFFFFFFFFFFFFFFFFFFFFFFFFFFFFFFFFFFFFFFFFFFFFFFFFFFF NOT AND EQ SWAP1 POP SWAP2 SWAP1 POP JUMP JUMPDEST PUSH0 PUSH1 0x40 MLOAD SWAP1 POP SWAP1 JUMP JUMPDEST PUSH0 DUP1 REVERT JUMPDEST PUSH0 DUP1 REVERT JUMPDEST PUSH0 PUSH20 0xFFFFFFFFFFFFFFFFFFFFFFFFFFFFFFFFFFFFFFFF DUP3 AND SWAP1 POP SWAP2 SWAP1 POP JUMP JUMPDEST PUSH0 PUSH2 0x2FFA DUP3 PUSH2 0x2FD1 JUMP JUMPDEST SWAP1 POP SWAP2 SWAP1 POP JUMP JUMPDEST PUSH2 0x300A DUP2 PUSH2 0x2FF0 JUMP JUMPDEST DUP2 EQ PUSH2 0x3014 JUMPI PUSH0 DUP1 REVERT JUMPDEST POP JUMP JUMPDEST PUSH0 DUP2 CALLDATALOAD SWAP1 POP PUSH2 0x3025 DUP2 PUSH2 0x3001 JUMP JUMPDEST SWAP3 SWAP2 POP POP JUMP JUMPDEST PUSH0 DUP2 SWAP1 POP SWAP2 SWAP1 POP JUMP JUMPDEST PUSH2 0x303D DUP2 PUSH2 0x302B JUMP JUMPDEST DUP2 EQ PUSH2 0x3047 JUMPI PUSH0 DUP1 REVERT JUMPDEST POP JUMP JUMPDEST PUSH0 DUP2 CALLDATALOAD SWAP1 POP PUSH2 0x3058 DUP2 PUSH2 0x3034 JUMP JUMPDEST SWAP3 SWAP2 POP POP JUMP JUMPDEST PUSH0 DUP1 PUSH1 0x40 DUP4 DUP6 SUB SLT ISZERO PUSH2 0x3074 JUMPI PUSH2 0x3073 PUSH2 0x2FC9 JUMP JUMPDEST JUMPDEST PUSH0 PUSH2 0x3081 DUP6 DUP3 DUP7 ADD PUSH2 0x3017 JUMP JUMPDEST SWAP3 POP POP PUSH1 0x20 PUSH2 0x3092 DUP6 DUP3 DUP7 ADD PUSH2 0x304A JUMP JUMPDEST SWAP2 POP POP SWAP3 POP SWAP3 SWAP1 POP JUMP JUMPDEST PUSH2 0x30A5 DUP2 PUSH2 0x302B JUMP JUMPDEST DUP3 MSTORE POP POP JUMP JUMPDEST PUSH0 PUSH1 0x20 DUP3 ADD SWAP1 POP PUSH2 0x30BE PUSH0 DUP4 ADD DUP5 PUSH2 0x309C JUMP JUMPDEST SWAP3 SWAP2 POP POP JUMP JUMPDEST PUSH0 DUP1 REVERT JUMPDEST PUSH0 PUSH1 0x1F NOT PUSH1 0x1F DUP4 ADD AND SWAP1 POP SWAP2 SWAP1 POP JUMP JUMPDEST PUSH32 0x4E487B7100000000000000000000000000000000000000000000000000000000 PUSH0 MSTORE PUSH1 0x41 PUSH1 0x4 MSTORE PUSH1 0x24 PUSH0 REVERT JUMPDEST PUSH2 0x310E DUP3 PUSH2 0x30C8 JUMP JUMPDEST DUP2 ADD DUP2 DUP2 LT PUSH8 0xFFFFFFFFFFFFFFFF DUP3 GT OR ISZERO PUSH2 0x312D JUMPI PUSH2 0x312C PUSH2 0x30D8 JUMP JUMPDEST JUMPDEST DUP1 PUSH1 0x40 MSTORE POP POP POP JUMP JUMPDEST PUSH0 PUSH2 0x313F PUSH2 0x2FC0 JUMP JUMPDEST SWAP1 POP PUSH2 0x314B DUP3 DUP3 PUSH2 0x3105 JUMP JUMPDEST SWAP2 SWAP1 POP JUMP JUMPDEST PUSH0 PUSH8 0xFFFFFFFFFFFFFFFF DUP3 GT ISZERO PUSH2 0x316A JUMPI PUSH2 0x3169 PUSH2 0x30D8 JUMP JUMPDEST JUMPDEST PUSH1 0x20 DUP3 MUL SWAP1 POP PUSH1 0x20 DUP2 ADD SWAP1 POP SWAP2 SWAP1 POP JUMP JUMPDEST PUSH0 DUP1 REVERT JUMPDEST PUSH0 PUSH2 0x3191 PUSH2 0x318C DUP5 PUSH2 0x3150 JUMP JUMPDEST PUSH2 0x3136 JUMP JUMPDEST SWAP1 POP DUP1 DUP4 DUP3 MSTORE PUSH1 0x20 DUP3 ADD SWAP1 POP PUSH1 0x20 DUP5 MUL DUP4 ADD DUP6 DUP2 GT ISZERO PUSH2 0x31B4 JUMPI PUSH2 0x31B3 PUSH2 0x317B JUMP JUMPDEST JUMPDEST DUP4 JUMPDEST DUP2 DUP2 LT ISZERO PUSH2 0x31DD JUMPI DUP1 PUSH2 0x31C9 DUP9 DUP3 PUSH2 0x304A JUMP JUMPDEST DUP5 MSTORE PUSH1 0x20 DUP5 ADD SWAP4 POP POP PUSH1 0x20 DUP2 ADD SWAP1 POP PUSH2 0x31B6 JUMP JUMPDEST POP POP POP SWAP4 SWAP3 POP POP POP JUMP JUMPDEST PUSH0 DUP3 PUSH1 0x1F DUP4 ADD SLT PUSH2 0x31FB JUMPI PUSH2 0x31FA PUSH2 0x30C4 JUMP JUMPDEST JUMPDEST DUP2 CALLDATALOAD PUSH2 0x320B DUP5 DUP3 PUSH1 0x20 DUP7 ADD PUSH2 0x317F JUMP JUMPDEST SWAP2 POP POP SWAP3 SWAP2 POP POP JUMP JUMPDEST PUSH0 DUP1 REVERT JUMPDEST PUSH0 PUSH8 0xFFFFFFFFFFFFFFFF DUP3 GT ISZERO PUSH2 0x3232 JUMPI PUSH2 0x3231 PUSH2 0x30D8 JUMP JUMPDEST JUMPDEST PUSH2 0x323B DUP3 PUSH2 0x30C8 JUMP JUMPDEST SWAP1 POP PUSH1 0x20 DUP2 ADD SWAP1 POP SWAP2 SWAP1 POP JUMP JUMPDEST DUP3 DUP2 DUP4 CALLDATACOPY PUSH0 DUP4 DUP4 ADD MSTORE POP POP POP JUMP JUMPDEST PUSH0 PUSH2 0x3268 PUSH2 0x3263 DUP5 PUSH2 0x3218 JUMP JUMPDEST PUSH2 0x3136 JUMP JUMPDEST SWAP1 POP DUP3 DUP2 MSTORE PUSH1 0x20 DUP2 ADD DUP5 DUP5 DUP5 ADD GT ISZERO PUSH2 0x3284 JUMPI PUSH2 0x3283 PUSH2 0x3214 JUMP JUMPDEST JUMPDEST PUSH2 0x328F DUP5 DUP3 DUP6 PUSH2 0x3248 JUMP JUMPDEST POP SWAP4 SWAP3 POP POP POP JUMP JUMPDEST PUSH0 DUP3 PUSH1 0x1F DUP4 ADD SLT PUSH2 0x32AB JUMPI PUSH2 0x32AA PUSH2 0x30C4 JUMP JUMPDEST JUMPDEST DUP2 CALLDATALOAD PUSH2 0x32BB DUP5 DUP3 PUSH1 0x20 DUP7 ADD PUSH2 0x3256 JUMP JUMPDEST SWAP2 POP POP SWAP3 SWAP2 POP POP JUMP JUMPDEST PUSH0 DUP1 PUSH0 DUP1 PUSH1 0x80 DUP6 DUP8 SUB SLT ISZERO PUSH2 0x32DC JUMPI PUSH2 0x32DB PUSH2 0x2FC9 JUMP JUMPDEST JUMPDEST PUSH0 PUSH2 0x32E9 DUP8 DUP3 DUP9 ADD PUSH2 0x3017 JUMP JUMPDEST SWAP5 POP POP PUSH1 0x20 DUP6 ADD CALLDATALOAD PUSH8 0xFFFFFFFFFFFFFFFF DUP2 GT ISZERO PUSH2 0x330A JUMPI PUSH2 0x3309 PUSH2 0x2FCD JUMP JUMPDEST JUMPDEST PUSH2 0x3316 DUP8 DUP3 DUP9 ADD PUSH2 0x31E7 JUMP JUMPDEST SWAP4 POP POP PUSH1 0x40 DUP6 ADD CALLDATALOAD PUSH8 0xFFFFFFFFFFFFFFFF DUP2 GT ISZERO PUSH2 0x3337 JUMPI PUSH2 0x3336 PUSH2 0x2FCD JUMP JUMPDEST JUMPDEST PUSH2 0x3343 DUP8 DUP3 DUP9 ADD PUSH2 0x31E7 JUMP JUMPDEST SWAP3 POP POP PUSH1 0x60 DUP6 ADD CALLDATALOAD PUSH8 0xFFFFFFFFFFFFFFFF DUP2 GT ISZERO PUSH2 0x3364 JUMPI PUSH2 0x3363 PUSH2 0x2FCD JUMP JUMPDEST JUMPDEST PUSH2 0x3370 DUP8 DUP3 DUP9 ADD PUSH2 0x3297 JUMP JUMPDEST SWAP2 POP POP SWAP3 SWAP6 SWAP2 SWAP5 POP SWAP3 POP JUMP JUMPDEST PUSH0 PUSH32 0xFFFFFFFF00000000000000000000000000000000000000000000000000000000 DUP3 AND SWAP1 POP SWAP2 SWAP1 POP JUMP JUMPDEST PUSH2 0x33B0 DUP2 PUSH2 0x337C JUMP JUMPDEST DUP2 EQ PUSH2 0x33BA JUMPI PUSH0 DUP1 REVERT JUMPDEST POP JUMP JUMPDEST PUSH0 DUP2 CALLDATALOAD SWAP1 POP PUSH2 0x33CB DUP2 PUSH2 0x33A7 JUMP JUMPDEST SWAP3 SWAP2 POP POP JUMP JUMPDEST PUSH0 PUSH1 0x20 DUP3 DUP5 SUB SLT ISZERO PUSH2 0x33E6 JUMPI PUSH2 0x33E5 PUSH2 0x2FC9 JUMP JUMPDEST JUMPDEST PUSH0 PUSH2 0x33F3 DUP5 DUP3 DUP6 ADD PUSH2 0x33BD JUMP JUMPDEST SWAP2 POP POP SWAP3 SWAP2 POP POP JUMP JUMPDEST PUSH0 DUP2 ISZERO ISZERO SWAP1 POP SWAP2 SWAP1 POP JUMP JUMPDEST PUSH2 0x3410 DUP2 PUSH2 0x33FC JUMP JUMPDEST DUP3 MSTORE POP POP JUMP JUMPDEST PUSH0 PUSH1 0x20 DUP3 ADD SWAP1 POP PUSH2 0x3429 PUSH0 DUP4 ADD DUP5 PUSH2 0x3407 JUMP JUMPDEST SWAP3 SWAP2 POP POP JUMP JUMPDEST PUSH0 PUSH1 0x20 DUP3 DUP5 SUB SLT ISZERO PUSH2 0x3444 JUMPI PUSH2 0x3443 PUSH2 0x2FC9 JUMP JUMPDEST JUMPDEST PUSH0 PUSH2 0x3451 DUP5 DUP3 DUP6 ADD PUSH2 0x304A JUMP JUMPDEST SWAP2 POP POP SWAP3 SWAP2 POP POP JUMP JUMPDEST PUSH0 DUP2 MLOAD SWAP1 POP SWAP2 SWAP1 POP JUMP JUMPDEST PUSH0 DUP3 DUP3 MSTORE PUSH1 0x20 DUP3 ADD SWAP1 POP SWAP3 SWAP2 POP POP JUMP JUMPDEST PUSH0 JUMPDEST DUP4 DUP2 LT ISZERO PUSH2 0x3491 JUMPI DUP1 DUP3 ADD MLOAD DUP2 DUP5 ADD MSTORE PUSH1 0x20 DUP2 ADD SWAP1 POP PUSH2 0x3476 JUMP JUMPDEST PUSH0 DUP5 DUP5 ADD MSTORE POP POP POP POP JUMP JUMPDEST PUSH0 PUSH2 0x34A6 DUP3 PUSH2 0x345A JUMP JUMPDEST PUSH2 0x34B0 DUP2 DUP6 PUSH2 0x3464 JUMP JUMPDEST SWAP4 POP PUSH2 0x34C0 DUP2 DUP6 PUSH1 0x20 DUP7 ADD PUSH2 0x3474 JUMP JUMPDEST PUSH2 0x34C9 DUP2 PUSH2 0x30C8 JUMP JUMPDEST DUP5 ADD SWAP2 POP POP SWAP3 SWAP2 POP POP JUMP JUMPDEST PUSH0 PUSH1 0x20 DUP3 ADD SWAP1 POP DUP2 DUP2 SUB PUSH0 DUP4 ADD MSTORE PUSH2 0x34EC DUP2 DUP5 PUSH2 0x349C JUMP JUMPDEST SWAP1 POP SWAP3 SWAP2 POP POP JUMP JUMPDEST PUSH0 PUSH1 0x20 DUP3 DUP5 SUB SLT ISZERO PUSH2 0x3509 JUMPI PUSH2 0x3508 PUSH2 0x2FC9 JUMP JUMPDEST JUMPDEST PUSH0 DUP3 ADD CALLDATALOAD PUSH8 0xFFFFFFFFFFFFFFFF DUP2 GT ISZERO PUSH2 0x3526 JUMPI PUSH2 0x3525 PUSH2 0x2FCD JUMP JUMPDEST JUMPDEST PUSH2 0x3532 DUP5 DUP3 DUP6 ADD PUSH2 0x31E7 JUMP JUMPDEST SWAP2 POP POP SWAP3 SWAP2 POP POP JUMP JUMPDEST PUSH0 PUSH8 0xFFFFFFFFFFFFFFFF DUP3 GT ISZERO PUSH2 0x3555 JUMPI PUSH2 0x3554 PUSH2 0x30D8 JUMP JUMPDEST JUMPDEST PUSH2 0x355E DUP3 PUSH2 0x30C8 JUMP JUMPDEST SWAP1 POP PUSH1 0x20 DUP2 ADD SWAP1 POP SWAP2 SWAP1 POP JUMP JUMPDEST PUSH0 PUSH2 0x357D PUSH2 0x3578 DUP5 PUSH2 0x353B JUMP JUMPDEST PUSH2 0x3136 JUMP JUMPDEST SWAP1 POP DUP3 DUP2 MSTORE PUSH1 0x20 DUP2 ADD DUP5 DUP5 DUP5 ADD GT ISZERO PUSH2 0x3599 JUMPI PUSH2 0x3598 PUSH2 0x3214 JUMP JUMPDEST JUMPDEST PUSH2 0x35A4 DUP5 DUP3 DUP6 PUSH2 0x3248 JUMP JUMPDEST POP SWAP4 SWAP3 POP POP POP JUMP JUMPDEST PUSH0 DUP3 PUSH1 0x1F DUP4 ADD SLT PUSH2 0x35C0 JUMPI PUSH2 0x35BF PUSH2 0x30C4 JUMP JUMPDEST JUMPDEST DUP2 CALLDATALOAD PUSH2 0x35D0 DUP5 DUP3 PUSH1 0x20 DUP7 ADD PUSH2 0x356B JUMP JUMPDEST SWAP2 POP POP SWAP3 SWAP2 POP POP JUMP JUMPDEST PUSH0 DUP1 PUSH1 0x40 DUP4 DUP6 SUB SLT ISZERO PUSH2 0x35EF JUMPI PUSH2 0x35EE PUSH2 0x2FC9 JUMP JUMPDEST JUMPDEST PUSH0 PUSH2 0x35FC DUP6 DUP3 DUP7 ADD PUSH2 0x304A JUMP JUMPDEST SWAP3 POP POP PUSH1 0x20 DUP4 ADD CALLDATALOAD PUSH8 0xFFFFFFFFFFFFFFFF DUP2 GT ISZERO PUSH2 0x361D JUMPI PUSH2 0x361C PUSH2 0x2FCD JUMP JUMPDEST JUMPDEST PUSH2 0x3629 DUP6 DUP3 DUP7 ADD PUSH2 0x35AC JUMP JUMPDEST SWAP2 POP POP SWAP3 POP SWAP3 SWAP1 POP JUMP JUMPDEST PUSH2 0x363C DUP2 PUSH2 0x2FF0 JUMP JUMPDEST DUP3 MSTORE POP POP JUMP JUMPDEST PUSH0 PUSH1 0x20 DUP3 ADD SWAP1 POP PUSH2 0x3655 PUSH0 DUP4 ADD DUP5 PUSH2 0x3633 JUMP JUMPDEST SWAP3 SWAP2 POP POP JUMP JUMPDEST PUSH0 DUP2 SWAP1 POP SWAP2 SWAP1 POP JUMP JUMPDEST PUSH2 0x366D DUP2 PUSH2 0x365B JUMP JUMPDEST DUP2 EQ PUSH2 0x3677 JUMPI PUSH0 DUP1 REVERT JUMPDEST POP JUMP JUMPDEST PUSH0 DUP2 CALLDATALOAD SWAP1 POP PUSH2 0x3688 DUP2 PUSH2 0x3664 JUMP JUMPDEST SWAP3 SWAP2 POP POP JUMP JUMPDEST PUSH0 PUSH1 0x20 DUP3 DUP5 SUB SLT ISZERO PUSH2 0x36A3 JUMPI PUSH2 0x36A2 PUSH2 0x2FC9 JUMP JUMPDEST JUMPDEST PUSH0 PUSH2 0x36B0 DUP5 DUP3 DUP6 ADD PUSH2 0x367A JUMP JUMPDEST SWAP2 POP POP SWAP3 SWAP2 POP POP JUMP JUMPDEST PUSH2 0x36C2 DUP2 PUSH2 0x365B JUMP JUMPDEST DUP3 MSTORE POP POP JUMP JUMPDEST PUSH0 PUSH1 0x20 DUP3 ADD SWAP1 POP PUSH2 0x36DB PUSH0 DUP4 ADD DUP5 PUSH2 0x36B9 JUMP JUMPDEST SWAP3 SWAP2 POP POP JUMP JUMPDEST PUSH0 DUP1 PUSH0 DUP1 PUSH0 PUSH1 0xA0 DUP7 DUP9 SUB SLT ISZERO PUSH2 0x36FA JUMPI PUSH2 0x36F9 PUSH2 0x2FC9 JUMP JUMPDEST JUMPDEST PUSH0 PUSH2 0x3707 DUP9 DUP3 DUP10 ADD PUSH2 0x3017 JUMP JUMPDEST SWAP6 POP POP PUSH1 0x20 PUSH2 0x3718 DUP9 DUP3 DUP10 ADD PUSH2 0x3017 JUMP JUMPDEST SWAP5 POP POP PUSH1 0x40 DUP7 ADD CALLDATALOAD PUSH8 0xFFFFFFFFFFFFFFFF DUP2 GT ISZERO PUSH2 0x3739 JUMPI PUSH2 0x3738 PUSH2 0x2FCD JUMP JUMPDEST JUMPDEST PUSH2 0x3745 DUP9 DUP3 DUP10 ADD PUSH2 0x31E7 JUMP JUMPDEST SWAP4 POP POP PUSH1 0x60 DUP7 ADD CALLDATALOAD PUSH8 0xFFFFFFFFFFFFFFFF DUP2 GT ISZERO PUSH2 0x3766 JUMPI PUSH2 0x3765 PUSH2 0x2FCD JUMP JUMPDEST JUMPDEST PUSH2 0x3772 DUP9 DUP3 DUP10 ADD PUSH2 0x31E7 JUMP JUMPDEST SWAP3 POP POP PUSH1 0x80 DUP7 ADD CALLDATALOAD PUSH8 0xFFFFFFFFFFFFFFFF DUP2 GT ISZERO PUSH2 0x3793 JUMPI PUSH2 0x3792 PUSH2 0x2FCD JUMP JUMPDEST JUMPDEST PUSH2 0x379F DUP9 DUP3 DUP10 ADD PUSH2 0x3297 JUMP JUMPDEST SWAP2 POP POP SWAP3 SWAP6 POP SWAP3 SWAP6 SWAP1 SWAP4 POP JUMP JUMPDEST PUSH0 DUP1 PUSH1 0x40 DUP4 DUP6 SUB SLT ISZERO PUSH2 0x37C2 JUMPI PUSH2 0x37C1 PUSH2 0x2FC9 JUMP JUMPDEST JUMPDEST PUSH0 PUSH2 0x37CF DUP6 DUP3 DUP7 ADD PUSH2 0x367A JUMP JUMPDEST SWAP3 POP POP PUSH1 0x20 PUSH2 0x37E0 DUP6 DUP3 DUP7 ADD PUSH2 0x3017 JUMP JUMPDEST SWAP2 POP POP SWAP3 POP SWAP3 SWAP1 POP JUMP JUMPDEST PUSH0 PUSH8 0xFFFFFFFFFFFFFFFF DUP3 GT ISZERO PUSH2 0x3804 JUMPI PUSH2 0x3803 PUSH2 0x30D8 JUMP JUMPDEST JUMPDEST PUSH1 0x20 DUP3 MUL SWAP1 POP PUSH1 0x20 DUP2 ADD SWAP1 POP SWAP2 SWAP1 POP JUMP JUMPDEST PUSH0 PUSH2 0x3827 PUSH2 0x3822 DUP5 PUSH2 0x37EA JUMP JUMPDEST PUSH2 0x3136 JUMP JUMPDEST SWAP1 POP DUP1 DUP4 DUP3 MSTORE PUSH1 0x20 DUP3 ADD SWAP1 POP PUSH1 0x20 DUP5 MUL DUP4 ADD DUP6 DUP2 GT ISZERO PUSH2 0x384A JUMPI PUSH2 0x3849 PUSH2 0x317B JUMP JUMPDEST JUMPDEST DUP4 JUMPDEST DUP2 DUP2 LT ISZERO PUSH2 0x3873 JUMPI DUP1 PUSH2 0x385F DUP9 DUP3 PUSH2 0x3017 JUMP JUMPDEST DUP5 MSTORE PUSH1 0x20 DUP5 ADD SWAP4 POP POP PUSH1 0x20 DUP2 ADD SWAP1 POP PUSH2 0x384C JUMP JUMPDEST POP POP POP SWAP4 SWAP3 POP POP POP JUMP JUMPDEST PUSH0 DUP3 PUSH1 0x1F DUP4 ADD SLT PUSH2 0x3891 JUMPI PUSH2 0x3890 PUSH2 0x30C4 JUMP JUMPDEST JUMPDEST DUP2 CALLDATALOAD PUSH2 0x38A1 DUP5 DUP3 PUSH1 0x20 DUP7 ADD PUSH2 0x3815 JUMP JUMPDEST SWAP2 POP POP SWAP3 SWAP2 POP POP JUMP JUMPDEST PUSH0 DUP1 PUSH1 0x40 DUP4 DUP6 SUB SLT ISZERO PUSH2 0x38C0 JUMPI PUSH2 0x38BF PUSH2 0x2FC9 JUMP JUMPDEST JUMPDEST PUSH0 DUP4 ADD CALLDATALOAD PUSH8 0xFFFFFFFFFFFFFFFF DUP2 GT ISZERO PUSH2 0x38DD JUMPI PUSH2 0x38DC PUSH2 0x2FCD JUMP JUMPDEST JUMPDEST PUSH2 0x38E9 DUP6 DUP3 DUP7 ADD PUSH2 0x387D JUMP JUMPDEST SWAP3 POP POP PUSH1 0x20 DUP4 ADD CALLDATALOAD PUSH8 0xFFFFFFFFFFFFFFFF DUP2 GT ISZERO PUSH2 0x390A JUMPI PUSH2 0x3909 PUSH2 0x2FCD JUMP JUMPDEST JUMPDEST PUSH2 0x3916 DUP6 DUP3 DUP7 ADD PUSH2 0x31E7 JUMP JUMPDEST SWAP2 POP POP SWAP3 POP SWAP3 SWAP1 POP JUMP JUMPDEST PUSH0 DUP2 MLOAD SWAP1 POP SWAP2 SWAP1 POP JUMP JUMPDEST PUSH0 DUP3 DUP3 MSTORE PUSH1 0x20 DUP3 ADD SWAP1 POP SWAP3 SWAP2 POP POP JUMP JUMPDEST PUSH0 DUP2 SWAP1 POP PUSH1 0x20 DUP3 ADD SWAP1 POP SWAP2 SWAP1 POP JUMP JUMPDEST PUSH2 0x3952 DUP2 PUSH2 0x302B JUMP JUMPDEST DUP3 MSTORE POP POP JUMP JUMPDEST PUSH0 PUSH2 0x3963 DUP4 DUP4 PUSH2 0x3949 JUMP JUMPDEST PUSH1 0x20 DUP4 ADD SWAP1 POP SWAP3 SWAP2 POP POP JUMP JUMPDEST PUSH0 PUSH1 0x20 DUP3 ADD SWAP1 POP SWAP2 SWAP1 POP JUMP JUMPDEST PUSH0 PUSH2 0x3985 DUP3 PUSH2 0x3920 JUMP JUMPDEST PUSH2 0x398F DUP2 DUP6 PUSH2 0x392A JUMP JUMPDEST SWAP4 POP PUSH2 0x399A DUP4 PUSH2 0x393A JUMP JUMPDEST DUP1 PUSH0 JUMPDEST DUP4 DUP2 LT ISZERO PUSH2 0x39CA JUMPI DUP2 MLOAD PUSH2 0x39B1 DUP9 DUP3 PUSH2 0x3958 JUMP JUMPDEST SWAP8 POP PUSH2 0x39BC DUP4 PUSH2 0x396F JUMP JUMPDEST SWAP3 POP POP PUSH1 0x1 DUP2 ADD SWAP1 POP PUSH2 0x399D JUMP JUMPDEST POP DUP6 SWAP4 POP POP POP POP SWAP3 SWAP2 POP POP JUMP JUMPDEST PUSH0 PUSH1 0x20 DUP3 ADD SWAP1 POP DUP2 DUP2 SUB PUSH0 DUP4 ADD MSTORE PUSH2 0x39EF DUP2 DUP5 PUSH2 0x397B JUMP JUMPDEST SWAP1 POP SWAP3 SWAP2 POP POP JUMP JUMPDEST PUSH0 PUSH1 0xE0 DUP3 ADD SWAP1 POP PUSH2 0x3A0A PUSH0 DUP4 ADD DUP11 PUSH2 0x309C JUMP JUMPDEST PUSH2 0x3A17 PUSH1 0x20 DUP4 ADD DUP10 PUSH2 0x309C JUMP JUMPDEST PUSH2 0x3A24 PUSH1 0x40 DUP4 ADD DUP9 PUSH2 0x309C JUMP JUMPDEST PUSH2 0x3A31 PUSH1 0x60 DUP4 ADD DUP8 PUSH2 0x309C JUMP JUMPDEST DUP2 DUP2 SUB PUSH1 0x80 DUP4 ADD MSTORE PUSH2 0x3A43 DUP2 DUP7 PUSH2 0x349C JUMP JUMPDEST SWAP1 POP PUSH2 0x3A52 PUSH1 0xA0 DUP4 ADD DUP6 PUSH2 0x3407 JUMP JUMPDEST PUSH2 0x3A5F PUSH1 0xC0 DUP4 ADD DUP5 PUSH2 0x3407 JUMP JUMPDEST SWAP9 SWAP8 POP POP POP POP POP POP POP POP JUMP JUMPDEST PUSH0 PUSH1 0x20 DUP3 DUP5 SUB SLT ISZERO PUSH2 0x3A80 JUMPI PUSH2 0x3A7F PUSH2 0x2FC9 JUMP JUMPDEST JUMPDEST PUSH0 PUSH2 0x3A8D DUP5 DUP3 DUP6 ADD PUSH2 0x3017 JUMP JUMPDEST SWAP2 POP POP SWAP3 SWAP2 POP POP JUMP JUMPDEST PUSH0 PUSH8 0xFFFFFFFFFFFFFFFF DUP3 GT ISZERO PUSH2 0x3AB0 JUMPI PUSH2 0x3AAF PUSH2 0x30D8 JUMP JUMPDEST JUMPDEST PUSH1 0x20 DUP3 MUL SWAP1 POP PUSH1 0x20 DUP2 ADD SWAP1 POP SWAP2 SWAP1 POP JUMP JUMPDEST PUSH0 PUSH2 0x3AD3 PUSH2 0x3ACE DUP5 PUSH2 0x3A96 JUMP JUMPDEST PUSH2 0x3136 JUMP JUMPDEST SWAP1 POP DUP1 DUP4 DUP3 MSTORE PUSH1 0x20 DUP3 ADD SWAP1 POP PUSH1 0x20 DUP5 MUL DUP4 ADD DUP6 DUP2 GT ISZERO PUSH2 0x3AF6 JUMPI PUSH2 0x3AF5 PUSH2 0x317B JUMP JUMPDEST JUMPDEST DUP4 JUMPDEST DUP2 DUP2 LT ISZERO PUSH2 0x3B3D JUMPI DUP1 CALLDATALOAD PUSH8 0xFFFFFFFFFFFFFFFF DUP2 GT ISZERO PUSH2 0x3B1B JUMPI PUSH2 0x3B1A PUSH2 0x30C4 JUMP JUMPDEST JUMPDEST DUP1 DUP7 ADD PUSH2 0x3B28 DUP10 DUP3 PUSH2 0x35AC JUMP JUMPDEST DUP6 MSTORE PUSH1 0x20 DUP6 ADD SWAP5 POP POP POP PUSH1 0x20 DUP2 ADD SWAP1 POP PUSH2 0x3AF8 JUMP JUMPDEST POP POP POP SWAP4 SWAP3 POP POP POP JUMP JUMPDEST PUSH0 DUP3 PUSH1 0x1F DUP4 ADD SLT PUSH2 0x3B5B JUMPI PUSH2 0x3B5A PUSH2 0x30C4 JUMP JUMPDEST JUMPDEST DUP2 CALLDATALOAD PUSH2 0x3B6B DUP5 DUP3 PUSH1 0x20 DUP7 ADD PUSH2 0x3AC1 JUMP JUMPDEST SWAP2 POP POP SWAP3 SWAP2 POP POP JUMP JUMPDEST PUSH0 DUP1 PUSH0 DUP1 PUSH1 0x80 DUP6 DUP8 SUB SLT ISZERO PUSH2 0x3B8C JUMPI PUSH2 0x3B8B PUSH2 0x2FC9 JUMP JUMPDEST JUMPDEST PUSH0 DUP6 ADD CALLDATALOAD PUSH8 0xFFFFFFFFFFFFFFFF DUP2 GT ISZERO PUSH2 0x3BA9 JUMPI PUSH2 0x3BA8 PUSH2 0x2FCD JUMP JUMPDEST JUMPDEST PUSH2 0x3BB5 DUP8 DUP3 DUP9 ADD PUSH2 0x31E7 JUMP JUMPDEST SWAP5 POP POP PUSH1 0x20 DUP6 ADD CALLDATALOAD PUSH8 0xFFFFFFFFFFFFFFFF DUP2 GT ISZERO PUSH2 0x3BD6 JUMPI PUSH2 0x3BD5 PUSH2 0x2FCD JUMP JUMPDEST JUMPDEST PUSH2 0x3BE2 DUP8 DUP3 DUP9 ADD PUSH2 0x31E7 JUMP JUMPDEST SWAP4 POP POP PUSH1 0x40 DUP6 ADD CALLDATALOAD PUSH8 0xFFFFFFFFFFFFFFFF DUP2 GT ISZERO PUSH2 0x3C03 JUMPI PUSH2 0x3C02 PUSH2 0x2FCD JUMP JUMPDEST JUMPDEST PUSH2 0x3C0F DUP8 DUP3 DUP9 ADD PUSH2 0x31E7 JUMP JUMPDEST SWAP3 POP POP PUSH1 0x60 DUP6 ADD CALLDATALOAD PUSH8 0xFFFFFFFFFFFFFFFF DUP2 GT ISZERO PUSH2 0x3C30 JUMPI PUSH2 0x3C2F PUSH2 0x2FCD JUMP JUMPDEST JUMPDEST PUSH2 0x3C3C DUP8 DUP3 DUP9 ADD PUSH2 0x3B47 JUMP JUMPDEST SWAP2 POP POP SWAP3 SWAP6 SWAP2 SWAP5 POP SWAP3 POP JUMP JUMPDEST PUSH2 0x3C51 DUP2 PUSH2 0x33FC JUMP JUMPDEST DUP2 EQ PUSH2 0x3C5B JUMPI PUSH0 DUP1 REVERT JUMPDEST POP JUMP JUMPDEST PUSH0 DUP2 CALLDATALOAD SWAP1 POP PUSH2 0x3C6C DUP2 PUSH2 0x3C48 JUMP JUMPDEST SWAP3 SWAP2 POP POP JUMP JUMPDEST PUSH0 DUP1 PUSH1 0x40 DUP4 DUP6 SUB SLT ISZERO PUSH2 0x3C88 JUMPI PUSH2 0x3C87 PUSH2 0x2FC9 JUMP JUMPDEST JUMPDEST PUSH0 PUSH2 0x3C95 DUP6 DUP3 DUP7 ADD PUSH2 0x3017 JUMP JUMPDEST SWAP3 POP POP PUSH1 0x20 PUSH2 0x3CA6 DUP6 DUP3 DUP7 ADD PUSH2 0x3C5E JUMP JUMPDEST SWAP2 POP POP SWAP3 POP SWAP3 SWAP1 POP JUMP JUMPDEST PUSH0 DUP1 PUSH1 0x40 DUP4 DUP6 SUB SLT ISZERO PUSH2 0x3CC6 JUMPI PUSH2 0x3CC5 PUSH2 0x2FC9 JUMP JUMPDEST JUMPDEST PUSH0 DUP4 ADD CALLDATALOAD PUSH8 0xFFFFFFFFFFFFFFFF DUP2 GT ISZERO PUSH2 0x3CE3 JUMPI PUSH2 0x3CE2 PUSH2 0x2FCD JUMP JUMPDEST JUMPDEST PUSH2 0x3CEF DUP6 DUP3 DUP7 ADD PUSH2 0x31E7 JUMP JUMPDEST SWAP3 POP POP PUSH1 0x20 DUP4 ADD CALLDATALOAD PUSH8 0xFFFFFFFFFFFFFFFF DUP2 GT ISZERO PUSH2 0x3D10 JUMPI PUSH2 0x3D0F PUSH2 0x2FCD JUMP JUMPDEST JUMPDEST PUSH2 0x3D1C DUP6 DUP3 DUP7 ADD PUSH2 0x31E7 JUMP JUMPDEST SWAP2 POP POP SWAP3 POP SWAP3 SWAP1 POP JUMP JUMPDEST PUSH0 PUSH1 0x40 DUP3 ADD SWAP1 POP PUSH2 0x3D39 PUSH0 DUP4 ADD DUP6 PUSH2 0x309C JUMP JUMPDEST PUSH2 0x3D46 PUSH1 0x20 DUP4 ADD DUP5 PUSH2 0x3407 JUMP JUMPDEST SWAP4 SWAP3 POP POP POP JUMP JUMPDEST PUSH0 DUP1 PUSH0 PUSH1 0x60 DUP5 DUP7 SUB SLT ISZERO PUSH2 0x3D64 JUMPI PUSH2 0x3D63 PUSH2 0x2FC9 JUMP JUMPDEST JUMPDEST PUSH0 PUSH2 0x3D71 DUP7 DUP3 DUP8 ADD PUSH2 0x3017 JUMP JUMPDEST SWAP4 POP POP PUSH1 0x20 PUSH2 0x3D82 DUP7 DUP3 DUP8 ADD PUSH2 0x304A JUMP JUMPDEST SWAP3 POP POP PUSH1 0x40 PUSH2 0x3D93 DUP7 DUP3 DUP8 ADD PUSH2 0x304A JUMP JUMPDEST SWAP2 POP POP SWAP3 POP SWAP3 POP SWAP3 JUMP JUMPDEST PUSH0 DUP1 PUSH1 0x40 DUP4 DUP6 SUB SLT ISZERO PUSH2 0x3DB3 JUMPI PUSH2 0x3DB2 PUSH2 0x2FC9 JUMP JUMPDEST JUMPDEST PUSH0 PUSH2 0x3DC0 DUP6 DUP3 DUP7 ADD PUSH2 0x3017 JUMP JUMPDEST SWAP3 POP POP PUSH1 0x20 PUSH2 0x3DD1 DUP6 DUP3 DUP7 ADD PUSH2 0x3017 JUMP JUMPDEST SWAP2 POP POP SWAP3 POP SWAP3 SWAP1 POP JUMP JUMPDEST PUSH0 DUP1 PUSH0 DUP1 PUSH0 PUSH1 0xA0 DUP7 DUP9 SUB SLT ISZERO PUSH2 0x3DF4 JUMPI PUSH2 0x3DF3 PUSH2 0x2FC9 JUMP JUMPDEST JUMPDEST PUSH0 PUSH2 0x3E01 DUP9 DUP3 DUP10 ADD PUSH2 0x3017 JUMP JUMPDEST SWAP6 POP POP PUSH1 0x20 PUSH2 0x3E12 DUP9 DUP3 DUP10 ADD PUSH2 0x3017 JUMP JUMPDEST SWAP5 POP POP PUSH1 0x40 PUSH2 0x3E23 DUP9 DUP3 DUP10 ADD PUSH2 0x304A JUMP JUMPDEST SWAP4 POP POP PUSH1 0x60 PUSH2 0x3E34 DUP9 DUP3 DUP10 ADD PUSH2 0x304A JUMP JUMPDEST SWAP3 POP POP PUSH1 0x80 DUP7 ADD CALLDATALOAD PUSH8 0xFFFFFFFFFFFFFFFF DUP2 GT ISZERO PUSH2 0x3E55 JUMPI PUSH2 0x3E54 PUSH2 0x2FCD JUMP JUMPDEST JUMPDEST PUSH2 0x3E61 DUP9 DUP3 DUP10 ADD PUSH2 0x3297 JUMP JUMPDEST SWAP2 POP POP SWAP3 SWAP6 POP SWAP3 SWAP6 SWAP1 SWAP4 POP JUMP JUMPDEST PUSH32 0x446F65736E27742065786973742E000000000000000000000000000000000000 PUSH0 DUP3 ADD MSTORE POP JUMP JUMPDEST PUSH0 PUSH2 0x3EA2 PUSH1 0xE DUP4 PUSH2 0x3464 JUMP JUMPDEST SWAP2 POP PUSH2 0x3EAD DUP3 PUSH2 0x3E6E JUMP JUMPDEST PUSH1 0x20 DUP3 ADD SWAP1 POP SWAP2 SWAP1 POP JUMP JUMPDEST PUSH0 PUSH1 0x20 DUP3 ADD SWAP1 POP DUP2 DUP2 SUB PUSH0 DUP4 ADD MSTORE PUSH2 0x3ECF DUP2 PUSH2 0x3E96 JUMP JUMPDEST SWAP1 POP SWAP2 SWAP1 POP JUMP JUMPDEST PUSH0 DUP2 SWAP1 POP SWAP3 SWAP2 POP POP JUMP JUMPDEST PUSH32 0x4D494E5445520000000000000000000000000000000000000000000000000000 PUSH0 DUP3 ADD MSTORE POP JUMP JUMPDEST PUSH0 PUSH2 0x3F14 PUSH1 0x6 DUP4 PUSH2 0x3ED6 JUMP JUMPDEST SWAP2 POP PUSH2 0x3F1F DUP3 PUSH2 0x3EE0 JUMP JUMPDEST PUSH1 0x6 DUP3 ADD SWAP1 POP SWAP2 SWAP1 POP JUMP JUMPDEST PUSH0 PUSH2 0x3F34 DUP3 PUSH2 0x3F08 JUMP JUMPDEST SWAP2 POP DUP2 SWAP1 POP SWAP2 SWAP1 POP JUMP JUMPDEST PUSH32 0x4E487B7100000000000000000000000000000000000000000000000000000000 PUSH0 MSTORE PUSH1 0x32 PUSH1 0x4 MSTORE PUSH1 0x24 PUSH0 REVERT JUMPDEST PUSH32 0x4E487B7100000000000000000000000000000000000000000000000000000000 PUSH0 MSTORE PUSH1 0x11 PUSH1 0x4 MSTORE PUSH1 0x24 PUSH0 REVERT JUMPDEST PUSH0 PUSH2 0x3FA2 DUP3 PUSH2 0x302B JUMP JUMPDEST SWAP2 POP PUSH32 0xFFFFFFFFFFFFFFFFFFFFFFFFFFFFFFFFFFFFFFFFFFFFFFFFFFFFFFFFFFFFFFFF DUP3 SUB PUSH2 0x3FD4 JUMPI PUSH2 0x3FD3 PUSH2 0x3F6B JUMP JUMPDEST JUMPDEST PUSH1 0x1 DUP3 ADD SWAP1 POP SWAP2 SWAP1 POP JUMP JUMPDEST PUSH32 0x4E487B7100000000000000000000000000000000000000000000000000000000 PUSH0 MSTORE PUSH1 0x22 PUSH1 0x4 MSTORE PUSH1 0x24 PUSH0 REVERT JUMPDEST PUSH0 PUSH1 0x2 DUP3 DIV SWAP1 POP PUSH1 0x1 DUP3 AND DUP1 PUSH2 0x4023 JUMPI PUSH1 0x7F DUP3 AND SWAP2 POP JUMPDEST PUSH1 0x20 DUP3 LT DUP2 SUB PUSH2 0x4036 JUMPI PUSH2 0x4035 PUSH2 0x3FDF JUMP JUMPDEST JUMPDEST POP SWAP2 SWAP1 POP JUMP JUMPDEST PUSH0 DUP2 SWAP1 POP DUP2 PUSH0 MSTORE PUSH1 0x20 PUSH0 KECCAK256 SWAP1 POP SWAP2 SWAP1 POP JUMP JUMPDEST PUSH0 PUSH1 0x20 PUSH1 0x1F DUP4 ADD DIV SWAP1 POP SWAP2 SWAP1 POP JUMP JUMPDEST PUSH0 DUP3 DUP3 SHL SWAP1 POP SWAP3 SWAP2 POP POP JUMP JUMPDEST PUSH0 PUSH1 0x8 DUP4 MUL PUSH2 0x4098 PUSH32 0xFFFFFFFFFFFFFFFFFFFFFFFFFFFFFFFFFFFFFFFFFFFFFFFFFFFFFFFFFFFFFFFF DUP3 PUSH2 0x405D JUMP JUMPDEST PUSH2 0x40A2 DUP7 DUP4 PUSH2 0x405D JUMP JUMPDEST SWAP6 POP DUP1 NOT DUP5 AND SWAP4 POP DUP1 DUP7 AND DUP5 OR SWAP3 POP POP POP SWAP4 SWAP3 POP POP POP JUMP JUMPDEST PUSH0 DUP2 SWAP1 POP SWAP2 SWAP1 POP JUMP JUMPDEST PUSH0 PUSH2 0x40DD PUSH2 0x40D8 PUSH2 0x40D3 DUP5 PUSH2 0x302B JUMP JUMPDEST PUSH2 0x40BA JUMP JUMPDEST PUSH2 0x302B JUMP JUMPDEST SWAP1 POP SWAP2 SWAP1 POP JUMP JUMPDEST PUSH0 DUP2 SWAP1 POP SWAP2 SWAP1 POP JUMP JUMPDEST PUSH2 0x40F6 DUP4 PUSH2 0x40C3 JUMP JUMPDEST PUSH2 0x410A PUSH2 0x4102 DUP3 PUSH2 0x40E4 JUMP JUMPDEST DUP5 DUP5 SLOAD PUSH2 0x4069 JUMP JUMPDEST DUP3 SSTORE POP POP POP POP JUMP JUMPDEST PUSH0 SWAP1 JUMP JUMPDEST PUSH2 0x411E PUSH2 0x4112 JUMP JUMPDEST PUSH2 0x4129 DUP2 DUP5 DUP5 PUSH2 0x40ED JUMP JUMPDEST POP POP POP JUMP JUMPDEST JUMPDEST DUP2 DUP2 LT ISZERO PUSH2 0x414C JUMPI PUSH2 0x4141 PUSH0 DUP3 PUSH2 0x4116 JUMP JUMPDEST PUSH1 0x1 DUP2 ADD SWAP1 POP PUSH2 0x412F JUMP JUMPDEST POP POP JUMP JUMPDEST PUSH1 0x1F DUP3 GT ISZERO PUSH2 0x4191 JUMPI PUSH2 0x4162 DUP2 PUSH2 0x403C JUMP JUMPDEST PUSH2 0x416B DUP5 PUSH2 0x404E JUMP JUMPDEST DUP2 ADD PUSH1 0x20 DUP6 LT ISZERO PUSH2 0x417A JUMPI DUP2 SWAP1 POP JUMPDEST PUSH2 0x418E PUSH2 0x4186 DUP6 PUSH2 0x404E JUMP JUMPDEST DUP4 ADD DUP3 PUSH2 0x412E JUMP JUMPDEST POP POP JUMPDEST POP POP POP JUMP JUMPDEST PUSH0 DUP3 DUP3 SHR SWAP1 POP SWAP3 SWAP2 POP POP JUMP JUMPDEST PUSH0 PUSH2 0x41B1 PUSH0 NOT DUP5 PUSH1 0x8 MUL PUSH2 0x4196 JUMP JUMPDEST NOT DUP1 DUP4 AND SWAP2 POP POP SWAP3 SWAP2 POP POP JUMP JUMPDEST PUSH0 PUSH2 0x41C9 DUP4 DUP4 PUSH2 0x41A2 JUMP JUMPDEST SWAP2 POP DUP3 PUSH1 0x2 MUL DUP3 OR SWAP1 POP SWAP3 SWAP2 POP POP JUMP JUMPDEST PUSH2 0x41E2 DUP3 PUSH2 0x345A JUMP JUMPDEST PUSH8 0xFFFFFFFFFFFFFFFF DUP2 GT ISZERO PUSH2 0x41FB JUMPI PUSH2 0x41FA PUSH2 0x30D8 JUMP JUMPDEST JUMPDEST PUSH2 0x4205 DUP3 SLOAD PUSH2 0x400C JUMP JUMPDEST PUSH2 0x4210 DUP3 DUP3 DUP6 PUSH2 0x4150 JUMP JUMPDEST PUSH0 PUSH1 0x20 SWAP1 POP PUSH1 0x1F DUP4 GT PUSH1 0x1 DUP2 EQ PUSH2 0x4241 JUMPI PUSH0 DUP5 ISZERO PUSH2 0x422F JUMPI DUP3 DUP8 ADD MLOAD SWAP1 POP JUMPDEST PUSH2 0x4239 DUP6 DUP3 PUSH2 0x41BE JUMP JUMPDEST DUP7 SSTORE POP PUSH2 0x42A0 JUMP JUMPDEST PUSH1 0x1F NOT DUP5 AND PUSH2 0x424F DUP7 PUSH2 0x403C JUMP JUMPDEST PUSH0 JUMPDEST DUP3 DUP2 LT ISZERO PUSH2 0x4276 JUMPI DUP5 DUP10 ADD MLOAD DUP3 SSTORE PUSH1 0x1 DUP3 ADD SWAP2 POP PUSH1 0x20 DUP6 ADD SWAP5 POP PUSH1 0x20 DUP2 ADD SWAP1 POP PUSH2 0x4251 JUMP JUMPDEST DUP7 DUP4 LT ISZERO PUSH2 0x4293 JUMPI DUP5 DUP10 ADD MLOAD PUSH2 0x428F PUSH1 0x1F DUP10 AND DUP3 PUSH2 0x41A2 JUMP JUMPDEST DUP4 SSTORE POP JUMPDEST PUSH1 0x1 PUSH1 0x2 DUP9 MUL ADD DUP9 SSTORE POP POP POP JUMPDEST POP POP POP POP POP POP JUMP JUMPDEST PUSH0 PUSH1 0x40 DUP3 ADD SWAP1 POP PUSH2 0x42BB PUSH0 DUP4 ADD DUP6 PUSH2 0x3633 JUMP JUMPDEST PUSH2 0x42C8 PUSH1 0x20 DUP4 ADD DUP5 PUSH2 0x3633 JUMP JUMPDEST SWAP4 SWAP3 POP POP POP JUMP JUMPDEST PUSH32 0x4E6F2066756E6473000000000000000000000000000000000000000000000000 PUSH0 DUP3 ADD MSTORE POP JUMP JUMPDEST PUSH0 PUSH2 0x4303 PUSH1 0x8 DUP4 PUSH2 0x3464 JUMP JUMPDEST SWAP2 POP PUSH2 0x430E DUP3 PUSH2 0x42CF JUMP JUMPDEST PUSH1 0x20 DUP3 ADD SWAP1 POP SWAP2 SWAP1 POP JUMP JUMPDEST PUSH0 PUSH1 0x20 DUP3 ADD SWAP1 POP DUP2 DUP2 SUB PUSH0 DUP4 ADD MSTORE PUSH2 0x4330 DUP2 PUSH2 0x42F7 JUMP JUMPDEST SWAP1 POP SWAP2 SWAP1 POP JUMP JUMPDEST PUSH0 PUSH1 0x40 DUP3 ADD SWAP1 POP PUSH2 0x434A PUSH0 DUP4 ADD DUP6 PUSH2 0x309C JUMP JUMPDEST PUSH2 0x4357 PUSH1 0x20 DUP4 ADD DUP5 PUSH2 0x309C JUMP JUMPDEST SWAP4 SWAP3 POP POP POP JUMP JUMPDEST PUSH32 0x417272206E6F742073616D65206C6E0000000000000000000000000000000000 PUSH0 DUP3 ADD MSTORE POP JUMP JUMPDEST PUSH0 PUSH2 0x4392 PUSH1 0xF DUP4 PUSH2 0x3464 JUMP JUMPDEST SWAP2 POP PUSH2 0x439D DUP3 PUSH2 0x435E JUMP JUMPDEST PUSH1 0x20 DUP3 ADD SWAP1 POP SWAP2 SWAP1 POP JUMP JUMPDEST PUSH0 PUSH1 0x20 DUP3 ADD SWAP1 POP DUP2 DUP2 SUB PUSH0 DUP4 ADD MSTORE PUSH2 0x43BF DUP2 PUSH2 0x4386 JUMP JUMPDEST SWAP1 POP SWAP2 SWAP1 POP JUMP JUMPDEST PUSH0 PUSH2 0x43D0 DUP3 PUSH2 0x302B JUMP JUMPDEST SWAP2 POP PUSH2 0x43DB DUP4 PUSH2 0x302B JUMP JUMPDEST SWAP3 POP DUP3 DUP3 SUB SWAP1 POP DUP2 DUP2 GT ISZERO PUSH2 0x43F3 JUMPI PUSH2 0x43F2 PUSH2 0x3F6B JUMP JUMPDEST JUMPDEST SWAP3 SWAP2 POP POP JUMP JUMPDEST PUSH32 0x5061757365642E00000000000000000000000000000000000000000000000000 PUSH0 DUP3 ADD MSTORE POP JUMP JUMPDEST PUSH0 PUSH2 0x442D PUSH1 0x7 DUP4 PUSH2 0x3464 JUMP JUMPDEST SWAP2 POP PUSH2 0x4438 DUP3 PUSH2 0x43F9 JUMP JUMPDEST PUSH1 0x20 DUP3 ADD SWAP1 POP SWAP2 SWAP1 POP JUMP JUMPDEST PUSH0 PUSH1 0x20 DUP3 ADD SWAP1 POP DUP2 DUP2 SUB PUSH0 DUP4 ADD MSTORE PUSH2 0x445A DUP2 PUSH2 0x4421 JUMP JUMPDEST SWAP1 POP SWAP2 SWAP1 POP JUMP JUMPDEST PUSH32 0x6E6F74203E203000000000000000000000000000000000000000000000000000 PUSH0 DUP3 ADD MSTORE POP JUMP JUMPDEST PUSH0 PUSH2 0x4495 PUSH1 0x7 DUP4 PUSH2 0x3464 JUMP JUMPDEST SWAP2 POP PUSH2 0x44A0 DUP3 PUSH2 0x4461 JUMP JUMPDEST PUSH1 0x20 DUP3 ADD SWAP1 POP SWAP2 SWAP1 POP JUMP JUMPDEST PUSH0 PUSH1 0x20 DUP3 ADD SWAP1 POP DUP2 DUP2 SUB PUSH0 DUP4 ADD MSTORE PUSH2 0x44C2 DUP2 PUSH2 0x4489 JUMP JUMPDEST SWAP1 POP SWAP2 SWAP1 POP JUMP JUMPDEST PUSH0 PUSH2 0x44D3 DUP3 PUSH2 0x302B JUMP JUMPDEST SWAP2 POP PUSH2 0x44DE DUP4 PUSH2 0x302B JUMP JUMPDEST SWAP3 POP DUP3 DUP3 MUL PUSH2 0x44EC DUP2 PUSH2 0x302B JUMP JUMPDEST SWAP2 POP DUP3 DUP3 DIV DUP5 EQ DUP4 ISZERO OR PUSH2 0x4503 JUMPI PUSH2 0x4502 PUSH2 0x3F6B JUMP JUMPDEST JUMPDEST POP SWAP3 SWAP2 POP POP JUMP JUMPDEST PUSH0 PUSH2 0x4514 DUP3 PUSH2 0x302B JUMP JUMPDEST SWAP2 POP PUSH2 0x451F DUP4 PUSH2 0x302B JUMP JUMPDEST SWAP3 POP DUP3 DUP3 ADD SWAP1 POP DUP1 DUP3 GT ISZERO PUSH2 0x4537 JUMPI PUSH2 0x4536 PUSH2 0x3F6B JUMP JUMPDEST JUMPDEST SWAP3 SWAP2 POP POP JUMP JUMPDEST PUSH32 0x496E73756666696369656E742066756E64732E00000000000000000000000000 PUSH0 DUP3 ADD MSTORE POP JUMP JUMPDEST PUSH0 PUSH2 0x4571 PUSH1 0x13 DUP4 PUSH2 0x3464 JUMP JUMPDEST SWAP2 POP PUSH2 0x457C DUP3 PUSH2 0x453D JUMP JUMPDEST PUSH1 0x20 DUP3 ADD SWAP1 POP SWAP2 SWAP1 POP JUMP JUMPDEST PUSH0 PUSH1 0x20 DUP3 ADD SWAP1 POP DUP2 DUP2 SUB PUSH0 DUP4 ADD MSTORE PUSH2 0x459E DUP2 PUSH2 0x4565 JUMP JUMPDEST SWAP1 POP SWAP2 SWAP1 POP JUMP JUMPDEST PUSH32 0x416D6F756E74206D7573742062652067726561746572207468616E20302E0000 PUSH0 DUP3 ADD MSTORE POP JUMP JUMPDEST PUSH0 PUSH2 0x45D9 PUSH1 0x1E DUP4 PUSH2 0x3464 JUMP JUMPDEST SWAP2 POP PUSH2 0x45E4 DUP3 PUSH2 0x45A5 JUMP JUMPDEST PUSH1 0x20 DUP3 ADD SWAP1 POP SWAP2 SWAP1 POP JUMP JUMPDEST PUSH0 PUSH1 0x20 DUP3 ADD SWAP1 POP DUP2 DUP2 SUB PUSH0 DUP4 ADD MSTORE PUSH2 0x4606 DUP2 PUSH2 0x45CD JUMP JUMPDEST SWAP1 POP SWAP2 SWAP1 POP JUMP JUMPDEST PUSH32 0x4E6F7420656E6F75676820746F6B656E7320746F206275726E2E000000000000 PUSH0 DUP3 ADD MSTORE POP JUMP JUMPDEST PUSH0 PUSH2 0x4641 PUSH1 0x1A DUP4 PUSH2 0x3464 JUMP JUMPDEST SWAP2 POP PUSH2 0x464C DUP3 PUSH2 0x460D JUMP JUMPDEST PUSH1 0x20 DUP3 ADD SWAP1 POP SWAP2 SWAP1 POP JUMP JUMPDEST PUSH0 PUSH1 0x20 DUP3 ADD SWAP1 POP DUP2 DUP2 SUB PUSH0 DUP4 ADD MSTORE PUSH2 0x466E DUP2 PUSH2 0x4635 JUMP JUMPDEST SWAP1 POP SWAP2 SWAP1 POP JUMP JUMPDEST PUSH0 PUSH1 0x40 DUP3 ADD SWAP1 POP PUSH2 0x4688 PUSH0 DUP4 ADD DUP6 PUSH2 0x3633 JUMP JUMPDEST PUSH2 0x4695 PUSH1 0x20 DUP4 ADD DUP5 PUSH2 0x36B9 JUMP JUMPDEST SWAP4 SWAP3 POP POP POP JUMP JUMPDEST PUSH0 PUSH1 0x80 DUP3 ADD SWAP1 POP PUSH2 0x46AF PUSH0 DUP4 ADD DUP8 PUSH2 0x3633 JUMP JUMPDEST PUSH2 0x46BC PUSH1 0x20 DUP4 ADD DUP7 PUSH2 0x309C JUMP JUMPDEST PUSH2 0x46C9 PUSH1 0x40 DUP4 ADD DUP6 PUSH2 0x309C JUMP JUMPDEST PUSH2 0x46D6 PUSH1 0x60 DUP4 ADD DUP5 PUSH2 0x309C JUMP JUMPDEST SWAP6 SWAP5 POP POP POP POP POP JUMP JUMPDEST PUSH0 PUSH1 0x40 DUP3 ADD SWAP1 POP DUP2 DUP2 SUB PUSH0 DUP4 ADD MSTORE PUSH2 0x46F7 DUP2 DUP6 PUSH2 0x397B JUMP JUMPDEST SWAP1 POP DUP2 DUP2 SUB PUSH1 0x20 DUP4 ADD MSTORE PUSH2 0x470B DUP2 DUP5 PUSH2 0x397B JUMP JUMPDEST SWAP1 POP SWAP4 SWAP3 POP POP POP JUMP JUMPDEST PUSH0 DUP2 MLOAD SWAP1 POP SWAP2 SWAP1 POP JUMP JUMPDEST PUSH0 DUP3 DUP3 MSTORE PUSH1 0x20 DUP3 ADD SWAP1 POP SWAP3 SWAP2 POP POP JUMP JUMPDEST PUSH0 PUSH2 0x4738 DUP3 PUSH2 0x4714 JUMP JUMPDEST PUSH2 0x4742 DUP2 DUP6 PUSH2 0x471E JUMP JUMPDEST SWAP4 POP PUSH2 0x4752 DUP2 DUP6 PUSH1 0x20 DUP7 ADD PUSH2 0x3474 JUMP JUMPDEST PUSH2 0x475B DUP2 PUSH2 0x30C8 JUMP JUMPDEST DUP5 ADD SWAP2 POP POP SWAP3 SWAP2 POP POP JUMP JUMPDEST PUSH0 PUSH1 0xA0 DUP3 ADD SWAP1 POP PUSH2 0x4779 PUSH0 DUP4 ADD DUP9 PUSH2 0x3633 JUMP JUMPDEST PUSH2 0x4786 PUSH1 0x20 DUP4 ADD DUP8 PUSH2 0x3633 JUMP JUMPDEST PUSH2 0x4793 PUSH1 0x40 DUP4 ADD DUP7 PUSH2 0x309C JUMP JUMPDEST PUSH2 0x47A0 PUSH1 0x60 DUP4 ADD DUP6 PUSH2 0x309C JUMP JUMPDEST DUP2 DUP2 SUB PUSH1 0x80 DUP4 ADD MSTORE PUSH2 0x47B2 DUP2 DUP5 PUSH2 0x472E JUMP JUMPDEST SWAP1 POP SWAP7 SWAP6 POP POP POP POP POP POP JUMP JUMPDEST PUSH0 DUP2 MLOAD SWAP1 POP PUSH2 0x47CC DUP2 PUSH2 0x33A7 JUMP JUMPDEST SWAP3 SWAP2 POP POP JUMP JUMPDEST PUSH0 PUSH1 0x20 DUP3 DUP5 SUB SLT ISZERO PUSH2 0x47E7 JUMPI PUSH2 0x47E6 PUSH2 0x2FC9 JUMP JUMPDEST JUMPDEST PUSH0 PUSH2 0x47F4 DUP5 DUP3 DUP6 ADD PUSH2 0x47BE JUMP JUMPDEST SWAP2 POP POP SWAP3 SWAP2 POP POP JUMP JUMPDEST PUSH0 PUSH1 0xA0 DUP3 ADD SWAP1 POP PUSH2 0x4810 PUSH0 DUP4 ADD DUP9 PUSH2 0x3633 JUMP JUMPDEST PUSH2 0x481D PUSH1 0x20 DUP4 ADD DUP8 PUSH2 0x3633 JUMP JUMPDEST DUP2 DUP2 SUB PUSH1 0x40 DUP4 ADD MSTORE PUSH2 0x482F DUP2 DUP7 PUSH2 0x397B JUMP JUMPDEST SWAP1 POP DUP2 DUP2 SUB PUSH1 0x60 DUP4 ADD MSTORE PUSH2 0x4843 DUP2 DUP6 PUSH2 0x397B JUMP JUMPDEST SWAP1 POP DUP2 DUP2 SUB PUSH1 0x80 DUP4 ADD MSTORE PUSH2 0x4857 DUP2 DUP5 PUSH2 0x472E JUMP JUMPDEST SWAP1 POP SWAP7 SWAP6 POP POP POP POP POP POP JUMP INVALID LOG2 PUSH5 0x6970667358 0x22 SLT KECCAK256 EXP PUSH15 0x897E29E58E2D3CCC8B01E2E8C235AB DELEGATECALL 0xC6 MSTORE 0xF6 0x24 PUSH22 0x4A043D746AB3B8DBFB64736F6C634300081400330000 "
    },
    "gasEstimates": {
      "creation": {
        "codeDepositCost": "3717000",
        "executionCost": "infinite",
        "totalCost": "infinite"
      },
      "external": {
        "DEFAULT_ADMIN_ROLE()": "420",
        "MINTER()": "758",
        "TIMER_MANAGEMENT_ROLE()": "370",
        "addNewTokens(uint256[],uint256[],uint256[],string[])": "infinite",
        "addressMinted(address)": "2912",
        "balanceOf(address,uint256)": "infinite",
        "balanceOfBatch(address[],uint256[])": "infinite",
        "burn(address,uint256,uint256)": "infinite",
        "ceptorContractAddress()": "2598",
        "checkTimer(address)": "5191",
        "getRoleAdmin(bytes32)": "infinite",
        "grantRole(bytes32,address)": "infinite",
        "hasRole(bytes32,address)": "3168",
        "isApprovedForAll(address,address)": "infinite",
        "makeTimerUsed(address)": "infinite",
        "mintBatch(uint256[],uint256[])": "infinite",
        "minterMintBatch(address,uint256[],uint256[],bytes)": "infinite",
        "pauseTokens(uint256[])": "infinite",
        "renounceRole(bytes32,address)": "infinite",
        "revokeRole(bytes32,address)": "infinite",
        "safeBatchTransferFrom(address,address,uint256[],uint256[],bytes)": "infinite",
        "safeTransferFrom(address,address,uint256,uint256,bytes)": "infinite",
        "setApprovalForAll(address,bool)": "infinite",
        "setCeptorAddress(address)": "infinite",
        "setTokenURI(uint256,string)": "infinite",
        "supportsInterface(bytes4)": "1076",
        "timerBurn(address,uint256,uint256)": "infinite",
        "tokens(uint256)": "infinite",
        "totalSupply(uint256)": "infinite",
        "totalTokens()": "2558",
        "unpauseTokens(uint256[])": "infinite",
        "uri(uint256)": "infinite",
        "userToTimer(address)": "5156",
        "withdraw()": "infinite"
      }
    },
    "methodIdentifiers": {
      "DEFAULT_ADMIN_ROLE()": "a217fddf",
      "MINTER()": "fe6d8124",
      "TIMER_MANAGEMENT_ROLE()": "a488b4a4",
      "addNewTokens(uint256[],uint256[],uint256[],string[])": "6c410bee",
      "addressMinted(address)": "fa30297e",
      "balanceOf(address,uint256)": "00fdd58e",
      "balanceOfBatch(address[],uint256[])": "4e1273f4",
      "burn(address,uint256,uint256)": "f5298aca",
      "ceptorContractAddress()": "1f2298cb",
      "checkTimer(address)": "6677aada",
      "getRoleAdmin(bytes32)": "248a9ca3",
      "grantRole(bytes32,address)": "2f2ff15d",
      "hasRole(bytes32,address)": "91d14854",
      "isApprovedForAll(address,address)": "e985e9c5",
      "makeTimerUsed(address)": "984d6663",
      "mintBatch(uint256[],uint256[])": "d351cfdc",
      "minterMintBatch(address,uint256[],uint256[],bytes)": "01febe17",
      "pauseTokens(uint256[])": "114b8158",
      "renounceRole(bytes32,address)": "36568abe",
      "revokeRole(bytes32,address)": "d547741f",
      "safeBatchTransferFrom(address,address,uint256[],uint256[],bytes)": "2eb2c2d6",
      "safeTransferFrom(address,address,uint256,uint256,bytes)": "f242432a",
      "setApprovalForAll(address,bool)": "a22cb465",
      "setCeptorAddress(address)": "b1881c53",
      "setTokenURI(uint256,string)": "162094c4",
      "supportsInterface(bytes4)": "01ffc9a7",
      "timerBurn(address,uint256,uint256)": "df6a466a",
      "tokens(uint256)": "4f64b2be",
      "totalSupply(uint256)": "bd85b039",
      "totalTokens()": "7e1c0c09",
      "unpauseTokens(uint256[])": "aa9efa0e",
      "uri(uint256)": "0e89341c",
      "userToTimer(address)": "d778e38e",
      "withdraw()": "3ccfd60b"
    }
  },
  "abi": [
    {
      "inputs": [],
      "stateMutability": "nonpayable",
      "type": "constructor"
    },
    {
      "inputs": [],
      "name": "AccessControlBadConfirmation",
      "type": "error"
    },
    {
      "inputs": [
        {
          "internalType": "address",
          "name": "account",
          "type": "address"
        },
        {
          "internalType": "bytes32",
          "name": "neededRole",
          "type": "bytes32"
        }
      ],
      "name": "AccessControlUnauthorizedAccount",
      "type": "error"
    },
    {
      "inputs": [
        {
          "internalType": "address",
          "name": "sender",
          "type": "address"
        },
        {
          "internalType": "uint256",
          "name": "balance",
          "type": "uint256"
        },
        {
          "internalType": "uint256",
          "name": "needed",
          "type": "uint256"
        },
        {
          "internalType": "uint256",
          "name": "tokenId",
          "type": "uint256"
        }
      ],
      "name": "ERC1155InsufficientBalance",
      "type": "error"
    },
    {
      "inputs": [
        {
          "internalType": "address",
          "name": "approver",
          "type": "address"
        }
      ],
      "name": "ERC1155InvalidApprover",
      "type": "error"
    },
    {
      "inputs": [
        {
          "internalType": "uint256",
          "name": "idsLength",
          "type": "uint256"
        },
        {
          "internalType": "uint256",
          "name": "valuesLength",
          "type": "uint256"
        }
      ],
      "name": "ERC1155InvalidArrayLength",
      "type": "error"
    },
    {
      "inputs": [
        {
          "internalType": "address",
          "name": "operator",
          "type": "address"
        }
      ],
      "name": "ERC1155InvalidOperator",
      "type": "error"
    },
    {
      "inputs": [
        {
          "internalType": "address",
          "name": "receiver",
          "type": "address"
        }
      ],
      "name": "ERC1155InvalidReceiver",
      "type": "error"
    },
    {
      "inputs": [
        {
          "internalType": "address",
          "name": "sender",
          "type": "address"
        }
      ],
      "name": "ERC1155InvalidSender",
      "type": "error"
    },
    {
      "inputs": [
        {
          "internalType": "address",
          "name": "operator",
          "type": "address"
        },
        {
          "internalType": "address",
          "name": "owner",
          "type": "address"
        }
      ],
      "name": "ERC1155MissingApprovalForAll",
      "type": "error"
    },
    {
      "anonymous": false,
      "inputs": [
        {
          "indexed": true,
          "internalType": "address",
          "name": "account",
          "type": "address"
        },
        {
          "indexed": true,
          "internalType": "address",
          "name": "operator",
          "type": "address"
        },
        {
          "indexed": false,
          "internalType": "bool",
          "name": "approved",
          "type": "bool"
        }
      ],
      "name": "ApprovalForAll",
      "type": "event"
    },
    {
      "anonymous": false,
      "inputs": [
        {
          "indexed": true,
          "internalType": "bytes32",
          "name": "role",
          "type": "bytes32"
        },
        {
          "indexed": true,
          "internalType": "bytes32",
          "name": "previousAdminRole",
          "type": "bytes32"
        },
        {
          "indexed": true,
          "internalType": "bytes32",
          "name": "newAdminRole",
          "type": "bytes32"
        }
      ],
      "name": "RoleAdminChanged",
      "type": "event"
    },
    {
      "anonymous": false,
      "inputs": [
        {
          "indexed": true,
          "internalType": "bytes32",
          "name": "role",
          "type": "bytes32"
        },
        {
          "indexed": true,
          "internalType": "address",
          "name": "account",
          "type": "address"
        },
        {
          "indexed": true,
          "internalType": "address",
          "name": "sender",
          "type": "address"
        }
      ],
      "name": "RoleGranted",
      "type": "event"
    },
    {
      "anonymous": false,
      "inputs": [
        {
          "indexed": true,
          "internalType": "bytes32",
          "name": "role",
          "type": "bytes32"
        },
        {
          "indexed": true,
          "internalType": "address",
          "name": "account",
          "type": "address"
        },
        {
          "indexed": true,
          "internalType": "address",
          "name": "sender",
          "type": "address"
        }
      ],
      "name": "RoleRevoked",
      "type": "event"
    },
    {
      "anonymous": false,
      "inputs": [
        {
          "indexed": true,
          "internalType": "address",
          "name": "operator",
          "type": "address"
        },
        {
          "indexed": true,
          "internalType": "address",
          "name": "from",
          "type": "address"
        },
        {
          "indexed": true,
          "internalType": "address",
          "name": "to",
          "type": "address"
        },
        {
          "indexed": false,
          "internalType": "uint256[]",
          "name": "ids",
          "type": "uint256[]"
        },
        {
          "indexed": false,
          "internalType": "uint256[]",
          "name": "values",
          "type": "uint256[]"
        }
      ],
      "name": "TransferBatch",
      "type": "event"
    },
    {
      "anonymous": false,
      "inputs": [
        {
          "indexed": true,
          "internalType": "address",
          "name": "operator",
          "type": "address"
        },
        {
          "indexed": true,
          "internalType": "address",
          "name": "from",
          "type": "address"
        },
        {
          "indexed": true,
          "internalType": "address",
          "name": "to",
          "type": "address"
        },
        {
          "indexed": false,
          "internalType": "uint256",
          "name": "id",
          "type": "uint256"
        },
        {
          "indexed": false,
          "internalType": "uint256",
          "name": "value",
          "type": "uint256"
        }
      ],
      "name": "TransferSingle",
      "type": "event"
    },
    {
      "anonymous": false,
      "inputs": [
        {
          "indexed": false,
          "internalType": "string",
          "name": "value",
          "type": "string"
        },
        {
          "indexed": true,
          "internalType": "uint256",
          "name": "id",
          "type": "uint256"
        }
      ],
      "name": "URI",
      "type": "event"
    },
    {
      "inputs": [],
      "name": "DEFAULT_ADMIN_ROLE",
      "outputs": [
        {
          "internalType": "bytes32",
          "name": "",
          "type": "bytes32"
        }
      ],
      "stateMutability": "view",
      "type": "function"
    },
    {
      "inputs": [],
      "name": "MINTER",
      "outputs": [
        {
          "internalType": "bytes32",
          "name": "",
          "type": "bytes32"
        }
      ],
      "stateMutability": "view",
      "type": "function"
    },
    {
      "inputs": [],
      "name": "TIMER_MANAGEMENT_ROLE",
      "outputs": [
        {
          "internalType": "bytes32",
          "name": "",
          "type": "bytes32"
        }
      ],
      "stateMutability": "view",
      "type": "function"
    },
    {
      "inputs": [
        {
          "internalType": "uint256[]",
          "name": "_ids",
          "type": "uint256[]"
        },
        {
          "internalType": "uint256[]",
          "name": "_prices",
          "type": "uint256[]"
        },
        {
          "internalType": "uint256[]",
          "name": "_times",
          "type": "uint256[]"
        },
        {
          "internalType": "string[]",
          "name": "_uris",
          "type": "string[]"
        }
      ],
      "name": "addNewTokens",
      "outputs": [],
      "stateMutability": "nonpayable",
      "type": "function"
    },
    {
      "inputs": [
        {
          "internalType": "address",
          "name": "",
          "type": "address"
        }
      ],
      "name": "addressMinted",
      "outputs": [
        {
          "internalType": "uint256",
          "name": "",
          "type": "uint256"
        }
      ],
      "stateMutability": "view",
      "type": "function"
    },
    {
      "inputs": [
        {
          "internalType": "address",
          "name": "_owner",
          "type": "address"
        },
        {
          "internalType": "uint256",
          "name": "_id",
          "type": "uint256"
        }
      ],
      "name": "balanceOf",
      "outputs": [
        {
          "internalType": "uint256",
          "name": "",
          "type": "uint256"
        }
      ],
      "stateMutability": "view",
      "type": "function"
    },
    {
      "inputs": [
        {
          "internalType": "address[]",
          "name": "accounts",
          "type": "address[]"
        },
        {
          "internalType": "uint256[]",
          "name": "ids",
          "type": "uint256[]"
        }
      ],
      "name": "balanceOfBatch",
      "outputs": [
        {
          "internalType": "uint256[]",
          "name": "",
          "type": "uint256[]"
        }
      ],
      "stateMutability": "view",
      "type": "function"
    },
    {
      "inputs": [
        {
          "internalType": "address",
          "name": "_address",
          "type": "address"
        },
        {
          "internalType": "uint256",
          "name": "_id",
          "type": "uint256"
        },
        {
          "internalType": "uint256",
          "name": "_amount",
          "type": "uint256"
        }
      ],
      "name": "burn",
      "outputs": [],
      "stateMutability": "nonpayable",
      "type": "function"
    },
    {
      "inputs": [],
      "name": "ceptorContractAddress",
      "outputs": [
        {
          "internalType": "address",
          "name": "",
          "type": "address"
        }
      ],
      "stateMutability": "view",
      "type": "function"
    },
    {
      "inputs": [
        {
          "internalType": "address",
          "name": "user",
          "type": "address"
        }
      ],
      "name": "checkTimer",
      "outputs": [
        {
          "internalType": "bool",
          "name": "",
          "type": "bool"
        }
      ],
      "stateMutability": "view",
      "type": "function"
    },
    {
      "inputs": [
        {
          "internalType": "bytes32",
          "name": "role",
          "type": "bytes32"
        }
      ],
      "name": "getRoleAdmin",
      "outputs": [
        {
          "internalType": "bytes32",
          "name": "",
          "type": "bytes32"
        }
      ],
      "stateMutability": "view",
      "type": "function"
    },
    {
      "inputs": [
        {
          "internalType": "bytes32",
          "name": "role",
          "type": "bytes32"
        },
        {
          "internalType": "address",
          "name": "account",
          "type": "address"
        }
      ],
      "name": "grantRole",
      "outputs": [],
      "stateMutability": "nonpayable",
      "type": "function"
    },
    {
      "inputs": [
        {
          "internalType": "bytes32",
          "name": "role",
          "type": "bytes32"
        },
        {
          "internalType": "address",
          "name": "account",
          "type": "address"
        }
      ],
      "name": "hasRole",
      "outputs": [
        {
          "internalType": "bool",
          "name": "",
          "type": "bool"
        }
      ],
      "stateMutability": "view",
      "type": "function"
    },
    {
      "inputs": [
        {
          "internalType": "address",
          "name": "account",
          "type": "address"
        },
        {
          "internalType": "address",
          "name": "operator",
          "type": "address"
        }
      ],
      "name": "isApprovedForAll",
      "outputs": [
        {
          "internalType": "bool",
          "name": "",
          "type": "bool"
        }
      ],
      "stateMutability": "view",
      "type": "function"
    },
    {
      "inputs": [
        {
          "internalType": "address",
          "name": "user",
          "type": "address"
        }
      ],
      "name": "makeTimerUsed",
      "outputs": [],
      "stateMutability": "nonpayable",
      "type": "function"
    },
    {
      "inputs": [
        {
          "internalType": "uint256[]",
          "name": "_ids",
          "type": "uint256[]"
        },
        {
          "internalType": "uint256[]",
          "name": "_amounts",
          "type": "uint256[]"
        }
      ],
      "name": "mintBatch",
      "outputs": [],
      "stateMutability": "payable",
      "type": "function"
    },
    {
      "inputs": [
        {
          "internalType": "address",
          "name": "_to",
          "type": "address"
        },
        {
          "internalType": "uint256[]",
          "name": "_ids",
          "type": "uint256[]"
        },
        {
          "internalType": "uint256[]",
          "name": "_amounts",
          "type": "uint256[]"
        },
        {
          "internalType": "bytes",
          "name": "_data",
          "type": "bytes"
        }
      ],
      "name": "minterMintBatch",
      "outputs": [],
      "stateMutability": "nonpayable",
      "type": "function"
    },
    {
      "inputs": [
        {
          "internalType": "uint256[]",
          "name": "_ids",
          "type": "uint256[]"
        }
      ],
      "name": "pauseTokens",
      "outputs": [],
      "stateMutability": "nonpayable",
      "type": "function"
    },
    {
      "inputs": [
        {
          "internalType": "bytes32",
          "name": "role",
          "type": "bytes32"
        },
        {
          "internalType": "address",
          "name": "callerConfirmation",
          "type": "address"
        }
      ],
      "name": "renounceRole",
      "outputs": [],
      "stateMutability": "nonpayable",
      "type": "function"
    },
    {
      "inputs": [
        {
          "internalType": "bytes32",
          "name": "role",
          "type": "bytes32"
        },
        {
          "internalType": "address",
          "name": "account",
          "type": "address"
        }
      ],
      "name": "revokeRole",
      "outputs": [],
      "stateMutability": "nonpayable",
      "type": "function"
    },
    {
      "inputs": [
        {
          "internalType": "address",
          "name": "from",
          "type": "address"
        },
        {
          "internalType": "address",
          "name": "to",
          "type": "address"
        },
        {
          "internalType": "uint256[]",
          "name": "ids",
          "type": "uint256[]"
        },
        {
          "internalType": "uint256[]",
          "name": "values",
          "type": "uint256[]"
        },
        {
          "internalType": "bytes",
          "name": "data",
          "type": "bytes"
        }
      ],
      "name": "safeBatchTransferFrom",
      "outputs": [],
      "stateMutability": "nonpayable",
      "type": "function"
    },
    {
      "inputs": [
        {
          "internalType": "address",
          "name": "from",
          "type": "address"
        },
        {
          "internalType": "address",
          "name": "to",
          "type": "address"
        },
        {
          "internalType": "uint256",
          "name": "id",
          "type": "uint256"
        },
        {
          "internalType": "uint256",
          "name": "value",
          "type": "uint256"
        },
        {
          "internalType": "bytes",
          "name": "data",
          "type": "bytes"
        }
      ],
      "name": "safeTransferFrom",
      "outputs": [],
      "stateMutability": "nonpayable",
      "type": "function"
    },
    {
      "inputs": [
        {
          "internalType": "address",
          "name": "operator",
          "type": "address"
        },
        {
          "internalType": "bool",
          "name": "approved",
          "type": "bool"
        }
      ],
      "name": "setApprovalForAll",
      "outputs": [],
      "stateMutability": "nonpayable",
      "type": "function"
    },
    {
      "inputs": [
        {
          "internalType": "address",
          "name": "_address",
          "type": "address"
        }
      ],
      "name": "setCeptorAddress",
      "outputs": [],
      "stateMutability": "nonpayable",
      "type": "function"
    },
    {
      "inputs": [
        {
          "internalType": "uint256",
          "name": "_id",
          "type": "uint256"
        },
        {
          "internalType": "string",
          "name": "_uri",
          "type": "string"
        }
      ],
      "name": "setTokenURI",
      "outputs": [],
      "stateMutability": "nonpayable",
      "type": "function"
    },
    {
      "inputs": [
        {
          "internalType": "bytes4",
          "name": "interfaceId",
          "type": "bytes4"
        }
      ],
      "name": "supportsInterface",
      "outputs": [
        {
          "internalType": "bool",
          "name": "",
          "type": "bool"
        }
      ],
      "stateMutability": "view",
      "type": "function"
    },
    {
      "inputs": [
        {
          "internalType": "address",
          "name": "_address",
          "type": "address"
        },
        {
          "internalType": "uint256",
          "name": "_id",
          "type": "uint256"
        },
        {
          "internalType": "uint256",
          "name": "_amount",
          "type": "uint256"
        }
      ],
      "name": "timerBurn",
      "outputs": [],
      "stateMutability": "nonpayable",
      "type": "function"
    },
    {
      "inputs": [
        {
          "internalType": "uint256",
          "name": "",
          "type": "uint256"
        }
      ],
      "name": "tokens",
      "outputs": [
        {
          "internalType": "uint256",
          "name": "mintCount",
          "type": "uint256"
        },
        {
          "internalType": "uint256",
          "name": "burnCount",
          "type": "uint256"
        },
        {
          "internalType": "uint256",
          "name": "time",
          "type": "uint256"
        },
        {
          "internalType": "uint256",
          "name": "price",
          "type": "uint256"
        },
        {
          "internalType": "string",
          "name": "uri",
          "type": "string"
        },
        {
          "internalType": "bool",
          "name": "paused",
          "type": "bool"
        },
        {
          "internalType": "bool",
          "name": "exists",
          "type": "bool"
        }
      ],
      "stateMutability": "view",
      "type": "function"
    },
    {
      "inputs": [
        {
          "internalType": "uint256",
          "name": "_id",
          "type": "uint256"
        }
      ],
      "name": "totalSupply",
      "outputs": [
        {
          "internalType": "uint256",
          "name": "",
          "type": "uint256"
        }
      ],
      "stateMutability": "view",
      "type": "function"
    },
    {
      "inputs": [],
      "name": "totalTokens",
      "outputs": [
        {
          "internalType": "uint256",
          "name": "",
          "type": "uint256"
        }
      ],
      "stateMutability": "view",
      "type": "function"
    },
    {
      "inputs": [
        {
          "internalType": "uint256[]",
          "name": "_ids",
          "type": "uint256[]"
        }
      ],
      "name": "unpauseTokens",
      "outputs": [],
      "stateMutability": "nonpayable",
      "type": "function"
    },
    {
      "inputs": [
        {
          "internalType": "uint256",
          "name": "_id",
          "type": "uint256"
        }
      ],
      "name": "uri",
      "outputs": [
        {
          "internalType": "string",
          "name": "",
          "type": "string"
        }
      ],
      "stateMutability": "view",
      "type": "function"
    },
    {
      "inputs": [
        {
          "internalType": "address",
          "name": "",
          "type": "address"
        }
      ],
      "name": "userToTimer",
      "outputs": [
        {
          "internalType": "uint256",
          "name": "endTime",
          "type": "uint256"
        },
        {
          "internalType": "bool",
          "name": "isUsed",
          "type": "bool"
        }
      ],
      "stateMutability": "view",
      "type": "function"
    },
    {
      "inputs": [],
      "name": "withdraw",
      "outputs": [],
      "stateMutability": "nonpayable",
      "type": "function"
    }
  ]
}