{
  "data": {
    "bytecode": {
      "linkReferences": {},
      "object": "6101206040526040518061014001604052806040518060400160405280600881526020017f50726f6d7074203100000000000000000000000000000000000000000000000081525081526020016040518060400160405280600881526020017f50726f6d7074203200000000000000000000000000000000000000000000000081525081526020016040518060400160405280600881526020017f50726f6d7074203300000000000000000000000000000000000000000000000081525081526020016040518060400160405280600881526020017f50726f6d7074203400000000000000000000000000000000000000000000000081525081526020016040518060400160405280600881526020017f50726f6d7074203500000000000000000000000000000000000000000000000081525081526020016040518060400160405280600881526020017f50726f6d7074203600000000000000000000000000000000000000000000000081525081526020016040518060400160405280600881526020017f50726f6d7074203700000000000000000000000000000000000000000000000081525081526020016040518060400160405280600881526020017f50726f6d7074203800000000000000000000000000000000000000000000000081525081526020016040518060400160405280600881526020017f50726f6d7074203900000000000000000000000000000000000000000000000081525081526020016040518060400160405280600981526020017f50726f6d70742031300000000000000000000000000000000000000000000000815250815250600790600a6200026f92919062000575565b503480156200027c575f80fd5b506040516200438f3803806200438f8339818101604052810190620002a291906200076c565b8585848484846040518060400160405280601081526020017f50726f6d7074436f6c6c656374696f6e000000000000000000000000000000008152506040518060400160405280600281526020017f5043000000000000000000000000000000000000000000000000000000000000815250868073ffffffffffffffffffffffffffffffffffffffff1660808173ffffffffffffffffffffffffffffffffffffffff168152505050815f90816200035a919062000a68565b5080600190816200036c919062000a68565b5050505f73ffffffffffffffffffffffffffffffffffffffff168173ffffffffffffffffffffffffffffffffffffffff1603620003e2575f6040517f1e4fbdf7000000000000000000000000000000000000000000000000000000008152600401620003d9919062000b5d565b60405180910390fd5b620003f381620004b260201b60201c565b508373ffffffffffffffffffffffffffffffffffffffff1660a08173ffffffffffffffffffffffffffffffffffffffff16815250508260c081815250508167ffffffffffffffff1660e08167ffffffffffffffff16815250508063ffffffff166101008163ffffffff168152505050505050508360185f6101000a81548173ffffffffffffffffffffffffffffffffffffffff021916908373ffffffffffffffffffffffffffffffffffffffff16021790555050505050505062000b78565b5f60065f9054906101000a900473ffffffffffffffffffffffffffffffffffffffff1690508160065f6101000a81548173ffffffffffffffffffffffffffffffffffffffff021916908373ffffffffffffffffffffffffffffffffffffffff1602179055508173ffffffffffffffffffffffffffffffffffffffff168173ffffffffffffffffffffffffffffffffffffffff167f8be0079c531659141344cd1fd0a4f28419497f9722a3daafe3b4186f6b6457e060405160405180910390a35050565b82600a8101928215620005b5579160200282015b82811115620005b4578251829081620005a3919062000a68565b509160200191906001019062000589565b5b509050620005c49190620005c8565b5090565b5b80821115620005eb575f8181620005e19190620005ef565b50600101620005c9565b5090565b508054620005fd9062000868565b5f825580601f106200061057506200062f565b601f0160209004905f5260205f20908101906200062e919062000632565b5b50565b5b808211156200064b575f815f90555060010162000633565b5090565b5f80fd5b5f73ffffffffffffffffffffffffffffffffffffffff82169050919050565b5f6200067e8262000653565b9050919050565b620006908162000672565b81146200069b575f80fd5b50565b5f81519050620006ae8162000685565b92915050565b5f819050919050565b620006c881620006b4565b8114620006d3575f80fd5b50565b5f81519050620006e681620006bd565b92915050565b5f67ffffffffffffffff82169050919050565b6200070a81620006ec565b811462000715575f80fd5b50565b5f815190506200072881620006ff565b92915050565b5f63ffffffff82169050919050565b62000748816200072e565b811462000753575f80fd5b50565b5f8151905062000766816200073d565b92915050565b5f805f805f8060c087890312156200078957620007886200064f565b5b5f6200079889828a016200069e565b9650506020620007ab89828a016200069e565b9550506040620007be89828a016200069e565b9450506060620007d189828a01620006d6565b9350506080620007e489828a0162000718565b92505060a0620007f789828a0162000756565b9150509295509295509295565b5f81519050919050565b7f4e487b71000000000000000000000000000000000000000000000000000000005f52604160045260245ffd5b7f4e487b71000000000000000000000000000000000000000000000000000000005f52602260045260245ffd5b5f60028204905060018216806200088057607f821691505b6020821081036200089657620008956200083b565b5b50919050565b5f819050815f5260205f209050919050565b5f6020601f8301049050919050565b5f82821b905092915050565b5f60088302620008fa7fffffffffffffffffffffffffffffffffffffffffffffffffffffffffffffffff82620008bd565b620009068683620008bd565b95508019841693508086168417925050509392505050565b5f819050919050565b5f819050919050565b5f620009506200094a62000944846200091e565b62000927565b6200091e565b9050919050565b5f819050919050565b6200096b8362000930565b620009836200097a8262000957565b848454620008c9565b825550505050565b5f90565b620009996200098b565b620009a681848462000960565b505050565b5b81811015620009cd57620009c15f826200098f565b600181019050620009ac565b5050565b601f82111562000a1c57620009e6816200089c565b620009f184620008ae565b8101602085101562000a01578190505b62000a1962000a1085620008ae565b830182620009ab565b50505b505050565b5f82821c905092915050565b5f62000a3e5f198460080262000a21565b1980831691505092915050565b5f62000a58838362000a2d565b9150826002028217905092915050565b62000a738262000804565b67ffffffffffffffff81111562000a8f5762000a8e6200080e565b5b62000a9b825462000868565b62000aa8828285620009d1565b5f60209050601f83116001811462000ade575f841562000ac9578287015190505b62000ad5858262000a4b565b86555062000b44565b601f19841662000aee866200089c565b5f5b8281101562000b175784890151825560018201915060208501945060208101905062000af0565b8683101562000b37578489015162000b33601f89168262000a2d565b8355505b6001600288020188555050505b505050505050565b62000b578162000672565b82525050565b5f60208201905062000b725f83018462000b4c565b92915050565b60805160a05160c05160e051610100516137d262000bbd5f395f610dba01525f610d9701525f610d7601525f610d3a01525f81816109a201526109f601526137d25ff3fe608060405234801561000f575f80fd5b50600436106101d8575f3560e01c806370a0823111610102578063b58cb23c116100a0578063d59268751161006f578063d592687514610532578063d79d462d1461054e578063e985e9c51461056c578063f2fde38b1461059c576101d8565b8063b58cb23c146104aa578063b88d4fde146104c8578063c87b56dd146104e4578063d0b06f5d14610514576101d8565b806374e0bf8a116100dc57806374e0bf8a146104345780638da5cb5b1461045257806395d89b4114610470578063a22cb4651461048e576101d8565b806370a08231146103dc578063715018a61461040c57806371d345c114610416576101d8565b80631fe543e31161017a57806342842e0e1161014957806342842e0e146103425780635ccc144e1461035e5780635ef5cc4a1461038e5780636352211e146103ac576101d8565b80631fe543e3146102bc57806323b872dd146102d8578063341eb719146102f45780633f3b3b2714610324576101d8565b8063081812fc116101b6578063081812fc14610248578063095ea7b314610278578063112bd169146102945780631249c58b146102b2576101d8565b806301ffc9a7146101dc57806302afe5571461020c57806306fdde031461022a575b5f80fd5b6101f660048036038101906101f191906125bd565b6105b8565b6040516102039190612602565b60405180910390f35b610214610699565b604051610221919061265a565b60405180910390f35b6102326106be565b60405161023f91906126fd565b60405180910390f35b610262600480360381019061025d9190612750565b61074d565b60405161026f919061265a565b60405180910390f35b610292600480360381019061028d91906127a5565b610768565b005b61029c61077e565b6040516102a991906127f2565b60405180910390f35b6102ba610784565b005b6102d660048036038101906102d1919061294b565b6109a0565b005b6102f260048036038101906102ed91906129a5565b610a60565b005b61030e600480360381019061030991906129f5565b610b5f565b60405161031b91906127f2565b60405180910390f35b61032c610b8a565b60405161033991906127f2565b60405180910390f35b61035c600480360381019061035791906129a5565b610b90565b005b61037860048036038101906103739190612a69565b610baf565b60405161038591906126fd565b60405180910390f35b610396610c57565b6040516103a391906127f2565b60405180910390f35b6103c660048036038101906103c19190612750565b610c5d565b6040516103d3919061265a565b60405180910390f35b6103f660048036038101906103f19190612a94565b610c6e565b60405161040391906127f2565b60405180910390f35b610414610d24565b005b61041e610d37565b60405161042b91906127f2565b60405180910390f35b61043c610e40565b60405161044991906126fd565b60405180910390f35b61045a610ecc565b604051610467919061265a565b60405180910390f35b610478610ef4565b60405161048591906126fd565b60405180910390f35b6104a860048036038101906104a39190612ae9565b610f84565b005b6104b2610f9a565b6040516104bf91906127f2565b60405180910390f35b6104e260048036038101906104dd9190612bd7565b610fa2565b005b6104fe60048036038101906104f99190612750565b610fbf565b60405161050b91906126fd565b60405180910390f35b61051c611025565b60405161052991906127f2565b60405180910390f35b61054c60048036038101906105479190612dc1565b61102b565b005b610556611048565b60405161056391906126fd565b60405180910390f35b61058660048036038101906105819190612e08565b6110d8565b6040516105939190612602565b60405180910390f35b6105b660048036038101906105b19190612a94565b611166565b005b5f7f80ac58cd000000000000000000000000000000000000000000000000000000007bffffffffffffffffffffffffffffffffffffffffffffffffffffffff1916827bffffffffffffffffffffffffffffffffffffffffffffffffffffffff1916148061068257507f5b5e139f000000000000000000000000000000000000000000000000000000007bffffffffffffffffffffffffffffffffffffffffffffffffffffffff1916827bffffffffffffffffffffffffffffffffffffffffffffffffffffffff1916145b806106925750610691826111ea565b5b9050919050565b60185f9054906101000a900473ffffffffffffffffffffffffffffffffffffffff1681565b60605f80546106cc90612e73565b80601f01602080910402602001604051908101604052809291908181526020018280546106f890612e73565b80156107435780601f1061071a57610100808354040283529160200191610743565b820191905f5260205f20905b81548152906001019060200180831161072657829003601f168201915b5050505050905090565b5f61075782611253565b50610761826112d9565b9050919050565b61077a8282610775611312565b611319565b5050565b60165481565b5f601654036107c8576040517f08c379a00000000000000000000000000000000000000000000000000000000081526004016107bf90612eed565b60405180910390fd5b62093a806016546107d99190612f38565b42101561099e5760185f9054906101000a900473ffffffffffffffffffffffffffffffffffffffff1673ffffffffffffffffffffffffffffffffffffffff16636677aada336040518263ffffffff1660e01b815260040161083a919061265a565b602060405180830381865afa158015610855573d5f803e3d5ffd5b505050506040513d601f19601f820116820180604052508101906108799190612f7f565b6108af576040517f9adbb20400000000000000000000000000000000000000000000000000000000815260040160405180910390fd5b5f6108d260165460195f60175481526020019081526020015f208054905061132b565b905060195f60165481526020019081526020015f2081908060018154018082558091505060019003905f5260205f20015f909190919091505560185f9054906101000a900473ffffffffffffffffffffffffffffffffffffffff1673ffffffffffffffffffffffffffffffffffffffff1663984d6663336040518263ffffffff1660e01b8152600401610965919061265a565b5f604051808303815f87803b15801561097c575f80fd5b505af115801561098e573d5f803e3d5ffd5b5050505061099c338261133b565b505b565b7f000000000000000000000000000000000000000000000000000000000000000073ffffffffffffffffffffffffffffffffffffffff163373ffffffffffffffffffffffffffffffffffffffff1614610a5257337f00000000000000000000000000000000000000000000000000000000000000006040517f1cf993f4000000000000000000000000000000000000000000000000000000008152600401610a49929190612faa565b60405180910390fd5b610a5c828261142e565b5050565b5f73ffffffffffffffffffffffffffffffffffffffff168273ffffffffffffffffffffffffffffffffffffffff1603610ad0575f6040517f64a0ae92000000000000000000000000000000000000000000000000000000008152600401610ac7919061265a565b60405180910390fd5b5f610ae38383610ade611312565b61181c565b90508373ffffffffffffffffffffffffffffffffffffffff168173ffffffffffffffffffffffffffffffffffffffff1614610b59578382826040517f64283d7b000000000000000000000000000000000000000000000000000000008152600401610b5093929190612fd1565b60405180910390fd5b50505050565b6019602052815f5260405f208181548110610b78575f80fd5b905f5260205f20015f91509150505481565b60155481565b610baa83838360405180602001604052805f815250610fa2565b505050565b606060078260ff16600a8110610bc857610bc7613006565b5b018054610bd490612e73565b80601f0160208091040260200160405190810160405280929190818152602001828054610c0090612e73565b8015610c4b5780601f10610c2257610100808354040283529160200191610c4b565b820191905f5260205f20905b815481529060010190602001808311610c2e57829003601f168201915b50505050509050919050565b60175481565b5f610c6782611253565b9050919050565b5f8073ffffffffffffffffffffffffffffffffffffffff168273ffffffffffffffffffffffffffffffffffffffff1603610cdf575f6040517f89c62b64000000000000000000000000000000000000000000000000000000008152600401610cd6919061265a565b60405180910390fd5b60035f8373ffffffffffffffffffffffffffffffffffffffff1673ffffffffffffffffffffffffffffffffffffffff1681526020019081526020015f20549050919050565b610d2c611a27565b610d355f611aae565b565b5f7f000000000000000000000000000000000000000000000000000000000000000073ffffffffffffffffffffffffffffffffffffffff16635d3b1d307f00000000000000000000000000000000000000000000000000000000000000007f000000000000000000000000000000000000000000000000000000000000000060037f000000000000000000000000000000000000000000000000000000000000000060016040518663ffffffff1660e01b8152600401610dfb9594939291906130a7565b6020604051808303815f875af1158015610e17573d5f803e3d5ffd5b505050506040513d601f19601f82011682018060405250810190610e3b919061310c565b905090565b60118054610e4d90612e73565b80601f0160208091040260200160405190810160405280929190818152602001828054610e7990612e73565b8015610ec45780601f10610e9b57610100808354040283529160200191610ec4565b820191905f5260205f20905b815481529060010190602001808311610ea757829003601f168201915b505050505081565b5f60065f9054906101000a900473ffffffffffffffffffffffffffffffffffffffff16905090565b606060018054610f0390612e73565b80601f0160208091040260200160405190810160405280929190818152602001828054610f2f90612e73565b8015610f7a5780601f10610f5157610100808354040283529160200191610f7a565b820191905f5260205f20905b815481529060010190602001808311610f5d57829003601f168201915b5050505050905090565b610f96610f8f611312565b8383611b71565b5050565b5f600a905090565b610fad848484610a60565b610fb984848484611cda565b50505050565b6060610fca82611253565b505f610fd4611e8c565b90505f815111610ff25760405180602001604052805f81525061101d565b80610ffc84611ea2565b60405160200161100d929190613171565b6040516020818303038152906040525b915050919050565b60125481565b611033611a27565b80600790600a611044929190612490565b5050565b60606011805461105790612e73565b80601f016020809104026020016040519081016040528092919081815260200182805461108390612e73565b80156110ce5780601f106110a5576101008083540402835291602001916110ce565b820191905f5260205f20905b8154815290600101906020018083116110b157829003601f168201915b5050505050905090565b5f60055f8473ffffffffffffffffffffffffffffffffffffffff1673ffffffffffffffffffffffffffffffffffffffff1681526020019081526020015f205f8373ffffffffffffffffffffffffffffffffffffffff1673ffffffffffffffffffffffffffffffffffffffff1681526020019081526020015f205f9054906101000a900460ff16905092915050565b61116e611a27565b5f73ffffffffffffffffffffffffffffffffffffffff168173ffffffffffffffffffffffffffffffffffffffff16036111de575f6040517f1e4fbdf70000000000000000000000000000000000000000000000000000000081526004016111d5919061265a565b60405180910390fd5b6111e781611aae565b50565b5f7f01ffc9a7000000000000000000000000000000000000000000000000000000007bffffffffffffffffffffffffffffffffffffffffffffffffffffffff1916827bffffffffffffffffffffffffffffffffffffffffffffffffffffffff1916149050919050565b5f8061125e83611f6c565b90505f73ffffffffffffffffffffffffffffffffffffffff168173ffffffffffffffffffffffffffffffffffffffff16036112d057826040517f7e2732890000000000000000000000000000000000000000000000000000000081526004016112c791906127f2565b60405180910390fd5b80915050919050565b5f60045f8381526020019081526020015f205f9054906101000a900473ffffffffffffffffffffffffffffffffffffffff169050919050565b5f33905090565b6113268383836001611fa5565b505050565b5f81608084901b17905092915050565b5f73ffffffffffffffffffffffffffffffffffffffff168273ffffffffffffffffffffffffffffffffffffffff16036113ab575f6040517f64a0ae920000000000000000000000000000000000000000000000000000000081526004016113a2919061265a565b60405180910390fd5b5f6113b783835f61181c565b90505f73ffffffffffffffffffffffffffffffffffffffff168173ffffffffffffffffffffffffffffffffffffffff1614611429575f6040517f73c6ac6e000000000000000000000000000000000000000000000000000000008152600401611420919061265a565b60405180910390fd5b505050565b60605f600a835f8151811061144657611445613006565b5b602002602001015161145891906131c1565b90505b611588600782600a811061147257611471613006565b5b01805461147e90612e73565b80601f01602080910402602001604051908101604052809291908181526020018280546114aa90612e73565b80156114f55780601f106114cc576101008083540402835291602001916114f5565b820191905f5260205f20905b8154815290600101906020018083116114d857829003601f168201915b50505050506013805461150790612e73565b80601f016020809104026020016040519081016040528092919081815260200182805461153390612e73565b801561157e5780601f106115555761010080835404028352916020019161157e565b820191905f5260205f20905b81548152906001019060200180831161156157829003601f168201915b5050505050612164565b806116bc57506116bb600782600a81106115a5576115a4613006565b5b0180546115b190612e73565b80601f01602080910402602001604051908101604052809291908181526020018280546115dd90612e73565b80156116285780601f106115ff57610100808354040283529160200191611628565b820191905f5260205f20905b81548152906001019060200180831161160b57829003601f168201915b50505050506014805461163a90612e73565b80601f016020809104026020016040519081016040528092919081815260200182805461166690612e73565b80156116b15780601f10611688576101008083540402835291602001916116b1565b820191905f5260205f20905b81548152906001019060200180831161169457829003601f168201915b5050505050612164565b5b156116f1576001600a6116cf91906131f1565b81036116dd575f90506116ec565b80806116e890613224565b9150505b61145b565b600781600a811061170557611704613006565b5b01805461171190612e73565b80601f016020809104026020016040519081016040528092919081815260200182805461173d90612e73565b80156117885780601f1061175f57610100808354040283529160200191611788565b820191905f5260205f20905b81548152906001019060200180831161176b57829003601f168201915b5050505050915060136014908161179f919061342f565b5081601390816117af9190613514565b5081601190816117bf9190613514565b504260168190555060175f8154809291906117d990613224565b91905055507f3e08f083fdfb388408f2e3e939786e333d1ae2992f2f4abd0ac86f2f5b40fc93601160405161180e9190613664565b60405180910390a150505050565b5f8061182784611f6c565b90505f73ffffffffffffffffffffffffffffffffffffffff168373ffffffffffffffffffffffffffffffffffffffff1614611868576118678184866121bc565b5b5f73ffffffffffffffffffffffffffffffffffffffff168173ffffffffffffffffffffffffffffffffffffffff16146118f3576118a75f855f80611fa5565b600160035f8373ffffffffffffffffffffffffffffffffffffffff1673ffffffffffffffffffffffffffffffffffffffff1681526020019081526020015f205f82825403925050819055505b5f73ffffffffffffffffffffffffffffffffffffffff168573ffffffffffffffffffffffffffffffffffffffff161461197257600160035f8773ffffffffffffffffffffffffffffffffffffffff1673ffffffffffffffffffffffffffffffffffffffff1681526020019081526020015f205f82825401925050819055505b8460025f8681526020019081526020015f205f6101000a81548173ffffffffffffffffffffffffffffffffffffffff021916908373ffffffffffffffffffffffffffffffffffffffff160217905550838573ffffffffffffffffffffffffffffffffffffffff168273ffffffffffffffffffffffffffffffffffffffff167fddf252ad1be2c89b69c2b068fc378daa952ba7f163c4a11628f55a4df523b3ef60405160405180910390a4809150509392505050565b611a2f611312565b73ffffffffffffffffffffffffffffffffffffffff16611a4d610ecc565b73ffffffffffffffffffffffffffffffffffffffff1614611aac57611a70611312565b6040517f118cdaa7000000000000000000000000000000000000000000000000000000008152600401611aa3919061265a565b60405180910390fd5b565b5f60065f9054906101000a900473ffffffffffffffffffffffffffffffffffffffff1690508160065f6101000a81548173ffffffffffffffffffffffffffffffffffffffff021916908373ffffffffffffffffffffffffffffffffffffffff1602179055508173ffffffffffffffffffffffffffffffffffffffff168173ffffffffffffffffffffffffffffffffffffffff167f8be0079c531659141344cd1fd0a4f28419497f9722a3daafe3b4186f6b6457e060405160405180910390a35050565b5f73ffffffffffffffffffffffffffffffffffffffff168273ffffffffffffffffffffffffffffffffffffffff1603611be157816040517f5b08ba18000000000000000000000000000000000000000000000000000000008152600401611bd8919061265a565b60405180910390fd5b8060055f8573ffffffffffffffffffffffffffffffffffffffff1673ffffffffffffffffffffffffffffffffffffffff1681526020019081526020015f205f8473ffffffffffffffffffffffffffffffffffffffff1673ffffffffffffffffffffffffffffffffffffffff1681526020019081526020015f205f6101000a81548160ff0219169083151502179055508173ffffffffffffffffffffffffffffffffffffffff168373ffffffffffffffffffffffffffffffffffffffff167f17307eab39ab6107e8899845ad3d59bd9653f200f220920489ca2b5937696c3183604051611ccd9190612602565b60405180910390a3505050565b5f8373ffffffffffffffffffffffffffffffffffffffff163b1115611e86578273ffffffffffffffffffffffffffffffffffffffff1663150b7a02611d1d611312565b8685856040518563ffffffff1660e01b8152600401611d3f94939291906136d6565b6020604051808303815f875af1925050508015611d7a57506040513d601f19601f82011682018060405250810190611d779190613734565b60015b611dfb573d805f8114611da8576040519150601f19603f3d011682016040523d82523d5f602084013e611dad565b606091505b505f815103611df357836040517f64a0ae92000000000000000000000000000000000000000000000000000000008152600401611dea919061265a565b60405180910390fd5b805181602001fd5b63150b7a0260e01b7bffffffffffffffffffffffffffffffffffffffffffffffffffffffff1916817bffffffffffffffffffffffffffffffffffffffffffffffffffffffff191614611e8457836040517f64a0ae92000000000000000000000000000000000000000000000000000000008152600401611e7b919061265a565b60405180910390fd5b505b50505050565b606060405180602001604052805f815250905090565b60605f6001611eb08461227f565b0190505f8167ffffffffffffffff811115611ece57611ecd61280f565b5b6040519080825280601f01601f191660200182016040528015611f005781602001600182028036833780820191505090505b5090505f82602001820190505b600115611f61578080600190039150507f3031323334353637383961626364656600000000000000000000000000000000600a86061a8153600a8581611f5657611f55613194565b5b0494505f8503611f0d575b819350505050919050565b5f60025f8381526020019081526020015f205f9054906101000a900473ffffffffffffffffffffffffffffffffffffffff169050919050565b8080611fdd57505f73ffffffffffffffffffffffffffffffffffffffff168273ffffffffffffffffffffffffffffffffffffffff1614155b1561210f575f611fec84611253565b90505f73ffffffffffffffffffffffffffffffffffffffff168373ffffffffffffffffffffffffffffffffffffffff161415801561205657508273ffffffffffffffffffffffffffffffffffffffff168173ffffffffffffffffffffffffffffffffffffffff1614155b8015612069575061206781846110d8565b155b156120ab57826040517fa9fbf51f0000000000000000000000000000000000000000000000000000000081526004016120a2919061265a565b60405180910390fd5b811561210d57838573ffffffffffffffffffffffffffffffffffffffff168273ffffffffffffffffffffffffffffffffffffffff167f8c5be1e5ebec7d5bd14f71427d1e84f3dd0314c0f7b2291e5b200ac8c7c3b92560405160405180910390a45b505b8360045f8581526020019081526020015f205f6101000a81548173ffffffffffffffffffffffffffffffffffffffff021916908373ffffffffffffffffffffffffffffffffffffffff16021790555050505050565b5f81604051602001612176919061375f565b604051602081830303815290604052805190602001208360405160200161219d919061375f565b6040516020818303038152906040528051906020012014905092915050565b6121c78383836123d0565b61227a575f73ffffffffffffffffffffffffffffffffffffffff168373ffffffffffffffffffffffffffffffffffffffff160361223b57806040517f7e27328900000000000000000000000000000000000000000000000000000000815260040161223291906127f2565b60405180910390fd5b81816040517f177e802f000000000000000000000000000000000000000000000000000000008152600401612271929190613775565b60405180910390fd5b505050565b5f805f90507a184f03e93ff9f4daa797ed6e38ed64bf6a1f01000000000000000083106122db577a184f03e93ff9f4daa797ed6e38ed64bf6a1f01000000000000000083816122d1576122d0613194565b5b0492506040810190505b6d04ee2d6d415b85acef81000000008310612318576d04ee2d6d415b85acef8100000000838161230e5761230d613194565b5b0492506020810190505b662386f26fc10000831061234757662386f26fc10000838161233d5761233c613194565b5b0492506010810190505b6305f5e1008310612370576305f5e100838161236657612365613194565b5b0492506008810190505b612710831061239557612710838161238b5761238a613194565b5b0492506004810190505b606483106123b857606483816123ae576123ad613194565b5b0492506002810190505b600a83106123c7576001810190505b80915050919050565b5f8073ffffffffffffffffffffffffffffffffffffffff168373ffffffffffffffffffffffffffffffffffffffff161415801561248757508273ffffffffffffffffffffffffffffffffffffffff168473ffffffffffffffffffffffffffffffffffffffff161480612448575061244784846110d8565b5b8061248657508273ffffffffffffffffffffffffffffffffffffffff1661246e836112d9565b73ffffffffffffffffffffffffffffffffffffffff16145b5b90509392505050565b82600a81019282156124cb579160200282015b828111156124ca5782518290816124ba9190613514565b50916020019190600101906124a3565b5b5090506124d891906124dc565b5090565b5b808211156124fb575f81816124f291906124ff565b506001016124dd565b5090565b50805461250b90612e73565b5f825580601f1061251c5750612539565b601f0160209004905f5260205f2090810190612538919061253c565b5b50565b5b80821115612553575f815f90555060010161253d565b5090565b5f604051905090565b5f80fd5b5f80fd5b5f7fffffffff0000000000000000000000000000000000000000000000000000000082169050919050565b61259c81612568565b81146125a6575f80fd5b50565b5f813590506125b781612593565b92915050565b5f602082840312156125d2576125d1612560565b5b5f6125df848285016125a9565b91505092915050565b5f8115159050919050565b6125fc816125e8565b82525050565b5f6020820190506126155f8301846125f3565b92915050565b5f73ffffffffffffffffffffffffffffffffffffffff82169050919050565b5f6126448261261b565b9050919050565b6126548161263a565b82525050565b5f60208201905061266d5f83018461264b565b92915050565b5f81519050919050565b5f82825260208201905092915050565b5f5b838110156126aa57808201518184015260208101905061268f565b5f8484015250505050565b5f601f19601f8301169050919050565b5f6126cf82612673565b6126d9818561267d565b93506126e981856020860161268d565b6126f2816126b5565b840191505092915050565b5f6020820190508181035f83015261271581846126c5565b905092915050565b5f819050919050565b61272f8161271d565b8114612739575f80fd5b50565b5f8135905061274a81612726565b92915050565b5f6020828403121561276557612764612560565b5b5f6127728482850161273c565b91505092915050565b6127848161263a565b811461278e575f80fd5b50565b5f8135905061279f8161277b565b92915050565b5f80604083850312156127bb576127ba612560565b5b5f6127c885828601612791565b92505060206127d98582860161273c565b9150509250929050565b6127ec8161271d565b82525050565b5f6020820190506128055f8301846127e3565b92915050565b5f80fd5b7f4e487b71000000000000000000000000000000000000000000000000000000005f52604160045260245ffd5b612845826126b5565b810181811067ffffffffffffffff821117156128645761286361280f565b5b80604052505050565b5f612876612557565b9050612882828261283c565b919050565b5f67ffffffffffffffff8211156128a1576128a061280f565b5b602082029050602081019050919050565b5f80fd5b5f6128c86128c384612887565b61286d565b905080838252602082019050602084028301858111156128eb576128ea6128b2565b5b835b818110156129145780612900888261273c565b8452602084019350506020810190506128ed565b5050509392505050565b5f82601f8301126129325761293161280b565b5b81356129428482602086016128b6565b91505092915050565b5f806040838503121561296157612960612560565b5b5f61296e8582860161273c565b925050602083013567ffffffffffffffff81111561298f5761298e612564565b5b61299b8582860161291e565b9150509250929050565b5f805f606084860312156129bc576129bb612560565b5b5f6129c986828701612791565b93505060206129da86828701612791565b92505060406129eb8682870161273c565b9150509250925092565b5f8060408385031215612a0b57612a0a612560565b5b5f612a188582860161273c565b9250506020612a298582860161273c565b9150509250929050565b5f60ff82169050919050565b612a4881612a33565b8114612a52575f80fd5b50565b5f81359050612a6381612a3f565b92915050565b5f60208284031215612a7e57612a7d612560565b5b5f612a8b84828501612a55565b91505092915050565b5f60208284031215612aa957612aa8612560565b5b5f612ab684828501612791565b91505092915050565b612ac8816125e8565b8114612ad2575f80fd5b50565b5f81359050612ae381612abf565b92915050565b5f8060408385031215612aff57612afe612560565b5b5f612b0c85828601612791565b9250506020612b1d85828601612ad5565b9150509250929050565b5f80fd5b5f67ffffffffffffffff821115612b4557612b4461280f565b5b612b4e826126b5565b9050602081019050919050565b828183375f83830152505050565b5f612b7b612b7684612b2b565b61286d565b905082815260208101848484011115612b9757612b96612b27565b5b612ba2848285612b5b565b509392505050565b5f82601f830112612bbe57612bbd61280b565b5b8135612bce848260208601612b69565b91505092915050565b5f805f8060808587031215612bef57612bee612560565b5b5f612bfc87828801612791565b9450506020612c0d87828801612791565b9350506040612c1e8782880161273c565b925050606085013567ffffffffffffffff811115612c3f57612c3e612564565b5b612c4b87828801612baa565b91505092959194509250565b5f67ffffffffffffffff821115612c7157612c7061280f565b5b602082029050919050565b5f67ffffffffffffffff821115612c9657612c9561280f565b5b612c9f826126b5565b9050602081019050919050565b5f612cbe612cb984612c7c565b61286d565b905082815260208101848484011115612cda57612cd9612b27565b5b612ce5848285612b5b565b509392505050565b5f82601f830112612d0157612d0061280b565b5b8135612d11848260208601612cac565b91505092915050565b5f612d2c612d2784612c57565b61286d565b90508060208402830185811115612d4657612d456128b2565b5b835b81811015612d8d57803567ffffffffffffffff811115612d6b57612d6a61280b565b5b808601612d788982612ced565b85526020850194505050602081019050612d48565b5050509392505050565b5f82601f830112612dab57612daa61280b565b5b600a612db8848285612d1a565b91505092915050565b5f60208284031215612dd657612dd5612560565b5b5f82013567ffffffffffffffff811115612df357612df2612564565b5b612dff84828501612d97565b91505092915050565b5f8060408385031215612e1e57612e1d612560565b5b5f612e2b85828601612791565b9250506020612e3c85828601612791565b9150509250929050565b7f4e487b71000000000000000000000000000000000000000000000000000000005f52602260045260245ffd5b5f6002820490506001821680612e8a57607f821691505b602082108103612e9d57612e9c612e46565b5b50919050565b7f7765656b206e6f742073657400000000000000000000000000000000000000005f82015250565b5f612ed7600c8361267d565b9150612ee282612ea3565b602082019050919050565b5f6020820190508181035f830152612f0481612ecb565b9050919050565b7f4e487b71000000000000000000000000000000000000000000000000000000005f52601160045260245ffd5b5f612f428261271d565b9150612f4d8361271d565b9250828201905080821115612f6557612f64612f0b565b5b92915050565b5f81519050612f7981612abf565b92915050565b5f60208284031215612f9457612f93612560565b5b5f612fa184828501612f6b565b91505092915050565b5f604082019050612fbd5f83018561264b565b612fca602083018461264b565b9392505050565b5f606082019050612fe45f83018661264b565b612ff160208301856127e3565b612ffe604083018461264b565b949350505050565b7f4e487b71000000000000000000000000000000000000000000000000000000005f52603260045260245ffd5b5f819050919050565b61304581613033565b82525050565b5f67ffffffffffffffff82169050919050565b6130678161304b565b82525050565b5f61ffff82169050919050565b6130838161306d565b82525050565b5f63ffffffff82169050919050565b6130a181613089565b82525050565b5f60a0820190506130ba5f83018861303c565b6130c7602083018761305e565b6130d4604083018661307a565b6130e16060830185613098565b6130ee6080830184613098565b9695505050505050565b5f8151905061310681612726565b92915050565b5f6020828403121561312157613120612560565b5b5f61312e848285016130f8565b91505092915050565b5f81905092915050565b5f61314b82612673565b6131558185613137565b935061316581856020860161268d565b80840191505092915050565b5f61317c8285613141565b91506131888284613141565b91508190509392505050565b7f4e487b71000000000000000000000000000000000000000000000000000000005f52601260045260245ffd5b5f6131cb8261271d565b91506131d68361271d565b9250826131e6576131e5613194565b5b828206905092915050565b5f6131fb8261271d565b91506132068361271d565b925082820390508181111561321e5761321d612f0b565b5b92915050565b5f61322e8261271d565b91507fffffffffffffffffffffffffffffffffffffffffffffffffffffffffffffffff82036132605761325f612f0b565b5b600182019050919050565b5f8154905061327981612e73565b9050919050565b5f819050815f5260205f209050919050565b5f819050815f5260205f209050919050565b5f6020601f8301049050919050565b5f82821b905092915050565b5f600883026132ee7fffffffffffffffffffffffffffffffffffffffffffffffffffffffffffffffff826132b3565b6132f886836132b3565b95508019841693508086168417925050509392505050565b5f819050919050565b5f61333361332e6133298461271d565b613310565b61271d565b9050919050565b5f819050919050565b61334c83613319565b6133606133588261333a565b8484546132bf565b825550505050565b5f90565b613374613368565b61337f818484613343565b505050565b5b818110156133a2576133975f8261336c565b600181019050613385565b5050565b601f8211156133e7576133b881613280565b6133c1846132a4565b810160208510156133d0578190505b6133e46133dc856132a4565b830182613384565b50505b505050565b5f82821c905092915050565b5f6134075f19846008026133ec565b1980831691505092915050565b5f61341f83836133f8565b9150826002028217905092915050565b81810361343d575050613512565b6134468261326b565b67ffffffffffffffff81111561345f5761345e61280f565b5b6134698254612e73565b6134748282856133a6565b5f601f8311600181146134a1575f841561348f578287015490505b6134998582613414565b86555061350b565b601f1984166134af87613292565b96506134ba86613280565b5f5b828110156134e1578489015482556001820191506001850194506020810190506134bc565b868310156134fe57848901546134fa601f8916826133f8565b8355505b6001600288020188555050505b5050505050505b565b61351d82612673565b67ffffffffffffffff8111156135365761353561280f565b5b6135408254612e73565b61354b8282856133a6565b5f60209050601f83116001811461357c575f841561356a578287015190505b6135748582613414565b8655506135db565b601f19841661358a86613280565b5f5b828110156135b15784890151825560018201915060208501945060208101905061358c565b868310156135ce57848901516135ca601f8916826133f8565b8355505b6001600288020188555050505b505050505050565b5f81546135ef81612e73565b6135f9818661267d565b9450600182165f811461361357600181146136295761365b565b60ff19831686528115156020028601935061365b565b61363285613280565b5f5b8381101561365357815481890152600182019150602081019050613634565b808801955050505b50505092915050565b5f6020820190508181035f83015261367c81846135e3565b905092915050565b5f81519050919050565b5f82825260208201905092915050565b5f6136a882613684565b6136b2818561368e565b93506136c281856020860161268d565b6136cb816126b5565b840191505092915050565b5f6080820190506136e95f83018761264b565b6136f6602083018661264b565b61370360408301856127e3565b8181036060830152613715818461369e565b905095945050505050565b5f8151905061372e81612593565b92915050565b5f6020828403121561374957613748612560565b5b5f61375684828501613720565b91505092915050565b5f61376a8284613141565b915081905092915050565b5f6040820190506137885f83018561264b565b61379560208301846127e3565b939250505056fea26469706673582212209f31ee7b5e9166f23c94a2eafc59f091c4a0f280f2f9b1ec399776471fec59e364736f6c63430008170033",
      "opcodes": "PUSH2 0x120 PUSH1 0x40 MSTORE PUSH1 0x40 MLOAD DUP1 PUSH2 0x140 ADD PUSH1 0x40 MSTORE DUP1 PUSH1 0x40 MLOAD DUP1 PUSH1 0x40 ADD PUSH1 0x40 MSTORE DUP1 PUSH1 0x8 DUP2 MSTORE PUSH1 0x20 ADD PUSH32 0x50726F6D70742031000000000000000000000000000000000000000000000000 DUP2 MSTORE POP DUP2 MSTORE PUSH1 0x20 ADD PUSH1 0x40 MLOAD DUP1 PUSH1 0x40 ADD PUSH1 0x40 MSTORE DUP1 PUSH1 0x8 DUP2 MSTORE PUSH1 0x20 ADD PUSH32 0x50726F6D70742032000000000000000000000000000000000000000000000000 DUP2 MSTORE POP DUP2 MSTORE PUSH1 0x20 ADD PUSH1 0x40 MLOAD DUP1 PUSH1 0x40 ADD PUSH1 0x40 MSTORE DUP1 PUSH1 0x8 DUP2 MSTORE PUSH1 0x20 ADD PUSH32 0x50726F6D70742033000000000000000000000000000000000000000000000000 DUP2 MSTORE POP DUP2 MSTORE PUSH1 0x20 ADD PUSH1 0x40 MLOAD DUP1 PUSH1 0x40 ADD PUSH1 0x40 MSTORE DUP1 PUSH1 0x8 DUP2 MSTORE PUSH1 0x20 ADD PUSH32 0x50726F6D70742034000000000000000000000000000000000000000000000000 DUP2 MSTORE POP DUP2 MSTORE PUSH1 0x20 ADD PUSH1 0x40 MLOAD DUP1 PUSH1 0x40 ADD PUSH1 0x40 MSTORE DUP1 PUSH1 0x8 DUP2 MSTORE PUSH1 0x20 ADD PUSH32 0x50726F6D70742035000000000000000000000000000000000000000000000000 DUP2 MSTORE POP DUP2 MSTORE PUSH1 0x20 ADD PUSH1 0x40 MLOAD DUP1 PUSH1 0x40 ADD PUSH1 0x40 MSTORE DUP1 PUSH1 0x8 DUP2 MSTORE PUSH1 0x20 ADD PUSH32 0x50726F6D70742036000000000000000000000000000000000000000000000000 DUP2 MSTORE POP DUP2 MSTORE PUSH1 0x20 ADD PUSH1 0x40 MLOAD DUP1 PUSH1 0x40 ADD PUSH1 0x40 MSTORE DUP1 PUSH1 0x8 DUP2 MSTORE PUSH1 0x20 ADD PUSH32 0x50726F6D70742037000000000000000000000000000000000000000000000000 DUP2 MSTORE POP DUP2 MSTORE PUSH1 0x20 ADD PUSH1 0x40 MLOAD DUP1 PUSH1 0x40 ADD PUSH1 0x40 MSTORE DUP1 PUSH1 0x8 DUP2 MSTORE PUSH1 0x20 ADD PUSH32 0x50726F6D70742038000000000000000000000000000000000000000000000000 DUP2 MSTORE POP DUP2 MSTORE PUSH1 0x20 ADD PUSH1 0x40 MLOAD DUP1 PUSH1 0x40 ADD PUSH1 0x40 MSTORE DUP1 PUSH1 0x8 DUP2 MSTORE PUSH1 0x20 ADD PUSH32 0x50726F6D70742039000000000000000000000000000000000000000000000000 DUP2 MSTORE POP DUP2 MSTORE PUSH1 0x20 ADD PUSH1 0x40 MLOAD DUP1 PUSH1 0x40 ADD PUSH1 0x40 MSTORE DUP1 PUSH1 0x9 DUP2 MSTORE PUSH1 0x20 ADD PUSH32 0x50726F6D70742031300000000000000000000000000000000000000000000000 DUP2 MSTORE POP DUP2 MSTORE POP PUSH1 0x7 SWAP1 PUSH1 0xA PUSH3 0x26F SWAP3 SWAP2 SWAP1 PUSH3 0x575 JUMP JUMPDEST POP CALLVALUE DUP1 ISZERO PUSH3 0x27C JUMPI PUSH0 DUP1 REVERT JUMPDEST POP PUSH1 0x40 MLOAD PUSH3 0x438F CODESIZE SUB DUP1 PUSH3 0x438F DUP4 CODECOPY DUP2 DUP2 ADD PUSH1 0x40 MSTORE DUP2 ADD SWAP1 PUSH3 0x2A2 SWAP2 SWAP1 PUSH3 0x76C JUMP JUMPDEST DUP6 DUP6 DUP5 DUP5 DUP5 DUP5 PUSH1 0x40 MLOAD DUP1 PUSH1 0x40 ADD PUSH1 0x40 MSTORE DUP1 PUSH1 0x10 DUP2 MSTORE PUSH1 0x20 ADD PUSH32 0x50726F6D7074436F6C6C656374696F6E00000000000000000000000000000000 DUP2 MSTORE POP PUSH1 0x40 MLOAD DUP1 PUSH1 0x40 ADD PUSH1 0x40 MSTORE DUP1 PUSH1 0x2 DUP2 MSTORE PUSH1 0x20 ADD PUSH32 0x5043000000000000000000000000000000000000000000000000000000000000 DUP2 MSTORE POP DUP7 DUP1 PUSH20 0xFFFFFFFFFFFFFFFFFFFFFFFFFFFFFFFFFFFFFFFF AND PUSH1 0x80 DUP2 PUSH20 0xFFFFFFFFFFFFFFFFFFFFFFFFFFFFFFFFFFFFFFFF AND DUP2 MSTORE POP POP POP DUP2 PUSH0 SWAP1 DUP2 PUSH3 0x35A SWAP2 SWAP1 PUSH3 0xA68 JUMP JUMPDEST POP DUP1 PUSH1 0x1 SWAP1 DUP2 PUSH3 0x36C SWAP2 SWAP1 PUSH3 0xA68 JUMP JUMPDEST POP POP POP PUSH0 PUSH20 0xFFFFFFFFFFFFFFFFFFFFFFFFFFFFFFFFFFFFFFFF AND DUP2 PUSH20 0xFFFFFFFFFFFFFFFFFFFFFFFFFFFFFFFFFFFFFFFF AND SUB PUSH3 0x3E2 JUMPI PUSH0 PUSH1 0x40 MLOAD PUSH32 0x1E4FBDF700000000000000000000000000000000000000000000000000000000 DUP2 MSTORE PUSH1 0x4 ADD PUSH3 0x3D9 SWAP2 SWAP1 PUSH3 0xB5D JUMP JUMPDEST PUSH1 0x40 MLOAD DUP1 SWAP2 SUB SWAP1 REVERT JUMPDEST PUSH3 0x3F3 DUP2 PUSH3 0x4B2 PUSH1 0x20 SHL PUSH1 0x20 SHR JUMP JUMPDEST POP DUP4 PUSH20 0xFFFFFFFFFFFFFFFFFFFFFFFFFFFFFFFFFFFFFFFF AND PUSH1 0xA0 DUP2 PUSH20 0xFFFFFFFFFFFFFFFFFFFFFFFFFFFFFFFFFFFFFFFF AND DUP2 MSTORE POP POP DUP3 PUSH1 0xC0 DUP2 DUP2 MSTORE POP POP DUP2 PUSH8 0xFFFFFFFFFFFFFFFF AND PUSH1 0xE0 DUP2 PUSH8 0xFFFFFFFFFFFFFFFF AND DUP2 MSTORE POP POP DUP1 PUSH4 0xFFFFFFFF AND PUSH2 0x100 DUP2 PUSH4 0xFFFFFFFF AND DUP2 MSTORE POP POP POP POP POP POP POP DUP4 PUSH1 0x18 PUSH0 PUSH2 0x100 EXP DUP2 SLOAD DUP2 PUSH20 0xFFFFFFFFFFFFFFFFFFFFFFFFFFFFFFFFFFFFFFFF MUL NOT AND SWAP1 DUP4 PUSH20 0xFFFFFFFFFFFFFFFFFFFFFFFFFFFFFFFFFFFFFFFF AND MUL OR SWAP1 SSTORE POP POP POP POP POP POP POP PUSH3 0xB78 JUMP JUMPDEST PUSH0 PUSH1 0x6 PUSH0 SWAP1 SLOAD SWAP1 PUSH2 0x100 EXP SWAP1 DIV PUSH20 0xFFFFFFFFFFFFFFFFFFFFFFFFFFFFFFFFFFFFFFFF AND SWAP1 POP DUP2 PUSH1 0x6 PUSH0 PUSH2 0x100 EXP DUP2 SLOAD DUP2 PUSH20 0xFFFFFFFFFFFFFFFFFFFFFFFFFFFFFFFFFFFFFFFF MUL NOT AND SWAP1 DUP4 PUSH20 0xFFFFFFFFFFFFFFFFFFFFFFFFFFFFFFFFFFFFFFFF AND MUL OR SWAP1 SSTORE POP DUP2 PUSH20 0xFFFFFFFFFFFFFFFFFFFFFFFFFFFFFFFFFFFFFFFF AND DUP2 PUSH20 0xFFFFFFFFFFFFFFFFFFFFFFFFFFFFFFFFFFFFFFFF AND PUSH32 0x8BE0079C531659141344CD1FD0A4F28419497F9722A3DAAFE3B4186F6B6457E0 PUSH1 0x40 MLOAD PUSH1 0x40 MLOAD DUP1 SWAP2 SUB SWAP1 LOG3 POP POP JUMP JUMPDEST DUP3 PUSH1 0xA DUP2 ADD SWAP3 DUP3 ISZERO PUSH3 0x5B5 JUMPI SWAP2 PUSH1 0x20 MUL DUP3 ADD JUMPDEST DUP3 DUP2 GT ISZERO PUSH3 0x5B4 JUMPI DUP3 MLOAD DUP3 SWAP1 DUP2 PUSH3 0x5A3 SWAP2 SWAP1 PUSH3 0xA68 JUMP JUMPDEST POP SWAP2 PUSH1 0x20 ADD SWAP2 SWAP1 PUSH1 0x1 ADD SWAP1 PUSH3 0x589 JUMP JUMPDEST JUMPDEST POP SWAP1 POP PUSH3 0x5C4 SWAP2 SWAP1 PUSH3 0x5C8 JUMP JUMPDEST POP SWAP1 JUMP JUMPDEST JUMPDEST DUP1 DUP3 GT ISZERO PUSH3 0x5EB JUMPI PUSH0 DUP2 DUP2 PUSH3 0x5E1 SWAP2 SWAP1 PUSH3 0x5EF JUMP JUMPDEST POP PUSH1 0x1 ADD PUSH3 0x5C9 JUMP JUMPDEST POP SWAP1 JUMP JUMPDEST POP DUP1 SLOAD PUSH3 0x5FD SWAP1 PUSH3 0x868 JUMP JUMPDEST PUSH0 DUP3 SSTORE DUP1 PUSH1 0x1F LT PUSH3 0x610 JUMPI POP PUSH3 0x62F JUMP JUMPDEST PUSH1 0x1F ADD PUSH1 0x20 SWAP1 DIV SWAP1 PUSH0 MSTORE PUSH1 0x20 PUSH0 KECCAK256 SWAP1 DUP2 ADD SWAP1 PUSH3 0x62E SWAP2 SWAP1 PUSH3 0x632 JUMP JUMPDEST JUMPDEST POP JUMP JUMPDEST JUMPDEST DUP1 DUP3 GT ISZERO PUSH3 0x64B JUMPI PUSH0 DUP2 PUSH0 SWAP1 SSTORE POP PUSH1 0x1 ADD PUSH3 0x633 JUMP JUMPDEST POP SWAP1 JUMP JUMPDEST PUSH0 DUP1 REVERT JUMPDEST PUSH0 PUSH20 0xFFFFFFFFFFFFFFFFFFFFFFFFFFFFFFFFFFFFFFFF DUP3 AND SWAP1 POP SWAP2 SWAP1 POP JUMP JUMPDEST PUSH0 PUSH3 0x67E DUP3 PUSH3 0x653 JUMP JUMPDEST SWAP1 POP SWAP2 SWAP1 POP JUMP JUMPDEST PUSH3 0x690 DUP2 PUSH3 0x672 JUMP JUMPDEST DUP2 EQ PUSH3 0x69B JUMPI PUSH0 DUP1 REVERT JUMPDEST POP JUMP JUMPDEST PUSH0 DUP2 MLOAD SWAP1 POP PUSH3 0x6AE DUP2 PUSH3 0x685 JUMP JUMPDEST SWAP3 SWAP2 POP POP JUMP JUMPDEST PUSH0 DUP2 SWAP1 POP SWAP2 SWAP1 POP JUMP JUMPDEST PUSH3 0x6C8 DUP2 PUSH3 0x6B4 JUMP JUMPDEST DUP2 EQ PUSH3 0x6D3 JUMPI PUSH0 DUP1 REVERT JUMPDEST POP JUMP JUMPDEST PUSH0 DUP2 MLOAD SWAP1 POP PUSH3 0x6E6 DUP2 PUSH3 0x6BD JUMP JUMPDEST SWAP3 SWAP2 POP POP JUMP JUMPDEST PUSH0 PUSH8 0xFFFFFFFFFFFFFFFF DUP3 AND SWAP1 POP SWAP2 SWAP1 POP JUMP JUMPDEST PUSH3 0x70A DUP2 PUSH3 0x6EC JUMP JUMPDEST DUP2 EQ PUSH3 0x715 JUMPI PUSH0 DUP1 REVERT JUMPDEST POP JUMP JUMPDEST PUSH0 DUP2 MLOAD SWAP1 POP PUSH3 0x728 DUP2 PUSH3 0x6FF JUMP JUMPDEST SWAP3 SWAP2 POP POP JUMP JUMPDEST PUSH0 PUSH4 0xFFFFFFFF DUP3 AND SWAP1 POP SWAP2 SWAP1 POP JUMP JUMPDEST PUSH3 0x748 DUP2 PUSH3 0x72E JUMP JUMPDEST DUP2 EQ PUSH3 0x753 JUMPI PUSH0 DUP1 REVERT JUMPDEST POP JUMP JUMPDEST PUSH0 DUP2 MLOAD SWAP1 POP PUSH3 0x766 DUP2 PUSH3 0x73D JUMP JUMPDEST SWAP3 SWAP2 POP POP JUMP JUMPDEST PUSH0 DUP1 PUSH0 DUP1 PUSH0 DUP1 PUSH1 0xC0 DUP8 DUP10 SUB SLT ISZERO PUSH3 0x789 JUMPI PUSH3 0x788 PUSH3 0x64F JUMP JUMPDEST JUMPDEST PUSH0 PUSH3 0x798 DUP10 DUP3 DUP11 ADD PUSH3 0x69E JUMP JUMPDEST SWAP7 POP POP PUSH1 0x20 PUSH3 0x7AB DUP10 DUP3 DUP11 ADD PUSH3 0x69E JUMP JUMPDEST SWAP6 POP POP PUSH1 0x40 PUSH3 0x7BE DUP10 DUP3 DUP11 ADD PUSH3 0x69E JUMP JUMPDEST SWAP5 POP POP PUSH1 0x60 PUSH3 0x7D1 DUP10 DUP3 DUP11 ADD PUSH3 0x6D6 JUMP JUMPDEST SWAP4 POP POP PUSH1 0x80 PUSH3 0x7E4 DUP10 DUP3 DUP11 ADD PUSH3 0x718 JUMP JUMPDEST SWAP3 POP POP PUSH1 0xA0 PUSH3 0x7F7 DUP10 DUP3 DUP11 ADD PUSH3 0x756 JUMP JUMPDEST SWAP2 POP POP SWAP3 SWAP6 POP SWAP3 SWAP6 POP SWAP3 SWAP6 JUMP JUMPDEST PUSH0 DUP2 MLOAD SWAP1 POP SWAP2 SWAP1 POP JUMP JUMPDEST PUSH32 0x4E487B7100000000000000000000000000000000000000000000000000000000 PUSH0 MSTORE PUSH1 0x41 PUSH1 0x4 MSTORE PUSH1 0x24 PUSH0 REVERT JUMPDEST PUSH32 0x4E487B7100000000000000000000000000000000000000000000000000000000 PUSH0 MSTORE PUSH1 0x22 PUSH1 0x4 MSTORE PUSH1 0x24 PUSH0 REVERT JUMPDEST PUSH0 PUSH1 0x2 DUP3 DIV SWAP1 POP PUSH1 0x1 DUP3 AND DUP1 PUSH3 0x880 JUMPI PUSH1 0x7F DUP3 AND SWAP2 POP JUMPDEST PUSH1 0x20 DUP3 LT DUP2 SUB PUSH3 0x896 JUMPI PUSH3 0x895 PUSH3 0x83B JUMP JUMPDEST JUMPDEST POP SWAP2 SWAP1 POP JUMP JUMPDEST PUSH0 DUP2 SWAP1 POP DUP2 PUSH0 MSTORE PUSH1 0x20 PUSH0 KECCAK256 SWAP1 POP SWAP2 SWAP1 POP JUMP JUMPDEST PUSH0 PUSH1 0x20 PUSH1 0x1F DUP4 ADD DIV SWAP1 POP SWAP2 SWAP1 POP JUMP JUMPDEST PUSH0 DUP3 DUP3 SHL SWAP1 POP SWAP3 SWAP2 POP POP JUMP JUMPDEST PUSH0 PUSH1 0x8 DUP4 MUL PUSH3 0x8FA PUSH32 0xFFFFFFFFFFFFFFFFFFFFFFFFFFFFFFFFFFFFFFFFFFFFFFFFFFFFFFFFFFFFFFFF DUP3 PUSH3 0x8BD JUMP JUMPDEST PUSH3 0x906 DUP7 DUP4 PUSH3 0x8BD JUMP JUMPDEST SWAP6 POP DUP1 NOT DUP5 AND SWAP4 POP DUP1 DUP7 AND DUP5 OR SWAP3 POP POP POP SWAP4 SWAP3 POP POP POP JUMP JUMPDEST PUSH0 DUP2 SWAP1 POP SWAP2 SWAP1 POP JUMP JUMPDEST PUSH0 DUP2 SWAP1 POP SWAP2 SWAP1 POP JUMP JUMPDEST PUSH0 PUSH3 0x950 PUSH3 0x94A PUSH3 0x944 DUP5 PUSH3 0x91E JUMP JUMPDEST PUSH3 0x927 JUMP JUMPDEST PUSH3 0x91E JUMP JUMPDEST SWAP1 POP SWAP2 SWAP1 POP JUMP JUMPDEST PUSH0 DUP2 SWAP1 POP SWAP2 SWAP1 POP JUMP JUMPDEST PUSH3 0x96B DUP4 PUSH3 0x930 JUMP JUMPDEST PUSH3 0x983 PUSH3 0x97A DUP3 PUSH3 0x957 JUMP JUMPDEST DUP5 DUP5 SLOAD PUSH3 0x8C9 JUMP JUMPDEST DUP3 SSTORE POP POP POP POP JUMP JUMPDEST PUSH0 SWAP1 JUMP JUMPDEST PUSH3 0x999 PUSH3 0x98B JUMP JUMPDEST PUSH3 0x9A6 DUP2 DUP5 DUP5 PUSH3 0x960 JUMP JUMPDEST POP POP POP JUMP JUMPDEST JUMPDEST DUP2 DUP2 LT ISZERO PUSH3 0x9CD JUMPI PUSH3 0x9C1 PUSH0 DUP3 PUSH3 0x98F JUMP JUMPDEST PUSH1 0x1 DUP2 ADD SWAP1 POP PUSH3 0x9AC JUMP JUMPDEST POP POP JUMP JUMPDEST PUSH1 0x1F DUP3 GT ISZERO PUSH3 0xA1C JUMPI PUSH3 0x9E6 DUP2 PUSH3 0x89C JUMP JUMPDEST PUSH3 0x9F1 DUP5 PUSH3 0x8AE JUMP JUMPDEST DUP2 ADD PUSH1 0x20 DUP6 LT ISZERO PUSH3 0xA01 JUMPI DUP2 SWAP1 POP JUMPDEST PUSH3 0xA19 PUSH3 0xA10 DUP6 PUSH3 0x8AE JUMP JUMPDEST DUP4 ADD DUP3 PUSH3 0x9AB JUMP JUMPDEST POP POP JUMPDEST POP POP POP JUMP JUMPDEST PUSH0 DUP3 DUP3 SHR SWAP1 POP SWAP3 SWAP2 POP POP JUMP JUMPDEST PUSH0 PUSH3 0xA3E PUSH0 NOT DUP5 PUSH1 0x8 MUL PUSH3 0xA21 JUMP JUMPDEST NOT DUP1 DUP4 AND SWAP2 POP POP SWAP3 SWAP2 POP POP JUMP JUMPDEST PUSH0 PUSH3 0xA58 DUP4 DUP4 PUSH3 0xA2D JUMP JUMPDEST SWAP2 POP DUP3 PUSH1 0x2 MUL DUP3 OR SWAP1 POP SWAP3 SWAP2 POP POP JUMP JUMPDEST PUSH3 0xA73 DUP3 PUSH3 0x804 JUMP JUMPDEST PUSH8 0xFFFFFFFFFFFFFFFF DUP2 GT ISZERO PUSH3 0xA8F JUMPI PUSH3 0xA8E PUSH3 0x80E JUMP JUMPDEST JUMPDEST PUSH3 0xA9B DUP3 SLOAD PUSH3 0x868 JUMP JUMPDEST PUSH3 0xAA8 DUP3 DUP3 DUP6 PUSH3 0x9D1 JUMP JUMPDEST PUSH0 PUSH1 0x20 SWAP1 POP PUSH1 0x1F DUP4 GT PUSH1 0x1 DUP2 EQ PUSH3 0xADE JUMPI PUSH0 DUP5 ISZERO PUSH3 0xAC9 JUMPI DUP3 DUP8 ADD MLOAD SWAP1 POP JUMPDEST PUSH3 0xAD5 DUP6 DUP3 PUSH3 0xA4B JUMP JUMPDEST DUP7 SSTORE POP PUSH3 0xB44 JUMP JUMPDEST PUSH1 0x1F NOT DUP5 AND PUSH3 0xAEE DUP7 PUSH3 0x89C JUMP JUMPDEST PUSH0 JUMPDEST DUP3 DUP2 LT ISZERO PUSH3 0xB17 JUMPI DUP5 DUP10 ADD MLOAD DUP3 SSTORE PUSH1 0x1 DUP3 ADD SWAP2 POP PUSH1 0x20 DUP6 ADD SWAP5 POP PUSH1 0x20 DUP2 ADD SWAP1 POP PUSH3 0xAF0 JUMP JUMPDEST DUP7 DUP4 LT ISZERO PUSH3 0xB37 JUMPI DUP5 DUP10 ADD MLOAD PUSH3 0xB33 PUSH1 0x1F DUP10 AND DUP3 PUSH3 0xA2D JUMP JUMPDEST DUP4 SSTORE POP JUMPDEST PUSH1 0x1 PUSH1 0x2 DUP9 MUL ADD DUP9 SSTORE POP POP POP JUMPDEST POP POP POP POP POP POP JUMP JUMPDEST PUSH3 0xB57 DUP2 PUSH3 0x672 JUMP JUMPDEST DUP3 MSTORE POP POP JUMP JUMPDEST PUSH0 PUSH1 0x20 DUP3 ADD SWAP1 POP PUSH3 0xB72 PUSH0 DUP4 ADD DUP5 PUSH3 0xB4C JUMP JUMPDEST SWAP3 SWAP2 POP POP JUMP JUMPDEST PUSH1 0x80 MLOAD PUSH1 0xA0 MLOAD PUSH1 0xC0 MLOAD PUSH1 0xE0 MLOAD PUSH2 0x100 MLOAD PUSH2 0x37D2 PUSH3 0xBBD PUSH0 CODECOPY PUSH0 PUSH2 0xDBA ADD MSTORE PUSH0 PUSH2 0xD97 ADD MSTORE PUSH0 PUSH2 0xD76 ADD MSTORE PUSH0 PUSH2 0xD3A ADD MSTORE PUSH0 DUP2 DUP2 PUSH2 0x9A2 ADD MSTORE PUSH2 0x9F6 ADD MSTORE PUSH2 0x37D2 PUSH0 RETURN INVALID PUSH1 0x80 PUSH1 0x40 MSTORE CALLVALUE DUP1 ISZERO PUSH2 0xF JUMPI PUSH0 DUP1 REVERT JUMPDEST POP PUSH1 0x4 CALLDATASIZE LT PUSH2 0x1D8 JUMPI PUSH0 CALLDATALOAD PUSH1 0xE0 SHR DUP1 PUSH4 0x70A08231 GT PUSH2 0x102 JUMPI DUP1 PUSH4 0xB58CB23C GT PUSH2 0xA0 JUMPI DUP1 PUSH4 0xD5926875 GT PUSH2 0x6F JUMPI DUP1 PUSH4 0xD5926875 EQ PUSH2 0x532 JUMPI DUP1 PUSH4 0xD79D462D EQ PUSH2 0x54E JUMPI DUP1 PUSH4 0xE985E9C5 EQ PUSH2 0x56C JUMPI DUP1 PUSH4 0xF2FDE38B EQ PUSH2 0x59C JUMPI PUSH2 0x1D8 JUMP JUMPDEST DUP1 PUSH4 0xB58CB23C EQ PUSH2 0x4AA JUMPI DUP1 PUSH4 0xB88D4FDE EQ PUSH2 0x4C8 JUMPI DUP1 PUSH4 0xC87B56DD EQ PUSH2 0x4E4 JUMPI DUP1 PUSH4 0xD0B06F5D EQ PUSH2 0x514 JUMPI PUSH2 0x1D8 JUMP JUMPDEST DUP1 PUSH4 0x74E0BF8A GT PUSH2 0xDC JUMPI DUP1 PUSH4 0x74E0BF8A EQ PUSH2 0x434 JUMPI DUP1 PUSH4 0x8DA5CB5B EQ PUSH2 0x452 JUMPI DUP1 PUSH4 0x95D89B41 EQ PUSH2 0x470 JUMPI DUP1 PUSH4 0xA22CB465 EQ PUSH2 0x48E JUMPI PUSH2 0x1D8 JUMP JUMPDEST DUP1 PUSH4 0x70A08231 EQ PUSH2 0x3DC JUMPI DUP1 PUSH4 0x715018A6 EQ PUSH2 0x40C JUMPI DUP1 PUSH4 0x71D345C1 EQ PUSH2 0x416 JUMPI PUSH2 0x1D8 JUMP JUMPDEST DUP1 PUSH4 0x1FE543E3 GT PUSH2 0x17A JUMPI DUP1 PUSH4 0x42842E0E GT PUSH2 0x149 JUMPI DUP1 PUSH4 0x42842E0E EQ PUSH2 0x342 JUMPI DUP1 PUSH4 0x5CCC144E EQ PUSH2 0x35E JUMPI DUP1 PUSH4 0x5EF5CC4A EQ PUSH2 0x38E JUMPI DUP1 PUSH4 0x6352211E EQ PUSH2 0x3AC JUMPI PUSH2 0x1D8 JUMP JUMPDEST DUP1 PUSH4 0x1FE543E3 EQ PUSH2 0x2BC JUMPI DUP1 PUSH4 0x23B872DD EQ PUSH2 0x2D8 JUMPI DUP1 PUSH4 0x341EB719 EQ PUSH2 0x2F4 JUMPI DUP1 PUSH4 0x3F3B3B27 EQ PUSH2 0x324 JUMPI PUSH2 0x1D8 JUMP JUMPDEST DUP1 PUSH4 0x81812FC GT PUSH2 0x1B6 JUMPI DUP1 PUSH4 0x81812FC EQ PUSH2 0x248 JUMPI DUP1 PUSH4 0x95EA7B3 EQ PUSH2 0x278 JUMPI DUP1 PUSH4 0x112BD169 EQ PUSH2 0x294 JUMPI DUP1 PUSH4 0x1249C58B EQ PUSH2 0x2B2 JUMPI PUSH2 0x1D8 JUMP JUMPDEST DUP1 PUSH4 0x1FFC9A7 EQ PUSH2 0x1DC JUMPI DUP1 PUSH4 0x2AFE557 EQ PUSH2 0x20C JUMPI DUP1 PUSH4 0x6FDDE03 EQ PUSH2 0x22A JUMPI JUMPDEST PUSH0 DUP1 REVERT JUMPDEST PUSH2 0x1F6 PUSH1 0x4 DUP1 CALLDATASIZE SUB DUP2 ADD SWAP1 PUSH2 0x1F1 SWAP2 SWAP1 PUSH2 0x25BD JUMP JUMPDEST PUSH2 0x5B8 JUMP JUMPDEST PUSH1 0x40 MLOAD PUSH2 0x203 SWAP2 SWAP1 PUSH2 0x2602 JUMP JUMPDEST PUSH1 0x40 MLOAD DUP1 SWAP2 SUB SWAP1 RETURN JUMPDEST PUSH2 0x214 PUSH2 0x699 JUMP JUMPDEST PUSH1 0x40 MLOAD PUSH2 0x221 SWAP2 SWAP1 PUSH2 0x265A JUMP JUMPDEST PUSH1 0x40 MLOAD DUP1 SWAP2 SUB SWAP1 RETURN JUMPDEST PUSH2 0x232 PUSH2 0x6BE JUMP JUMPDEST PUSH1 0x40 MLOAD PUSH2 0x23F SWAP2 SWAP1 PUSH2 0x26FD JUMP JUMPDEST PUSH1 0x40 MLOAD DUP1 SWAP2 SUB SWAP1 RETURN JUMPDEST PUSH2 0x262 PUSH1 0x4 DUP1 CALLDATASIZE SUB DUP2 ADD SWAP1 PUSH2 0x25D SWAP2 SWAP1 PUSH2 0x2750 JUMP JUMPDEST PUSH2 0x74D JUMP JUMPDEST PUSH1 0x40 MLOAD PUSH2 0x26F SWAP2 SWAP1 PUSH2 0x265A JUMP JUMPDEST PUSH1 0x40 MLOAD DUP1 SWAP2 SUB SWAP1 RETURN JUMPDEST PUSH2 0x292 PUSH1 0x4 DUP1 CALLDATASIZE SUB DUP2 ADD SWAP1 PUSH2 0x28D SWAP2 SWAP1 PUSH2 0x27A5 JUMP JUMPDEST PUSH2 0x768 JUMP JUMPDEST STOP JUMPDEST PUSH2 0x29C PUSH2 0x77E JUMP JUMPDEST PUSH1 0x40 MLOAD PUSH2 0x2A9 SWAP2 SWAP1 PUSH2 0x27F2 JUMP JUMPDEST PUSH1 0x40 MLOAD DUP1 SWAP2 SUB SWAP1 RETURN JUMPDEST PUSH2 0x2BA PUSH2 0x784 JUMP JUMPDEST STOP JUMPDEST PUSH2 0x2D6 PUSH1 0x4 DUP1 CALLDATASIZE SUB DUP2 ADD SWAP1 PUSH2 0x2D1 SWAP2 SWAP1 PUSH2 0x294B JUMP JUMPDEST PUSH2 0x9A0 JUMP JUMPDEST STOP JUMPDEST PUSH2 0x2F2 PUSH1 0x4 DUP1 CALLDATASIZE SUB DUP2 ADD SWAP1 PUSH2 0x2ED SWAP2 SWAP1 PUSH2 0x29A5 JUMP JUMPDEST PUSH2 0xA60 JUMP JUMPDEST STOP JUMPDEST PUSH2 0x30E PUSH1 0x4 DUP1 CALLDATASIZE SUB DUP2 ADD SWAP1 PUSH2 0x309 SWAP2 SWAP1 PUSH2 0x29F5 JUMP JUMPDEST PUSH2 0xB5F JUMP JUMPDEST PUSH1 0x40 MLOAD PUSH2 0x31B SWAP2 SWAP1 PUSH2 0x27F2 JUMP JUMPDEST PUSH1 0x40 MLOAD DUP1 SWAP2 SUB SWAP1 RETURN JUMPDEST PUSH2 0x32C PUSH2 0xB8A JUMP JUMPDEST PUSH1 0x40 MLOAD PUSH2 0x339 SWAP2 SWAP1 PUSH2 0x27F2 JUMP JUMPDEST PUSH1 0x40 MLOAD DUP1 SWAP2 SUB SWAP1 RETURN JUMPDEST PUSH2 0x35C PUSH1 0x4 DUP1 CALLDATASIZE SUB DUP2 ADD SWAP1 PUSH2 0x357 SWAP2 SWAP1 PUSH2 0x29A5 JUMP JUMPDEST PUSH2 0xB90 JUMP JUMPDEST STOP JUMPDEST PUSH2 0x378 PUSH1 0x4 DUP1 CALLDATASIZE SUB DUP2 ADD SWAP1 PUSH2 0x373 SWAP2 SWAP1 PUSH2 0x2A69 JUMP JUMPDEST PUSH2 0xBAF JUMP JUMPDEST PUSH1 0x40 MLOAD PUSH2 0x385 SWAP2 SWAP1 PUSH2 0x26FD JUMP JUMPDEST PUSH1 0x40 MLOAD DUP1 SWAP2 SUB SWAP1 RETURN JUMPDEST PUSH2 0x396 PUSH2 0xC57 JUMP JUMPDEST PUSH1 0x40 MLOAD PUSH2 0x3A3 SWAP2 SWAP1 PUSH2 0x27F2 JUMP JUMPDEST PUSH1 0x40 MLOAD DUP1 SWAP2 SUB SWAP1 RETURN JUMPDEST PUSH2 0x3C6 PUSH1 0x4 DUP1 CALLDATASIZE SUB DUP2 ADD SWAP1 PUSH2 0x3C1 SWAP2 SWAP1 PUSH2 0x2750 JUMP JUMPDEST PUSH2 0xC5D JUMP JUMPDEST PUSH1 0x40 MLOAD PUSH2 0x3D3 SWAP2 SWAP1 PUSH2 0x265A JUMP JUMPDEST PUSH1 0x40 MLOAD DUP1 SWAP2 SUB SWAP1 RETURN JUMPDEST PUSH2 0x3F6 PUSH1 0x4 DUP1 CALLDATASIZE SUB DUP2 ADD SWAP1 PUSH2 0x3F1 SWAP2 SWAP1 PUSH2 0x2A94 JUMP JUMPDEST PUSH2 0xC6E JUMP JUMPDEST PUSH1 0x40 MLOAD PUSH2 0x403 SWAP2 SWAP1 PUSH2 0x27F2 JUMP JUMPDEST PUSH1 0x40 MLOAD DUP1 SWAP2 SUB SWAP1 RETURN JUMPDEST PUSH2 0x414 PUSH2 0xD24 JUMP JUMPDEST STOP JUMPDEST PUSH2 0x41E PUSH2 0xD37 JUMP JUMPDEST PUSH1 0x40 MLOAD PUSH2 0x42B SWAP2 SWAP1 PUSH2 0x27F2 JUMP JUMPDEST PUSH1 0x40 MLOAD DUP1 SWAP2 SUB SWAP1 RETURN JUMPDEST PUSH2 0x43C PUSH2 0xE40 JUMP JUMPDEST PUSH1 0x40 MLOAD PUSH2 0x449 SWAP2 SWAP1 PUSH2 0x26FD JUMP JUMPDEST PUSH1 0x40 MLOAD DUP1 SWAP2 SUB SWAP1 RETURN JUMPDEST PUSH2 0x45A PUSH2 0xECC JUMP JUMPDEST PUSH1 0x40 MLOAD PUSH2 0x467 SWAP2 SWAP1 PUSH2 0x265A JUMP JUMPDEST PUSH1 0x40 MLOAD DUP1 SWAP2 SUB SWAP1 RETURN JUMPDEST PUSH2 0x478 PUSH2 0xEF4 JUMP JUMPDEST PUSH1 0x40 MLOAD PUSH2 0x485 SWAP2 SWAP1 PUSH2 0x26FD JUMP JUMPDEST PUSH1 0x40 MLOAD DUP1 SWAP2 SUB SWAP1 RETURN JUMPDEST PUSH2 0x4A8 PUSH1 0x4 DUP1 CALLDATASIZE SUB DUP2 ADD SWAP1 PUSH2 0x4A3 SWAP2 SWAP1 PUSH2 0x2AE9 JUMP JUMPDEST PUSH2 0xF84 JUMP JUMPDEST STOP JUMPDEST PUSH2 0x4B2 PUSH2 0xF9A JUMP JUMPDEST PUSH1 0x40 MLOAD PUSH2 0x4BF SWAP2 SWAP1 PUSH2 0x27F2 JUMP JUMPDEST PUSH1 0x40 MLOAD DUP1 SWAP2 SUB SWAP1 RETURN JUMPDEST PUSH2 0x4E2 PUSH1 0x4 DUP1 CALLDATASIZE SUB DUP2 ADD SWAP1 PUSH2 0x4DD SWAP2 SWAP1 PUSH2 0x2BD7 JUMP JUMPDEST PUSH2 0xFA2 JUMP JUMPDEST STOP JUMPDEST PUSH2 0x4FE PUSH1 0x4 DUP1 CALLDATASIZE SUB DUP2 ADD SWAP1 PUSH2 0x4F9 SWAP2 SWAP1 PUSH2 0x2750 JUMP JUMPDEST PUSH2 0xFBF JUMP JUMPDEST PUSH1 0x40 MLOAD PUSH2 0x50B SWAP2 SWAP1 PUSH2 0x26FD JUMP JUMPDEST PUSH1 0x40 MLOAD DUP1 SWAP2 SUB SWAP1 RETURN JUMPDEST PUSH2 0x51C PUSH2 0x1025 JUMP JUMPDEST PUSH1 0x40 MLOAD PUSH2 0x529 SWAP2 SWAP1 PUSH2 0x27F2 JUMP JUMPDEST PUSH1 0x40 MLOAD DUP1 SWAP2 SUB SWAP1 RETURN JUMPDEST PUSH2 0x54C PUSH1 0x4 DUP1 CALLDATASIZE SUB DUP2 ADD SWAP1 PUSH2 0x547 SWAP2 SWAP1 PUSH2 0x2DC1 JUMP JUMPDEST PUSH2 0x102B JUMP JUMPDEST STOP JUMPDEST PUSH2 0x556 PUSH2 0x1048 JUMP JUMPDEST PUSH1 0x40 MLOAD PUSH2 0x563 SWAP2 SWAP1 PUSH2 0x26FD JUMP JUMPDEST PUSH1 0x40 MLOAD DUP1 SWAP2 SUB SWAP1 RETURN JUMPDEST PUSH2 0x586 PUSH1 0x4 DUP1 CALLDATASIZE SUB DUP2 ADD SWAP1 PUSH2 0x581 SWAP2 SWAP1 PUSH2 0x2E08 JUMP JUMPDEST PUSH2 0x10D8 JUMP JUMPDEST PUSH1 0x40 MLOAD PUSH2 0x593 SWAP2 SWAP1 PUSH2 0x2602 JUMP JUMPDEST PUSH1 0x40 MLOAD DUP1 SWAP2 SUB SWAP1 RETURN JUMPDEST PUSH2 0x5B6 PUSH1 0x4 DUP1 CALLDATASIZE SUB DUP2 ADD SWAP1 PUSH2 0x5B1 SWAP2 SWAP1 PUSH2 0x2A94 JUMP JUMPDEST PUSH2 0x1166 JUMP JUMPDEST STOP JUMPDEST PUSH0 PUSH32 0x80AC58CD00000000000000000000000000000000000000000000000000000000 PUSH28 0xFFFFFFFFFFFFFFFFFFFFFFFFFFFFFFFFFFFFFFFFFFFFFFFFFFFFFFFF NOT AND DUP3 PUSH28 0xFFFFFFFFFFFFFFFFFFFFFFFFFFFFFFFFFFFFFFFFFFFFFFFFFFFFFFFF NOT AND EQ DUP1 PUSH2 0x682 JUMPI POP PUSH32 0x5B5E139F00000000000000000000000000000000000000000000000000000000 PUSH28 0xFFFFFFFFFFFFFFFFFFFFFFFFFFFFFFFFFFFFFFFFFFFFFFFFFFFFFFFF NOT AND DUP3 PUSH28 0xFFFFFFFFFFFFFFFFFFFFFFFFFFFFFFFFFFFFFFFFFFFFFFFFFFFFFFFF NOT AND EQ JUMPDEST DUP1 PUSH2 0x692 JUMPI POP PUSH2 0x691 DUP3 PUSH2 0x11EA JUMP JUMPDEST JUMPDEST SWAP1 POP SWAP2 SWAP1 POP JUMP JUMPDEST PUSH1 0x18 PUSH0 SWAP1 SLOAD SWAP1 PUSH2 0x100 EXP SWAP1 DIV PUSH20 0xFFFFFFFFFFFFFFFFFFFFFFFFFFFFFFFFFFFFFFFF AND DUP2 JUMP JUMPDEST PUSH1 0x60 PUSH0 DUP1 SLOAD PUSH2 0x6CC SWAP1 PUSH2 0x2E73 JUMP JUMPDEST DUP1 PUSH1 0x1F ADD PUSH1 0x20 DUP1 SWAP2 DIV MUL PUSH1 0x20 ADD PUSH1 0x40 MLOAD SWAP1 DUP2 ADD PUSH1 0x40 MSTORE DUP1 SWAP3 SWAP2 SWAP1 DUP2 DUP2 MSTORE PUSH1 0x20 ADD DUP3 DUP1 SLOAD PUSH2 0x6F8 SWAP1 PUSH2 0x2E73 JUMP JUMPDEST DUP1 ISZERO PUSH2 0x743 JUMPI DUP1 PUSH1 0x1F LT PUSH2 0x71A JUMPI PUSH2 0x100 DUP1 DUP4 SLOAD DIV MUL DUP4 MSTORE SWAP2 PUSH1 0x20 ADD SWAP2 PUSH2 0x743 JUMP JUMPDEST DUP3 ADD SWAP2 SWAP1 PUSH0 MSTORE PUSH1 0x20 PUSH0 KECCAK256 SWAP1 JUMPDEST DUP2 SLOAD DUP2 MSTORE SWAP1 PUSH1 0x1 ADD SWAP1 PUSH1 0x20 ADD DUP1 DUP4 GT PUSH2 0x726 JUMPI DUP3 SWAP1 SUB PUSH1 0x1F AND DUP3 ADD SWAP2 JUMPDEST POP POP POP POP POP SWAP1 POP SWAP1 JUMP JUMPDEST PUSH0 PUSH2 0x757 DUP3 PUSH2 0x1253 JUMP JUMPDEST POP PUSH2 0x761 DUP3 PUSH2 0x12D9 JUMP JUMPDEST SWAP1 POP SWAP2 SWAP1 POP JUMP JUMPDEST PUSH2 0x77A DUP3 DUP3 PUSH2 0x775 PUSH2 0x1312 JUMP JUMPDEST PUSH2 0x1319 JUMP JUMPDEST POP POP JUMP JUMPDEST PUSH1 0x16 SLOAD DUP2 JUMP JUMPDEST PUSH0 PUSH1 0x16 SLOAD SUB PUSH2 0x7C8 JUMPI PUSH1 0x40 MLOAD PUSH32 0x8C379A000000000000000000000000000000000000000000000000000000000 DUP2 MSTORE PUSH1 0x4 ADD PUSH2 0x7BF SWAP1 PUSH2 0x2EED JUMP JUMPDEST PUSH1 0x40 MLOAD DUP1 SWAP2 SUB SWAP1 REVERT JUMPDEST PUSH3 0x93A80 PUSH1 0x16 SLOAD PUSH2 0x7D9 SWAP2 SWAP1 PUSH2 0x2F38 JUMP JUMPDEST TIMESTAMP LT ISZERO PUSH2 0x99E JUMPI PUSH1 0x18 PUSH0 SWAP1 SLOAD SWAP1 PUSH2 0x100 EXP SWAP1 DIV PUSH20 0xFFFFFFFFFFFFFFFFFFFFFFFFFFFFFFFFFFFFFFFF AND PUSH20 0xFFFFFFFFFFFFFFFFFFFFFFFFFFFFFFFFFFFFFFFF AND PUSH4 0x6677AADA CALLER PUSH1 0x40 MLOAD DUP3 PUSH4 0xFFFFFFFF AND PUSH1 0xE0 SHL DUP2 MSTORE PUSH1 0x4 ADD PUSH2 0x83A SWAP2 SWAP1 PUSH2 0x265A JUMP JUMPDEST PUSH1 0x20 PUSH1 0x40 MLOAD DUP1 DUP4 SUB DUP2 DUP7 GAS STATICCALL ISZERO DUP1 ISZERO PUSH2 0x855 JUMPI RETURNDATASIZE PUSH0 DUP1 RETURNDATACOPY RETURNDATASIZE PUSH0 REVERT JUMPDEST POP POP POP POP PUSH1 0x40 MLOAD RETURNDATASIZE PUSH1 0x1F NOT PUSH1 0x1F DUP3 ADD AND DUP3 ADD DUP1 PUSH1 0x40 MSTORE POP DUP2 ADD SWAP1 PUSH2 0x879 SWAP2 SWAP1 PUSH2 0x2F7F JUMP JUMPDEST PUSH2 0x8AF JUMPI PUSH1 0x40 MLOAD PUSH32 0x9ADBB20400000000000000000000000000000000000000000000000000000000 DUP2 MSTORE PUSH1 0x4 ADD PUSH1 0x40 MLOAD DUP1 SWAP2 SUB SWAP1 REVERT JUMPDEST PUSH0 PUSH2 0x8D2 PUSH1 0x16 SLOAD PUSH1 0x19 PUSH0 PUSH1 0x17 SLOAD DUP2 MSTORE PUSH1 0x20 ADD SWAP1 DUP2 MSTORE PUSH1 0x20 ADD PUSH0 KECCAK256 DUP1 SLOAD SWAP1 POP PUSH2 0x132B JUMP JUMPDEST SWAP1 POP PUSH1 0x19 PUSH0 PUSH1 0x16 SLOAD DUP2 MSTORE PUSH1 0x20 ADD SWAP1 DUP2 MSTORE PUSH1 0x20 ADD PUSH0 KECCAK256 DUP2 SWAP1 DUP1 PUSH1 0x1 DUP2 SLOAD ADD DUP1 DUP3 SSTORE DUP1 SWAP2 POP POP PUSH1 0x1 SWAP1 SUB SWAP1 PUSH0 MSTORE PUSH1 0x20 PUSH0 KECCAK256 ADD PUSH0 SWAP1 SWAP2 SWAP1 SWAP2 SWAP1 SWAP2 POP SSTORE PUSH1 0x18 PUSH0 SWAP1 SLOAD SWAP1 PUSH2 0x100 EXP SWAP1 DIV PUSH20 0xFFFFFFFFFFFFFFFFFFFFFFFFFFFFFFFFFFFFFFFF AND PUSH20 0xFFFFFFFFFFFFFFFFFFFFFFFFFFFFFFFFFFFFFFFF AND PUSH4 0x984D6663 CALLER PUSH1 0x40 MLOAD DUP3 PUSH4 0xFFFFFFFF AND PUSH1 0xE0 SHL DUP2 MSTORE PUSH1 0x4 ADD PUSH2 0x965 SWAP2 SWAP1 PUSH2 0x265A JUMP JUMPDEST PUSH0 PUSH1 0x40 MLOAD DUP1 DUP4 SUB DUP2 PUSH0 DUP8 DUP1 EXTCODESIZE ISZERO DUP1 ISZERO PUSH2 0x97C JUMPI PUSH0 DUP1 REVERT JUMPDEST POP GAS CALL ISZERO DUP1 ISZERO PUSH2 0x98E JUMPI RETURNDATASIZE PUSH0 DUP1 RETURNDATACOPY RETURNDATASIZE PUSH0 REVERT JUMPDEST POP POP POP POP PUSH2 0x99C CALLER DUP3 PUSH2 0x133B JUMP JUMPDEST POP JUMPDEST JUMP JUMPDEST PUSH32 0x0 PUSH20 0xFFFFFFFFFFFFFFFFFFFFFFFFFFFFFFFFFFFFFFFF AND CALLER PUSH20 0xFFFFFFFFFFFFFFFFFFFFFFFFFFFFFFFFFFFFFFFF AND EQ PUSH2 0xA52 JUMPI CALLER PUSH32 0x0 PUSH1 0x40 MLOAD PUSH32 0x1CF993F400000000000000000000000000000000000000000000000000000000 DUP2 MSTORE PUSH1 0x4 ADD PUSH2 0xA49 SWAP3 SWAP2 SWAP1 PUSH2 0x2FAA JUMP JUMPDEST PUSH1 0x40 MLOAD DUP1 SWAP2 SUB SWAP1 REVERT JUMPDEST PUSH2 0xA5C DUP3 DUP3 PUSH2 0x142E JUMP JUMPDEST POP POP JUMP JUMPDEST PUSH0 PUSH20 0xFFFFFFFFFFFFFFFFFFFFFFFFFFFFFFFFFFFFFFFF AND DUP3 PUSH20 0xFFFFFFFFFFFFFFFFFFFFFFFFFFFFFFFFFFFFFFFF AND SUB PUSH2 0xAD0 JUMPI PUSH0 PUSH1 0x40 MLOAD PUSH32 0x64A0AE9200000000000000000000000000000000000000000000000000000000 DUP2 MSTORE PUSH1 0x4 ADD PUSH2 0xAC7 SWAP2 SWAP1 PUSH2 0x265A JUMP JUMPDEST PUSH1 0x40 MLOAD DUP1 SWAP2 SUB SWAP1 REVERT JUMPDEST PUSH0 PUSH2 0xAE3 DUP4 DUP4 PUSH2 0xADE PUSH2 0x1312 JUMP JUMPDEST PUSH2 0x181C JUMP JUMPDEST SWAP1 POP DUP4 PUSH20 0xFFFFFFFFFFFFFFFFFFFFFFFFFFFFFFFFFFFFFFFF AND DUP2 PUSH20 0xFFFFFFFFFFFFFFFFFFFFFFFFFFFFFFFFFFFFFFFF AND EQ PUSH2 0xB59 JUMPI DUP4 DUP3 DUP3 PUSH1 0x40 MLOAD PUSH32 0x64283D7B00000000000000000000000000000000000000000000000000000000 DUP2 MSTORE PUSH1 0x4 ADD PUSH2 0xB50 SWAP4 SWAP3 SWAP2 SWAP1 PUSH2 0x2FD1 JUMP JUMPDEST PUSH1 0x40 MLOAD DUP1 SWAP2 SUB SWAP1 REVERT JUMPDEST POP POP POP POP JUMP JUMPDEST PUSH1 0x19 PUSH1 0x20 MSTORE DUP2 PUSH0 MSTORE PUSH1 0x40 PUSH0 KECCAK256 DUP2 DUP2 SLOAD DUP2 LT PUSH2 0xB78 JUMPI PUSH0 DUP1 REVERT JUMPDEST SWAP1 PUSH0 MSTORE PUSH1 0x20 PUSH0 KECCAK256 ADD PUSH0 SWAP2 POP SWAP2 POP POP SLOAD DUP2 JUMP JUMPDEST PUSH1 0x15 SLOAD DUP2 JUMP JUMPDEST PUSH2 0xBAA DUP4 DUP4 DUP4 PUSH1 0x40 MLOAD DUP1 PUSH1 0x20 ADD PUSH1 0x40 MSTORE DUP1 PUSH0 DUP2 MSTORE POP PUSH2 0xFA2 JUMP JUMPDEST POP POP POP JUMP JUMPDEST PUSH1 0x60 PUSH1 0x7 DUP3 PUSH1 0xFF AND PUSH1 0xA DUP2 LT PUSH2 0xBC8 JUMPI PUSH2 0xBC7 PUSH2 0x3006 JUMP JUMPDEST JUMPDEST ADD DUP1 SLOAD PUSH2 0xBD4 SWAP1 PUSH2 0x2E73 JUMP JUMPDEST DUP1 PUSH1 0x1F ADD PUSH1 0x20 DUP1 SWAP2 DIV MUL PUSH1 0x20 ADD PUSH1 0x40 MLOAD SWAP1 DUP2 ADD PUSH1 0x40 MSTORE DUP1 SWAP3 SWAP2 SWAP1 DUP2 DUP2 MSTORE PUSH1 0x20 ADD DUP3 DUP1 SLOAD PUSH2 0xC00 SWAP1 PUSH2 0x2E73 JUMP JUMPDEST DUP1 ISZERO PUSH2 0xC4B JUMPI DUP1 PUSH1 0x1F LT PUSH2 0xC22 JUMPI PUSH2 0x100 DUP1 DUP4 SLOAD DIV MUL DUP4 MSTORE SWAP2 PUSH1 0x20 ADD SWAP2 PUSH2 0xC4B JUMP JUMPDEST DUP3 ADD SWAP2 SWAP1 PUSH0 MSTORE PUSH1 0x20 PUSH0 KECCAK256 SWAP1 JUMPDEST DUP2 SLOAD DUP2 MSTORE SWAP1 PUSH1 0x1 ADD SWAP1 PUSH1 0x20 ADD DUP1 DUP4 GT PUSH2 0xC2E JUMPI DUP3 SWAP1 SUB PUSH1 0x1F AND DUP3 ADD SWAP2 JUMPDEST POP POP POP POP POP SWAP1 POP SWAP2 SWAP1 POP JUMP JUMPDEST PUSH1 0x17 SLOAD DUP2 JUMP JUMPDEST PUSH0 PUSH2 0xC67 DUP3 PUSH2 0x1253 JUMP JUMPDEST SWAP1 POP SWAP2 SWAP1 POP JUMP JUMPDEST PUSH0 DUP1 PUSH20 0xFFFFFFFFFFFFFFFFFFFFFFFFFFFFFFFFFFFFFFFF AND DUP3 PUSH20 0xFFFFFFFFFFFFFFFFFFFFFFFFFFFFFFFFFFFFFFFF AND SUB PUSH2 0xCDF JUMPI PUSH0 PUSH1 0x40 MLOAD PUSH32 0x89C62B6400000000000000000000000000000000000000000000000000000000 DUP2 MSTORE PUSH1 0x4 ADD PUSH2 0xCD6 SWAP2 SWAP1 PUSH2 0x265A JUMP JUMPDEST PUSH1 0x40 MLOAD DUP1 SWAP2 SUB SWAP1 REVERT JUMPDEST PUSH1 0x3 PUSH0 DUP4 PUSH20 0xFFFFFFFFFFFFFFFFFFFFFFFFFFFFFFFFFFFFFFFF AND PUSH20 0xFFFFFFFFFFFFFFFFFFFFFFFFFFFFFFFFFFFFFFFF AND DUP2 MSTORE PUSH1 0x20 ADD SWAP1 DUP2 MSTORE PUSH1 0x20 ADD PUSH0 KECCAK256 SLOAD SWAP1 POP SWAP2 SWAP1 POP JUMP JUMPDEST PUSH2 0xD2C PUSH2 0x1A27 JUMP JUMPDEST PUSH2 0xD35 PUSH0 PUSH2 0x1AAE JUMP JUMPDEST JUMP JUMPDEST PUSH0 PUSH32 0x0 PUSH20 0xFFFFFFFFFFFFFFFFFFFFFFFFFFFFFFFFFFFFFFFF AND PUSH4 0x5D3B1D30 PUSH32 0x0 PUSH32 0x0 PUSH1 0x3 PUSH32 0x0 PUSH1 0x1 PUSH1 0x40 MLOAD DUP7 PUSH4 0xFFFFFFFF AND PUSH1 0xE0 SHL DUP2 MSTORE PUSH1 0x4 ADD PUSH2 0xDFB SWAP6 SWAP5 SWAP4 SWAP3 SWAP2 SWAP1 PUSH2 0x30A7 JUMP JUMPDEST PUSH1 0x20 PUSH1 0x40 MLOAD DUP1 DUP4 SUB DUP2 PUSH0 DUP8 GAS CALL ISZERO DUP1 ISZERO PUSH2 0xE17 JUMPI RETURNDATASIZE PUSH0 DUP1 RETURNDATACOPY RETURNDATASIZE PUSH0 REVERT JUMPDEST POP POP POP POP PUSH1 0x40 MLOAD RETURNDATASIZE PUSH1 0x1F NOT PUSH1 0x1F DUP3 ADD AND DUP3 ADD DUP1 PUSH1 0x40 MSTORE POP DUP2 ADD SWAP1 PUSH2 0xE3B SWAP2 SWAP1 PUSH2 0x310C JUMP JUMPDEST SWAP1 POP SWAP1 JUMP JUMPDEST PUSH1 0x11 DUP1 SLOAD PUSH2 0xE4D SWAP1 PUSH2 0x2E73 JUMP JUMPDEST DUP1 PUSH1 0x1F ADD PUSH1 0x20 DUP1 SWAP2 DIV MUL PUSH1 0x20 ADD PUSH1 0x40 MLOAD SWAP1 DUP2 ADD PUSH1 0x40 MSTORE DUP1 SWAP3 SWAP2 SWAP1 DUP2 DUP2 MSTORE PUSH1 0x20 ADD DUP3 DUP1 SLOAD PUSH2 0xE79 SWAP1 PUSH2 0x2E73 JUMP JUMPDEST DUP1 ISZERO PUSH2 0xEC4 JUMPI DUP1 PUSH1 0x1F LT PUSH2 0xE9B JUMPI PUSH2 0x100 DUP1 DUP4 SLOAD DIV MUL DUP4 MSTORE SWAP2 PUSH1 0x20 ADD SWAP2 PUSH2 0xEC4 JUMP JUMPDEST DUP3 ADD SWAP2 SWAP1 PUSH0 MSTORE PUSH1 0x20 PUSH0 KECCAK256 SWAP1 JUMPDEST DUP2 SLOAD DUP2 MSTORE SWAP1 PUSH1 0x1 ADD SWAP1 PUSH1 0x20 ADD DUP1 DUP4 GT PUSH2 0xEA7 JUMPI DUP3 SWAP1 SUB PUSH1 0x1F AND DUP3 ADD SWAP2 JUMPDEST POP POP POP POP POP DUP2 JUMP JUMPDEST PUSH0 PUSH1 0x6 PUSH0 SWAP1 SLOAD SWAP1 PUSH2 0x100 EXP SWAP1 DIV PUSH20 0xFFFFFFFFFFFFFFFFFFFFFFFFFFFFFFFFFFFFFFFF AND SWAP1 POP SWAP1 JUMP JUMPDEST PUSH1 0x60 PUSH1 0x1 DUP1 SLOAD PUSH2 0xF03 SWAP1 PUSH2 0x2E73 JUMP JUMPDEST DUP1 PUSH1 0x1F ADD PUSH1 0x20 DUP1 SWAP2 DIV MUL PUSH1 0x20 ADD PUSH1 0x40 MLOAD SWAP1 DUP2 ADD PUSH1 0x40 MSTORE DUP1 SWAP3 SWAP2 SWAP1 DUP2 DUP2 MSTORE PUSH1 0x20 ADD DUP3 DUP1 SLOAD PUSH2 0xF2F SWAP1 PUSH2 0x2E73 JUMP JUMPDEST DUP1 ISZERO PUSH2 0xF7A JUMPI DUP1 PUSH1 0x1F LT PUSH2 0xF51 JUMPI PUSH2 0x100 DUP1 DUP4 SLOAD DIV MUL DUP4 MSTORE SWAP2 PUSH1 0x20 ADD SWAP2 PUSH2 0xF7A JUMP JUMPDEST DUP3 ADD SWAP2 SWAP1 PUSH0 MSTORE PUSH1 0x20 PUSH0 KECCAK256 SWAP1 JUMPDEST DUP2 SLOAD DUP2 MSTORE SWAP1 PUSH1 0x1 ADD SWAP1 PUSH1 0x20 ADD DUP1 DUP4 GT PUSH2 0xF5D JUMPI DUP3 SWAP1 SUB PUSH1 0x1F AND DUP3 ADD SWAP2 JUMPDEST POP POP POP POP POP SWAP1 POP SWAP1 JUMP JUMPDEST PUSH2 0xF96 PUSH2 0xF8F PUSH2 0x1312 JUMP JUMPDEST DUP4 DUP4 PUSH2 0x1B71 JUMP JUMPDEST POP POP JUMP JUMPDEST PUSH0 PUSH1 0xA SWAP1 POP SWAP1 JUMP JUMPDEST PUSH2 0xFAD DUP5 DUP5 DUP5 PUSH2 0xA60 JUMP JUMPDEST PUSH2 0xFB9 DUP5 DUP5 DUP5 DUP5 PUSH2 0x1CDA JUMP JUMPDEST POP POP POP POP JUMP JUMPDEST PUSH1 0x60 PUSH2 0xFCA DUP3 PUSH2 0x1253 JUMP JUMPDEST POP PUSH0 PUSH2 0xFD4 PUSH2 0x1E8C JUMP JUMPDEST SWAP1 POP PUSH0 DUP2 MLOAD GT PUSH2 0xFF2 JUMPI PUSH1 0x40 MLOAD DUP1 PUSH1 0x20 ADD PUSH1 0x40 MSTORE DUP1 PUSH0 DUP2 MSTORE POP PUSH2 0x101D JUMP JUMPDEST DUP1 PUSH2 0xFFC DUP5 PUSH2 0x1EA2 JUMP JUMPDEST PUSH1 0x40 MLOAD PUSH1 0x20 ADD PUSH2 0x100D SWAP3 SWAP2 SWAP1 PUSH2 0x3171 JUMP JUMPDEST PUSH1 0x40 MLOAD PUSH1 0x20 DUP2 DUP4 SUB SUB DUP2 MSTORE SWAP1 PUSH1 0x40 MSTORE JUMPDEST SWAP2 POP POP SWAP2 SWAP1 POP JUMP JUMPDEST PUSH1 0x12 SLOAD DUP2 JUMP JUMPDEST PUSH2 0x1033 PUSH2 0x1A27 JUMP JUMPDEST DUP1 PUSH1 0x7 SWAP1 PUSH1 0xA PUSH2 0x1044 SWAP3 SWAP2 SWAP1 PUSH2 0x2490 JUMP JUMPDEST POP POP JUMP JUMPDEST PUSH1 0x60 PUSH1 0x11 DUP1 SLOAD PUSH2 0x1057 SWAP1 PUSH2 0x2E73 JUMP JUMPDEST DUP1 PUSH1 0x1F ADD PUSH1 0x20 DUP1 SWAP2 DIV MUL PUSH1 0x20 ADD PUSH1 0x40 MLOAD SWAP1 DUP2 ADD PUSH1 0x40 MSTORE DUP1 SWAP3 SWAP2 SWAP1 DUP2 DUP2 MSTORE PUSH1 0x20 ADD DUP3 DUP1 SLOAD PUSH2 0x1083 SWAP1 PUSH2 0x2E73 JUMP JUMPDEST DUP1 ISZERO PUSH2 0x10CE JUMPI DUP1 PUSH1 0x1F LT PUSH2 0x10A5 JUMPI PUSH2 0x100 DUP1 DUP4 SLOAD DIV MUL DUP4 MSTORE SWAP2 PUSH1 0x20 ADD SWAP2 PUSH2 0x10CE JUMP JUMPDEST DUP3 ADD SWAP2 SWAP1 PUSH0 MSTORE PUSH1 0x20 PUSH0 KECCAK256 SWAP1 JUMPDEST DUP2 SLOAD DUP2 MSTORE SWAP1 PUSH1 0x1 ADD SWAP1 PUSH1 0x20 ADD DUP1 DUP4 GT PUSH2 0x10B1 JUMPI DUP3 SWAP1 SUB PUSH1 0x1F AND DUP3 ADD SWAP2 JUMPDEST POP POP POP POP POP SWAP1 POP SWAP1 JUMP JUMPDEST PUSH0 PUSH1 0x5 PUSH0 DUP5 PUSH20 0xFFFFFFFFFFFFFFFFFFFFFFFFFFFFFFFFFFFFFFFF AND PUSH20 0xFFFFFFFFFFFFFFFFFFFFFFFFFFFFFFFFFFFFFFFF AND DUP2 MSTORE PUSH1 0x20 ADD SWAP1 DUP2 MSTORE PUSH1 0x20 ADD PUSH0 KECCAK256 PUSH0 DUP4 PUSH20 0xFFFFFFFFFFFFFFFFFFFFFFFFFFFFFFFFFFFFFFFF AND PUSH20 0xFFFFFFFFFFFFFFFFFFFFFFFFFFFFFFFFFFFFFFFF AND DUP2 MSTORE PUSH1 0x20 ADD SWAP1 DUP2 MSTORE PUSH1 0x20 ADD PUSH0 KECCAK256 PUSH0 SWAP1 SLOAD SWAP1 PUSH2 0x100 EXP SWAP1 DIV PUSH1 0xFF AND SWAP1 POP SWAP3 SWAP2 POP POP JUMP JUMPDEST PUSH2 0x116E PUSH2 0x1A27 JUMP JUMPDEST PUSH0 PUSH20 0xFFFFFFFFFFFFFFFFFFFFFFFFFFFFFFFFFFFFFFFF AND DUP2 PUSH20 0xFFFFFFFFFFFFFFFFFFFFFFFFFFFFFFFFFFFFFFFF AND SUB PUSH2 0x11DE JUMPI PUSH0 PUSH1 0x40 MLOAD PUSH32 0x1E4FBDF700000000000000000000000000000000000000000000000000000000 DUP2 MSTORE PUSH1 0x4 ADD PUSH2 0x11D5 SWAP2 SWAP1 PUSH2 0x265A JUMP JUMPDEST PUSH1 0x40 MLOAD DUP1 SWAP2 SUB SWAP1 REVERT JUMPDEST PUSH2 0x11E7 DUP2 PUSH2 0x1AAE JUMP JUMPDEST POP JUMP JUMPDEST PUSH0 PUSH32 0x1FFC9A700000000000000000000000000000000000000000000000000000000 PUSH28 0xFFFFFFFFFFFFFFFFFFFFFFFFFFFFFFFFFFFFFFFFFFFFFFFFFFFFFFFF NOT AND DUP3 PUSH28 0xFFFFFFFFFFFFFFFFFFFFFFFFFFFFFFFFFFFFFFFFFFFFFFFFFFFFFFFF NOT AND EQ SWAP1 POP SWAP2 SWAP1 POP JUMP JUMPDEST PUSH0 DUP1 PUSH2 0x125E DUP4 PUSH2 0x1F6C JUMP JUMPDEST SWAP1 POP PUSH0 PUSH20 0xFFFFFFFFFFFFFFFFFFFFFFFFFFFFFFFFFFFFFFFF AND DUP2 PUSH20 0xFFFFFFFFFFFFFFFFFFFFFFFFFFFFFFFFFFFFFFFF AND SUB PUSH2 0x12D0 JUMPI DUP3 PUSH1 0x40 MLOAD PUSH32 0x7E27328900000000000000000000000000000000000000000000000000000000 DUP2 MSTORE PUSH1 0x4 ADD PUSH2 0x12C7 SWAP2 SWAP1 PUSH2 0x27F2 JUMP JUMPDEST PUSH1 0x40 MLOAD DUP1 SWAP2 SUB SWAP1 REVERT JUMPDEST DUP1 SWAP2 POP POP SWAP2 SWAP1 POP JUMP JUMPDEST PUSH0 PUSH1 0x4 PUSH0 DUP4 DUP2 MSTORE PUSH1 0x20 ADD SWAP1 DUP2 MSTORE PUSH1 0x20 ADD PUSH0 KECCAK256 PUSH0 SWAP1 SLOAD SWAP1 PUSH2 0x100 EXP SWAP1 DIV PUSH20 0xFFFFFFFFFFFFFFFFFFFFFFFFFFFFFFFFFFFFFFFF AND SWAP1 POP SWAP2 SWAP1 POP JUMP JUMPDEST PUSH0 CALLER SWAP1 POP SWAP1 JUMP JUMPDEST PUSH2 0x1326 DUP4 DUP4 DUP4 PUSH1 0x1 PUSH2 0x1FA5 JUMP JUMPDEST POP POP POP JUMP JUMPDEST PUSH0 DUP2 PUSH1 0x80 DUP5 SWAP1 SHL OR SWAP1 POP SWAP3 SWAP2 POP POP JUMP JUMPDEST PUSH0 PUSH20 0xFFFFFFFFFFFFFFFFFFFFFFFFFFFFFFFFFFFFFFFF AND DUP3 PUSH20 0xFFFFFFFFFFFFFFFFFFFFFFFFFFFFFFFFFFFFFFFF AND SUB PUSH2 0x13AB JUMPI PUSH0 PUSH1 0x40 MLOAD PUSH32 0x64A0AE9200000000000000000000000000000000000000000000000000000000 DUP2 MSTORE PUSH1 0x4 ADD PUSH2 0x13A2 SWAP2 SWAP1 PUSH2 0x265A JUMP JUMPDEST PUSH1 0x40 MLOAD DUP1 SWAP2 SUB SWAP1 REVERT JUMPDEST PUSH0 PUSH2 0x13B7 DUP4 DUP4 PUSH0 PUSH2 0x181C JUMP JUMPDEST SWAP1 POP PUSH0 PUSH20 0xFFFFFFFFFFFFFFFFFFFFFFFFFFFFFFFFFFFFFFFF AND DUP2 PUSH20 0xFFFFFFFFFFFFFFFFFFFFFFFFFFFFFFFFFFFFFFFF AND EQ PUSH2 0x1429 JUMPI PUSH0 PUSH1 0x40 MLOAD PUSH32 0x73C6AC6E00000000000000000000000000000000000000000000000000000000 DUP2 MSTORE PUSH1 0x4 ADD PUSH2 0x1420 SWAP2 SWAP1 PUSH2 0x265A JUMP JUMPDEST PUSH1 0x40 MLOAD DUP1 SWAP2 SUB SWAP1 REVERT JUMPDEST POP POP POP JUMP JUMPDEST PUSH1 0x60 PUSH0 PUSH1 0xA DUP4 PUSH0 DUP2 MLOAD DUP2 LT PUSH2 0x1446 JUMPI PUSH2 0x1445 PUSH2 0x3006 JUMP JUMPDEST JUMPDEST PUSH1 0x20 MUL PUSH1 0x20 ADD ADD MLOAD PUSH2 0x1458 SWAP2 SWAP1 PUSH2 0x31C1 JUMP JUMPDEST SWAP1 POP JUMPDEST PUSH2 0x1588 PUSH1 0x7 DUP3 PUSH1 0xA DUP2 LT PUSH2 0x1472 JUMPI PUSH2 0x1471 PUSH2 0x3006 JUMP JUMPDEST JUMPDEST ADD DUP1 SLOAD PUSH2 0x147E SWAP1 PUSH2 0x2E73 JUMP JUMPDEST DUP1 PUSH1 0x1F ADD PUSH1 0x20 DUP1 SWAP2 DIV MUL PUSH1 0x20 ADD PUSH1 0x40 MLOAD SWAP1 DUP2 ADD PUSH1 0x40 MSTORE DUP1 SWAP3 SWAP2 SWAP1 DUP2 DUP2 MSTORE PUSH1 0x20 ADD DUP3 DUP1 SLOAD PUSH2 0x14AA SWAP1 PUSH2 0x2E73 JUMP JUMPDEST DUP1 ISZERO PUSH2 0x14F5 JUMPI DUP1 PUSH1 0x1F LT PUSH2 0x14CC JUMPI PUSH2 0x100 DUP1 DUP4 SLOAD DIV MUL DUP4 MSTORE SWAP2 PUSH1 0x20 ADD SWAP2 PUSH2 0x14F5 JUMP JUMPDEST DUP3 ADD SWAP2 SWAP1 PUSH0 MSTORE PUSH1 0x20 PUSH0 KECCAK256 SWAP1 JUMPDEST DUP2 SLOAD DUP2 MSTORE SWAP1 PUSH1 0x1 ADD SWAP1 PUSH1 0x20 ADD DUP1 DUP4 GT PUSH2 0x14D8 JUMPI DUP3 SWAP1 SUB PUSH1 0x1F AND DUP3 ADD SWAP2 JUMPDEST POP POP POP POP POP PUSH1 0x13 DUP1 SLOAD PUSH2 0x1507 SWAP1 PUSH2 0x2E73 JUMP JUMPDEST DUP1 PUSH1 0x1F ADD PUSH1 0x20 DUP1 SWAP2 DIV MUL PUSH1 0x20 ADD PUSH1 0x40 MLOAD SWAP1 DUP2 ADD PUSH1 0x40 MSTORE DUP1 SWAP3 SWAP2 SWAP1 DUP2 DUP2 MSTORE PUSH1 0x20 ADD DUP3 DUP1 SLOAD PUSH2 0x1533 SWAP1 PUSH2 0x2E73 JUMP JUMPDEST DUP1 ISZERO PUSH2 0x157E JUMPI DUP1 PUSH1 0x1F LT PUSH2 0x1555 JUMPI PUSH2 0x100 DUP1 DUP4 SLOAD DIV MUL DUP4 MSTORE SWAP2 PUSH1 0x20 ADD SWAP2 PUSH2 0x157E JUMP JUMPDEST DUP3 ADD SWAP2 SWAP1 PUSH0 MSTORE PUSH1 0x20 PUSH0 KECCAK256 SWAP1 JUMPDEST DUP2 SLOAD DUP2 MSTORE SWAP1 PUSH1 0x1 ADD SWAP1 PUSH1 0x20 ADD DUP1 DUP4 GT PUSH2 0x1561 JUMPI DUP3 SWAP1 SUB PUSH1 0x1F AND DUP3 ADD SWAP2 JUMPDEST POP POP POP POP POP PUSH2 0x2164 JUMP JUMPDEST DUP1 PUSH2 0x16BC JUMPI POP PUSH2 0x16BB PUSH1 0x7 DUP3 PUSH1 0xA DUP2 LT PUSH2 0x15A5 JUMPI PUSH2 0x15A4 PUSH2 0x3006 JUMP JUMPDEST JUMPDEST ADD DUP1 SLOAD PUSH2 0x15B1 SWAP1 PUSH2 0x2E73 JUMP JUMPDEST DUP1 PUSH1 0x1F ADD PUSH1 0x20 DUP1 SWAP2 DIV MUL PUSH1 0x20 ADD PUSH1 0x40 MLOAD SWAP1 DUP2 ADD PUSH1 0x40 MSTORE DUP1 SWAP3 SWAP2 SWAP1 DUP2 DUP2 MSTORE PUSH1 0x20 ADD DUP3 DUP1 SLOAD PUSH2 0x15DD SWAP1 PUSH2 0x2E73 JUMP JUMPDEST DUP1 ISZERO PUSH2 0x1628 JUMPI DUP1 PUSH1 0x1F LT PUSH2 0x15FF JUMPI PUSH2 0x100 DUP1 DUP4 SLOAD DIV MUL DUP4 MSTORE SWAP2 PUSH1 0x20 ADD SWAP2 PUSH2 0x1628 JUMP JUMPDEST DUP3 ADD SWAP2 SWAP1 PUSH0 MSTORE PUSH1 0x20 PUSH0 KECCAK256 SWAP1 JUMPDEST DUP2 SLOAD DUP2 MSTORE SWAP1 PUSH1 0x1 ADD SWAP1 PUSH1 0x20 ADD DUP1 DUP4 GT PUSH2 0x160B JUMPI DUP3 SWAP1 SUB PUSH1 0x1F AND DUP3 ADD SWAP2 JUMPDEST POP POP POP POP POP PUSH1 0x14 DUP1 SLOAD PUSH2 0x163A SWAP1 PUSH2 0x2E73 JUMP JUMPDEST DUP1 PUSH1 0x1F ADD PUSH1 0x20 DUP1 SWAP2 DIV MUL PUSH1 0x20 ADD PUSH1 0x40 MLOAD SWAP1 DUP2 ADD PUSH1 0x40 MSTORE DUP1 SWAP3 SWAP2 SWAP1 DUP2 DUP2 MSTORE PUSH1 0x20 ADD DUP3 DUP1 SLOAD PUSH2 0x1666 SWAP1 PUSH2 0x2E73 JUMP JUMPDEST DUP1 ISZERO PUSH2 0x16B1 JUMPI DUP1 PUSH1 0x1F LT PUSH2 0x1688 JUMPI PUSH2 0x100 DUP1 DUP4 SLOAD DIV MUL DUP4 MSTORE SWAP2 PUSH1 0x20 ADD SWAP2 PUSH2 0x16B1 JUMP JUMPDEST DUP3 ADD SWAP2 SWAP1 PUSH0 MSTORE PUSH1 0x20 PUSH0 KECCAK256 SWAP1 JUMPDEST DUP2 SLOAD DUP2 MSTORE SWAP1 PUSH1 0x1 ADD SWAP1 PUSH1 0x20 ADD DUP1 DUP4 GT PUSH2 0x1694 JUMPI DUP3 SWAP1 SUB PUSH1 0x1F AND DUP3 ADD SWAP2 JUMPDEST POP POP POP POP POP PUSH2 0x2164 JUMP JUMPDEST JUMPDEST ISZERO PUSH2 0x16F1 JUMPI PUSH1 0x1 PUSH1 0xA PUSH2 0x16CF SWAP2 SWAP1 PUSH2 0x31F1 JUMP JUMPDEST DUP2 SUB PUSH2 0x16DD JUMPI PUSH0 SWAP1 POP PUSH2 0x16EC JUMP JUMPDEST DUP1 DUP1 PUSH2 0x16E8 SWAP1 PUSH2 0x3224 JUMP JUMPDEST SWAP2 POP POP JUMPDEST PUSH2 0x145B JUMP JUMPDEST PUSH1 0x7 DUP2 PUSH1 0xA DUP2 LT PUSH2 0x1705 JUMPI PUSH2 0x1704 PUSH2 0x3006 JUMP JUMPDEST JUMPDEST ADD DUP1 SLOAD PUSH2 0x1711 SWAP1 PUSH2 0x2E73 JUMP JUMPDEST DUP1 PUSH1 0x1F ADD PUSH1 0x20 DUP1 SWAP2 DIV MUL PUSH1 0x20 ADD PUSH1 0x40 MLOAD SWAP1 DUP2 ADD PUSH1 0x40 MSTORE DUP1 SWAP3 SWAP2 SWAP1 DUP2 DUP2 MSTORE PUSH1 0x20 ADD DUP3 DUP1 SLOAD PUSH2 0x173D SWAP1 PUSH2 0x2E73 JUMP JUMPDEST DUP1 ISZERO PUSH2 0x1788 JUMPI DUP1 PUSH1 0x1F LT PUSH2 0x175F JUMPI PUSH2 0x100 DUP1 DUP4 SLOAD DIV MUL DUP4 MSTORE SWAP2 PUSH1 0x20 ADD SWAP2 PUSH2 0x1788 JUMP JUMPDEST DUP3 ADD SWAP2 SWAP1 PUSH0 MSTORE PUSH1 0x20 PUSH0 KECCAK256 SWAP1 JUMPDEST DUP2 SLOAD DUP2 MSTORE SWAP1 PUSH1 0x1 ADD SWAP1 PUSH1 0x20 ADD DUP1 DUP4 GT PUSH2 0x176B JUMPI DUP3 SWAP1 SUB PUSH1 0x1F AND DUP3 ADD SWAP2 JUMPDEST POP POP POP POP POP SWAP2 POP PUSH1 0x13 PUSH1 0x14 SWAP1 DUP2 PUSH2 0x179F SWAP2 SWAP1 PUSH2 0x342F JUMP JUMPDEST POP DUP2 PUSH1 0x13 SWAP1 DUP2 PUSH2 0x17AF SWAP2 SWAP1 PUSH2 0x3514 JUMP JUMPDEST POP DUP2 PUSH1 0x11 SWAP1 DUP2 PUSH2 0x17BF SWAP2 SWAP1 PUSH2 0x3514 JUMP JUMPDEST POP TIMESTAMP PUSH1 0x16 DUP2 SWAP1 SSTORE POP PUSH1 0x17 PUSH0 DUP2 SLOAD DUP1 SWAP3 SWAP2 SWAP1 PUSH2 0x17D9 SWAP1 PUSH2 0x3224 JUMP JUMPDEST SWAP2 SWAP1 POP SSTORE POP PUSH32 0x3E08F083FDFB388408F2E3E939786E333D1AE2992F2F4ABD0AC86F2F5B40FC93 PUSH1 0x11 PUSH1 0x40 MLOAD PUSH2 0x180E SWAP2 SWAP1 PUSH2 0x3664 JUMP JUMPDEST PUSH1 0x40 MLOAD DUP1 SWAP2 SUB SWAP1 LOG1 POP POP POP POP JUMP JUMPDEST PUSH0 DUP1 PUSH2 0x1827 DUP5 PUSH2 0x1F6C JUMP JUMPDEST SWAP1 POP PUSH0 PUSH20 0xFFFFFFFFFFFFFFFFFFFFFFFFFFFFFFFFFFFFFFFF AND DUP4 PUSH20 0xFFFFFFFFFFFFFFFFFFFFFFFFFFFFFFFFFFFFFFFF AND EQ PUSH2 0x1868 JUMPI PUSH2 0x1867 DUP2 DUP5 DUP7 PUSH2 0x21BC JUMP JUMPDEST JUMPDEST PUSH0 PUSH20 0xFFFFFFFFFFFFFFFFFFFFFFFFFFFFFFFFFFFFFFFF AND DUP2 PUSH20 0xFFFFFFFFFFFFFFFFFFFFFFFFFFFFFFFFFFFFFFFF AND EQ PUSH2 0x18F3 JUMPI PUSH2 0x18A7 PUSH0 DUP6 PUSH0 DUP1 PUSH2 0x1FA5 JUMP JUMPDEST PUSH1 0x1 PUSH1 0x3 PUSH0 DUP4 PUSH20 0xFFFFFFFFFFFFFFFFFFFFFFFFFFFFFFFFFFFFFFFF AND PUSH20 0xFFFFFFFFFFFFFFFFFFFFFFFFFFFFFFFFFFFFFFFF AND DUP2 MSTORE PUSH1 0x20 ADD SWAP1 DUP2 MSTORE PUSH1 0x20 ADD PUSH0 KECCAK256 PUSH0 DUP3 DUP3 SLOAD SUB SWAP3 POP POP DUP2 SWAP1 SSTORE POP JUMPDEST PUSH0 PUSH20 0xFFFFFFFFFFFFFFFFFFFFFFFFFFFFFFFFFFFFFFFF AND DUP6 PUSH20 0xFFFFFFFFFFFFFFFFFFFFFFFFFFFFFFFFFFFFFFFF AND EQ PUSH2 0x1972 JUMPI PUSH1 0x1 PUSH1 0x3 PUSH0 DUP8 PUSH20 0xFFFFFFFFFFFFFFFFFFFFFFFFFFFFFFFFFFFFFFFF AND PUSH20 0xFFFFFFFFFFFFFFFFFFFFFFFFFFFFFFFFFFFFFFFF AND DUP2 MSTORE PUSH1 0x20 ADD SWAP1 DUP2 MSTORE PUSH1 0x20 ADD PUSH0 KECCAK256 PUSH0 DUP3 DUP3 SLOAD ADD SWAP3 POP POP DUP2 SWAP1 SSTORE POP JUMPDEST DUP5 PUSH1 0x2 PUSH0 DUP7 DUP2 MSTORE PUSH1 0x20 ADD SWAP1 DUP2 MSTORE PUSH1 0x20 ADD PUSH0 KECCAK256 PUSH0 PUSH2 0x100 EXP DUP2 SLOAD DUP2 PUSH20 0xFFFFFFFFFFFFFFFFFFFFFFFFFFFFFFFFFFFFFFFF MUL NOT AND SWAP1 DUP4 PUSH20 0xFFFFFFFFFFFFFFFFFFFFFFFFFFFFFFFFFFFFFFFF AND MUL OR SWAP1 SSTORE POP DUP4 DUP6 PUSH20 0xFFFFFFFFFFFFFFFFFFFFFFFFFFFFFFFFFFFFFFFF AND DUP3 PUSH20 0xFFFFFFFFFFFFFFFFFFFFFFFFFFFFFFFFFFFFFFFF AND PUSH32 0xDDF252AD1BE2C89B69C2B068FC378DAA952BA7F163C4A11628F55A4DF523B3EF PUSH1 0x40 MLOAD PUSH1 0x40 MLOAD DUP1 SWAP2 SUB SWAP1 LOG4 DUP1 SWAP2 POP POP SWAP4 SWAP3 POP POP POP JUMP JUMPDEST PUSH2 0x1A2F PUSH2 0x1312 JUMP JUMPDEST PUSH20 0xFFFFFFFFFFFFFFFFFFFFFFFFFFFFFFFFFFFFFFFF AND PUSH2 0x1A4D PUSH2 0xECC JUMP JUMPDEST PUSH20 0xFFFFFFFFFFFFFFFFFFFFFFFFFFFFFFFFFFFFFFFF AND EQ PUSH2 0x1AAC JUMPI PUSH2 0x1A70 PUSH2 0x1312 JUMP JUMPDEST PUSH1 0x40 MLOAD PUSH32 0x118CDAA700000000000000000000000000000000000000000000000000000000 DUP2 MSTORE PUSH1 0x4 ADD PUSH2 0x1AA3 SWAP2 SWAP1 PUSH2 0x265A JUMP JUMPDEST PUSH1 0x40 MLOAD DUP1 SWAP2 SUB SWAP1 REVERT JUMPDEST JUMP JUMPDEST PUSH0 PUSH1 0x6 PUSH0 SWAP1 SLOAD SWAP1 PUSH2 0x100 EXP SWAP1 DIV PUSH20 0xFFFFFFFFFFFFFFFFFFFFFFFFFFFFFFFFFFFFFFFF AND SWAP1 POP DUP2 PUSH1 0x6 PUSH0 PUSH2 0x100 EXP DUP2 SLOAD DUP2 PUSH20 0xFFFFFFFFFFFFFFFFFFFFFFFFFFFFFFFFFFFFFFFF MUL NOT AND SWAP1 DUP4 PUSH20 0xFFFFFFFFFFFFFFFFFFFFFFFFFFFFFFFFFFFFFFFF AND MUL OR SWAP1 SSTORE POP DUP2 PUSH20 0xFFFFFFFFFFFFFFFFFFFFFFFFFFFFFFFFFFFFFFFF AND DUP2 PUSH20 0xFFFFFFFFFFFFFFFFFFFFFFFFFFFFFFFFFFFFFFFF AND PUSH32 0x8BE0079C531659141344CD1FD0A4F28419497F9722A3DAAFE3B4186F6B6457E0 PUSH1 0x40 MLOAD PUSH1 0x40 MLOAD DUP1 SWAP2 SUB SWAP1 LOG3 POP POP JUMP JUMPDEST PUSH0 PUSH20 0xFFFFFFFFFFFFFFFFFFFFFFFFFFFFFFFFFFFFFFFF AND DUP3 PUSH20 0xFFFFFFFFFFFFFFFFFFFFFFFFFFFFFFFFFFFFFFFF AND SUB PUSH2 0x1BE1 JUMPI DUP2 PUSH1 0x40 MLOAD PUSH32 0x5B08BA1800000000000000000000000000000000000000000000000000000000 DUP2 MSTORE PUSH1 0x4 ADD PUSH2 0x1BD8 SWAP2 SWAP1 PUSH2 0x265A JUMP JUMPDEST PUSH1 0x40 MLOAD DUP1 SWAP2 SUB SWAP1 REVERT JUMPDEST DUP1 PUSH1 0x5 PUSH0 DUP6 PUSH20 0xFFFFFFFFFFFFFFFFFFFFFFFFFFFFFFFFFFFFFFFF AND PUSH20 0xFFFFFFFFFFFFFFFFFFFFFFFFFFFFFFFFFFFFFFFF AND DUP2 MSTORE PUSH1 0x20 ADD SWAP1 DUP2 MSTORE PUSH1 0x20 ADD PUSH0 KECCAK256 PUSH0 DUP5 PUSH20 0xFFFFFFFFFFFFFFFFFFFFFFFFFFFFFFFFFFFFFFFF AND PUSH20 0xFFFFFFFFFFFFFFFFFFFFFFFFFFFFFFFFFFFFFFFF AND DUP2 MSTORE PUSH1 0x20 ADD SWAP1 DUP2 MSTORE PUSH1 0x20 ADD PUSH0 KECCAK256 PUSH0 PUSH2 0x100 EXP DUP2 SLOAD DUP2 PUSH1 0xFF MUL NOT AND SWAP1 DUP4 ISZERO ISZERO MUL OR SWAP1 SSTORE POP DUP2 PUSH20 0xFFFFFFFFFFFFFFFFFFFFFFFFFFFFFFFFFFFFFFFF AND DUP4 PUSH20 0xFFFFFFFFFFFFFFFFFFFFFFFFFFFFFFFFFFFFFFFF AND PUSH32 0x17307EAB39AB6107E8899845AD3D59BD9653F200F220920489CA2B5937696C31 DUP4 PUSH1 0x40 MLOAD PUSH2 0x1CCD SWAP2 SWAP1 PUSH2 0x2602 JUMP JUMPDEST PUSH1 0x40 MLOAD DUP1 SWAP2 SUB SWAP1 LOG3 POP POP POP JUMP JUMPDEST PUSH0 DUP4 PUSH20 0xFFFFFFFFFFFFFFFFFFFFFFFFFFFFFFFFFFFFFFFF AND EXTCODESIZE GT ISZERO PUSH2 0x1E86 JUMPI DUP3 PUSH20 0xFFFFFFFFFFFFFFFFFFFFFFFFFFFFFFFFFFFFFFFF AND PUSH4 0x150B7A02 PUSH2 0x1D1D PUSH2 0x1312 JUMP JUMPDEST DUP7 DUP6 DUP6 PUSH1 0x40 MLOAD DUP6 PUSH4 0xFFFFFFFF AND PUSH1 0xE0 SHL DUP2 MSTORE PUSH1 0x4 ADD PUSH2 0x1D3F SWAP5 SWAP4 SWAP3 SWAP2 SWAP1 PUSH2 0x36D6 JUMP JUMPDEST PUSH1 0x20 PUSH1 0x40 MLOAD DUP1 DUP4 SUB DUP2 PUSH0 DUP8 GAS CALL SWAP3 POP POP POP DUP1 ISZERO PUSH2 0x1D7A JUMPI POP PUSH1 0x40 MLOAD RETURNDATASIZE PUSH1 0x1F NOT PUSH1 0x1F DUP3 ADD AND DUP3 ADD DUP1 PUSH1 0x40 MSTORE POP DUP2 ADD SWAP1 PUSH2 0x1D77 SWAP2 SWAP1 PUSH2 0x3734 JUMP JUMPDEST PUSH1 0x1 JUMPDEST PUSH2 0x1DFB JUMPI RETURNDATASIZE DUP1 PUSH0 DUP2 EQ PUSH2 0x1DA8 JUMPI PUSH1 0x40 MLOAD SWAP2 POP PUSH1 0x1F NOT PUSH1 0x3F RETURNDATASIZE ADD AND DUP3 ADD PUSH1 0x40 MSTORE RETURNDATASIZE DUP3 MSTORE RETURNDATASIZE PUSH0 PUSH1 0x20 DUP5 ADD RETURNDATACOPY PUSH2 0x1DAD JUMP JUMPDEST PUSH1 0x60 SWAP2 POP JUMPDEST POP PUSH0 DUP2 MLOAD SUB PUSH2 0x1DF3 JUMPI DUP4 PUSH1 0x40 MLOAD PUSH32 0x64A0AE9200000000000000000000000000000000000000000000000000000000 DUP2 MSTORE PUSH1 0x4 ADD PUSH2 0x1DEA SWAP2 SWAP1 PUSH2 0x265A JUMP JUMPDEST PUSH1 0x40 MLOAD DUP1 SWAP2 SUB SWAP1 REVERT JUMPDEST DUP1 MLOAD DUP2 PUSH1 0x20 ADD REVERT JUMPDEST PUSH4 0x150B7A02 PUSH1 0xE0 SHL PUSH28 0xFFFFFFFFFFFFFFFFFFFFFFFFFFFFFFFFFFFFFFFFFFFFFFFFFFFFFFFF NOT AND DUP2 PUSH28 0xFFFFFFFFFFFFFFFFFFFFFFFFFFFFFFFFFFFFFFFFFFFFFFFFFFFFFFFF NOT AND EQ PUSH2 0x1E84 JUMPI DUP4 PUSH1 0x40 MLOAD PUSH32 0x64A0AE9200000000000000000000000000000000000000000000000000000000 DUP2 MSTORE PUSH1 0x4 ADD PUSH2 0x1E7B SWAP2 SWAP1 PUSH2 0x265A JUMP JUMPDEST PUSH1 0x40 MLOAD DUP1 SWAP2 SUB SWAP1 REVERT JUMPDEST POP JUMPDEST POP POP POP POP JUMP JUMPDEST PUSH1 0x60 PUSH1 0x40 MLOAD DUP1 PUSH1 0x20 ADD PUSH1 0x40 MSTORE DUP1 PUSH0 DUP2 MSTORE POP SWAP1 POP SWAP1 JUMP JUMPDEST PUSH1 0x60 PUSH0 PUSH1 0x1 PUSH2 0x1EB0 DUP5 PUSH2 0x227F JUMP JUMPDEST ADD SWAP1 POP PUSH0 DUP2 PUSH8 0xFFFFFFFFFFFFFFFF DUP2 GT ISZERO PUSH2 0x1ECE JUMPI PUSH2 0x1ECD PUSH2 0x280F JUMP JUMPDEST JUMPDEST PUSH1 0x40 MLOAD SWAP1 DUP1 DUP3 MSTORE DUP1 PUSH1 0x1F ADD PUSH1 0x1F NOT AND PUSH1 0x20 ADD DUP3 ADD PUSH1 0x40 MSTORE DUP1 ISZERO PUSH2 0x1F00 JUMPI DUP2 PUSH1 0x20 ADD PUSH1 0x1 DUP3 MUL DUP1 CALLDATASIZE DUP4 CALLDATACOPY DUP1 DUP3 ADD SWAP2 POP POP SWAP1 POP JUMPDEST POP SWAP1 POP PUSH0 DUP3 PUSH1 0x20 ADD DUP3 ADD SWAP1 POP JUMPDEST PUSH1 0x1 ISZERO PUSH2 0x1F61 JUMPI DUP1 DUP1 PUSH1 0x1 SWAP1 SUB SWAP2 POP POP PUSH32 0x3031323334353637383961626364656600000000000000000000000000000000 PUSH1 0xA DUP7 MOD BYTE DUP2 MSTORE8 PUSH1 0xA DUP6 DUP2 PUSH2 0x1F56 JUMPI PUSH2 0x1F55 PUSH2 0x3194 JUMP JUMPDEST JUMPDEST DIV SWAP5 POP PUSH0 DUP6 SUB PUSH2 0x1F0D JUMPI JUMPDEST DUP2 SWAP4 POP POP POP POP SWAP2 SWAP1 POP JUMP JUMPDEST PUSH0 PUSH1 0x2 PUSH0 DUP4 DUP2 MSTORE PUSH1 0x20 ADD SWAP1 DUP2 MSTORE PUSH1 0x20 ADD PUSH0 KECCAK256 PUSH0 SWAP1 SLOAD SWAP1 PUSH2 0x100 EXP SWAP1 DIV PUSH20 0xFFFFFFFFFFFFFFFFFFFFFFFFFFFFFFFFFFFFFFFF AND SWAP1 POP SWAP2 SWAP1 POP JUMP JUMPDEST DUP1 DUP1 PUSH2 0x1FDD JUMPI POP PUSH0 PUSH20 0xFFFFFFFFFFFFFFFFFFFFFFFFFFFFFFFFFFFFFFFF AND DUP3 PUSH20 0xFFFFFFFFFFFFFFFFFFFFFFFFFFFFFFFFFFFFFFFF AND EQ ISZERO JUMPDEST ISZERO PUSH2 0x210F JUMPI PUSH0 PUSH2 0x1FEC DUP5 PUSH2 0x1253 JUMP JUMPDEST SWAP1 POP PUSH0 PUSH20 0xFFFFFFFFFFFFFFFFFFFFFFFFFFFFFFFFFFFFFFFF AND DUP4 PUSH20 0xFFFFFFFFFFFFFFFFFFFFFFFFFFFFFFFFFFFFFFFF AND EQ ISZERO DUP1 ISZERO PUSH2 0x2056 JUMPI POP DUP3 PUSH20 0xFFFFFFFFFFFFFFFFFFFFFFFFFFFFFFFFFFFFFFFF AND DUP2 PUSH20 0xFFFFFFFFFFFFFFFFFFFFFFFFFFFFFFFFFFFFFFFF AND EQ ISZERO JUMPDEST DUP1 ISZERO PUSH2 0x2069 JUMPI POP PUSH2 0x2067 DUP2 DUP5 PUSH2 0x10D8 JUMP JUMPDEST ISZERO JUMPDEST ISZERO PUSH2 0x20AB JUMPI DUP3 PUSH1 0x40 MLOAD PUSH32 0xA9FBF51F00000000000000000000000000000000000000000000000000000000 DUP2 MSTORE PUSH1 0x4 ADD PUSH2 0x20A2 SWAP2 SWAP1 PUSH2 0x265A JUMP JUMPDEST PUSH1 0x40 MLOAD DUP1 SWAP2 SUB SWAP1 REVERT JUMPDEST DUP2 ISZERO PUSH2 0x210D JUMPI DUP4 DUP6 PUSH20 0xFFFFFFFFFFFFFFFFFFFFFFFFFFFFFFFFFFFFFFFF AND DUP3 PUSH20 0xFFFFFFFFFFFFFFFFFFFFFFFFFFFFFFFFFFFFFFFF AND PUSH32 0x8C5BE1E5EBEC7D5BD14F71427D1E84F3DD0314C0F7B2291E5B200AC8C7C3B925 PUSH1 0x40 MLOAD PUSH1 0x40 MLOAD DUP1 SWAP2 SUB SWAP1 LOG4 JUMPDEST POP JUMPDEST DUP4 PUSH1 0x4 PUSH0 DUP6 DUP2 MSTORE PUSH1 0x20 ADD SWAP1 DUP2 MSTORE PUSH1 0x20 ADD PUSH0 KECCAK256 PUSH0 PUSH2 0x100 EXP DUP2 SLOAD DUP2 PUSH20 0xFFFFFFFFFFFFFFFFFFFFFFFFFFFFFFFFFFFFFFFF MUL NOT AND SWAP1 DUP4 PUSH20 0xFFFFFFFFFFFFFFFFFFFFFFFFFFFFFFFFFFFFFFFF AND MUL OR SWAP1 SSTORE POP POP POP POP POP JUMP JUMPDEST PUSH0 DUP2 PUSH1 0x40 MLOAD PUSH1 0x20 ADD PUSH2 0x2176 SWAP2 SWAP1 PUSH2 0x375F JUMP JUMPDEST PUSH1 0x40 MLOAD PUSH1 0x20 DUP2 DUP4 SUB SUB DUP2 MSTORE SWAP1 PUSH1 0x40 MSTORE DUP1 MLOAD SWAP1 PUSH1 0x20 ADD KECCAK256 DUP4 PUSH1 0x40 MLOAD PUSH1 0x20 ADD PUSH2 0x219D SWAP2 SWAP1 PUSH2 0x375F JUMP JUMPDEST PUSH1 0x40 MLOAD PUSH1 0x20 DUP2 DUP4 SUB SUB DUP2 MSTORE SWAP1 PUSH1 0x40 MSTORE DUP1 MLOAD SWAP1 PUSH1 0x20 ADD KECCAK256 EQ SWAP1 POP SWAP3 SWAP2 POP POP JUMP JUMPDEST PUSH2 0x21C7 DUP4 DUP4 DUP4 PUSH2 0x23D0 JUMP JUMPDEST PUSH2 0x227A JUMPI PUSH0 PUSH20 0xFFFFFFFFFFFFFFFFFFFFFFFFFFFFFFFFFFFFFFFF AND DUP4 PUSH20 0xFFFFFFFFFFFFFFFFFFFFFFFFFFFFFFFFFFFFFFFF AND SUB PUSH2 0x223B JUMPI DUP1 PUSH1 0x40 MLOAD PUSH32 0x7E27328900000000000000000000000000000000000000000000000000000000 DUP2 MSTORE PUSH1 0x4 ADD PUSH2 0x2232 SWAP2 SWAP1 PUSH2 0x27F2 JUMP JUMPDEST PUSH1 0x40 MLOAD DUP1 SWAP2 SUB SWAP1 REVERT JUMPDEST DUP2 DUP2 PUSH1 0x40 MLOAD PUSH32 0x177E802F00000000000000000000000000000000000000000000000000000000 DUP2 MSTORE PUSH1 0x4 ADD PUSH2 0x2271 SWAP3 SWAP2 SWAP1 PUSH2 0x3775 JUMP JUMPDEST PUSH1 0x40 MLOAD DUP1 SWAP2 SUB SWAP1 REVERT JUMPDEST POP POP POP JUMP JUMPDEST PUSH0 DUP1 PUSH0 SWAP1 POP PUSH27 0x184F03E93FF9F4DAA797ED6E38ED64BF6A1F010000000000000000 DUP4 LT PUSH2 0x22DB JUMPI PUSH27 0x184F03E93FF9F4DAA797ED6E38ED64BF6A1F010000000000000000 DUP4 DUP2 PUSH2 0x22D1 JUMPI PUSH2 0x22D0 PUSH2 0x3194 JUMP JUMPDEST JUMPDEST DIV SWAP3 POP PUSH1 0x40 DUP2 ADD SWAP1 POP JUMPDEST PUSH14 0x4EE2D6D415B85ACEF8100000000 DUP4 LT PUSH2 0x2318 JUMPI PUSH14 0x4EE2D6D415B85ACEF8100000000 DUP4 DUP2 PUSH2 0x230E JUMPI PUSH2 0x230D PUSH2 0x3194 JUMP JUMPDEST JUMPDEST DIV SWAP3 POP PUSH1 0x20 DUP2 ADD SWAP1 POP JUMPDEST PUSH7 0x2386F26FC10000 DUP4 LT PUSH2 0x2347 JUMPI PUSH7 0x2386F26FC10000 DUP4 DUP2 PUSH2 0x233D JUMPI PUSH2 0x233C PUSH2 0x3194 JUMP JUMPDEST JUMPDEST DIV SWAP3 POP PUSH1 0x10 DUP2 ADD SWAP1 POP JUMPDEST PUSH4 0x5F5E100 DUP4 LT PUSH2 0x2370 JUMPI PUSH4 0x5F5E100 DUP4 DUP2 PUSH2 0x2366 JUMPI PUSH2 0x2365 PUSH2 0x3194 JUMP JUMPDEST JUMPDEST DIV SWAP3 POP PUSH1 0x8 DUP2 ADD SWAP1 POP JUMPDEST PUSH2 0x2710 DUP4 LT PUSH2 0x2395 JUMPI PUSH2 0x2710 DUP4 DUP2 PUSH2 0x238B JUMPI PUSH2 0x238A PUSH2 0x3194 JUMP JUMPDEST JUMPDEST DIV SWAP3 POP PUSH1 0x4 DUP2 ADD SWAP1 POP JUMPDEST PUSH1 0x64 DUP4 LT PUSH2 0x23B8 JUMPI PUSH1 0x64 DUP4 DUP2 PUSH2 0x23AE JUMPI PUSH2 0x23AD PUSH2 0x3194 JUMP JUMPDEST JUMPDEST DIV SWAP3 POP PUSH1 0x2 DUP2 ADD SWAP1 POP JUMPDEST PUSH1 0xA DUP4 LT PUSH2 0x23C7 JUMPI PUSH1 0x1 DUP2 ADD SWAP1 POP JUMPDEST DUP1 SWAP2 POP POP SWAP2 SWAP1 POP JUMP JUMPDEST PUSH0 DUP1 PUSH20 0xFFFFFFFFFFFFFFFFFFFFFFFFFFFFFFFFFFFFFFFF AND DUP4 PUSH20 0xFFFFFFFFFFFFFFFFFFFFFFFFFFFFFFFFFFFFFFFF AND EQ ISZERO DUP1 ISZERO PUSH2 0x2487 JUMPI POP DUP3 PUSH20 0xFFFFFFFFFFFFFFFFFFFFFFFFFFFFFFFFFFFFFFFF AND DUP5 PUSH20 0xFFFFFFFFFFFFFFFFFFFFFFFFFFFFFFFFFFFFFFFF AND EQ DUP1 PUSH2 0x2448 JUMPI POP PUSH2 0x2447 DUP5 DUP5 PUSH2 0x10D8 JUMP JUMPDEST JUMPDEST DUP1 PUSH2 0x2486 JUMPI POP DUP3 PUSH20 0xFFFFFFFFFFFFFFFFFFFFFFFFFFFFFFFFFFFFFFFF AND PUSH2 0x246E DUP4 PUSH2 0x12D9 JUMP JUMPDEST PUSH20 0xFFFFFFFFFFFFFFFFFFFFFFFFFFFFFFFFFFFFFFFF AND EQ JUMPDEST JUMPDEST SWAP1 POP SWAP4 SWAP3 POP POP POP JUMP JUMPDEST DUP3 PUSH1 0xA DUP2 ADD SWAP3 DUP3 ISZERO PUSH2 0x24CB JUMPI SWAP2 PUSH1 0x20 MUL DUP3 ADD JUMPDEST DUP3 DUP2 GT ISZERO PUSH2 0x24CA JUMPI DUP3 MLOAD DUP3 SWAP1 DUP2 PUSH2 0x24BA SWAP2 SWAP1 PUSH2 0x3514 JUMP JUMPDEST POP SWAP2 PUSH1 0x20 ADD SWAP2 SWAP1 PUSH1 0x1 ADD SWAP1 PUSH2 0x24A3 JUMP JUMPDEST JUMPDEST POP SWAP1 POP PUSH2 0x24D8 SWAP2 SWAP1 PUSH2 0x24DC JUMP JUMPDEST POP SWAP1 JUMP JUMPDEST JUMPDEST DUP1 DUP3 GT ISZERO PUSH2 0x24FB JUMPI PUSH0 DUP2 DUP2 PUSH2 0x24F2 SWAP2 SWAP1 PUSH2 0x24FF JUMP JUMPDEST POP PUSH1 0x1 ADD PUSH2 0x24DD JUMP JUMPDEST POP SWAP1 JUMP JUMPDEST POP DUP1 SLOAD PUSH2 0x250B SWAP1 PUSH2 0x2E73 JUMP JUMPDEST PUSH0 DUP3 SSTORE DUP1 PUSH1 0x1F LT PUSH2 0x251C JUMPI POP PUSH2 0x2539 JUMP JUMPDEST PUSH1 0x1F ADD PUSH1 0x20 SWAP1 DIV SWAP1 PUSH0 MSTORE PUSH1 0x20 PUSH0 KECCAK256 SWAP1 DUP2 ADD SWAP1 PUSH2 0x2538 SWAP2 SWAP1 PUSH2 0x253C JUMP JUMPDEST JUMPDEST POP JUMP JUMPDEST JUMPDEST DUP1 DUP3 GT ISZERO PUSH2 0x2553 JUMPI PUSH0 DUP2 PUSH0 SWAP1 SSTORE POP PUSH1 0x1 ADD PUSH2 0x253D JUMP JUMPDEST POP SWAP1 JUMP JUMPDEST PUSH0 PUSH1 0x40 MLOAD SWAP1 POP SWAP1 JUMP JUMPDEST PUSH0 DUP1 REVERT JUMPDEST PUSH0 DUP1 REVERT JUMPDEST PUSH0 PUSH32 0xFFFFFFFF00000000000000000000000000000000000000000000000000000000 DUP3 AND SWAP1 POP SWAP2 SWAP1 POP JUMP JUMPDEST PUSH2 0x259C DUP2 PUSH2 0x2568 JUMP JUMPDEST DUP2 EQ PUSH2 0x25A6 JUMPI PUSH0 DUP1 REVERT JUMPDEST POP JUMP JUMPDEST PUSH0 DUP2 CALLDATALOAD SWAP1 POP PUSH2 0x25B7 DUP2 PUSH2 0x2593 JUMP JUMPDEST SWAP3 SWAP2 POP POP JUMP JUMPDEST PUSH0 PUSH1 0x20 DUP3 DUP5 SUB SLT ISZERO PUSH2 0x25D2 JUMPI PUSH2 0x25D1 PUSH2 0x2560 JUMP JUMPDEST JUMPDEST PUSH0 PUSH2 0x25DF DUP5 DUP3 DUP6 ADD PUSH2 0x25A9 JUMP JUMPDEST SWAP2 POP POP SWAP3 SWAP2 POP POP JUMP JUMPDEST PUSH0 DUP2 ISZERO ISZERO SWAP1 POP SWAP2 SWAP1 POP JUMP JUMPDEST PUSH2 0x25FC DUP2 PUSH2 0x25E8 JUMP JUMPDEST DUP3 MSTORE POP POP JUMP JUMPDEST PUSH0 PUSH1 0x20 DUP3 ADD SWAP1 POP PUSH2 0x2615 PUSH0 DUP4 ADD DUP5 PUSH2 0x25F3 JUMP JUMPDEST SWAP3 SWAP2 POP POP JUMP JUMPDEST PUSH0 PUSH20 0xFFFFFFFFFFFFFFFFFFFFFFFFFFFFFFFFFFFFFFFF DUP3 AND SWAP1 POP SWAP2 SWAP1 POP JUMP JUMPDEST PUSH0 PUSH2 0x2644 DUP3 PUSH2 0x261B JUMP JUMPDEST SWAP1 POP SWAP2 SWAP1 POP JUMP JUMPDEST PUSH2 0x2654 DUP2 PUSH2 0x263A JUMP JUMPDEST DUP3 MSTORE POP POP JUMP JUMPDEST PUSH0 PUSH1 0x20 DUP3 ADD SWAP1 POP PUSH2 0x266D PUSH0 DUP4 ADD DUP5 PUSH2 0x264B JUMP JUMPDEST SWAP3 SWAP2 POP POP JUMP JUMPDEST PUSH0 DUP2 MLOAD SWAP1 POP SWAP2 SWAP1 POP JUMP JUMPDEST PUSH0 DUP3 DUP3 MSTORE PUSH1 0x20 DUP3 ADD SWAP1 POP SWAP3 SWAP2 POP POP JUMP JUMPDEST PUSH0 JUMPDEST DUP4 DUP2 LT ISZERO PUSH2 0x26AA JUMPI DUP1 DUP3 ADD MLOAD DUP2 DUP5 ADD MSTORE PUSH1 0x20 DUP2 ADD SWAP1 POP PUSH2 0x268F JUMP JUMPDEST PUSH0 DUP5 DUP5 ADD MSTORE POP POP POP POP JUMP JUMPDEST PUSH0 PUSH1 0x1F NOT PUSH1 0x1F DUP4 ADD AND SWAP1 POP SWAP2 SWAP1 POP JUMP JUMPDEST PUSH0 PUSH2 0x26CF DUP3 PUSH2 0x2673 JUMP JUMPDEST PUSH2 0x26D9 DUP2 DUP6 PUSH2 0x267D JUMP JUMPDEST SWAP4 POP PUSH2 0x26E9 DUP2 DUP6 PUSH1 0x20 DUP7 ADD PUSH2 0x268D JUMP JUMPDEST PUSH2 0x26F2 DUP2 PUSH2 0x26B5 JUMP JUMPDEST DUP5 ADD SWAP2 POP POP SWAP3 SWAP2 POP POP JUMP JUMPDEST PUSH0 PUSH1 0x20 DUP3 ADD SWAP1 POP DUP2 DUP2 SUB PUSH0 DUP4 ADD MSTORE PUSH2 0x2715 DUP2 DUP5 PUSH2 0x26C5 JUMP JUMPDEST SWAP1 POP SWAP3 SWAP2 POP POP JUMP JUMPDEST PUSH0 DUP2 SWAP1 POP SWAP2 SWAP1 POP JUMP JUMPDEST PUSH2 0x272F DUP2 PUSH2 0x271D JUMP JUMPDEST DUP2 EQ PUSH2 0x2739 JUMPI PUSH0 DUP1 REVERT JUMPDEST POP JUMP JUMPDEST PUSH0 DUP2 CALLDATALOAD SWAP1 POP PUSH2 0x274A DUP2 PUSH2 0x2726 JUMP JUMPDEST SWAP3 SWAP2 POP POP JUMP JUMPDEST PUSH0 PUSH1 0x20 DUP3 DUP5 SUB SLT ISZERO PUSH2 0x2765 JUMPI PUSH2 0x2764 PUSH2 0x2560 JUMP JUMPDEST JUMPDEST PUSH0 PUSH2 0x2772 DUP5 DUP3 DUP6 ADD PUSH2 0x273C JUMP JUMPDEST SWAP2 POP POP SWAP3 SWAP2 POP POP JUMP JUMPDEST PUSH2 0x2784 DUP2 PUSH2 0x263A JUMP JUMPDEST DUP2 EQ PUSH2 0x278E JUMPI PUSH0 DUP1 REVERT JUMPDEST POP JUMP JUMPDEST PUSH0 DUP2 CALLDATALOAD SWAP1 POP PUSH2 0x279F DUP2 PUSH2 0x277B JUMP JUMPDEST SWAP3 SWAP2 POP POP JUMP JUMPDEST PUSH0 DUP1 PUSH1 0x40 DUP4 DUP6 SUB SLT ISZERO PUSH2 0x27BB JUMPI PUSH2 0x27BA PUSH2 0x2560 JUMP JUMPDEST JUMPDEST PUSH0 PUSH2 0x27C8 DUP6 DUP3 DUP7 ADD PUSH2 0x2791 JUMP JUMPDEST SWAP3 POP POP PUSH1 0x20 PUSH2 0x27D9 DUP6 DUP3 DUP7 ADD PUSH2 0x273C JUMP JUMPDEST SWAP2 POP POP SWAP3 POP SWAP3 SWAP1 POP JUMP JUMPDEST PUSH2 0x27EC DUP2 PUSH2 0x271D JUMP JUMPDEST DUP3 MSTORE POP POP JUMP JUMPDEST PUSH0 PUSH1 0x20 DUP3 ADD SWAP1 POP PUSH2 0x2805 PUSH0 DUP4 ADD DUP5 PUSH2 0x27E3 JUMP JUMPDEST SWAP3 SWAP2 POP POP JUMP JUMPDEST PUSH0 DUP1 REVERT JUMPDEST PUSH32 0x4E487B7100000000000000000000000000000000000000000000000000000000 PUSH0 MSTORE PUSH1 0x41 PUSH1 0x4 MSTORE PUSH1 0x24 PUSH0 REVERT JUMPDEST PUSH2 0x2845 DUP3 PUSH2 0x26B5 JUMP JUMPDEST DUP2 ADD DUP2 DUP2 LT PUSH8 0xFFFFFFFFFFFFFFFF DUP3 GT OR ISZERO PUSH2 0x2864 JUMPI PUSH2 0x2863 PUSH2 0x280F JUMP JUMPDEST JUMPDEST DUP1 PUSH1 0x40 MSTORE POP POP POP JUMP JUMPDEST PUSH0 PUSH2 0x2876 PUSH2 0x2557 JUMP JUMPDEST SWAP1 POP PUSH2 0x2882 DUP3 DUP3 PUSH2 0x283C JUMP JUMPDEST SWAP2 SWAP1 POP JUMP JUMPDEST PUSH0 PUSH8 0xFFFFFFFFFFFFFFFF DUP3 GT ISZERO PUSH2 0x28A1 JUMPI PUSH2 0x28A0 PUSH2 0x280F JUMP JUMPDEST JUMPDEST PUSH1 0x20 DUP3 MUL SWAP1 POP PUSH1 0x20 DUP2 ADD SWAP1 POP SWAP2 SWAP1 POP JUMP JUMPDEST PUSH0 DUP1 REVERT JUMPDEST PUSH0 PUSH2 0x28C8 PUSH2 0x28C3 DUP5 PUSH2 0x2887 JUMP JUMPDEST PUSH2 0x286D JUMP JUMPDEST SWAP1 POP DUP1 DUP4 DUP3 MSTORE PUSH1 0x20 DUP3 ADD SWAP1 POP PUSH1 0x20 DUP5 MUL DUP4 ADD DUP6 DUP2 GT ISZERO PUSH2 0x28EB JUMPI PUSH2 0x28EA PUSH2 0x28B2 JUMP JUMPDEST JUMPDEST DUP4 JUMPDEST DUP2 DUP2 LT ISZERO PUSH2 0x2914 JUMPI DUP1 PUSH2 0x2900 DUP9 DUP3 PUSH2 0x273C JUMP JUMPDEST DUP5 MSTORE PUSH1 0x20 DUP5 ADD SWAP4 POP POP PUSH1 0x20 DUP2 ADD SWAP1 POP PUSH2 0x28ED JUMP JUMPDEST POP POP POP SWAP4 SWAP3 POP POP POP JUMP JUMPDEST PUSH0 DUP3 PUSH1 0x1F DUP4 ADD SLT PUSH2 0x2932 JUMPI PUSH2 0x2931 PUSH2 0x280B JUMP JUMPDEST JUMPDEST DUP2 CALLDATALOAD PUSH2 0x2942 DUP5 DUP3 PUSH1 0x20 DUP7 ADD PUSH2 0x28B6 JUMP JUMPDEST SWAP2 POP POP SWAP3 SWAP2 POP POP JUMP JUMPDEST PUSH0 DUP1 PUSH1 0x40 DUP4 DUP6 SUB SLT ISZERO PUSH2 0x2961 JUMPI PUSH2 0x2960 PUSH2 0x2560 JUMP JUMPDEST JUMPDEST PUSH0 PUSH2 0x296E DUP6 DUP3 DUP7 ADD PUSH2 0x273C JUMP JUMPDEST SWAP3 POP POP PUSH1 0x20 DUP4 ADD CALLDATALOAD PUSH8 0xFFFFFFFFFFFFFFFF DUP2 GT ISZERO PUSH2 0x298F JUMPI PUSH2 0x298E PUSH2 0x2564 JUMP JUMPDEST JUMPDEST PUSH2 0x299B DUP6 DUP3 DUP7 ADD PUSH2 0x291E JUMP JUMPDEST SWAP2 POP POP SWAP3 POP SWAP3 SWAP1 POP JUMP JUMPDEST PUSH0 DUP1 PUSH0 PUSH1 0x60 DUP5 DUP7 SUB SLT ISZERO PUSH2 0x29BC JUMPI PUSH2 0x29BB PUSH2 0x2560 JUMP JUMPDEST JUMPDEST PUSH0 PUSH2 0x29C9 DUP7 DUP3 DUP8 ADD PUSH2 0x2791 JUMP JUMPDEST SWAP4 POP POP PUSH1 0x20 PUSH2 0x29DA DUP7 DUP3 DUP8 ADD PUSH2 0x2791 JUMP JUMPDEST SWAP3 POP POP PUSH1 0x40 PUSH2 0x29EB DUP7 DUP3 DUP8 ADD PUSH2 0x273C JUMP JUMPDEST SWAP2 POP POP SWAP3 POP SWAP3 POP SWAP3 JUMP JUMPDEST PUSH0 DUP1 PUSH1 0x40 DUP4 DUP6 SUB SLT ISZERO PUSH2 0x2A0B JUMPI PUSH2 0x2A0A PUSH2 0x2560 JUMP JUMPDEST JUMPDEST PUSH0 PUSH2 0x2A18 DUP6 DUP3 DUP7 ADD PUSH2 0x273C JUMP JUMPDEST SWAP3 POP POP PUSH1 0x20 PUSH2 0x2A29 DUP6 DUP3 DUP7 ADD PUSH2 0x273C JUMP JUMPDEST SWAP2 POP POP SWAP3 POP SWAP3 SWAP1 POP JUMP JUMPDEST PUSH0 PUSH1 0xFF DUP3 AND SWAP1 POP SWAP2 SWAP1 POP JUMP JUMPDEST PUSH2 0x2A48 DUP2 PUSH2 0x2A33 JUMP JUMPDEST DUP2 EQ PUSH2 0x2A52 JUMPI PUSH0 DUP1 REVERT JUMPDEST POP JUMP JUMPDEST PUSH0 DUP2 CALLDATALOAD SWAP1 POP PUSH2 0x2A63 DUP2 PUSH2 0x2A3F JUMP JUMPDEST SWAP3 SWAP2 POP POP JUMP JUMPDEST PUSH0 PUSH1 0x20 DUP3 DUP5 SUB SLT ISZERO PUSH2 0x2A7E JUMPI PUSH2 0x2A7D PUSH2 0x2560 JUMP JUMPDEST JUMPDEST PUSH0 PUSH2 0x2A8B DUP5 DUP3 DUP6 ADD PUSH2 0x2A55 JUMP JUMPDEST SWAP2 POP POP SWAP3 SWAP2 POP POP JUMP JUMPDEST PUSH0 PUSH1 0x20 DUP3 DUP5 SUB SLT ISZERO PUSH2 0x2AA9 JUMPI PUSH2 0x2AA8 PUSH2 0x2560 JUMP JUMPDEST JUMPDEST PUSH0 PUSH2 0x2AB6 DUP5 DUP3 DUP6 ADD PUSH2 0x2791 JUMP JUMPDEST SWAP2 POP POP SWAP3 SWAP2 POP POP JUMP JUMPDEST PUSH2 0x2AC8 DUP2 PUSH2 0x25E8 JUMP JUMPDEST DUP2 EQ PUSH2 0x2AD2 JUMPI PUSH0 DUP1 REVERT JUMPDEST POP JUMP JUMPDEST PUSH0 DUP2 CALLDATALOAD SWAP1 POP PUSH2 0x2AE3 DUP2 PUSH2 0x2ABF JUMP JUMPDEST SWAP3 SWAP2 POP POP JUMP JUMPDEST PUSH0 DUP1 PUSH1 0x40 DUP4 DUP6 SUB SLT ISZERO PUSH2 0x2AFF JUMPI PUSH2 0x2AFE PUSH2 0x2560 JUMP JUMPDEST JUMPDEST PUSH0 PUSH2 0x2B0C DUP6 DUP3 DUP7 ADD PUSH2 0x2791 JUMP JUMPDEST SWAP3 POP POP PUSH1 0x20 PUSH2 0x2B1D DUP6 DUP3 DUP7 ADD PUSH2 0x2AD5 JUMP JUMPDEST SWAP2 POP POP SWAP3 POP SWAP3 SWAP1 POP JUMP JUMPDEST PUSH0 DUP1 REVERT JUMPDEST PUSH0 PUSH8 0xFFFFFFFFFFFFFFFF DUP3 GT ISZERO PUSH2 0x2B45 JUMPI PUSH2 0x2B44 PUSH2 0x280F JUMP JUMPDEST JUMPDEST PUSH2 0x2B4E DUP3 PUSH2 0x26B5 JUMP JUMPDEST SWAP1 POP PUSH1 0x20 DUP2 ADD SWAP1 POP SWAP2 SWAP1 POP JUMP JUMPDEST DUP3 DUP2 DUP4 CALLDATACOPY PUSH0 DUP4 DUP4 ADD MSTORE POP POP POP JUMP JUMPDEST PUSH0 PUSH2 0x2B7B PUSH2 0x2B76 DUP5 PUSH2 0x2B2B JUMP JUMPDEST PUSH2 0x286D JUMP JUMPDEST SWAP1 POP DUP3 DUP2 MSTORE PUSH1 0x20 DUP2 ADD DUP5 DUP5 DUP5 ADD GT ISZERO PUSH2 0x2B97 JUMPI PUSH2 0x2B96 PUSH2 0x2B27 JUMP JUMPDEST JUMPDEST PUSH2 0x2BA2 DUP5 DUP3 DUP6 PUSH2 0x2B5B JUMP JUMPDEST POP SWAP4 SWAP3 POP POP POP JUMP JUMPDEST PUSH0 DUP3 PUSH1 0x1F DUP4 ADD SLT PUSH2 0x2BBE JUMPI PUSH2 0x2BBD PUSH2 0x280B JUMP JUMPDEST JUMPDEST DUP2 CALLDATALOAD PUSH2 0x2BCE DUP5 DUP3 PUSH1 0x20 DUP7 ADD PUSH2 0x2B69 JUMP JUMPDEST SWAP2 POP POP SWAP3 SWAP2 POP POP JUMP JUMPDEST PUSH0 DUP1 PUSH0 DUP1 PUSH1 0x80 DUP6 DUP8 SUB SLT ISZERO PUSH2 0x2BEF JUMPI PUSH2 0x2BEE PUSH2 0x2560 JUMP JUMPDEST JUMPDEST PUSH0 PUSH2 0x2BFC DUP8 DUP3 DUP9 ADD PUSH2 0x2791 JUMP JUMPDEST SWAP5 POP POP PUSH1 0x20 PUSH2 0x2C0D DUP8 DUP3 DUP9 ADD PUSH2 0x2791 JUMP JUMPDEST SWAP4 POP POP PUSH1 0x40 PUSH2 0x2C1E DUP8 DUP3 DUP9 ADD PUSH2 0x273C JUMP JUMPDEST SWAP3 POP POP PUSH1 0x60 DUP6 ADD CALLDATALOAD PUSH8 0xFFFFFFFFFFFFFFFF DUP2 GT ISZERO PUSH2 0x2C3F JUMPI PUSH2 0x2C3E PUSH2 0x2564 JUMP JUMPDEST JUMPDEST PUSH2 0x2C4B DUP8 DUP3 DUP9 ADD PUSH2 0x2BAA JUMP JUMPDEST SWAP2 POP POP SWAP3 SWAP6 SWAP2 SWAP5 POP SWAP3 POP JUMP JUMPDEST PUSH0 PUSH8 0xFFFFFFFFFFFFFFFF DUP3 GT ISZERO PUSH2 0x2C71 JUMPI PUSH2 0x2C70 PUSH2 0x280F JUMP JUMPDEST JUMPDEST PUSH1 0x20 DUP3 MUL SWAP1 POP SWAP2 SWAP1 POP JUMP JUMPDEST PUSH0 PUSH8 0xFFFFFFFFFFFFFFFF DUP3 GT ISZERO PUSH2 0x2C96 JUMPI PUSH2 0x2C95 PUSH2 0x280F JUMP JUMPDEST JUMPDEST PUSH2 0x2C9F DUP3 PUSH2 0x26B5 JUMP JUMPDEST SWAP1 POP PUSH1 0x20 DUP2 ADD SWAP1 POP SWAP2 SWAP1 POP JUMP JUMPDEST PUSH0 PUSH2 0x2CBE PUSH2 0x2CB9 DUP5 PUSH2 0x2C7C JUMP JUMPDEST PUSH2 0x286D JUMP JUMPDEST SWAP1 POP DUP3 DUP2 MSTORE PUSH1 0x20 DUP2 ADD DUP5 DUP5 DUP5 ADD GT ISZERO PUSH2 0x2CDA JUMPI PUSH2 0x2CD9 PUSH2 0x2B27 JUMP JUMPDEST JUMPDEST PUSH2 0x2CE5 DUP5 DUP3 DUP6 PUSH2 0x2B5B JUMP JUMPDEST POP SWAP4 SWAP3 POP POP POP JUMP JUMPDEST PUSH0 DUP3 PUSH1 0x1F DUP4 ADD SLT PUSH2 0x2D01 JUMPI PUSH2 0x2D00 PUSH2 0x280B JUMP JUMPDEST JUMPDEST DUP2 CALLDATALOAD PUSH2 0x2D11 DUP5 DUP3 PUSH1 0x20 DUP7 ADD PUSH2 0x2CAC JUMP JUMPDEST SWAP2 POP POP SWAP3 SWAP2 POP POP JUMP JUMPDEST PUSH0 PUSH2 0x2D2C PUSH2 0x2D27 DUP5 PUSH2 0x2C57 JUMP JUMPDEST PUSH2 0x286D JUMP JUMPDEST SWAP1 POP DUP1 PUSH1 0x20 DUP5 MUL DUP4 ADD DUP6 DUP2 GT ISZERO PUSH2 0x2D46 JUMPI PUSH2 0x2D45 PUSH2 0x28B2 JUMP JUMPDEST JUMPDEST DUP4 JUMPDEST DUP2 DUP2 LT ISZERO PUSH2 0x2D8D JUMPI DUP1 CALLDATALOAD PUSH8 0xFFFFFFFFFFFFFFFF DUP2 GT ISZERO PUSH2 0x2D6B JUMPI PUSH2 0x2D6A PUSH2 0x280B JUMP JUMPDEST JUMPDEST DUP1 DUP7 ADD PUSH2 0x2D78 DUP10 DUP3 PUSH2 0x2CED JUMP JUMPDEST DUP6 MSTORE PUSH1 0x20 DUP6 ADD SWAP5 POP POP POP PUSH1 0x20 DUP2 ADD SWAP1 POP PUSH2 0x2D48 JUMP JUMPDEST POP POP POP SWAP4 SWAP3 POP POP POP JUMP JUMPDEST PUSH0 DUP3 PUSH1 0x1F DUP4 ADD SLT PUSH2 0x2DAB JUMPI PUSH2 0x2DAA PUSH2 0x280B JUMP JUMPDEST JUMPDEST PUSH1 0xA PUSH2 0x2DB8 DUP5 DUP3 DUP6 PUSH2 0x2D1A JUMP JUMPDEST SWAP2 POP POP SWAP3 SWAP2 POP POP JUMP JUMPDEST PUSH0 PUSH1 0x20 DUP3 DUP5 SUB SLT ISZERO PUSH2 0x2DD6 JUMPI PUSH2 0x2DD5 PUSH2 0x2560 JUMP JUMPDEST JUMPDEST PUSH0 DUP3 ADD CALLDATALOAD PUSH8 0xFFFFFFFFFFFFFFFF DUP2 GT ISZERO PUSH2 0x2DF3 JUMPI PUSH2 0x2DF2 PUSH2 0x2564 JUMP JUMPDEST JUMPDEST PUSH2 0x2DFF DUP5 DUP3 DUP6 ADD PUSH2 0x2D97 JUMP JUMPDEST SWAP2 POP POP SWAP3 SWAP2 POP POP JUMP JUMPDEST PUSH0 DUP1 PUSH1 0x40 DUP4 DUP6 SUB SLT ISZERO PUSH2 0x2E1E JUMPI PUSH2 0x2E1D PUSH2 0x2560 JUMP JUMPDEST JUMPDEST PUSH0 PUSH2 0x2E2B DUP6 DUP3 DUP7 ADD PUSH2 0x2791 JUMP JUMPDEST SWAP3 POP POP PUSH1 0x20 PUSH2 0x2E3C DUP6 DUP3 DUP7 ADD PUSH2 0x2791 JUMP JUMPDEST SWAP2 POP POP SWAP3 POP SWAP3 SWAP1 POP JUMP JUMPDEST PUSH32 0x4E487B7100000000000000000000000000000000000000000000000000000000 PUSH0 MSTORE PUSH1 0x22 PUSH1 0x4 MSTORE PUSH1 0x24 PUSH0 REVERT JUMPDEST PUSH0 PUSH1 0x2 DUP3 DIV SWAP1 POP PUSH1 0x1 DUP3 AND DUP1 PUSH2 0x2E8A JUMPI PUSH1 0x7F DUP3 AND SWAP2 POP JUMPDEST PUSH1 0x20 DUP3 LT DUP2 SUB PUSH2 0x2E9D JUMPI PUSH2 0x2E9C PUSH2 0x2E46 JUMP JUMPDEST JUMPDEST POP SWAP2 SWAP1 POP JUMP JUMPDEST PUSH32 0x7765656B206E6F74207365740000000000000000000000000000000000000000 PUSH0 DUP3 ADD MSTORE POP JUMP JUMPDEST PUSH0 PUSH2 0x2ED7 PUSH1 0xC DUP4 PUSH2 0x267D JUMP JUMPDEST SWAP2 POP PUSH2 0x2EE2 DUP3 PUSH2 0x2EA3 JUMP JUMPDEST PUSH1 0x20 DUP3 ADD SWAP1 POP SWAP2 SWAP1 POP JUMP JUMPDEST PUSH0 PUSH1 0x20 DUP3 ADD SWAP1 POP DUP2 DUP2 SUB PUSH0 DUP4 ADD MSTORE PUSH2 0x2F04 DUP2 PUSH2 0x2ECB JUMP JUMPDEST SWAP1 POP SWAP2 SWAP1 POP JUMP JUMPDEST PUSH32 0x4E487B7100000000000000000000000000000000000000000000000000000000 PUSH0 MSTORE PUSH1 0x11 PUSH1 0x4 MSTORE PUSH1 0x24 PUSH0 REVERT JUMPDEST PUSH0 PUSH2 0x2F42 DUP3 PUSH2 0x271D JUMP JUMPDEST SWAP2 POP PUSH2 0x2F4D DUP4 PUSH2 0x271D JUMP JUMPDEST SWAP3 POP DUP3 DUP3 ADD SWAP1 POP DUP1 DUP3 GT ISZERO PUSH2 0x2F65 JUMPI PUSH2 0x2F64 PUSH2 0x2F0B JUMP JUMPDEST JUMPDEST SWAP3 SWAP2 POP POP JUMP JUMPDEST PUSH0 DUP2 MLOAD SWAP1 POP PUSH2 0x2F79 DUP2 PUSH2 0x2ABF JUMP JUMPDEST SWAP3 SWAP2 POP POP JUMP JUMPDEST PUSH0 PUSH1 0x20 DUP3 DUP5 SUB SLT ISZERO PUSH2 0x2F94 JUMPI PUSH2 0x2F93 PUSH2 0x2560 JUMP JUMPDEST JUMPDEST PUSH0 PUSH2 0x2FA1 DUP5 DUP3 DUP6 ADD PUSH2 0x2F6B JUMP JUMPDEST SWAP2 POP POP SWAP3 SWAP2 POP POP JUMP JUMPDEST PUSH0 PUSH1 0x40 DUP3 ADD SWAP1 POP PUSH2 0x2FBD PUSH0 DUP4 ADD DUP6 PUSH2 0x264B JUMP JUMPDEST PUSH2 0x2FCA PUSH1 0x20 DUP4 ADD DUP5 PUSH2 0x264B JUMP JUMPDEST SWAP4 SWAP3 POP POP POP JUMP JUMPDEST PUSH0 PUSH1 0x60 DUP3 ADD SWAP1 POP PUSH2 0x2FE4 PUSH0 DUP4 ADD DUP7 PUSH2 0x264B JUMP JUMPDEST PUSH2 0x2FF1 PUSH1 0x20 DUP4 ADD DUP6 PUSH2 0x27E3 JUMP JUMPDEST PUSH2 0x2FFE PUSH1 0x40 DUP4 ADD DUP5 PUSH2 0x264B JUMP JUMPDEST SWAP5 SWAP4 POP POP POP POP JUMP JUMPDEST PUSH32 0x4E487B7100000000000000000000000000000000000000000000000000000000 PUSH0 MSTORE PUSH1 0x32 PUSH1 0x4 MSTORE PUSH1 0x24 PUSH0 REVERT JUMPDEST PUSH0 DUP2 SWAP1 POP SWAP2 SWAP1 POP JUMP JUMPDEST PUSH2 0x3045 DUP2 PUSH2 0x3033 JUMP JUMPDEST DUP3 MSTORE POP POP JUMP JUMPDEST PUSH0 PUSH8 0xFFFFFFFFFFFFFFFF DUP3 AND SWAP1 POP SWAP2 SWAP1 POP JUMP JUMPDEST PUSH2 0x3067 DUP2 PUSH2 0x304B JUMP JUMPDEST DUP3 MSTORE POP POP JUMP JUMPDEST PUSH0 PUSH2 0xFFFF DUP3 AND SWAP1 POP SWAP2 SWAP1 POP JUMP JUMPDEST PUSH2 0x3083 DUP2 PUSH2 0x306D JUMP JUMPDEST DUP3 MSTORE POP POP JUMP JUMPDEST PUSH0 PUSH4 0xFFFFFFFF DUP3 AND SWAP1 POP SWAP2 SWAP1 POP JUMP JUMPDEST PUSH2 0x30A1 DUP2 PUSH2 0x3089 JUMP JUMPDEST DUP3 MSTORE POP POP JUMP JUMPDEST PUSH0 PUSH1 0xA0 DUP3 ADD SWAP1 POP PUSH2 0x30BA PUSH0 DUP4 ADD DUP9 PUSH2 0x303C JUMP JUMPDEST PUSH2 0x30C7 PUSH1 0x20 DUP4 ADD DUP8 PUSH2 0x305E JUMP JUMPDEST PUSH2 0x30D4 PUSH1 0x40 DUP4 ADD DUP7 PUSH2 0x307A JUMP JUMPDEST PUSH2 0x30E1 PUSH1 0x60 DUP4 ADD DUP6 PUSH2 0x3098 JUMP JUMPDEST PUSH2 0x30EE PUSH1 0x80 DUP4 ADD DUP5 PUSH2 0x3098 JUMP JUMPDEST SWAP7 SWAP6 POP POP POP POP POP POP JUMP JUMPDEST PUSH0 DUP2 MLOAD SWAP1 POP PUSH2 0x3106 DUP2 PUSH2 0x2726 JUMP JUMPDEST SWAP3 SWAP2 POP POP JUMP JUMPDEST PUSH0 PUSH1 0x20 DUP3 DUP5 SUB SLT ISZERO PUSH2 0x3121 JUMPI PUSH2 0x3120 PUSH2 0x2560 JUMP JUMPDEST JUMPDEST PUSH0 PUSH2 0x312E DUP5 DUP3 DUP6 ADD PUSH2 0x30F8 JUMP JUMPDEST SWAP2 POP POP SWAP3 SWAP2 POP POP JUMP JUMPDEST PUSH0 DUP2 SWAP1 POP SWAP3 SWAP2 POP POP JUMP JUMPDEST PUSH0 PUSH2 0x314B DUP3 PUSH2 0x2673 JUMP JUMPDEST PUSH2 0x3155 DUP2 DUP6 PUSH2 0x3137 JUMP JUMPDEST SWAP4 POP PUSH2 0x3165 DUP2 DUP6 PUSH1 0x20 DUP7 ADD PUSH2 0x268D JUMP JUMPDEST DUP1 DUP5 ADD SWAP2 POP POP SWAP3 SWAP2 POP POP JUMP JUMPDEST PUSH0 PUSH2 0x317C DUP3 DUP6 PUSH2 0x3141 JUMP JUMPDEST SWAP2 POP PUSH2 0x3188 DUP3 DUP5 PUSH2 0x3141 JUMP JUMPDEST SWAP2 POP DUP2 SWAP1 POP SWAP4 SWAP3 POP POP POP JUMP JUMPDEST PUSH32 0x4E487B7100000000000000000000000000000000000000000000000000000000 PUSH0 MSTORE PUSH1 0x12 PUSH1 0x4 MSTORE PUSH1 0x24 PUSH0 REVERT JUMPDEST PUSH0 PUSH2 0x31CB DUP3 PUSH2 0x271D JUMP JUMPDEST SWAP2 POP PUSH2 0x31D6 DUP4 PUSH2 0x271D JUMP JUMPDEST SWAP3 POP DUP3 PUSH2 0x31E6 JUMPI PUSH2 0x31E5 PUSH2 0x3194 JUMP JUMPDEST JUMPDEST DUP3 DUP3 MOD SWAP1 POP SWAP3 SWAP2 POP POP JUMP JUMPDEST PUSH0 PUSH2 0x31FB DUP3 PUSH2 0x271D JUMP JUMPDEST SWAP2 POP PUSH2 0x3206 DUP4 PUSH2 0x271D JUMP JUMPDEST SWAP3 POP DUP3 DUP3 SUB SWAP1 POP DUP2 DUP2 GT ISZERO PUSH2 0x321E JUMPI PUSH2 0x321D PUSH2 0x2F0B JUMP JUMPDEST JUMPDEST SWAP3 SWAP2 POP POP JUMP JUMPDEST PUSH0 PUSH2 0x322E DUP3 PUSH2 0x271D JUMP JUMPDEST SWAP2 POP PUSH32 0xFFFFFFFFFFFFFFFFFFFFFFFFFFFFFFFFFFFFFFFFFFFFFFFFFFFFFFFFFFFFFFFF DUP3 SUB PUSH2 0x3260 JUMPI PUSH2 0x325F PUSH2 0x2F0B JUMP JUMPDEST JUMPDEST PUSH1 0x1 DUP3 ADD SWAP1 POP SWAP2 SWAP1 POP JUMP JUMPDEST PUSH0 DUP2 SLOAD SWAP1 POP PUSH2 0x3279 DUP2 PUSH2 0x2E73 JUMP JUMPDEST SWAP1 POP SWAP2 SWAP1 POP JUMP JUMPDEST PUSH0 DUP2 SWAP1 POP DUP2 PUSH0 MSTORE PUSH1 0x20 PUSH0 KECCAK256 SWAP1 POP SWAP2 SWAP1 POP JUMP JUMPDEST PUSH0 DUP2 SWAP1 POP DUP2 PUSH0 MSTORE PUSH1 0x20 PUSH0 KECCAK256 SWAP1 POP SWAP2 SWAP1 POP JUMP JUMPDEST PUSH0 PUSH1 0x20 PUSH1 0x1F DUP4 ADD DIV SWAP1 POP SWAP2 SWAP1 POP JUMP JUMPDEST PUSH0 DUP3 DUP3 SHL SWAP1 POP SWAP3 SWAP2 POP POP JUMP JUMPDEST PUSH0 PUSH1 0x8 DUP4 MUL PUSH2 0x32EE PUSH32 0xFFFFFFFFFFFFFFFFFFFFFFFFFFFFFFFFFFFFFFFFFFFFFFFFFFFFFFFFFFFFFFFF DUP3 PUSH2 0x32B3 JUMP JUMPDEST PUSH2 0x32F8 DUP7 DUP4 PUSH2 0x32B3 JUMP JUMPDEST SWAP6 POP DUP1 NOT DUP5 AND SWAP4 POP DUP1 DUP7 AND DUP5 OR SWAP3 POP POP POP SWAP4 SWAP3 POP POP POP JUMP JUMPDEST PUSH0 DUP2 SWAP1 POP SWAP2 SWAP1 POP JUMP JUMPDEST PUSH0 PUSH2 0x3333 PUSH2 0x332E PUSH2 0x3329 DUP5 PUSH2 0x271D JUMP JUMPDEST PUSH2 0x3310 JUMP JUMPDEST PUSH2 0x271D JUMP JUMPDEST SWAP1 POP SWAP2 SWAP1 POP JUMP JUMPDEST PUSH0 DUP2 SWAP1 POP SWAP2 SWAP1 POP JUMP JUMPDEST PUSH2 0x334C DUP4 PUSH2 0x3319 JUMP JUMPDEST PUSH2 0x3360 PUSH2 0x3358 DUP3 PUSH2 0x333A JUMP JUMPDEST DUP5 DUP5 SLOAD PUSH2 0x32BF JUMP JUMPDEST DUP3 SSTORE POP POP POP POP JUMP JUMPDEST PUSH0 SWAP1 JUMP JUMPDEST PUSH2 0x3374 PUSH2 0x3368 JUMP JUMPDEST PUSH2 0x337F DUP2 DUP5 DUP5 PUSH2 0x3343 JUMP JUMPDEST POP POP POP JUMP JUMPDEST JUMPDEST DUP2 DUP2 LT ISZERO PUSH2 0x33A2 JUMPI PUSH2 0x3397 PUSH0 DUP3 PUSH2 0x336C JUMP JUMPDEST PUSH1 0x1 DUP2 ADD SWAP1 POP PUSH2 0x3385 JUMP JUMPDEST POP POP JUMP JUMPDEST PUSH1 0x1F DUP3 GT ISZERO PUSH2 0x33E7 JUMPI PUSH2 0x33B8 DUP2 PUSH2 0x3280 JUMP JUMPDEST PUSH2 0x33C1 DUP5 PUSH2 0x32A4 JUMP JUMPDEST DUP2 ADD PUSH1 0x20 DUP6 LT ISZERO PUSH2 0x33D0 JUMPI DUP2 SWAP1 POP JUMPDEST PUSH2 0x33E4 PUSH2 0x33DC DUP6 PUSH2 0x32A4 JUMP JUMPDEST DUP4 ADD DUP3 PUSH2 0x3384 JUMP JUMPDEST POP POP JUMPDEST POP POP POP JUMP JUMPDEST PUSH0 DUP3 DUP3 SHR SWAP1 POP SWAP3 SWAP2 POP POP JUMP JUMPDEST PUSH0 PUSH2 0x3407 PUSH0 NOT DUP5 PUSH1 0x8 MUL PUSH2 0x33EC JUMP JUMPDEST NOT DUP1 DUP4 AND SWAP2 POP POP SWAP3 SWAP2 POP POP JUMP JUMPDEST PUSH0 PUSH2 0x341F DUP4 DUP4 PUSH2 0x33F8 JUMP JUMPDEST SWAP2 POP DUP3 PUSH1 0x2 MUL DUP3 OR SWAP1 POP SWAP3 SWAP2 POP POP JUMP JUMPDEST DUP2 DUP2 SUB PUSH2 0x343D JUMPI POP POP PUSH2 0x3512 JUMP JUMPDEST PUSH2 0x3446 DUP3 PUSH2 0x326B JUMP JUMPDEST PUSH8 0xFFFFFFFFFFFFFFFF DUP2 GT ISZERO PUSH2 0x345F JUMPI PUSH2 0x345E PUSH2 0x280F JUMP JUMPDEST JUMPDEST PUSH2 0x3469 DUP3 SLOAD PUSH2 0x2E73 JUMP JUMPDEST PUSH2 0x3474 DUP3 DUP3 DUP6 PUSH2 0x33A6 JUMP JUMPDEST PUSH0 PUSH1 0x1F DUP4 GT PUSH1 0x1 DUP2 EQ PUSH2 0x34A1 JUMPI PUSH0 DUP5 ISZERO PUSH2 0x348F JUMPI DUP3 DUP8 ADD SLOAD SWAP1 POP JUMPDEST PUSH2 0x3499 DUP6 DUP3 PUSH2 0x3414 JUMP JUMPDEST DUP7 SSTORE POP PUSH2 0x350B JUMP JUMPDEST PUSH1 0x1F NOT DUP5 AND PUSH2 0x34AF DUP8 PUSH2 0x3292 JUMP JUMPDEST SWAP7 POP PUSH2 0x34BA DUP7 PUSH2 0x3280 JUMP JUMPDEST PUSH0 JUMPDEST DUP3 DUP2 LT ISZERO PUSH2 0x34E1 JUMPI DUP5 DUP10 ADD SLOAD DUP3 SSTORE PUSH1 0x1 DUP3 ADD SWAP2 POP PUSH1 0x1 DUP6 ADD SWAP5 POP PUSH1 0x20 DUP2 ADD SWAP1 POP PUSH2 0x34BC JUMP JUMPDEST DUP7 DUP4 LT ISZERO PUSH2 0x34FE JUMPI DUP5 DUP10 ADD SLOAD PUSH2 0x34FA PUSH1 0x1F DUP10 AND DUP3 PUSH2 0x33F8 JUMP JUMPDEST DUP4 SSTORE POP JUMPDEST PUSH1 0x1 PUSH1 0x2 DUP9 MUL ADD DUP9 SSTORE POP POP POP JUMPDEST POP POP POP POP POP POP JUMPDEST JUMP JUMPDEST PUSH2 0x351D DUP3 PUSH2 0x2673 JUMP JUMPDEST PUSH8 0xFFFFFFFFFFFFFFFF DUP2 GT ISZERO PUSH2 0x3536 JUMPI PUSH2 0x3535 PUSH2 0x280F JUMP JUMPDEST JUMPDEST PUSH2 0x3540 DUP3 SLOAD PUSH2 0x2E73 JUMP JUMPDEST PUSH2 0x354B DUP3 DUP3 DUP6 PUSH2 0x33A6 JUMP JUMPDEST PUSH0 PUSH1 0x20 SWAP1 POP PUSH1 0x1F DUP4 GT PUSH1 0x1 DUP2 EQ PUSH2 0x357C JUMPI PUSH0 DUP5 ISZERO PUSH2 0x356A JUMPI DUP3 DUP8 ADD MLOAD SWAP1 POP JUMPDEST PUSH2 0x3574 DUP6 DUP3 PUSH2 0x3414 JUMP JUMPDEST DUP7 SSTORE POP PUSH2 0x35DB JUMP JUMPDEST PUSH1 0x1F NOT DUP5 AND PUSH2 0x358A DUP7 PUSH2 0x3280 JUMP JUMPDEST PUSH0 JUMPDEST DUP3 DUP2 LT ISZERO PUSH2 0x35B1 JUMPI DUP5 DUP10 ADD MLOAD DUP3 SSTORE PUSH1 0x1 DUP3 ADD SWAP2 POP PUSH1 0x20 DUP6 ADD SWAP5 POP PUSH1 0x20 DUP2 ADD SWAP1 POP PUSH2 0x358C JUMP JUMPDEST DUP7 DUP4 LT ISZERO PUSH2 0x35CE JUMPI DUP5 DUP10 ADD MLOAD PUSH2 0x35CA PUSH1 0x1F DUP10 AND DUP3 PUSH2 0x33F8 JUMP JUMPDEST DUP4 SSTORE POP JUMPDEST PUSH1 0x1 PUSH1 0x2 DUP9 MUL ADD DUP9 SSTORE POP POP POP JUMPDEST POP POP POP POP POP POP JUMP JUMPDEST PUSH0 DUP2 SLOAD PUSH2 0x35EF DUP2 PUSH2 0x2E73 JUMP JUMPDEST PUSH2 0x35F9 DUP2 DUP7 PUSH2 0x267D JUMP JUMPDEST SWAP5 POP PUSH1 0x1 DUP3 AND PUSH0 DUP2 EQ PUSH2 0x3613 JUMPI PUSH1 0x1 DUP2 EQ PUSH2 0x3629 JUMPI PUSH2 0x365B JUMP JUMPDEST PUSH1 0xFF NOT DUP4 AND DUP7 MSTORE DUP2 ISZERO ISZERO PUSH1 0x20 MUL DUP7 ADD SWAP4 POP PUSH2 0x365B JUMP JUMPDEST PUSH2 0x3632 DUP6 PUSH2 0x3280 JUMP JUMPDEST PUSH0 JUMPDEST DUP4 DUP2 LT ISZERO PUSH2 0x3653 JUMPI DUP2 SLOAD DUP2 DUP10 ADD MSTORE PUSH1 0x1 DUP3 ADD SWAP2 POP PUSH1 0x20 DUP2 ADD SWAP1 POP PUSH2 0x3634 JUMP JUMPDEST DUP1 DUP9 ADD SWAP6 POP POP POP JUMPDEST POP POP POP SWAP3 SWAP2 POP POP JUMP JUMPDEST PUSH0 PUSH1 0x20 DUP3 ADD SWAP1 POP DUP2 DUP2 SUB PUSH0 DUP4 ADD MSTORE PUSH2 0x367C DUP2 DUP5 PUSH2 0x35E3 JUMP JUMPDEST SWAP1 POP SWAP3 SWAP2 POP POP JUMP JUMPDEST PUSH0 DUP2 MLOAD SWAP1 POP SWAP2 SWAP1 POP JUMP JUMPDEST PUSH0 DUP3 DUP3 MSTORE PUSH1 0x20 DUP3 ADD SWAP1 POP SWAP3 SWAP2 POP POP JUMP JUMPDEST PUSH0 PUSH2 0x36A8 DUP3 PUSH2 0x3684 JUMP JUMPDEST PUSH2 0x36B2 DUP2 DUP6 PUSH2 0x368E JUMP JUMPDEST SWAP4 POP PUSH2 0x36C2 DUP2 DUP6 PUSH1 0x20 DUP7 ADD PUSH2 0x268D JUMP JUMPDEST PUSH2 0x36CB DUP2 PUSH2 0x26B5 JUMP JUMPDEST DUP5 ADD SWAP2 POP POP SWAP3 SWAP2 POP POP JUMP JUMPDEST PUSH0 PUSH1 0x80 DUP3 ADD SWAP1 POP PUSH2 0x36E9 PUSH0 DUP4 ADD DUP8 PUSH2 0x264B JUMP JUMPDEST PUSH2 0x36F6 PUSH1 0x20 DUP4 ADD DUP7 PUSH2 0x264B JUMP JUMPDEST PUSH2 0x3703 PUSH1 0x40 DUP4 ADD DUP6 PUSH2 0x27E3 JUMP JUMPDEST DUP2 DUP2 SUB PUSH1 0x60 DUP4 ADD MSTORE PUSH2 0x3715 DUP2 DUP5 PUSH2 0x369E JUMP JUMPDEST SWAP1 POP SWAP6 SWAP5 POP POP POP POP POP JUMP JUMPDEST PUSH0 DUP2 MLOAD SWAP1 POP PUSH2 0x372E DUP2 PUSH2 0x2593 JUMP JUMPDEST SWAP3 SWAP2 POP POP JUMP JUMPDEST PUSH0 PUSH1 0x20 DUP3 DUP5 SUB SLT ISZERO PUSH2 0x3749 JUMPI PUSH2 0x3748 PUSH2 0x2560 JUMP JUMPDEST JUMPDEST PUSH0 PUSH2 0x3756 DUP5 DUP3 DUP6 ADD PUSH2 0x3720 JUMP JUMPDEST SWAP2 POP POP SWAP3 SWAP2 POP POP JUMP JUMPDEST PUSH0 PUSH2 0x376A DUP3 DUP5 PUSH2 0x3141 JUMP JUMPDEST SWAP2 POP DUP2 SWAP1 POP SWAP3 SWAP2 POP POP JUMP JUMPDEST PUSH0 PUSH1 0x40 DUP3 ADD SWAP1 POP PUSH2 0x3788 PUSH0 DUP4 ADD DUP6 PUSH2 0x264B JUMP JUMPDEST PUSH2 0x3795 PUSH1 0x20 DUP4 ADD DUP5 PUSH2 0x27E3 JUMP JUMPDEST SWAP4 SWAP3 POP POP POP JUMP INVALID LOG2 PUSH5 0x6970667358 0x22 SLT KECCAK256 SWAP16 BALANCE 0xEE PUSH28 0x5E9166F23C94A2EAFC59F091C4A0F280F2F9B1EC399776471FEC59E3 PUSH5 0x736F6C6343 STOP ADDMOD OR STOP CALLER "
    },
    "gasEstimates": {
      "creation": {
        "codeDepositCost": "2858000",
        "executionCost": "infinite",
        "totalCost": "infinite"
      },
      "external": {
        "approve(address,uint256)": "infinite",
        "balanceOf(address)": "infinite",
        "diceContract()": "2577",
        "getApproved(uint256)": "infinite",
        "getCurrentPrompt()": "infinite",
        "getPrompt(uint8)": "infinite",
        "getTotalPromptCount()": "377",
        "isApprovedForAll(address,address)": "infinite",
        "lastTimeStamp()": "2537",
        "lastUpdated()": "2536",
        "mint()": "infinite",
        "name()": "infinite",
        "owner()": "2582",
        "ownerOf(uint256)": "infinite",
        "rawFulfillRandomWords(uint256,uint256[])": "infinite",
        "renounceOwnership()": "infinite",
        "requestPromptUpdate()": "infinite",
        "s_currentPrompt()": "infinite",
        "safeTransferFrom(address,address,uint256)": "infinite",
        "safeTransferFrom(address,address,uint256,bytes)": "infinite",
        "setApprovalForAll(address,bool)": "infinite",
        "setNewTenPrompts(string[10])": "infinite",
        "supportsInterface(bytes4)": "810",
        "symbol()": "infinite",
        "tokenURI(uint256)": "infinite",
        "transferFrom(address,address,uint256)": "infinite",
        "transferOwnership(address)": "infinite",
        "weekNFTs(uint256,uint256)": "infinite",
        "weekNumber()": "2514",
        "weekTimeStamp()": "2515"
      },
      "internal": {
        "encodeTokenId(uint256,uint256)": "44"
      }
    },
    "methodIdentifiers": {
      "approve(address,uint256)": "095ea7b3",
      "balanceOf(address)": "70a08231",
      "diceContract()": "02afe557",
      "getApproved(uint256)": "081812fc",
      "getCurrentPrompt()": "d79d462d",
      "getPrompt(uint8)": "5ccc144e",
      "getTotalPromptCount()": "b58cb23c",
      "isApprovedForAll(address,address)": "e985e9c5",
      "lastTimeStamp()": "3f3b3b27",
      "lastUpdated()": "d0b06f5d",
      "mint()": "1249c58b",
      "name()": "06fdde03",
      "owner()": "8da5cb5b",
      "ownerOf(uint256)": "6352211e",
      "rawFulfillRandomWords(uint256,uint256[])": "1fe543e3",
      "renounceOwnership()": "715018a6",
      "requestPromptUpdate()": "71d345c1",
      "s_currentPrompt()": "74e0bf8a",
      "safeTransferFrom(address,address,uint256)": "42842e0e",
      "safeTransferFrom(address,address,uint256,bytes)": "b88d4fde",
      "setApprovalForAll(address,bool)": "a22cb465",
      "setNewTenPrompts(string[10])": "d5926875",
      "supportsInterface(bytes4)": "01ffc9a7",
      "symbol()": "95d89b41",
      "tokenURI(uint256)": "c87b56dd",
      "transferFrom(address,address,uint256)": "23b872dd",
      "transferOwnership(address)": "f2fde38b",
      "weekNFTs(uint256,uint256)": "341eb719",
      "weekNumber()": "5ef5cc4a",
      "weekTimeStamp()": "112bd169"
    }
  },
  "abi": [
    {
      "inputs": [
        {
          "internalType": "address",
          "name": "new_owner",
          "type": "address"
        },
        {
          "internalType": "address",
          "name": "vrfCoordindatorV2",
          "type": "address"
        },
        {
          "internalType": "address",
          "name": "_diceContract",
          "type": "address"
        },
        {
          "internalType": "bytes32",
          "name": "keyhash",
          "type": "bytes32"
        },
        {
          "internalType": "uint64",
          "name": "subscriptionId",
          "type": "uint64"
        },
        {
          "internalType": "uint32",
          "name": "callbackGasLimit",
          "type": "uint32"
        }
      ],
      "stateMutability": "nonpayable",
      "type": "constructor"
    },
    {
      "inputs": [
        {
          "internalType": "address",
          "name": "sender",
          "type": "address"
        },
        {
          "internalType": "uint256",
          "name": "tokenId",
          "type": "uint256"
        },
        {
          "internalType": "address",
          "name": "owner",
          "type": "address"
        }
      ],
      "name": "ERC721IncorrectOwner",
      "type": "error"
    },
    {
      "inputs": [
        {
          "internalType": "address",
          "name": "operator",
          "type": "address"
        },
        {
          "internalType": "uint256",
          "name": "tokenId",
          "type": "uint256"
        }
      ],
      "name": "ERC721InsufficientApproval",
      "type": "error"
    },
    {
      "inputs": [
        {
          "internalType": "address",
          "name": "approver",
          "type": "address"
        }
      ],
      "name": "ERC721InvalidApprover",
      "type": "error"
    },
    {
      "inputs": [
        {
          "internalType": "address",
          "name": "operator",
          "type": "address"
        }
      ],
      "name": "ERC721InvalidOperator",
      "type": "error"
    },
    {
      "inputs": [
        {
          "internalType": "address",
          "name": "owner",
          "type": "address"
        }
      ],
      "name": "ERC721InvalidOwner",
      "type": "error"
    },
    {
      "inputs": [
        {
          "internalType": "address",
          "name": "receiver",
          "type": "address"
        }
      ],
      "name": "ERC721InvalidReceiver",
      "type": "error"
    },
    {
      "inputs": [
        {
          "internalType": "address",
          "name": "sender",
          "type": "address"
        }
      ],
      "name": "ERC721InvalidSender",
      "type": "error"
    },
    {
      "inputs": [
        {
          "internalType": "uint256",
          "name": "tokenId",
          "type": "uint256"
        }
      ],
      "name": "ERC721NonexistentToken",
      "type": "error"
    },
    {
      "inputs": [
        {
          "internalType": "address",
          "name": "have",
          "type": "address"
        },
        {
          "internalType": "address",
          "name": "want",
          "type": "address"
        }
      ],
      "name": "OnlyCoordinatorCanFulfill",
      "type": "error"
    },
    {
      "inputs": [
        {
          "internalType": "address",
          "name": "owner",
          "type": "address"
        }
      ],
      "name": "OwnableInvalidOwner",
      "type": "error"
    },
    {
      "inputs": [
        {
          "internalType": "address",
          "name": "account",
          "type": "address"
        }
      ],
      "name": "OwnableUnauthorizedAccount",
      "type": "error"
    },
    {
      "inputs": [],
      "name": "TimerExpired",
      "type": "error"
    },
    {
      "anonymous": false,
      "inputs": [
        {
          "indexed": true,
          "internalType": "address",
          "name": "owner",
          "type": "address"
        },
        {
          "indexed": true,
          "internalType": "address",
          "name": "approved",
          "type": "address"
        },
        {
          "indexed": true,
          "internalType": "uint256",
          "name": "tokenId",
          "type": "uint256"
        }
      ],
      "name": "Approval",
      "type": "event"
    },
    {
      "anonymous": false,
      "inputs": [
        {
          "indexed": true,
          "internalType": "address",
          "name": "owner",
          "type": "address"
        },
        {
          "indexed": true,
          "internalType": "address",
          "name": "operator",
          "type": "address"
        },
        {
          "indexed": false,
          "internalType": "bool",
          "name": "approved",
          "type": "bool"
        }
      ],
      "name": "ApprovalForAll",
      "type": "event"
    },
    {
      "anonymous": false,
      "inputs": [
        {
          "indexed": false,
          "internalType": "string",
          "name": "_currentPrompt",
          "type": "string"
        }
      ],
      "name": "CurrentPrompt",
      "type": "event"
    },
    {
      "anonymous": false,
      "inputs": [
        {
          "indexed": true,
          "internalType": "address",
          "name": "previousOwner",
          "type": "address"
        },
        {
          "indexed": true,
          "internalType": "address",
          "name": "newOwner",
          "type": "address"
        }
      ],
      "name": "OwnershipTransferred",
      "type": "event"
    },
    {
      "anonymous": false,
      "inputs": [
        {
          "indexed": true,
          "internalType": "address",
          "name": "from",
          "type": "address"
        },
        {
          "indexed": true,
          "internalType": "address",
          "name": "to",
          "type": "address"
        },
        {
          "indexed": true,
          "internalType": "uint256",
          "name": "tokenId",
          "type": "uint256"
        }
      ],
      "name": "Transfer",
      "type": "event"
    },
    {
      "inputs": [
        {
          "internalType": "address",
          "name": "to",
          "type": "address"
        },
        {
          "internalType": "uint256",
          "name": "tokenId",
          "type": "uint256"
        }
      ],
      "name": "approve",
      "outputs": [],
      "stateMutability": "nonpayable",
      "type": "function"
    },
    {
      "inputs": [
        {
          "internalType": "address",
          "name": "owner",
          "type": "address"
        }
      ],
      "name": "balanceOf",
      "outputs": [
        {
          "internalType": "uint256",
          "name": "",
          "type": "uint256"
        }
      ],
      "stateMutability": "view",
      "type": "function"
    },
    {
      "inputs": [],
      "name": "diceContract",
      "outputs": [
        {
          "internalType": "address",
          "name": "",
          "type": "address"
        }
      ],
      "stateMutability": "view",
      "type": "function"
    },
    {
      "inputs": [
        {
          "internalType": "uint256",
          "name": "tokenId",
          "type": "uint256"
        }
      ],
      "name": "getApproved",
      "outputs": [
        {
          "internalType": "address",
          "name": "",
          "type": "address"
        }
      ],
      "stateMutability": "view",
      "type": "function"
    },
    {
      "inputs": [],
      "name": "getCurrentPrompt",
      "outputs": [
        {
          "internalType": "string",
          "name": "",
          "type": "string"
        }
      ],
      "stateMutability": "view",
      "type": "function"
    },
    {
      "inputs": [
        {
          "internalType": "uint8",
          "name": "index",
          "type": "uint8"
        }
      ],
      "name": "getPrompt",
      "outputs": [
        {
          "internalType": "string",
          "name": "",
          "type": "string"
        }
      ],
      "stateMutability": "view",
      "type": "function"
    },
    {
      "inputs": [],
      "name": "getTotalPromptCount",
      "outputs": [
        {
          "internalType": "uint256",
          "name": "",
          "type": "uint256"
        }
      ],
      "stateMutability": "view",
      "type": "function"
    },
    {
      "inputs": [
        {
          "internalType": "address",
          "name": "owner",
          "type": "address"
        },
        {
          "internalType": "address",
          "name": "operator",
          "type": "address"
        }
      ],
      "name": "isApprovedForAll",
      "outputs": [
        {
          "internalType": "bool",
          "name": "",
          "type": "bool"
        }
      ],
      "stateMutability": "view",
      "type": "function"
    },
    {
      "inputs": [],
      "name": "lastTimeStamp",
      "outputs": [
        {
          "internalType": "uint256",
          "name": "",
          "type": "uint256"
        }
      ],
      "stateMutability": "view",
      "type": "function"
    },
    {
      "inputs": [],
      "name": "lastUpdated",
      "outputs": [
        {
          "internalType": "uint256",
          "name": "",
          "type": "uint256"
        }
      ],
      "stateMutability": "view",
      "type": "function"
    },
    {
      "inputs": [],
      "name": "mint",
      "outputs": [],
      "stateMutability": "nonpayable",
      "type": "function"
    },
    {
      "inputs": [],
      "name": "name",
      "outputs": [
        {
          "internalType": "string",
          "name": "",
          "type": "string"
        }
      ],
      "stateMutability": "view",
      "type": "function"
    },
    {
      "inputs": [],
      "name": "owner",
      "outputs": [
        {
          "internalType": "address",
          "name": "",
          "type": "address"
        }
      ],
      "stateMutability": "view",
      "type": "function"
    },
    {
      "inputs": [
        {
          "internalType": "uint256",
          "name": "tokenId",
          "type": "uint256"
        }
      ],
      "name": "ownerOf",
      "outputs": [
        {
          "internalType": "address",
          "name": "",
          "type": "address"
        }
      ],
      "stateMutability": "view",
      "type": "function"
    },
    {
      "inputs": [
        {
          "internalType": "uint256",
          "name": "requestId",
          "type": "uint256"
        },
        {
          "internalType": "uint256[]",
          "name": "randomWords",
          "type": "uint256[]"
        }
      ],
      "name": "rawFulfillRandomWords",
      "outputs": [],
      "stateMutability": "nonpayable",
      "type": "function"
    },
    {
      "inputs": [],
      "name": "renounceOwnership",
      "outputs": [],
      "stateMutability": "nonpayable",
      "type": "function"
    },
    {
      "inputs": [],
      "name": "requestPromptUpdate",
      "outputs": [
        {
          "internalType": "uint256",
          "name": "requestId",
          "type": "uint256"
        }
      ],
      "stateMutability": "nonpayable",
      "type": "function"
    },
    {
      "inputs": [],
      "name": "s_currentPrompt",
      "outputs": [
        {
          "internalType": "string",
          "name": "",
          "type": "string"
        }
      ],
      "stateMutability": "view",
      "type": "function"
    },
    {
      "inputs": [
        {
          "internalType": "address",
          "name": "from",
          "type": "address"
        },
        {
          "internalType": "address",
          "name": "to",
          "type": "address"
        },
        {
          "internalType": "uint256",
          "name": "tokenId",
          "type": "uint256"
        }
      ],
      "name": "safeTransferFrom",
      "outputs": [],
      "stateMutability": "nonpayable",
      "type": "function"
    },
    {
      "inputs": [
        {
          "internalType": "address",
          "name": "from",
          "type": "address"
        },
        {
          "internalType": "address",
          "name": "to",
          "type": "address"
        },
        {
          "internalType": "uint256",
          "name": "tokenId",
          "type": "uint256"
        },
        {
          "internalType": "bytes",
          "name": "data",
          "type": "bytes"
        }
      ],
      "name": "safeTransferFrom",
      "outputs": [],
      "stateMutability": "nonpayable",
      "type": "function"
    },
    {
      "inputs": [
        {
          "internalType": "address",
          "name": "operator",
          "type": "address"
        },
        {
          "internalType": "bool",
          "name": "approved",
          "type": "bool"
        }
      ],
      "name": "setApprovalForAll",
      "outputs": [],
      "stateMutability": "nonpayable",
      "type": "function"
    },
    {
      "inputs": [
        {
          "internalType": "string[10]",
          "name": "newPrompts",
          "type": "string[10]"
        }
      ],
      "name": "setNewTenPrompts",
      "outputs": [],
      "stateMutability": "nonpayable",
      "type": "function"
    },
    {
      "inputs": [
        {
          "internalType": "bytes4",
          "name": "interfaceId",
          "type": "bytes4"
        }
      ],
      "name": "supportsInterface",
      "outputs": [
        {
          "internalType": "bool",
          "name": "",
          "type": "bool"
        }
      ],
      "stateMutability": "view",
      "type": "function"
    },
    {
      "inputs": [],
      "name": "symbol",
      "outputs": [
        {
          "internalType": "string",
          "name": "",
          "type": "string"
        }
      ],
      "stateMutability": "view",
      "type": "function"
    },
    {
      "inputs": [
        {
          "internalType": "uint256",
          "name": "tokenId",
          "type": "uint256"
        }
      ],
      "name": "tokenURI",
      "outputs": [
        {
          "internalType": "string",
          "name": "",
          "type": "string"
        }
      ],
      "stateMutability": "view",
      "type": "function"
    },
    {
      "inputs": [
        {
          "internalType": "address",
          "name": "from",
          "type": "address"
        },
        {
          "internalType": "address",
          "name": "to",
          "type": "address"
        },
        {
          "internalType": "uint256",
          "name": "tokenId",
          "type": "uint256"
        }
      ],
      "name": "transferFrom",
      "outputs": [],
      "stateMutability": "nonpayable",
      "type": "function"
    },
    {
      "inputs": [
        {
          "internalType": "address",
          "name": "newOwner",
          "type": "address"
        }
      ],
      "name": "transferOwnership",
      "outputs": [],
      "stateMutability": "nonpayable",
      "type": "function"
    },
    {
      "inputs": [
        {
          "internalType": "uint256",
          "name": "",
          "type": "uint256"
        },
        {
          "internalType": "uint256",
          "name": "",
          "type": "uint256"
        }
      ],
      "name": "weekNFTs",
      "outputs": [
        {
          "internalType": "uint256",
          "name": "",
          "type": "uint256"
        }
      ],
      "stateMutability": "view",
      "type": "function"
    },
    {
      "inputs": [],
      "name": "weekNumber",
      "outputs": [
        {
          "internalType": "uint256",
          "name": "",
          "type": "uint256"
        }
      ],
      "stateMutability": "view",
      "type": "function"
    },
    {
      "inputs": [],
      "name": "weekTimeStamp",
      "outputs": [
        {
          "internalType": "uint256",
          "name": "",
          "type": "uint256"
        }
      ],
      "stateMutability": "view",
      "type": "function"
    }
  ]
}